{
	"contracts/auction.sol": {
		"Auction": {
			"abi": [
				{
					"inputs": [],
					"stateMutability": "nonpayable",
					"type": "constructor"
				},
				{
					"stateMutability": "payable",
					"type": "fallback"
				},
				{
					"inputs": [],
					"name": "auctionIsOpen",
					"outputs": [
						{
							"internalType": "enum Auction.State",
							"name": "",
							"type": "uint8"
						}
					],
					"stateMutability": "view",
					"type": "function"
				},
				{
					"inputs": [],
					"name": "auctionStatus",
					"outputs": [
						{
							"internalType": "enum Auction.State",
							"name": "",
							"type": "uint8"
						}
					],
					"stateMutability": "view",
					"type": "function"
				},
				{
					"inputs": [
						{
							"internalType": "address",
							"name": "",
							"type": "address"
						}
					],
					"name": "bids",
					"outputs": [
						{
							"internalType": "uint256",
							"name": "",
							"type": "uint256"
						}
					],
					"stateMutability": "view",
					"type": "function"
				},
				{
					"inputs": [],
					"name": "endAuction",
					"outputs": [],
					"stateMutability": "nonpayable",
					"type": "function"
				},
				{
					"inputs": [],
					"name": "endBlock",
					"outputs": [
						{
							"internalType": "uint256",
							"name": "",
							"type": "uint256"
						}
					],
					"stateMutability": "view",
					"type": "function"
				},
				{
					"inputs": [],
					"name": "getHighestBidder",
					"outputs": [
						{
							"internalType": "address",
							"name": "",
							"type": "address"
						}
					],
					"stateMutability": "view",
					"type": "function"
				},
				{
					"inputs": [],
					"name": "getHighestBindingBid",
					"outputs": [
						{
							"internalType": "uint256",
							"name": "",
							"type": "uint256"
						}
					],
					"stateMutability": "view",
					"type": "function"
				},
				{
					"inputs": [],
					"name": "highestBidder",
					"outputs": [
						{
							"internalType": "address payable",
							"name": "",
							"type": "address"
						}
					],
					"stateMutability": "view",
					"type": "function"
				},
				{
					"inputs": [],
					"name": "highestBindingBid",
					"outputs": [
						{
							"internalType": "uint256",
							"name": "",
							"type": "uint256"
						}
					],
					"stateMutability": "view",
					"type": "function"
				},
				{
					"inputs": [],
					"name": "owner",
					"outputs": [
						{
							"internalType": "address payable",
							"name": "",
							"type": "address"
						}
					],
					"stateMutability": "view",
					"type": "function"
				},
				{
					"inputs": [],
					"name": "start",
					"outputs": [],
					"stateMutability": "nonpayable",
					"type": "function"
				},
				{
					"inputs": [],
					"name": "startBlock",
					"outputs": [
						{
							"internalType": "uint256",
							"name": "",
							"type": "uint256"
						}
					],
					"stateMutability": "view",
					"type": "function"
				},
				{
					"stateMutability": "payable",
					"type": "receive"
				}
			],
			"devdoc": {
				"kind": "dev",
				"methods": {},
				"version": 1
			},
			"evm": {
				"assembly": "    /* \"contracts/auction.sol\":73:1698  contract Auction{\r... */\n  mstore(0x40, 0x80)\n    /* \"contracts/auction.sol\":356:359  100 */\n  0x64\n    /* \"contracts/auction.sol\":336:359  uint bidIncrement = 100 */\n  0x04\n  sstore\n    /* \"contracts/auction.sol\":426:523  constructor(){\r... */\n  callvalue\n  dup1\n  iszero\n  tag_1\n  jumpi\n  0x00\n  dup1\n  revert\ntag_1:\n  pop\n    /* \"contracts/auction.sol\":466:476  msg.sender */\n  caller\n    /* \"contracts/auction.sol\":450:455  owner */\n  0x00\n  dup1\n    /* \"contracts/auction.sol\":450:477  owner = payable(msg.sender) */\n  0x0100\n  exp\n  dup2\n  sload\n  dup2\n  0xffffffffffffffffffffffffffffffffffffffff\n  mul\n  not\n  and\n  swap1\n  dup4\n  0xffffffffffffffffffffffffffffffffffffffff\n  and\n  mul\n  or\n  swap1\n  sstore\n  pop\n    /* \"contracts/auction.sol\":504:515  State.ENDED */\n  0x01\n    /* \"contracts/auction.sol\":488:501  auctionStatus */\n  0x00\n  0x14\n    /* \"contracts/auction.sol\":488:515  auctionStatus = State.ENDED */\n  0x0100\n  exp\n  dup2\n  sload\n  dup2\n  0xff\n  mul\n  not\n  and\n  swap1\n  dup4\n  0x02\n  dup2\n  gt\n  iszero\n  tag_4\n  jumpi\n  tag_5\n  tag_6\n  jump\t// in\ntag_5:\ntag_4:\n  mul\n  or\n  swap1\n  sstore\n  pop\n    /* \"contracts/auction.sol\":73:1698  contract Auction{\r... */\n  jump(tag_7)\n    /* \"#utility.yul\":7:187   */\ntag_6:\n    /* \"#utility.yul\":55:132   */\n  0x4e487b7100000000000000000000000000000000000000000000000000000000\n    /* \"#utility.yul\":52:53   */\n  0x00\n    /* \"#utility.yul\":45:133   */\n  mstore\n    /* \"#utility.yul\":152:156   */\n  0x21\n    /* \"#utility.yul\":149:150   */\n  0x04\n    /* \"#utility.yul\":142:157   */\n  mstore\n    /* \"#utility.yul\":176:180   */\n  0x24\n    /* \"#utility.yul\":173:174   */\n  0x00\n    /* \"#utility.yul\":166:181   */\n  revert\n    /* \"contracts/auction.sol\":73:1698  contract Auction{\r... */\ntag_7:\n  dataSize(sub_0)\n  dup1\n  dataOffset(sub_0)\n  0x00\n  codecopy\n  0x00\n  return\nstop\n\nsub_0: assembly {\n        /* \"contracts/auction.sol\":73:1698  contract Auction{\r... */\n      mstore(0x40, 0x80)\n      jumpi(tag_1, lt(calldatasize, 0x04))\n      shr(0xe0, calldataload(0x00))\n      dup1\n      0x8da5cb5b\n      gt\n      tag_15\n      jumpi\n      dup1\n      0x8da5cb5b\n      eq\n      tag_9\n      jumpi\n      dup1\n      0x91f90157\n      eq\n      tag_10\n      jumpi\n      dup1\n      0x9d6a0f28\n      eq\n      tag_11\n      jumpi\n      dup1\n      0xbe9a6555\n      eq\n      tag_12\n      jumpi\n      dup1\n      0xf5b56c56\n      eq\n      tag_13\n      jumpi\n      dup1\n      0xfe67a54b\n      eq\n      tag_14\n      jumpi\n      jump(tag_2)\n    tag_15:\n      dup1\n      0x3495a4\n      eq\n      tag_3\n      jumpi\n      dup1\n      0x083c6323\n      eq\n      tag_4\n      jumpi\n      dup1\n      0x2b5095b6\n      eq\n      tag_5\n      jumpi\n      dup1\n      0x3046309f\n      eq\n      tag_6\n      jumpi\n      dup1\n      0x48cd4cb1\n      eq\n      tag_7\n      jumpi\n      dup1\n      0x62ea82db\n      eq\n      tag_8\n      jumpi\n      jump(tag_2)\n    tag_1:\n      jumpi(tag_2, calldatasize)\n        /* \"contracts/auction.sol\":595:608  State.RUNNING */\n      0x00\n        /* \"contracts/auction.sol\":576:608  auctionIsOpen() == State.RUNNING */\n      0x02\n      dup2\n      gt\n      iszero\n      tag_18\n      jumpi\n      tag_19\n      tag_20\n      jump\t// in\n    tag_19:\n    tag_18:\n        /* \"contracts/auction.sol\":576:591  auctionIsOpen() */\n      tag_21\n        /* \"contracts/auction.sol\":576:589  auctionIsOpen */\n      tag_22\n        /* \"contracts/auction.sol\":576:591  auctionIsOpen() */\n      jump\t// in\n    tag_21:\n        /* \"contracts/auction.sol\":576:608  auctionIsOpen() == State.RUNNING */\n      0x02\n      dup2\n      gt\n      iszero\n      tag_23\n      jumpi\n      tag_24\n      tag_20\n      jump\t// in\n    tag_24:\n    tag_23:\n      eq\n        /* \"contracts/auction.sol\":568:609  require(auctionIsOpen() == State.RUNNING) */\n      tag_25\n      jumpi\n      0x00\n      dup1\n      revert\n    tag_25:\n        /* \"contracts/auction.sol\":642:647  owner */\n      0x00\n      dup1\n      sload\n      swap1\n      0x0100\n      exp\n      swap1\n      div\n      0xffffffffffffffffffffffffffffffffffffffff\n      and\n        /* \"contracts/auction.sol\":628:647  msg.sender != owner */\n      0xffffffffffffffffffffffffffffffffffffffff\n      and\n        /* \"contracts/auction.sol\":628:638  msg.sender */\n      caller\n        /* \"contracts/auction.sol\":628:647  msg.sender != owner */\n      0xffffffffffffffffffffffffffffffffffffffff\n      and\n      eq\n      iszero\n        /* \"contracts/auction.sol\":620:648  require(msg.sender != owner) */\n      tag_26\n      jumpi\n      0x00\n      dup1\n      revert\n    tag_26:\n        /* \"contracts/auction.sol\":659:688  addBid(msg.sender, msg.value) */\n      tag_27\n        /* \"contracts/auction.sol\":666:676  msg.sender */\n      caller\n        /* \"contracts/auction.sol\":678:687  msg.value */\n      callvalue\n        /* \"contracts/auction.sol\":659:665  addBid */\n      tag_28\n        /* \"contracts/auction.sol\":659:688  addBid(msg.sender, msg.value) */\n      jump\t// in\n    tag_27:\n        /* \"contracts/auction.sol\":73:1698  contract Auction{\r... */\n      stop\n    tag_2:\n        /* \"contracts/auction.sol\":742:750  revert() */\n      0x00\n      dup1\n      revert\n        /* \"contracts/auction.sol\":1037:1103  function getHighestBidder() public view returns(address){\r... */\n    tag_3:\n      callvalue\n      dup1\n      iszero\n      tag_31\n      jumpi\n      0x00\n      dup1\n      revert\n    tag_31:\n      pop\n      tag_32\n      tag_33\n      jump\t// in\n    tag_32:\n      mload(0x40)\n      tag_34\n      swap2\n      swap1\n      tag_35\n      jump\t// in\n    tag_34:\n      mload(0x40)\n      dup1\n      swap2\n      sub\n      swap1\n      return\n        /* \"contracts/auction.sol\":397:417  uint public endBlock */\n    tag_4:\n      callvalue\n      dup1\n      iszero\n      tag_36\n      jumpi\n      0x00\n      dup1\n      revert\n    tag_36:\n      pop\n      tag_37\n      tag_38\n      jump\t// in\n    tag_37:\n      mload(0x40)\n      tag_39\n      swap2\n      swap1\n      tag_40\n      jump\t// in\n    tag_39:\n      mload(0x40)\n      dup1\n      swap2\n      sub\n      swap1\n      return\n        /* \"contracts/auction.sol\":937:1027  function auctionIsOpen() public view returns(State){\r... */\n    tag_5:\n      callvalue\n      dup1\n      iszero\n      tag_41\n      jumpi\n      0x00\n      dup1\n      revert\n    tag_41:\n      pop\n      tag_42\n      tag_22\n      jump\t// in\n    tag_42:\n      mload(0x40)\n      tag_43\n      swap2\n      swap1\n      tag_44\n      jump\t// in\n    tag_43:\n      mload(0x40)\n      dup1\n      swap2\n      sub\n      swap1\n      return\n        /* \"contracts/auction.sol\":1111:1178  function getHighestBindingBid() public view returns(uint){\r... */\n    tag_6:\n      callvalue\n      dup1\n      iszero\n      tag_45\n      jumpi\n      0x00\n      dup1\n      revert\n    tag_45:\n      pop\n      tag_46\n      tag_47\n      jump\t// in\n    tag_46:\n      mload(0x40)\n      tag_48\n      swap2\n      swap1\n      tag_40\n      jump\t// in\n    tag_48:\n      mload(0x40)\n      dup1\n      swap2\n      sub\n      swap1\n      return\n        /* \"contracts/auction.sol\":368:390  uint public startBlock */\n    tag_7:\n      callvalue\n      dup1\n      iszero\n      tag_49\n      jumpi\n      0x00\n      dup1\n      revert\n    tag_49:\n      pop\n      tag_50\n      tag_51\n      jump\t// in\n    tag_50:\n      mload(0x40)\n      tag_52\n      swap2\n      swap1\n      tag_40\n      jump\t// in\n    tag_52:\n      mload(0x40)\n      dup1\n      swap2\n      sub\n      swap1\n      return\n        /* \"contracts/auction.sol\":291:327  mapping(address => uint) public bids */\n    tag_8:\n      callvalue\n      dup1\n      iszero\n      tag_53\n      jumpi\n      0x00\n      dup1\n      revert\n    tag_53:\n      pop\n      tag_54\n      0x04\n      dup1\n      calldatasize\n      sub\n      dup2\n      add\n      swap1\n      tag_55\n      swap2\n      swap1\n      tag_56\n      jump\t// in\n    tag_55:\n      tag_57\n      jump\t// in\n    tag_54:\n      mload(0x40)\n      tag_58\n      swap2\n      swap1\n      tag_40\n      jump\t// in\n    tag_58:\n      mload(0x40)\n      dup1\n      swap2\n      sub\n      swap1\n      return\n        /* \"contracts/auction.sol\":98:126  address payable public owner */\n    tag_9:\n      callvalue\n      dup1\n      iszero\n      tag_59\n      jumpi\n      0x00\n      dup1\n      revert\n    tag_59:\n      pop\n      tag_60\n      tag_61\n      jump\t// in\n    tag_60:\n      mload(0x40)\n      tag_62\n      swap2\n      swap1\n      tag_63\n      jump\t// in\n    tag_62:\n      mload(0x40)\n      dup1\n      swap2\n      sub\n      swap1\n      return\n        /* \"contracts/auction.sol\":246:282  address payable public highestBidder */\n    tag_10:\n      callvalue\n      dup1\n      iszero\n      tag_64\n      jumpi\n      0x00\n      dup1\n      revert\n    tag_64:\n      pop\n      tag_65\n      tag_66\n      jump\t// in\n    tag_65:\n      mload(0x40)\n      tag_67\n      swap2\n      swap1\n      tag_63\n      jump\t// in\n    tag_67:\n      mload(0x40)\n      dup1\n      swap2\n      sub\n      swap1\n      return\n        /* \"contracts/auction.sol\":175:201  State public auctionStatus */\n    tag_11:\n      callvalue\n      dup1\n      iszero\n      tag_68\n      jumpi\n      0x00\n      dup1\n      revert\n    tag_68:\n      pop\n      tag_69\n      tag_70\n      jump\t// in\n    tag_69:\n      mload(0x40)\n      tag_71\n      swap2\n      swap1\n      tag_44\n      jump\t// in\n    tag_71:\n      mload(0x40)\n      dup1\n      swap2\n      sub\n      swap1\n      return\n        /* \"contracts/auction.sol\":1186:1375  function start() public {\r... */\n    tag_12:\n      callvalue\n      dup1\n      iszero\n      tag_72\n      jumpi\n      0x00\n      dup1\n      revert\n    tag_72:\n      pop\n      tag_73\n      tag_74\n      jump\t// in\n    tag_73:\n      stop\n        /* \"contracts/auction.sol\":210:239  uint public highestBindingBid */\n    tag_13:\n      callvalue\n      dup1\n      iszero\n      tag_75\n      jumpi\n      0x00\n      dup1\n      revert\n    tag_75:\n      pop\n      tag_76\n      tag_77\n      jump\t// in\n    tag_76:\n      mload(0x40)\n      tag_78\n      swap2\n      swap1\n      tag_40\n      jump\t// in\n    tag_78:\n      mload(0x40)\n      dup1\n      swap2\n      sub\n      swap1\n      return\n        /* \"contracts/auction.sol\":1383:1695  function endAuction() public{\r... */\n    tag_14:\n      callvalue\n      dup1\n      iszero\n      tag_79\n      jumpi\n      0x00\n      dup1\n      revert\n    tag_79:\n      pop\n      tag_80\n      tag_81\n      jump\t// in\n    tag_80:\n      stop\n        /* \"contracts/auction.sol\":937:1027  function auctionIsOpen() public view returns(State){\r... */\n    tag_22:\n        /* \"contracts/auction.sol\":982:987  State */\n      0x00\n        /* \"contracts/auction.sol\":1006:1019  auctionStatus */\n      dup1\n      0x14\n      swap1\n      sload\n      swap1\n      0x0100\n      exp\n      swap1\n      div\n      0xff\n      and\n        /* \"contracts/auction.sol\":999:1019  return auctionStatus */\n      swap1\n      pop\n        /* \"contracts/auction.sol\":937:1027  function auctionIsOpen() public view returns(State){\r... */\n      swap1\n      jump\t// out\n        /* \"contracts/auction.sol\":766:881  function addBid(address addr, uint bid) internal{\r... */\n    tag_28:\n      pop\n      pop\n      jump\t// out\n        /* \"contracts/auction.sol\":1037:1103  function getHighestBidder() public view returns(address){\r... */\n    tag_33:\n        /* \"contracts/auction.sol\":1085:1092  address */\n      0x00\n        /* \"contracts/auction.sol\":1037:1103  function getHighestBidder() public view returns(address){\r... */\n      swap1\n      jump\t// out\n        /* \"contracts/auction.sol\":397:417  uint public endBlock */\n    tag_38:\n      sload(0x06)\n      dup2\n      jump\t// out\n        /* \"contracts/auction.sol\":1111:1178  function getHighestBindingBid() public view returns(uint){\r... */\n    tag_47:\n        /* \"contracts/auction.sol\":1163:1167  uint */\n      0x00\n        /* \"contracts/auction.sol\":1111:1178  function getHighestBindingBid() public view returns(uint){\r... */\n      swap1\n      jump\t// out\n        /* \"contracts/auction.sol\":368:390  uint public startBlock */\n    tag_51:\n      sload(0x05)\n      dup2\n      jump\t// out\n        /* \"contracts/auction.sol\":291:327  mapping(address => uint) public bids */\n    tag_57:\n      mstore(0x20, 0x03)\n      dup1\n      0x00\n      mstore\n      keccak256(0x00, 0x40)\n      0x00\n      swap2\n      pop\n      swap1\n      pop\n      sload\n      dup2\n      jump\t// out\n        /* \"contracts/auction.sol\":98:126  address payable public owner */\n    tag_61:\n      0x00\n      dup1\n      sload\n      swap1\n      0x0100\n      exp\n      swap1\n      div\n      0xffffffffffffffffffffffffffffffffffffffff\n      and\n      dup2\n      jump\t// out\n        /* \"contracts/auction.sol\":246:282  address payable public highestBidder */\n    tag_66:\n      0x02\n      0x00\n      swap1\n      sload\n      swap1\n      0x0100\n      exp\n      swap1\n      div\n      0xffffffffffffffffffffffffffffffffffffffff\n      and\n      dup2\n      jump\t// out\n        /* \"contracts/auction.sol\":175:201  State public auctionStatus */\n    tag_70:\n      0x00\n      0x14\n      swap1\n      sload\n      swap1\n      0x0100\n      exp\n      swap1\n      div\n      0xff\n      and\n      dup2\n      jump\t// out\n        /* \"contracts/auction.sol\":1186:1375  function start() public {\r... */\n    tag_74:\n        /* \"contracts/auction.sol\":1243:1248  owner */\n      0x00\n      dup1\n      sload\n      swap1\n      0x0100\n      exp\n      swap1\n      div\n      0xffffffffffffffffffffffffffffffffffffffff\n      and\n        /* \"contracts/auction.sol\":1229:1248  msg.sender == owner */\n      0xffffffffffffffffffffffffffffffffffffffff\n      and\n        /* \"contracts/auction.sol\":1229:1239  msg.sender */\n      caller\n        /* \"contracts/auction.sol\":1229:1248  msg.sender == owner */\n      0xffffffffffffffffffffffffffffffffffffffff\n      and\n      eq\n        /* \"contracts/auction.sol\":1221:1249  require(msg.sender == owner) */\n      tag_87\n      jumpi\n      0x00\n      dup1\n      revert\n    tag_87:\n        /* \"contracts/auction.sol\":1287:1300  State.RUNNING */\n      0x00\n        /* \"contracts/auction.sol\":1268:1300  auctionIsOpen() != State.RUNNING */\n      0x02\n      dup2\n      gt\n      iszero\n      tag_88\n      jumpi\n      tag_89\n      tag_20\n      jump\t// in\n    tag_89:\n    tag_88:\n        /* \"contracts/auction.sol\":1268:1283  auctionIsOpen() */\n      tag_90\n        /* \"contracts/auction.sol\":1268:1281  auctionIsOpen */\n      tag_22\n        /* \"contracts/auction.sol\":1268:1283  auctionIsOpen() */\n      jump\t// in\n    tag_90:\n        /* \"contracts/auction.sol\":1268:1300  auctionIsOpen() != State.RUNNING */\n      0x02\n      dup2\n      gt\n      iszero\n      tag_91\n      jumpi\n      tag_92\n      tag_20\n      jump\t// in\n    tag_92:\n    tag_91:\n      eq\n      iszero\n        /* \"contracts/auction.sol\":1260:1301  require(auctionIsOpen() != State.RUNNING) */\n      tag_93\n      jumpi\n      0x00\n      dup1\n      revert\n    tag_93:\n        /* \"contracts/auction.sol\":1330:1343  State.RUNNING */\n      0x00\n        /* \"contracts/auction.sol\":1314:1327  auctionStatus */\n      dup1\n      0x14\n        /* \"contracts/auction.sol\":1314:1343  auctionStatus = State.RUNNING */\n      0x0100\n      exp\n      dup2\n      sload\n      dup2\n      0xff\n      mul\n      not\n      and\n      swap1\n      dup4\n      0x02\n      dup2\n      gt\n      iszero\n      tag_94\n      jumpi\n      tag_95\n      tag_20\n      jump\t// in\n    tag_95:\n    tag_94:\n      mul\n      or\n      swap1\n      sstore\n      pop\n        /* \"contracts/auction.sol\":1186:1375  function start() public {\r... */\n      jump\t// out\n        /* \"contracts/auction.sol\":210:239  uint public highestBindingBid */\n    tag_77:\n      sload(0x01)\n      dup2\n      jump\t// out\n        /* \"contracts/auction.sol\":1383:1695  function endAuction() public{\r... */\n    tag_81:\n        /* \"contracts/auction.sol\":1444:1449  owner */\n      0x00\n      dup1\n      sload\n      swap1\n      0x0100\n      exp\n      swap1\n      div\n      0xffffffffffffffffffffffffffffffffffffffff\n      and\n        /* \"contracts/auction.sol\":1430:1449  msg.sender == owner */\n      0xffffffffffffffffffffffffffffffffffffffff\n      and\n        /* \"contracts/auction.sol\":1430:1440  msg.sender */\n      caller\n        /* \"contracts/auction.sol\":1430:1449  msg.sender == owner */\n      0xffffffffffffffffffffffffffffffffffffffff\n      and\n      eq\n        /* \"contracts/auction.sol\":1422:1450  require(msg.sender == owner) */\n      tag_97\n      jumpi\n      0x00\n      dup1\n      revert\n    tag_97:\n        /* \"contracts/auction.sol\":1488:1501  State.RUNNING */\n      0x00\n        /* \"contracts/auction.sol\":1469:1501  auctionIsOpen() == State.RUNNING */\n      0x02\n      dup2\n      gt\n      iszero\n      tag_98\n      jumpi\n      tag_99\n      tag_20\n      jump\t// in\n    tag_99:\n    tag_98:\n        /* \"contracts/auction.sol\":1469:1484  auctionIsOpen() */\n      tag_100\n        /* \"contracts/auction.sol\":1469:1482  auctionIsOpen */\n      tag_22\n        /* \"contracts/auction.sol\":1469:1484  auctionIsOpen() */\n      jump\t// in\n    tag_100:\n        /* \"contracts/auction.sol\":1469:1501  auctionIsOpen() == State.RUNNING */\n      0x02\n      dup2\n      gt\n      iszero\n      tag_101\n      jumpi\n      tag_102\n      tag_20\n      jump\t// in\n    tag_102:\n    tag_101:\n      eq\n        /* \"contracts/auction.sol\":1461:1502  require(auctionIsOpen() == State.RUNNING) */\n      tag_103\n      jumpi\n      0x00\n      dup1\n      revert\n    tag_103:\n        /* \"contracts/auction.sol\":1539:1550  State.ENDED */\n      0x01\n        /* \"contracts/auction.sol\":1523:1536  auctionStatus */\n      0x00\n      0x14\n        /* \"contracts/auction.sol\":1523:1550  auctionStatus = State.ENDED */\n      0x0100\n      exp\n      dup2\n      sload\n      dup2\n      0xff\n      mul\n      not\n      and\n      swap1\n      dup4\n      0x02\n      dup2\n      gt\n      iszero\n      tag_104\n      jumpi\n      tag_105\n      tag_20\n      jump\t// in\n    tag_105:\n    tag_104:\n      mul\n      or\n      swap1\n      sstore\n      pop\n        /* \"contracts/auction.sol\":1383:1695  function endAuction() public{\r... */\n      jump\t// out\n        /* \"#utility.yul\":7:146   */\n    tag_107:\n        /* \"#utility.yul\":53:58   */\n      0x00\n        /* \"#utility.yul\":91:97   */\n      dup2\n        /* \"#utility.yul\":78:98   */\n      calldataload\n        /* \"#utility.yul\":69:98   */\n      swap1\n      pop\n        /* \"#utility.yul\":107:140   */\n      tag_109\n        /* \"#utility.yul\":134:139   */\n      dup2\n        /* \"#utility.yul\":107:140   */\n      tag_110\n      jump\t// in\n    tag_109:\n        /* \"#utility.yul\":7:146   */\n      swap3\n      swap2\n      pop\n      pop\n      jump\t// out\n        /* \"#utility.yul\":152:481   */\n    tag_56:\n        /* \"#utility.yul\":211:217   */\n      0x00\n        /* \"#utility.yul\":260:262   */\n      0x20\n        /* \"#utility.yul\":248:257   */\n      dup3\n        /* \"#utility.yul\":239:246   */\n      dup5\n        /* \"#utility.yul\":235:258   */\n      sub\n        /* \"#utility.yul\":231:263   */\n      slt\n        /* \"#utility.yul\":228:347   */\n      iszero\n      tag_112\n      jumpi\n        /* \"#utility.yul\":266:345   */\n      tag_113\n      tag_114\n      jump\t// in\n    tag_113:\n        /* \"#utility.yul\":228:347   */\n    tag_112:\n        /* \"#utility.yul\":386:387   */\n      0x00\n        /* \"#utility.yul\":411:464   */\n      tag_115\n        /* \"#utility.yul\":456:463   */\n      dup5\n        /* \"#utility.yul\":447:453   */\n      dup3\n        /* \"#utility.yul\":436:445   */\n      dup6\n        /* \"#utility.yul\":432:454   */\n      add\n        /* \"#utility.yul\":411:464   */\n      tag_107\n      jump\t// in\n    tag_115:\n        /* \"#utility.yul\":401:464   */\n      swap2\n      pop\n        /* \"#utility.yul\":357:474   */\n      pop\n        /* \"#utility.yul\":152:481   */\n      swap3\n      swap2\n      pop\n      pop\n      jump\t// out\n        /* \"#utility.yul\":487:629   */\n    tag_116:\n        /* \"#utility.yul\":590:622   */\n      tag_118\n        /* \"#utility.yul\":616:621   */\n      dup2\n        /* \"#utility.yul\":590:622   */\n      tag_119\n      jump\t// in\n    tag_118:\n        /* \"#utility.yul\":585:588   */\n      dup3\n        /* \"#utility.yul\":578:623   */\n      mstore\n        /* \"#utility.yul\":487:629   */\n      pop\n      pop\n      jump\t// out\n        /* \"#utility.yul\":635:753   */\n    tag_120:\n        /* \"#utility.yul\":722:746   */\n      tag_122\n        /* \"#utility.yul\":740:745   */\n      dup2\n        /* \"#utility.yul\":722:746   */\n      tag_123\n      jump\t// in\n    tag_122:\n        /* \"#utility.yul\":717:720   */\n      dup3\n        /* \"#utility.yul\":710:747   */\n      mstore\n        /* \"#utility.yul\":635:753   */\n      pop\n      pop\n      jump\t// out\n        /* \"#utility.yul\":759:900   */\n    tag_124:\n        /* \"#utility.yul\":851:893   */\n      tag_126\n        /* \"#utility.yul\":887:892   */\n      dup2\n        /* \"#utility.yul\":851:893   */\n      tag_127\n      jump\t// in\n    tag_126:\n        /* \"#utility.yul\":846:849   */\n      dup3\n        /* \"#utility.yul\":839:894   */\n      mstore\n        /* \"#utility.yul\":759:900   */\n      pop\n      pop\n      jump\t// out\n        /* \"#utility.yul\":906:1024   */\n    tag_128:\n        /* \"#utility.yul\":993:1017   */\n      tag_130\n        /* \"#utility.yul\":1011:1016   */\n      dup2\n        /* \"#utility.yul\":993:1017   */\n      tag_131\n      jump\t// in\n    tag_130:\n        /* \"#utility.yul\":988:991   */\n      dup3\n        /* \"#utility.yul\":981:1018   */\n      mstore\n        /* \"#utility.yul\":906:1024   */\n      pop\n      pop\n      jump\t// out\n        /* \"#utility.yul\":1030:1252   */\n    tag_35:\n        /* \"#utility.yul\":1123:1127   */\n      0x00\n        /* \"#utility.yul\":1161:1163   */\n      0x20\n        /* \"#utility.yul\":1150:1159   */\n      dup3\n        /* \"#utility.yul\":1146:1164   */\n      add\n        /* \"#utility.yul\":1138:1164   */\n      swap1\n      pop\n        /* \"#utility.yul\":1174:1245   */\n      tag_133\n        /* \"#utility.yul\":1242:1243   */\n      0x00\n        /* \"#utility.yul\":1231:1240   */\n      dup4\n        /* \"#utility.yul\":1227:1244   */\n      add\n        /* \"#utility.yul\":1218:1224   */\n      dup5\n        /* \"#utility.yul\":1174:1245   */\n      tag_120\n      jump\t// in\n    tag_133:\n        /* \"#utility.yul\":1030:1252   */\n      swap3\n      swap2\n      pop\n      pop\n      jump\t// out\n        /* \"#utility.yul\":1258:1512   */\n    tag_63:\n        /* \"#utility.yul\":1367:1371   */\n      0x00\n        /* \"#utility.yul\":1405:1407   */\n      0x20\n        /* \"#utility.yul\":1394:1403   */\n      dup3\n        /* \"#utility.yul\":1390:1408   */\n      add\n        /* \"#utility.yul\":1382:1408   */\n      swap1\n      pop\n        /* \"#utility.yul\":1418:1505   */\n      tag_135\n        /* \"#utility.yul\":1502:1503   */\n      0x00\n        /* \"#utility.yul\":1491:1500   */\n      dup4\n        /* \"#utility.yul\":1487:1504   */\n      add\n        /* \"#utility.yul\":1478:1484   */\n      dup5\n        /* \"#utility.yul\":1418:1505   */\n      tag_116\n      jump\t// in\n    tag_135:\n        /* \"#utility.yul\":1258:1512   */\n      swap3\n      swap2\n      pop\n      pop\n      jump\t// out\n        /* \"#utility.yul\":1518:1750   */\n    tag_44:\n        /* \"#utility.yul\":1616:1620   */\n      0x00\n        /* \"#utility.yul\":1654:1656   */\n      0x20\n        /* \"#utility.yul\":1643:1652   */\n      dup3\n        /* \"#utility.yul\":1639:1657   */\n      add\n        /* \"#utility.yul\":1631:1657   */\n      swap1\n      pop\n        /* \"#utility.yul\":1667:1743   */\n      tag_137\n        /* \"#utility.yul\":1740:1741   */\n      0x00\n        /* \"#utility.yul\":1729:1738   */\n      dup4\n        /* \"#utility.yul\":1725:1742   */\n      add\n        /* \"#utility.yul\":1716:1722   */\n      dup5\n        /* \"#utility.yul\":1667:1743   */\n      tag_124\n      jump\t// in\n    tag_137:\n        /* \"#utility.yul\":1518:1750   */\n      swap3\n      swap2\n      pop\n      pop\n      jump\t// out\n        /* \"#utility.yul\":1756:1978   */\n    tag_40:\n        /* \"#utility.yul\":1849:1853   */\n      0x00\n        /* \"#utility.yul\":1887:1889   */\n      0x20\n        /* \"#utility.yul\":1876:1885   */\n      dup3\n        /* \"#utility.yul\":1872:1890   */\n      add\n        /* \"#utility.yul\":1864:1890   */\n      swap1\n      pop\n        /* \"#utility.yul\":1900:1971   */\n      tag_139\n        /* \"#utility.yul\":1968:1969   */\n      0x00\n        /* \"#utility.yul\":1957:1966   */\n      dup4\n        /* \"#utility.yul\":1953:1970   */\n      add\n        /* \"#utility.yul\":1944:1950   */\n      dup5\n        /* \"#utility.yul\":1900:1971   */\n      tag_128\n      jump\t// in\n    tag_139:\n        /* \"#utility.yul\":1756:1978   */\n      swap3\n      swap2\n      pop\n      pop\n      jump\t// out\n        /* \"#utility.yul\":2065:2161   */\n    tag_123:\n        /* \"#utility.yul\":2102:2109   */\n      0x00\n        /* \"#utility.yul\":2131:2155   */\n      tag_143\n        /* \"#utility.yul\":2149:2154   */\n      dup3\n        /* \"#utility.yul\":2131:2155   */\n      tag_144\n      jump\t// in\n    tag_143:\n        /* \"#utility.yul\":2120:2155   */\n      swap1\n      pop\n        /* \"#utility.yul\":2065:2161   */\n      swap2\n      swap1\n      pop\n      jump\t// out\n        /* \"#utility.yul\":2167:2271   */\n    tag_119:\n        /* \"#utility.yul\":2212:2219   */\n      0x00\n        /* \"#utility.yul\":2241:2265   */\n      tag_146\n        /* \"#utility.yul\":2259:2264   */\n      dup3\n        /* \"#utility.yul\":2241:2265   */\n      tag_144\n      jump\t// in\n    tag_146:\n        /* \"#utility.yul\":2230:2265   */\n      swap1\n      pop\n        /* \"#utility.yul\":2167:2271   */\n      swap2\n      swap1\n      pop\n      jump\t// out\n        /* \"#utility.yul\":2277:2402   */\n    tag_147:\n        /* \"#utility.yul\":2321:2328   */\n      0x00\n        /* \"#utility.yul\":2350:2355   */\n      dup2\n        /* \"#utility.yul\":2339:2355   */\n      swap1\n      pop\n        /* \"#utility.yul\":2356:2396   */\n      tag_149\n        /* \"#utility.yul\":2390:2395   */\n      dup3\n        /* \"#utility.yul\":2356:2396   */\n      tag_150\n      jump\t// in\n    tag_149:\n        /* \"#utility.yul\":2277:2402   */\n      swap2\n      swap1\n      pop\n      jump\t// out\n        /* \"#utility.yul\":2408:2534   */\n    tag_144:\n        /* \"#utility.yul\":2445:2452   */\n      0x00\n        /* \"#utility.yul\":2485:2527   */\n      0xffffffffffffffffffffffffffffffffffffffff\n        /* \"#utility.yul\":2478:2483   */\n      dup3\n        /* \"#utility.yul\":2474:2528   */\n      and\n        /* \"#utility.yul\":2463:2528   */\n      swap1\n      pop\n        /* \"#utility.yul\":2408:2534   */\n      swap2\n      swap1\n      pop\n      jump\t// out\n        /* \"#utility.yul\":2540:2617   */\n    tag_131:\n        /* \"#utility.yul\":2577:2584   */\n      0x00\n        /* \"#utility.yul\":2606:2611   */\n      dup2\n        /* \"#utility.yul\":2595:2611   */\n      swap1\n      pop\n        /* \"#utility.yul\":2540:2617   */\n      swap2\n      swap1\n      pop\n      jump\t// out\n        /* \"#utility.yul\":2623:2748   */\n    tag_127:\n        /* \"#utility.yul\":2678:2687   */\n      0x00\n        /* \"#utility.yul\":2711:2742   */\n      tag_154\n        /* \"#utility.yul\":2736:2741   */\n      dup3\n        /* \"#utility.yul\":2711:2742   */\n      tag_147\n      jump\t// in\n    tag_154:\n        /* \"#utility.yul\":2698:2742   */\n      swap1\n      pop\n        /* \"#utility.yul\":2623:2748   */\n      swap2\n      swap1\n      pop\n      jump\t// out\n        /* \"#utility.yul\":2754:2934   */\n    tag_20:\n        /* \"#utility.yul\":2802:2879   */\n      0x4e487b7100000000000000000000000000000000000000000000000000000000\n        /* \"#utility.yul\":2799:2800   */\n      0x00\n        /* \"#utility.yul\":2792:2880   */\n      mstore\n        /* \"#utility.yul\":2899:2903   */\n      0x21\n        /* \"#utility.yul\":2896:2897   */\n      0x04\n        /* \"#utility.yul\":2889:2904   */\n      mstore\n        /* \"#utility.yul\":2923:2927   */\n      0x24\n        /* \"#utility.yul\":2920:2921   */\n      0x00\n        /* \"#utility.yul\":2913:2928   */\n      revert\n        /* \"#utility.yul\":3063:3180   */\n    tag_114:\n        /* \"#utility.yul\":3172:3173   */\n      0x00\n        /* \"#utility.yul\":3169:3170   */\n      dup1\n        /* \"#utility.yul\":3162:3174   */\n      revert\n        /* \"#utility.yul\":3186:3298   */\n    tag_150:\n        /* \"#utility.yul\":3266:3267   */\n      0x03\n        /* \"#utility.yul\":3259:3264   */\n      dup2\n        /* \"#utility.yul\":3256:3268   */\n      lt\n        /* \"#utility.yul\":3246:3292   */\n      tag_160\n      jumpi\n        /* \"#utility.yul\":3272:3290   */\n      tag_161\n      tag_20\n      jump\t// in\n    tag_161:\n        /* \"#utility.yul\":3246:3292   */\n    tag_160:\n        /* \"#utility.yul\":3186:3298   */\n      pop\n      jump\t// out\n        /* \"#utility.yul\":3304:3426   */\n    tag_110:\n        /* \"#utility.yul\":3377:3401   */\n      tag_163\n        /* \"#utility.yul\":3395:3400   */\n      dup2\n        /* \"#utility.yul\":3377:3401   */\n      tag_123\n      jump\t// in\n    tag_163:\n        /* \"#utility.yul\":3370:3375   */\n      dup2\n        /* \"#utility.yul\":3367:3402   */\n      eq\n        /* \"#utility.yul\":3357:3420   */\n      tag_164\n      jumpi\n        /* \"#utility.yul\":3416:3417   */\n      0x00\n        /* \"#utility.yul\":3413:3414   */\n      dup1\n        /* \"#utility.yul\":3406:3418   */\n      revert\n        /* \"#utility.yul\":3357:3420   */\n    tag_164:\n        /* \"#utility.yul\":3304:3426   */\n      pop\n      jump\t// out\n\n    auxdata: 0xa26469706673582212200f0f7885d00a17bb13e135d157ba4ff8e723b2a90ba42b38f2392df1fd9dab4d64736f6c63430008070033\n}\n",
				"bytecode": {
					"linkReferences": {},
					"object": "6080604052606460045534801561001557600080fd5b50336000806101000a81548173ffffffffffffffffffffffffffffffffffffffff021916908373ffffffffffffffffffffffffffffffffffffffff1602179055506001600060146101000a81548160ff0219169083600281111561007c5761007b610086565b5b02179055506100b5565b7f4e487b7100000000000000000000000000000000000000000000000000000000600052602160045260246000fd5b610756806100c46000396000f3fe6080604052600436106100aa5760003560e01c80638da5cb5b116100645780638da5cb5b1461026557806391f90157146102905780639d6a0f28146102bb578063be9a6555146102e6578063f5b56c56146102fd578063fe67a54b146103285761014c565b80623495a414610151578063083c63231461017c5780632b5095b6146101a75780633046309f146101d257806348cd4cb1146101fd57806362ea82db146102285761014c565b3661014c57600060028111156100c3576100c26106c1565b5b6100cb61033f565b60028111156100dd576100dc6106c1565b5b146100e757600080fd5b60008054906101000a900473ffffffffffffffffffffffffffffffffffffffff1673ffffffffffffffffffffffffffffffffffffffff163373ffffffffffffffffffffffffffffffffffffffff16141561014057600080fd5b61014a3334610355565b005b600080fd5b34801561015d57600080fd5b50610166610359565b60405161017391906105e2565b60405180910390f35b34801561018857600080fd5b5061019161035e565b60405161019e9190610633565b60405180910390f35b3480156101b357600080fd5b506101bc61033f565b6040516101c99190610618565b60405180910390f35b3480156101de57600080fd5b506101e7610364565b6040516101f49190610633565b60405180910390f35b34801561020957600080fd5b50610212610369565b60405161021f9190610633565b60405180910390f35b34801561023457600080fd5b5061024f600480360381019061024a9190610579565b61036f565b60405161025c9190610633565b60405180910390f35b34801561027157600080fd5b5061027a610387565b60405161028791906105fd565b60405180910390f35b34801561029c57600080fd5b506102a56103ab565b6040516102b291906105fd565b60405180910390f35b3480156102c757600080fd5b506102d06103d1565b6040516102dd9190610618565b60405180910390f35b3480156102f257600080fd5b506102fb6103e4565b005b34801561030957600080fd5b506103126104a1565b60405161031f9190610633565b60405180910390f35b34801561033457600080fd5b5061033d6104a7565b005b60008060149054906101000a900460ff16905090565b5050565b600090565b60065481565b600090565b60055481565b60036020528060005260406000206000915090505481565b60008054906101000a900473ffffffffffffffffffffffffffffffffffffffff1681565b600260009054906101000a900473ffffffffffffffffffffffffffffffffffffffff1681565b600060149054906101000a900460ff1681565b60008054906101000a900473ffffffffffffffffffffffffffffffffffffffff1673ffffffffffffffffffffffffffffffffffffffff163373ffffffffffffffffffffffffffffffffffffffff161461043c57600080fd5b600060028111156104505761044f6106c1565b5b61045861033f565b600281111561046a576104696106c1565b5b141561047557600080fd5b60008060146101000a81548160ff0219169083600281111561049a576104996106c1565b5b0217905550565b60015481565b60008054906101000a900473ffffffffffffffffffffffffffffffffffffffff1673ffffffffffffffffffffffffffffffffffffffff163373ffffffffffffffffffffffffffffffffffffffff16146104ff57600080fd5b60006002811115610513576105126106c1565b5b61051b61033f565b600281111561052d5761052c6106c1565b5b1461053757600080fd5b6001600060146101000a81548160ff0219169083600281111561055d5761055c6106c1565b5b0217905550565b60008135905061057381610709565b92915050565b60006020828403121561058f5761058e6106f0565b5b600061059d84828501610564565b91505092915050565b6105af81610660565b82525050565b6105be8161064e565b82525050565b6105cd816106af565b82525050565b6105dc816106a5565b82525050565b60006020820190506105f760008301846105b5565b92915050565b600060208201905061061260008301846105a6565b92915050565b600060208201905061062d60008301846105c4565b92915050565b600060208201905061064860008301846105d3565b92915050565b600061065982610685565b9050919050565b600061066b82610685565b9050919050565b6000819050610680826106f5565b919050565b600073ffffffffffffffffffffffffffffffffffffffff82169050919050565b6000819050919050565b60006106ba82610672565b9050919050565b7f4e487b7100000000000000000000000000000000000000000000000000000000600052602160045260246000fd5b600080fd5b60038110610706576107056106c1565b5b50565b6107128161064e565b811461071d57600080fd5b5056fea26469706673582212200f0f7885d00a17bb13e135d157ba4ff8e723b2a90ba42b38f2392df1fd9dab4d64736f6c63430008070033",
					"opcodes": "PUSH1 0x80 PUSH1 0x40 MSTORE PUSH1 0x64 PUSH1 0x4 SSTORE CALLVALUE DUP1 ISZERO PUSH2 0x15 JUMPI PUSH1 0x0 DUP1 REVERT JUMPDEST POP CALLER PUSH1 0x0 DUP1 PUSH2 0x100 EXP DUP2 SLOAD DUP2 PUSH20 0xFFFFFFFFFFFFFFFFFFFFFFFFFFFFFFFFFFFFFFFF MUL NOT AND SWAP1 DUP4 PUSH20 0xFFFFFFFFFFFFFFFFFFFFFFFFFFFFFFFFFFFFFFFF AND MUL OR SWAP1 SSTORE POP PUSH1 0x1 PUSH1 0x0 PUSH1 0x14 PUSH2 0x100 EXP DUP2 SLOAD DUP2 PUSH1 0xFF MUL NOT AND SWAP1 DUP4 PUSH1 0x2 DUP2 GT ISZERO PUSH2 0x7C JUMPI PUSH2 0x7B PUSH2 0x86 JUMP JUMPDEST JUMPDEST MUL OR SWAP1 SSTORE POP PUSH2 0xB5 JUMP JUMPDEST PUSH32 0x4E487B7100000000000000000000000000000000000000000000000000000000 PUSH1 0x0 MSTORE PUSH1 0x21 PUSH1 0x4 MSTORE PUSH1 0x24 PUSH1 0x0 REVERT JUMPDEST PUSH2 0x756 DUP1 PUSH2 0xC4 PUSH1 0x0 CODECOPY PUSH1 0x0 RETURN INVALID PUSH1 0x80 PUSH1 0x40 MSTORE PUSH1 0x4 CALLDATASIZE LT PUSH2 0xAA JUMPI PUSH1 0x0 CALLDATALOAD PUSH1 0xE0 SHR DUP1 PUSH4 0x8DA5CB5B GT PUSH2 0x64 JUMPI DUP1 PUSH4 0x8DA5CB5B EQ PUSH2 0x265 JUMPI DUP1 PUSH4 0x91F90157 EQ PUSH2 0x290 JUMPI DUP1 PUSH4 0x9D6A0F28 EQ PUSH2 0x2BB JUMPI DUP1 PUSH4 0xBE9A6555 EQ PUSH2 0x2E6 JUMPI DUP1 PUSH4 0xF5B56C56 EQ PUSH2 0x2FD JUMPI DUP1 PUSH4 0xFE67A54B EQ PUSH2 0x328 JUMPI PUSH2 0x14C JUMP JUMPDEST DUP1 PUSH3 0x3495A4 EQ PUSH2 0x151 JUMPI DUP1 PUSH4 0x83C6323 EQ PUSH2 0x17C JUMPI DUP1 PUSH4 0x2B5095B6 EQ PUSH2 0x1A7 JUMPI DUP1 PUSH4 0x3046309F EQ PUSH2 0x1D2 JUMPI DUP1 PUSH4 0x48CD4CB1 EQ PUSH2 0x1FD JUMPI DUP1 PUSH4 0x62EA82DB EQ PUSH2 0x228 JUMPI PUSH2 0x14C JUMP JUMPDEST CALLDATASIZE PUSH2 0x14C JUMPI PUSH1 0x0 PUSH1 0x2 DUP2 GT ISZERO PUSH2 0xC3 JUMPI PUSH2 0xC2 PUSH2 0x6C1 JUMP JUMPDEST JUMPDEST PUSH2 0xCB PUSH2 0x33F JUMP JUMPDEST PUSH1 0x2 DUP2 GT ISZERO PUSH2 0xDD JUMPI PUSH2 0xDC PUSH2 0x6C1 JUMP JUMPDEST JUMPDEST EQ PUSH2 0xE7 JUMPI PUSH1 0x0 DUP1 REVERT JUMPDEST PUSH1 0x0 DUP1 SLOAD SWAP1 PUSH2 0x100 EXP SWAP1 DIV PUSH20 0xFFFFFFFFFFFFFFFFFFFFFFFFFFFFFFFFFFFFFFFF AND PUSH20 0xFFFFFFFFFFFFFFFFFFFFFFFFFFFFFFFFFFFFFFFF AND CALLER PUSH20 0xFFFFFFFFFFFFFFFFFFFFFFFFFFFFFFFFFFFFFFFF AND EQ ISZERO PUSH2 0x140 JUMPI PUSH1 0x0 DUP1 REVERT JUMPDEST PUSH2 0x14A CALLER CALLVALUE PUSH2 0x355 JUMP JUMPDEST STOP JUMPDEST PUSH1 0x0 DUP1 REVERT JUMPDEST CALLVALUE DUP1 ISZERO PUSH2 0x15D JUMPI PUSH1 0x0 DUP1 REVERT JUMPDEST POP PUSH2 0x166 PUSH2 0x359 JUMP JUMPDEST PUSH1 0x40 MLOAD PUSH2 0x173 SWAP2 SWAP1 PUSH2 0x5E2 JUMP JUMPDEST PUSH1 0x40 MLOAD DUP1 SWAP2 SUB SWAP1 RETURN JUMPDEST CALLVALUE DUP1 ISZERO PUSH2 0x188 JUMPI PUSH1 0x0 DUP1 REVERT JUMPDEST POP PUSH2 0x191 PUSH2 0x35E JUMP JUMPDEST PUSH1 0x40 MLOAD PUSH2 0x19E SWAP2 SWAP1 PUSH2 0x633 JUMP JUMPDEST PUSH1 0x40 MLOAD DUP1 SWAP2 SUB SWAP1 RETURN JUMPDEST CALLVALUE DUP1 ISZERO PUSH2 0x1B3 JUMPI PUSH1 0x0 DUP1 REVERT JUMPDEST POP PUSH2 0x1BC PUSH2 0x33F JUMP JUMPDEST PUSH1 0x40 MLOAD PUSH2 0x1C9 SWAP2 SWAP1 PUSH2 0x618 JUMP JUMPDEST PUSH1 0x40 MLOAD DUP1 SWAP2 SUB SWAP1 RETURN JUMPDEST CALLVALUE DUP1 ISZERO PUSH2 0x1DE JUMPI PUSH1 0x0 DUP1 REVERT JUMPDEST POP PUSH2 0x1E7 PUSH2 0x364 JUMP JUMPDEST PUSH1 0x40 MLOAD PUSH2 0x1F4 SWAP2 SWAP1 PUSH2 0x633 JUMP JUMPDEST PUSH1 0x40 MLOAD DUP1 SWAP2 SUB SWAP1 RETURN JUMPDEST CALLVALUE DUP1 ISZERO PUSH2 0x209 JUMPI PUSH1 0x0 DUP1 REVERT JUMPDEST POP PUSH2 0x212 PUSH2 0x369 JUMP JUMPDEST PUSH1 0x40 MLOAD PUSH2 0x21F SWAP2 SWAP1 PUSH2 0x633 JUMP JUMPDEST PUSH1 0x40 MLOAD DUP1 SWAP2 SUB SWAP1 RETURN JUMPDEST CALLVALUE DUP1 ISZERO PUSH2 0x234 JUMPI PUSH1 0x0 DUP1 REVERT JUMPDEST POP PUSH2 0x24F PUSH1 0x4 DUP1 CALLDATASIZE SUB DUP2 ADD SWAP1 PUSH2 0x24A SWAP2 SWAP1 PUSH2 0x579 JUMP JUMPDEST PUSH2 0x36F JUMP JUMPDEST PUSH1 0x40 MLOAD PUSH2 0x25C SWAP2 SWAP1 PUSH2 0x633 JUMP JUMPDEST PUSH1 0x40 MLOAD DUP1 SWAP2 SUB SWAP1 RETURN JUMPDEST CALLVALUE DUP1 ISZERO PUSH2 0x271 JUMPI PUSH1 0x0 DUP1 REVERT JUMPDEST POP PUSH2 0x27A PUSH2 0x387 JUMP JUMPDEST PUSH1 0x40 MLOAD PUSH2 0x287 SWAP2 SWAP1 PUSH2 0x5FD JUMP JUMPDEST PUSH1 0x40 MLOAD DUP1 SWAP2 SUB SWAP1 RETURN JUMPDEST CALLVALUE DUP1 ISZERO PUSH2 0x29C JUMPI PUSH1 0x0 DUP1 REVERT JUMPDEST POP PUSH2 0x2A5 PUSH2 0x3AB JUMP JUMPDEST PUSH1 0x40 MLOAD PUSH2 0x2B2 SWAP2 SWAP1 PUSH2 0x5FD JUMP JUMPDEST PUSH1 0x40 MLOAD DUP1 SWAP2 SUB SWAP1 RETURN JUMPDEST CALLVALUE DUP1 ISZERO PUSH2 0x2C7 JUMPI PUSH1 0x0 DUP1 REVERT JUMPDEST POP PUSH2 0x2D0 PUSH2 0x3D1 JUMP JUMPDEST PUSH1 0x40 MLOAD PUSH2 0x2DD SWAP2 SWAP1 PUSH2 0x618 JUMP JUMPDEST PUSH1 0x40 MLOAD DUP1 SWAP2 SUB SWAP1 RETURN JUMPDEST CALLVALUE DUP1 ISZERO PUSH2 0x2F2 JUMPI PUSH1 0x0 DUP1 REVERT JUMPDEST POP PUSH2 0x2FB PUSH2 0x3E4 JUMP JUMPDEST STOP JUMPDEST CALLVALUE DUP1 ISZERO PUSH2 0x309 JUMPI PUSH1 0x0 DUP1 REVERT JUMPDEST POP PUSH2 0x312 PUSH2 0x4A1 JUMP JUMPDEST PUSH1 0x40 MLOAD PUSH2 0x31F SWAP2 SWAP1 PUSH2 0x633 JUMP JUMPDEST PUSH1 0x40 MLOAD DUP1 SWAP2 SUB SWAP1 RETURN JUMPDEST CALLVALUE DUP1 ISZERO PUSH2 0x334 JUMPI PUSH1 0x0 DUP1 REVERT JUMPDEST POP PUSH2 0x33D PUSH2 0x4A7 JUMP JUMPDEST STOP JUMPDEST PUSH1 0x0 DUP1 PUSH1 0x14 SWAP1 SLOAD SWAP1 PUSH2 0x100 EXP SWAP1 DIV PUSH1 0xFF AND SWAP1 POP SWAP1 JUMP JUMPDEST POP POP JUMP JUMPDEST PUSH1 0x0 SWAP1 JUMP JUMPDEST PUSH1 0x6 SLOAD DUP2 JUMP JUMPDEST PUSH1 0x0 SWAP1 JUMP JUMPDEST PUSH1 0x5 SLOAD DUP2 JUMP JUMPDEST PUSH1 0x3 PUSH1 0x20 MSTORE DUP1 PUSH1 0x0 MSTORE PUSH1 0x40 PUSH1 0x0 KECCAK256 PUSH1 0x0 SWAP2 POP SWAP1 POP SLOAD DUP2 JUMP JUMPDEST PUSH1 0x0 DUP1 SLOAD SWAP1 PUSH2 0x100 EXP SWAP1 DIV PUSH20 0xFFFFFFFFFFFFFFFFFFFFFFFFFFFFFFFFFFFFFFFF AND DUP2 JUMP JUMPDEST PUSH1 0x2 PUSH1 0x0 SWAP1 SLOAD SWAP1 PUSH2 0x100 EXP SWAP1 DIV PUSH20 0xFFFFFFFFFFFFFFFFFFFFFFFFFFFFFFFFFFFFFFFF AND DUP2 JUMP JUMPDEST PUSH1 0x0 PUSH1 0x14 SWAP1 SLOAD SWAP1 PUSH2 0x100 EXP SWAP1 DIV PUSH1 0xFF AND DUP2 JUMP JUMPDEST PUSH1 0x0 DUP1 SLOAD SWAP1 PUSH2 0x100 EXP SWAP1 DIV PUSH20 0xFFFFFFFFFFFFFFFFFFFFFFFFFFFFFFFFFFFFFFFF AND PUSH20 0xFFFFFFFFFFFFFFFFFFFFFFFFFFFFFFFFFFFFFFFF AND CALLER PUSH20 0xFFFFFFFFFFFFFFFFFFFFFFFFFFFFFFFFFFFFFFFF AND EQ PUSH2 0x43C JUMPI PUSH1 0x0 DUP1 REVERT JUMPDEST PUSH1 0x0 PUSH1 0x2 DUP2 GT ISZERO PUSH2 0x450 JUMPI PUSH2 0x44F PUSH2 0x6C1 JUMP JUMPDEST JUMPDEST PUSH2 0x458 PUSH2 0x33F JUMP JUMPDEST PUSH1 0x2 DUP2 GT ISZERO PUSH2 0x46A JUMPI PUSH2 0x469 PUSH2 0x6C1 JUMP JUMPDEST JUMPDEST EQ ISZERO PUSH2 0x475 JUMPI PUSH1 0x0 DUP1 REVERT JUMPDEST PUSH1 0x0 DUP1 PUSH1 0x14 PUSH2 0x100 EXP DUP2 SLOAD DUP2 PUSH1 0xFF MUL NOT AND SWAP1 DUP4 PUSH1 0x2 DUP2 GT ISZERO PUSH2 0x49A JUMPI PUSH2 0x499 PUSH2 0x6C1 JUMP JUMPDEST JUMPDEST MUL OR SWAP1 SSTORE POP JUMP JUMPDEST PUSH1 0x1 SLOAD DUP2 JUMP JUMPDEST PUSH1 0x0 DUP1 SLOAD SWAP1 PUSH2 0x100 EXP SWAP1 DIV PUSH20 0xFFFFFFFFFFFFFFFFFFFFFFFFFFFFFFFFFFFFFFFF AND PUSH20 0xFFFFFFFFFFFFFFFFFFFFFFFFFFFFFFFFFFFFFFFF AND CALLER PUSH20 0xFFFFFFFFFFFFFFFFFFFFFFFFFFFFFFFFFFFFFFFF AND EQ PUSH2 0x4FF JUMPI PUSH1 0x0 DUP1 REVERT JUMPDEST PUSH1 0x0 PUSH1 0x2 DUP2 GT ISZERO PUSH2 0x513 JUMPI PUSH2 0x512 PUSH2 0x6C1 JUMP JUMPDEST JUMPDEST PUSH2 0x51B PUSH2 0x33F JUMP JUMPDEST PUSH1 0x2 DUP2 GT ISZERO PUSH2 0x52D JUMPI PUSH2 0x52C PUSH2 0x6C1 JUMP JUMPDEST JUMPDEST EQ PUSH2 0x537 JUMPI PUSH1 0x0 DUP1 REVERT JUMPDEST PUSH1 0x1 PUSH1 0x0 PUSH1 0x14 PUSH2 0x100 EXP DUP2 SLOAD DUP2 PUSH1 0xFF MUL NOT AND SWAP1 DUP4 PUSH1 0x2 DUP2 GT ISZERO PUSH2 0x55D JUMPI PUSH2 0x55C PUSH2 0x6C1 JUMP JUMPDEST JUMPDEST MUL OR SWAP1 SSTORE POP JUMP JUMPDEST PUSH1 0x0 DUP2 CALLDATALOAD SWAP1 POP PUSH2 0x573 DUP2 PUSH2 0x709 JUMP JUMPDEST SWAP3 SWAP2 POP POP JUMP JUMPDEST PUSH1 0x0 PUSH1 0x20 DUP3 DUP5 SUB SLT ISZERO PUSH2 0x58F JUMPI PUSH2 0x58E PUSH2 0x6F0 JUMP JUMPDEST JUMPDEST PUSH1 0x0 PUSH2 0x59D DUP5 DUP3 DUP6 ADD PUSH2 0x564 JUMP JUMPDEST SWAP2 POP POP SWAP3 SWAP2 POP POP JUMP JUMPDEST PUSH2 0x5AF DUP2 PUSH2 0x660 JUMP JUMPDEST DUP3 MSTORE POP POP JUMP JUMPDEST PUSH2 0x5BE DUP2 PUSH2 0x64E JUMP JUMPDEST DUP3 MSTORE POP POP JUMP JUMPDEST PUSH2 0x5CD DUP2 PUSH2 0x6AF JUMP JUMPDEST DUP3 MSTORE POP POP JUMP JUMPDEST PUSH2 0x5DC DUP2 PUSH2 0x6A5 JUMP JUMPDEST DUP3 MSTORE POP POP JUMP JUMPDEST PUSH1 0x0 PUSH1 0x20 DUP3 ADD SWAP1 POP PUSH2 0x5F7 PUSH1 0x0 DUP4 ADD DUP5 PUSH2 0x5B5 JUMP JUMPDEST SWAP3 SWAP2 POP POP JUMP JUMPDEST PUSH1 0x0 PUSH1 0x20 DUP3 ADD SWAP1 POP PUSH2 0x612 PUSH1 0x0 DUP4 ADD DUP5 PUSH2 0x5A6 JUMP JUMPDEST SWAP3 SWAP2 POP POP JUMP JUMPDEST PUSH1 0x0 PUSH1 0x20 DUP3 ADD SWAP1 POP PUSH2 0x62D PUSH1 0x0 DUP4 ADD DUP5 PUSH2 0x5C4 JUMP JUMPDEST SWAP3 SWAP2 POP POP JUMP JUMPDEST PUSH1 0x0 PUSH1 0x20 DUP3 ADD SWAP1 POP PUSH2 0x648 PUSH1 0x0 DUP4 ADD DUP5 PUSH2 0x5D3 JUMP JUMPDEST SWAP3 SWAP2 POP POP JUMP JUMPDEST PUSH1 0x0 PUSH2 0x659 DUP3 PUSH2 0x685 JUMP JUMPDEST SWAP1 POP SWAP2 SWAP1 POP JUMP JUMPDEST PUSH1 0x0 PUSH2 0x66B DUP3 PUSH2 0x685 JUMP JUMPDEST SWAP1 POP SWAP2 SWAP1 POP JUMP JUMPDEST PUSH1 0x0 DUP2 SWAP1 POP PUSH2 0x680 DUP3 PUSH2 0x6F5 JUMP JUMPDEST SWAP2 SWAP1 POP JUMP JUMPDEST PUSH1 0x0 PUSH20 0xFFFFFFFFFFFFFFFFFFFFFFFFFFFFFFFFFFFFFFFF DUP3 AND SWAP1 POP SWAP2 SWAP1 POP JUMP JUMPDEST PUSH1 0x0 DUP2 SWAP1 POP SWAP2 SWAP1 POP JUMP JUMPDEST PUSH1 0x0 PUSH2 0x6BA DUP3 PUSH2 0x672 JUMP JUMPDEST SWAP1 POP SWAP2 SWAP1 POP JUMP JUMPDEST PUSH32 0x4E487B7100000000000000000000000000000000000000000000000000000000 PUSH1 0x0 MSTORE PUSH1 0x21 PUSH1 0x4 MSTORE PUSH1 0x24 PUSH1 0x0 REVERT JUMPDEST PUSH1 0x0 DUP1 REVERT JUMPDEST PUSH1 0x3 DUP2 LT PUSH2 0x706 JUMPI PUSH2 0x705 PUSH2 0x6C1 JUMP JUMPDEST JUMPDEST POP JUMP JUMPDEST PUSH2 0x712 DUP2 PUSH2 0x64E JUMP JUMPDEST DUP2 EQ PUSH2 0x71D JUMPI PUSH1 0x0 DUP1 REVERT JUMPDEST POP JUMP INVALID LOG2 PUSH5 0x6970667358 0x22 SLT KECCAK256 0xF 0xF PUSH25 0x85D00A17BB13E135D157BA4FF8E723B2A90BA42B38F2392DF1 REVERT SWAP14 0xAB 0x4D PUSH5 0x736F6C6343 STOP ADDMOD SMOD STOP CALLER "
				},
				"gasEstimates": {
					"creation": {
						"codeDepositCost": "375600",
						"executionCost": "71132",
						"totalCost": "446732"
					},
					"external": {
						"": "224",
						"auctionIsOpen()": "2663",
						"auctionStatus()": "2654",
						"bids(address)": "2925",
						"endAuction()": "29054",
						"endBlock()": "2452",
						"getHighestBidder()": "379",
						"getHighestBindingBid()": "396",
						"highestBidder()": "2536",
						"highestBindingBid()": "2517",
						"owner()": "2511",
						"start()": "29013",
						"startBlock()": "2518"
					},
					"internal": {
						"addBid(address,uint256)": "13"
					}
				},
				"methodIdentifiers": {
					"auctionIsOpen()": "2b5095b6",
					"auctionStatus()": "9d6a0f28",
					"bids(address)": "62ea82db",
					"endAuction()": "fe67a54b",
					"endBlock()": "083c6323",
					"getHighestBidder()": "003495a4",
					"getHighestBindingBid()": "3046309f",
					"highestBidder()": "91f90157",
					"highestBindingBid()": "f5b56c56",
					"owner()": "8da5cb5b",
					"start()": "be9a6555",
					"startBlock()": "48cd4cb1"
				}
			},
			"storageLayout": {
				"storage": [
					{
						"astId": 3,
						"contract": "contracts/auction.sol:Auction",
						"label": "owner",
						"offset": 0,
						"slot": "0",
						"type": "t_address_payable"
					},
					{
						"astId": 10,
						"contract": "contracts/auction.sol:Auction",
						"label": "auctionStatus",
						"offset": 20,
						"slot": "0",
						"type": "t_enum(State)7"
					},
					{
						"astId": 12,
						"contract": "contracts/auction.sol:Auction",
						"label": "highestBindingBid",
						"offset": 0,
						"slot": "1",
						"type": "t_uint256"
					},
					{
						"astId": 14,
						"contract": "contracts/auction.sol:Auction",
						"label": "highestBidder",
						"offset": 0,
						"slot": "2",
						"type": "t_address_payable"
					},
					{
						"astId": 18,
						"contract": "contracts/auction.sol:Auction",
						"label": "bids",
						"offset": 0,
						"slot": "3",
						"type": "t_mapping(t_address,t_uint256)"
					},
					{
						"astId": 21,
						"contract": "contracts/auction.sol:Auction",
						"label": "bidIncrement",
						"offset": 0,
						"slot": "4",
						"type": "t_uint256"
					},
					{
						"astId": 23,
						"contract": "contracts/auction.sol:Auction",
						"label": "startBlock",
						"offset": 0,
						"slot": "5",
						"type": "t_uint256"
					},
					{
						"astId": 25,
						"contract": "contracts/auction.sol:Auction",
						"label": "endBlock",
						"offset": 0,
						"slot": "6",
						"type": "t_uint256"
					}
				],
				"types": {
					"t_address": {
						"encoding": "inplace",
						"label": "address",
						"numberOfBytes": "20"
					},
					"t_address_payable": {
						"encoding": "inplace",
						"label": "address payable",
						"numberOfBytes": "20"
					},
					"t_enum(State)7": {
						"encoding": "inplace",
						"label": "enum Auction.State",
						"numberOfBytes": "1"
					},
					"t_mapping(t_address,t_uint256)": {
						"encoding": "mapping",
						"key": "t_address",
						"label": "mapping(address => uint256)",
						"numberOfBytes": "32",
						"value": "t_uint256"
					},
					"t_uint256": {
						"encoding": "inplace",
						"label": "uint256",
						"numberOfBytes": "32"
					}
				}
			},
			"userdoc": {
				"kind": "user",
				"methods": {},
				"version": 1
			}
		}
	}
}