{
	"contracts/auction.sol": {
		"Auction": {
			"abi": [
				{
					"inputs": [],
					"stateMutability": "nonpayable",
					"type": "constructor"
				},
				{
					"stateMutability": "payable",
					"type": "fallback"
				},
				{
					"inputs": [
						{
							"internalType": "address",
							"name": "",
							"type": "address"
						}
					],
					"name": "bids",
					"outputs": [
						{
							"internalType": "uint256",
							"name": "",
							"type": "uint256"
						}
					],
					"stateMutability": "view",
					"type": "function"
				},
				{
					"inputs": [],
					"name": "cancelAuction",
					"outputs": [],
					"stateMutability": "nonpayable",
					"type": "function"
				},
				{
					"inputs": [],
					"name": "endAuction",
					"outputs": [],
					"stateMutability": "nonpayable",
					"type": "function"
				},
				{
					"inputs": [],
					"name": "endBlock",
					"outputs": [
						{
							"internalType": "uint256",
							"name": "",
							"type": "uint256"
						}
					],
					"stateMutability": "view",
					"type": "function"
				},
				{
					"inputs": [],
					"name": "getAuctionState",
					"outputs": [
						{
							"internalType": "enum Auction.State",
							"name": "",
							"type": "uint8"
						}
					],
					"stateMutability": "view",
					"type": "function"
				},
				{
					"inputs": [],
					"name": "highestBidder",
					"outputs": [
						{
							"internalType": "address payable",
							"name": "",
							"type": "address"
						}
					],
					"stateMutability": "view",
					"type": "function"
				},
				{
					"inputs": [],
					"name": "highestBindingBid",
					"outputs": [
						{
							"internalType": "uint256",
							"name": "",
							"type": "uint256"
						}
					],
					"stateMutability": "view",
					"type": "function"
				},
				{
					"inputs": [],
					"name": "owner",
					"outputs": [
						{
							"internalType": "address payable",
							"name": "",
							"type": "address"
						}
					],
					"stateMutability": "view",
					"type": "function"
				},
				{
					"inputs": [],
					"name": "placeBid",
					"outputs": [],
					"stateMutability": "payable",
					"type": "function"
				},
				{
					"inputs": [],
					"name": "startBlock",
					"outputs": [
						{
							"internalType": "uint256",
							"name": "",
							"type": "uint256"
						}
					],
					"stateMutability": "view",
					"type": "function"
				},
				{
					"stateMutability": "payable",
					"type": "receive"
				}
			],
			"devdoc": {
				"kind": "dev",
				"methods": {},
				"version": 1
			},
			"evm": {
				"assembly": "    /* \"contracts/auction.sol\":73:2804  contract Auction{\r... */\n  mstore(0x40, 0x80)\n    /* \"contracts/auction.sol\":358:361  100 */\n  0x64\n    /* \"contracts/auction.sol\":338:361  uint bidIncrement = 100 */\n  0x04\n  sstore\n    /* \"contracts/auction.sol\":428:512  constructor(){\r... */\n  callvalue\n  dup1\n  iszero\n  tag_1\n  jumpi\n  0x00\n  dup1\n  revert\ntag_1:\n  pop\n    /* \"contracts/auction.sol\":468:478  msg.sender */\n  caller\n    /* \"contracts/auction.sol\":452:457  owner */\n  0x00\n  dup1\n    /* \"contracts/auction.sol\":452:479  owner = payable(msg.sender) */\n  0x0100\n  exp\n  dup2\n  sload\n  dup2\n  0xffffffffffffffffffffffffffffffffffffffff\n  mul\n  not\n  and\n  swap1\n  dup4\n  0xffffffffffffffffffffffffffffffffffffffff\n  and\n  mul\n  or\n  swap1\n  sstore\n  pop\n    /* \"contracts/auction.sol\":490:504  startAuction() */\n  tag_4\n    /* \"contracts/auction.sol\":490:502  startAuction */\n  shl(0x20, tag_5)\n    /* \"contracts/auction.sol\":490:504  startAuction() */\n  0x20\n  shr\n  jump\t// in\ntag_4:\n    /* \"contracts/auction.sol\":73:2804  contract Auction{\r... */\n  jump(tag_6)\n    /* \"contracts/auction.sol\":1987:2250  function startAuction() private onlyOwner {\r... */\ntag_5:\n    /* \"contracts/auction.sol\":573:578  owner */\n  0x00\n  dup1\n  sload\n  swap1\n  0x0100\n  exp\n  swap1\n  div\n  0xffffffffffffffffffffffffffffffffffffffff\n  and\n    /* \"contracts/auction.sol\":559:578  msg.sender == owner */\n  0xffffffffffffffffffffffffffffffffffffffff\n  and\n    /* \"contracts/auction.sol\":559:569  msg.sender */\n  caller\n    /* \"contracts/auction.sol\":559:578  msg.sender == owner */\n  0xffffffffffffffffffffffffffffffffffffffff\n  and\n  eq\n    /* \"contracts/auction.sol\":551:579  require(msg.sender == owner) */\n  tag_8\n  jumpi\n  0x00\n  dup1\n  revert\ntag_8:\n    /* \"contracts/auction.sol\":2056:2069  State.RUNNING */\n  0x00\n    /* \"contracts/auction.sol\":2040:2053  auctionStatus */\n  dup1\n  0x14\n    /* \"contracts/auction.sol\":2040:2069  auctionStatus = State.RUNNING */\n  0x0100\n  exp\n  dup2\n  sload\n  dup2\n  0xff\n  mul\n  not\n  and\n  swap1\n  dup4\n  0x02\n  dup2\n  gt\n  iszero\n  tag_10\n  jumpi\n  tag_11\n  tag_12\n  jump\t// in\ntag_11:\ntag_10:\n  mul\n  or\n  swap1\n  sstore\n  pop\n    /* \"contracts/auction.sol\":2095:2107  block.number */\n  number\n    /* \"contracts/auction.sol\":2082:2092  startBlock */\n  0x05\n    /* \"contracts/auction.sol\":2082:2107  startBlock = block.number */\n  dup2\n  swap1\n  sstore\n  pop\n    /* \"contracts/auction.sol\":2215:2220  40320 */\n  0x9d80\n    /* \"contracts/auction.sol\":2202:2212  startBlock */\n  sload(0x05)\n    /* \"contracts/auction.sol\":2202:2220  startBlock + 40320 */\n  tag_13\n  swap2\n  swap1\n  tag_14\n  jump\t// in\ntag_13:\n    /* \"contracts/auction.sol\":2191:2199  endBlock */\n  0x06\n    /* \"contracts/auction.sol\":2191:2220  endBlock = startBlock + 40320 */\n  dup2\n  swap1\n  sstore\n  pop\n    /* \"contracts/auction.sol\":1987:2250  function startAuction() private onlyOwner {\r... */\n  jump\t// out\n    /* \"#utility.yul\":7:312   */\ntag_14:\n    /* \"#utility.yul\":47:50   */\n  0x00\n    /* \"#utility.yul\":66:86   */\n  tag_17\n    /* \"#utility.yul\":84:85   */\n  dup3\n    /* \"#utility.yul\":66:86   */\n  tag_18\n  jump\t// in\ntag_17:\n    /* \"#utility.yul\":61:86   */\n  swap2\n  pop\n    /* \"#utility.yul\":100:120   */\n  tag_19\n    /* \"#utility.yul\":118:119   */\n  dup4\n    /* \"#utility.yul\":100:120   */\n  tag_18\n  jump\t// in\ntag_19:\n    /* \"#utility.yul\":95:120   */\n  swap3\n  pop\n    /* \"#utility.yul\":254:255   */\n  dup3\n    /* \"#utility.yul\":186:252   */\n  0xffffffffffffffffffffffffffffffffffffffffffffffffffffffffffffffff\n    /* \"#utility.yul\":182:256   */\n  sub\n    /* \"#utility.yul\":179:180   */\n  dup3\n    /* \"#utility.yul\":176:257   */\n  gt\n    /* \"#utility.yul\":173:280   */\n  iszero\n  tag_20\n  jumpi\n    /* \"#utility.yul\":260:278   */\n  tag_21\n  tag_22\n  jump\t// in\ntag_21:\n    /* \"#utility.yul\":173:280   */\ntag_20:\n    /* \"#utility.yul\":304:305   */\n  dup3\n    /* \"#utility.yul\":301:302   */\n  dup3\n    /* \"#utility.yul\":297:306   */\n  add\n    /* \"#utility.yul\":290:306   */\n  swap1\n  pop\n    /* \"#utility.yul\":7:312   */\n  swap3\n  swap2\n  pop\n  pop\n  jump\t// out\n    /* \"#utility.yul\":318:395   */\ntag_18:\n    /* \"#utility.yul\":355:362   */\n  0x00\n    /* \"#utility.yul\":384:389   */\n  dup2\n    /* \"#utility.yul\":373:389   */\n  swap1\n  pop\n    /* \"#utility.yul\":318:395   */\n  swap2\n  swap1\n  pop\n  jump\t// out\n    /* \"#utility.yul\":401:581   */\ntag_22:\n    /* \"#utility.yul\":449:526   */\n  0x4e487b7100000000000000000000000000000000000000000000000000000000\n    /* \"#utility.yul\":446:447   */\n  0x00\n    /* \"#utility.yul\":439:527   */\n  mstore\n    /* \"#utility.yul\":546:550   */\n  0x11\n    /* \"#utility.yul\":543:544   */\n  0x04\n    /* \"#utility.yul\":536:551   */\n  mstore\n    /* \"#utility.yul\":570:574   */\n  0x24\n    /* \"#utility.yul\":567:568   */\n  0x00\n    /* \"#utility.yul\":560:575   */\n  revert\n    /* \"#utility.yul\":587:767   */\ntag_12:\n    /* \"#utility.yul\":635:712   */\n  0x4e487b7100000000000000000000000000000000000000000000000000000000\n    /* \"#utility.yul\":632:633   */\n  0x00\n    /* \"#utility.yul\":625:713   */\n  mstore\n    /* \"#utility.yul\":732:736   */\n  0x21\n    /* \"#utility.yul\":729:730   */\n  0x04\n    /* \"#utility.yul\":722:737   */\n  mstore\n    /* \"#utility.yul\":756:760   */\n  0x24\n    /* \"#utility.yul\":753:754   */\n  0x00\n    /* \"#utility.yul\":746:761   */\n  revert\n    /* \"contracts/auction.sol\":73:2804  contract Auction{\r... */\ntag_6:\n  dataSize(sub_0)\n  dup1\n  dataOffset(sub_0)\n  0x00\n  codecopy\n  0x00\n  return\nstop\n\nsub_0: assembly {\n        /* \"contracts/auction.sol\":73:2804  contract Auction{\r... */\n      mstore(0x40, 0x80)\n      jumpi(tag_1, lt(calldatasize, 0x04))\n      shr(0xe0, calldataload(0x00))\n      dup1\n      0x8fa8b790\n      gt\n      tag_13\n      jumpi\n      dup1\n      0x8fa8b790\n      eq\n      tag_8\n      jumpi\n      dup1\n      0x91f90157\n      eq\n      tag_9\n      jumpi\n      dup1\n      0xecfc7ecc\n      eq\n      tag_10\n      jumpi\n      dup1\n      0xf5b56c56\n      eq\n      tag_11\n      jumpi\n      dup1\n      0xfe67a54b\n      eq\n      tag_12\n      jumpi\n      jump(tag_2)\n    tag_13:\n      dup1\n      0x083c6323\n      eq\n      tag_3\n      jumpi\n      dup1\n      0x08bfc300\n      eq\n      tag_4\n      jumpi\n      dup1\n      0x48cd4cb1\n      eq\n      tag_5\n      jumpi\n      dup1\n      0x62ea82db\n      eq\n      tag_6\n      jumpi\n      dup1\n      0x8da5cb5b\n      eq\n      tag_7\n      jumpi\n      jump(tag_2)\n    tag_1:\n      jumpi(tag_2, calldatasize)\n        /* \"contracts/auction.sol\":657:662  owner */\n      0x00\n      dup1\n      sload\n      swap1\n      0x0100\n      exp\n      swap1\n      div\n      0xffffffffffffffffffffffffffffffffffffffff\n      and\n        /* \"contracts/auction.sol\":643:662  msg.sender != owner */\n      0xffffffffffffffffffffffffffffffffffffffff\n      and\n        /* \"contracts/auction.sol\":643:653  msg.sender */\n      caller\n        /* \"contracts/auction.sol\":643:662  msg.sender != owner */\n      0xffffffffffffffffffffffffffffffffffffffff\n      and\n      eq\n      iszero\n        /* \"contracts/auction.sol\":635:663  require(msg.sender != owner) */\n      tag_16\n      jumpi\n      0x00\n      dup1\n      revert\n    tag_16:\n        /* \"contracts/auction.sol\":745:755  startBlock */\n      sload(0x05)\n        /* \"contracts/auction.sol\":729:741  block.number */\n      number\n        /* \"contracts/auction.sol\":729:755  block.number >= startBlock */\n      lt\n      iszero\n        /* \"contracts/auction.sol\":721:756  require(block.number >= startBlock) */\n      tag_18\n      jumpi\n      0x00\n      dup1\n      revert\n    tag_18:\n        /* \"contracts/auction.sol\":837:845  endBlock */\n      sload(0x06)\n        /* \"contracts/auction.sol\":821:833  block.number */\n      number\n        /* \"contracts/auction.sol\":821:845  block.number <= endBlock */\n      gt\n      iszero\n        /* \"contracts/auction.sol\":813:846  require(block.number <= endBlock) */\n      tag_20\n      jumpi\n      0x00\n      dup1\n      revert\n    tag_20:\n        /* \"contracts/auction.sol\":73:2804  contract Auction{\r... */\n      stop\n    tag_2:\n        /* \"contracts/auction.sol\":1027:1035  revert() */\n      0x00\n      dup1\n      revert\n        /* \"contracts/auction.sol\":399:419  uint public endBlock */\n    tag_3:\n      callvalue\n      dup1\n      iszero\n      tag_24\n      jumpi\n      0x00\n      dup1\n      revert\n    tag_24:\n      pop\n      tag_25\n      tag_26\n      jump\t// in\n    tag_25:\n      mload(0x40)\n      tag_27\n      swap2\n      swap1\n      tag_28\n      jump\t// in\n    tag_27:\n      mload(0x40)\n      dup1\n      swap2\n      sub\n      swap1\n      return\n        /* \"contracts/auction.sol\":1885:1977  function getAuctionState() public view returns(State){\r... */\n    tag_4:\n      callvalue\n      dup1\n      iszero\n      tag_29\n      jumpi\n      0x00\n      dup1\n      revert\n    tag_29:\n      pop\n      tag_30\n      tag_31\n      jump\t// in\n    tag_30:\n      mload(0x40)\n      tag_32\n      swap2\n      swap1\n      tag_33\n      jump\t// in\n    tag_32:\n      mload(0x40)\n      dup1\n      swap2\n      sub\n      swap1\n      return\n        /* \"contracts/auction.sol\":370:392  uint public startBlock */\n    tag_5:\n      callvalue\n      dup1\n      iszero\n      tag_34\n      jumpi\n      0x00\n      dup1\n      revert\n    tag_34:\n      pop\n      tag_35\n      tag_36\n      jump\t// in\n    tag_35:\n      mload(0x40)\n      tag_37\n      swap2\n      swap1\n      tag_28\n      jump\t// in\n    tag_37:\n      mload(0x40)\n      dup1\n      swap2\n      sub\n      swap1\n      return\n        /* \"contracts/auction.sol\":293:329  mapping(address => uint) public bids */\n    tag_6:\n      callvalue\n      dup1\n      iszero\n      tag_38\n      jumpi\n      0x00\n      dup1\n      revert\n    tag_38:\n      pop\n      tag_39\n      0x04\n      dup1\n      calldatasize\n      sub\n      dup2\n      add\n      swap1\n      tag_40\n      swap2\n      swap1\n      tag_41\n      jump\t// in\n    tag_40:\n      tag_42\n      jump\t// in\n    tag_39:\n      mload(0x40)\n      tag_43\n      swap2\n      swap1\n      tag_28\n      jump\t// in\n    tag_43:\n      mload(0x40)\n      dup1\n      swap2\n      sub\n      swap1\n      return\n        /* \"contracts/auction.sol\":98:126  address payable public owner */\n    tag_7:\n      callvalue\n      dup1\n      iszero\n      tag_44\n      jumpi\n      0x00\n      dup1\n      revert\n    tag_44:\n      pop\n      tag_45\n      tag_46\n      jump\t// in\n    tag_45:\n      mload(0x40)\n      tag_47\n      swap2\n      swap1\n      tag_48\n      jump\t// in\n    tag_47:\n      mload(0x40)\n      dup1\n      swap2\n      sub\n      swap1\n      return\n        /* \"contracts/auction.sol\":2710:2801  function cancelAuction() public onlyOwner {\r... */\n    tag_8:\n      callvalue\n      dup1\n      iszero\n      tag_49\n      jumpi\n      0x00\n      dup1\n      revert\n    tag_49:\n      pop\n      tag_50\n      tag_51\n      jump\t// in\n    tag_50:\n      stop\n        /* \"contracts/auction.sol\":248:284  address payable public highestBidder */\n    tag_9:\n      callvalue\n      dup1\n      iszero\n      tag_52\n      jumpi\n      0x00\n      dup1\n      revert\n    tag_52:\n      pop\n      tag_53\n      tag_54\n      jump\t// in\n    tag_53:\n      mload(0x40)\n      tag_55\n      swap2\n      swap1\n      tag_48\n      jump\t// in\n    tag_55:\n      mload(0x40)\n      dup1\n      swap2\n      sub\n      swap1\n      return\n        /* \"contracts/auction.sol\":1051:1680  function placeBid() public payable notOwner afterStart beforeEnd{\r... */\n    tag_10:\n      tag_56\n      tag_57\n      jump\t// in\n    tag_56:\n      stop\n        /* \"contracts/auction.sol\":212:241  uint public highestBindingBid */\n    tag_11:\n      callvalue\n      dup1\n      iszero\n      tag_58\n      jumpi\n      0x00\n      dup1\n      revert\n    tag_58:\n      pop\n      tag_59\n      tag_60\n      jump\t// in\n    tag_59:\n      mload(0x40)\n      tag_61\n      swap2\n      swap1\n      tag_28\n      jump\t// in\n    tag_61:\n      mload(0x40)\n      dup1\n      swap2\n      sub\n      swap1\n      return\n        /* \"contracts/auction.sol\":2258:2702  function endAuction() public onlyOwner afterStart {        \r... */\n    tag_12:\n      callvalue\n      dup1\n      iszero\n      tag_62\n      jumpi\n      0x00\n      dup1\n      revert\n    tag_62:\n      pop\n      tag_63\n      tag_64\n      jump\t// in\n    tag_63:\n      stop\n        /* \"contracts/auction.sol\":399:419  uint public endBlock */\n    tag_26:\n      sload(0x06)\n      dup2\n      jump\t// out\n        /* \"contracts/auction.sol\":1885:1977  function getAuctionState() public view returns(State){\r... */\n    tag_31:\n        /* \"contracts/auction.sol\":1932:1937  State */\n      0x00\n        /* \"contracts/auction.sol\":1956:1969  auctionStatus */\n      dup1\n      0x14\n      swap1\n      sload\n      swap1\n      0x0100\n      exp\n      swap1\n      div\n      0xff\n      and\n        /* \"contracts/auction.sol\":1949:1969  return auctionStatus */\n      swap1\n      pop\n        /* \"contracts/auction.sol\":1885:1977  function getAuctionState() public view returns(State){\r... */\n      swap1\n      jump\t// out\n        /* \"contracts/auction.sol\":370:392  uint public startBlock */\n    tag_36:\n      sload(0x05)\n      dup2\n      jump\t// out\n        /* \"contracts/auction.sol\":293:329  mapping(address => uint) public bids */\n    tag_42:\n      mstore(0x20, 0x03)\n      dup1\n      0x00\n      mstore\n      keccak256(0x00, 0x40)\n      0x00\n      swap2\n      pop\n      swap1\n      pop\n      sload\n      dup2\n      jump\t// out\n        /* \"contracts/auction.sol\":98:126  address payable public owner */\n    tag_46:\n      0x00\n      dup1\n      sload\n      swap1\n      0x0100\n      exp\n      swap1\n      div\n      0xffffffffffffffffffffffffffffffffffffffff\n      and\n      dup2\n      jump\t// out\n        /* \"contracts/auction.sol\":2710:2801  function cancelAuction() public onlyOwner {\r... */\n    tag_51:\n        /* \"contracts/auction.sol\":573:578  owner */\n      0x00\n      dup1\n      sload\n      swap1\n      0x0100\n      exp\n      swap1\n      div\n      0xffffffffffffffffffffffffffffffffffffffff\n      and\n        /* \"contracts/auction.sol\":559:578  msg.sender == owner */\n      0xffffffffffffffffffffffffffffffffffffffff\n      and\n        /* \"contracts/auction.sol\":559:569  msg.sender */\n      caller\n        /* \"contracts/auction.sol\":559:578  msg.sender == owner */\n      0xffffffffffffffffffffffffffffffffffffffff\n      and\n      eq\n        /* \"contracts/auction.sol\":551:579  require(msg.sender == owner) */\n      tag_67\n      jumpi\n      0x00\n      dup1\n      revert\n    tag_67:\n        /* \"contracts/auction.sol\":2779:2793  State.CANCELED */\n      0x02\n        /* \"contracts/auction.sol\":2763:2776  auctionStatus */\n      0x00\n      0x14\n        /* \"contracts/auction.sol\":2763:2793  auctionStatus = State.CANCELED */\n      0x0100\n      exp\n      dup2\n      sload\n      dup2\n      0xff\n      mul\n      not\n      and\n      swap1\n      dup4\n      0x02\n      dup2\n      gt\n      iszero\n      tag_69\n      jumpi\n      tag_70\n      tag_71\n      jump\t// in\n    tag_70:\n    tag_69:\n      mul\n      or\n      swap1\n      sstore\n      pop\n        /* \"contracts/auction.sol\":2710:2801  function cancelAuction() public onlyOwner {\r... */\n      jump\t// out\n        /* \"contracts/auction.sol\":248:284  address payable public highestBidder */\n    tag_54:\n      0x02\n      0x00\n      swap1\n      sload\n      swap1\n      0x0100\n      exp\n      swap1\n      div\n      0xffffffffffffffffffffffffffffffffffffffff\n      and\n      dup2\n      jump\t// out\n        /* \"contracts/auction.sol\":1051:1680  function placeBid() public payable notOwner afterStart beforeEnd{\r... */\n    tag_57:\n        /* \"contracts/auction.sol\":657:662  owner */\n      0x00\n      dup1\n      sload\n      swap1\n      0x0100\n      exp\n      swap1\n      div\n      0xffffffffffffffffffffffffffffffffffffffff\n      and\n        /* \"contracts/auction.sol\":643:662  msg.sender != owner */\n      0xffffffffffffffffffffffffffffffffffffffff\n      and\n        /* \"contracts/auction.sol\":643:653  msg.sender */\n      caller\n        /* \"contracts/auction.sol\":643:662  msg.sender != owner */\n      0xffffffffffffffffffffffffffffffffffffffff\n      and\n      eq\n      iszero\n        /* \"contracts/auction.sol\":635:663  require(msg.sender != owner) */\n      tag_73\n      jumpi\n      0x00\n      dup1\n      revert\n    tag_73:\n        /* \"contracts/auction.sol\":745:755  startBlock */\n      sload(0x05)\n        /* \"contracts/auction.sol\":729:741  block.number */\n      number\n        /* \"contracts/auction.sol\":729:755  block.number >= startBlock */\n      lt\n      iszero\n        /* \"contracts/auction.sol\":721:756  require(block.number >= startBlock) */\n      tag_75\n      jumpi\n      0x00\n      dup1\n      revert\n    tag_75:\n        /* \"contracts/auction.sol\":837:845  endBlock */\n      sload(0x06)\n        /* \"contracts/auction.sol\":821:833  block.number */\n      number\n        /* \"contracts/auction.sol\":821:845  block.number <= endBlock */\n      gt\n      iszero\n        /* \"contracts/auction.sol\":813:846  require(block.number <= endBlock) */\n      tag_77\n      jumpi\n      0x00\n      dup1\n      revert\n    tag_77:\n        /* \"contracts/auction.sol\":1155:1168  State.RUNNING */\n      0x00\n        /* \"contracts/auction.sol\":1134:1168  getAuctionState() == State.RUNNING */\n      0x02\n      dup2\n      gt\n      iszero\n      tag_79\n      jumpi\n      tag_80\n      tag_71\n      jump\t// in\n    tag_80:\n    tag_79:\n        /* \"contracts/auction.sol\":1134:1151  getAuctionState() */\n      tag_81\n        /* \"contracts/auction.sol\":1134:1149  getAuctionState */\n      tag_31\n        /* \"contracts/auction.sol\":1134:1151  getAuctionState() */\n      jump\t// in\n    tag_81:\n        /* \"contracts/auction.sol\":1134:1168  getAuctionState() == State.RUNNING */\n      0x02\n      dup2\n      gt\n      iszero\n      tag_82\n      jumpi\n      tag_83\n      tag_71\n      jump\t// in\n    tag_83:\n    tag_82:\n      eq\n        /* \"contracts/auction.sol\":1126:1169  require(getAuctionState() == State.RUNNING) */\n      tag_84\n      jumpi\n      0x00\n      dup1\n      revert\n    tag_84:\n        /* \"contracts/auction.sol\":1201:1213  bidIncrement */\n      sload(0x04)\n        /* \"contracts/auction.sol\":1188:1197  msg.value */\n      callvalue\n        /* \"contracts/auction.sol\":1188:1213  msg.value >= bidIncrement */\n      lt\n      iszero\n        /* \"contracts/auction.sol\":1180:1214  require(msg.value >= bidIncrement) */\n      tag_85\n      jumpi\n      0x00\n      dup1\n      revert\n    tag_85:\n        /* \"contracts/auction.sol\":1227:1242  uint currentBid */\n      0x00\n        /* \"contracts/auction.sol\":1264:1273  msg.value */\n      callvalue\n        /* \"contracts/auction.sol\":1245:1249  bids */\n      0x03\n        /* \"contracts/auction.sol\":1245:1261  bids[msg.sender] */\n      0x00\n        /* \"contracts/auction.sol\":1250:1260  msg.sender */\n      caller\n        /* \"contracts/auction.sol\":1245:1261  bids[msg.sender] */\n      0xffffffffffffffffffffffffffffffffffffffff\n      and\n      0xffffffffffffffffffffffffffffffffffffffff\n      and\n      dup2\n      mstore\n      0x20\n      add\n      swap1\n      dup2\n      mstore\n      0x20\n      add\n      0x00\n      keccak256\n      sload\n        /* \"contracts/auction.sol\":1245:1273  bids[msg.sender] + msg.value */\n      tag_86\n      swap2\n      swap1\n      tag_87\n      jump\t// in\n    tag_86:\n        /* \"contracts/auction.sol\":1227:1273  uint currentBid = bids[msg.sender] + msg.value */\n      swap1\n      pop\n        /* \"contracts/auction.sol\":1305:1322  highestBindingBid */\n      sload(0x01)\n        /* \"contracts/auction.sol\":1292:1302  currentBid */\n      dup2\n        /* \"contracts/auction.sol\":1292:1322  currentBid > highestBindingBid */\n      gt\n        /* \"contracts/auction.sol\":1284:1323  require(currentBid > highestBindingBid) */\n      tag_88\n      jumpi\n      0x00\n      dup1\n      revert\n    tag_88:\n        /* \"contracts/auction.sol\":1353:1363  currentBid */\n      dup1\n        /* \"contracts/auction.sol\":1334:1338  bids */\n      0x03\n        /* \"contracts/auction.sol\":1334:1350  bids[msg.sender] */\n      0x00\n        /* \"contracts/auction.sol\":1339:1349  msg.sender */\n      caller\n        /* \"contracts/auction.sol\":1334:1350  bids[msg.sender] */\n      0xffffffffffffffffffffffffffffffffffffffff\n      and\n      0xffffffffffffffffffffffffffffffffffffffff\n      and\n      dup2\n      mstore\n      0x20\n      add\n      swap1\n      dup2\n      mstore\n      0x20\n      add\n      0x00\n      keccak256\n        /* \"contracts/auction.sol\":1334:1363  bids[msg.sender] = currentBid */\n      dup2\n      swap1\n      sstore\n      pop\n        /* \"contracts/auction.sol\":1393:1397  bids */\n      0x03\n        /* \"contracts/auction.sol\":1393:1412  bids[highestBidder] */\n      0x00\n        /* \"contracts/auction.sol\":1398:1411  highestBidder */\n      0x02\n      0x00\n      swap1\n      sload\n      swap1\n      0x0100\n      exp\n      swap1\n      div\n      0xffffffffffffffffffffffffffffffffffffffff\n      and\n        /* \"contracts/auction.sol\":1393:1412  bids[highestBidder] */\n      0xffffffffffffffffffffffffffffffffffffffff\n      and\n      0xffffffffffffffffffffffffffffffffffffffff\n      and\n      dup2\n      mstore\n      0x20\n      add\n      swap1\n      dup2\n      mstore\n      0x20\n      add\n      0x00\n      keccak256\n      sload\n        /* \"contracts/auction.sol\":1379:1389  currentBid */\n      dup2\n        /* \"contracts/auction.sol\":1379:1412  currentBid <= bids[highestBidder] */\n      gt\n        /* \"contracts/auction.sol\":1376:1673  if(currentBid <= bids[highestBidder]){\r... */\n      tag_89\n      jumpi\n        /* \"contracts/auction.sol\":1448:1499  min(currentBid + bidIncrement, bids[highestBidder]) */\n      tag_90\n        /* \"contracts/auction.sol\":1465:1477  bidIncrement */\n      sload(0x04)\n        /* \"contracts/auction.sol\":1452:1462  currentBid */\n      dup3\n        /* \"contracts/auction.sol\":1452:1477  currentBid + bidIncrement */\n      tag_91\n      swap2\n      swap1\n      tag_87\n      jump\t// in\n    tag_91:\n        /* \"contracts/auction.sol\":1479:1483  bids */\n      0x03\n        /* \"contracts/auction.sol\":1479:1498  bids[highestBidder] */\n      0x00\n        /* \"contracts/auction.sol\":1484:1497  highestBidder */\n      0x02\n      0x00\n      swap1\n      sload\n      swap1\n      0x0100\n      exp\n      swap1\n      div\n      0xffffffffffffffffffffffffffffffffffffffff\n      and\n        /* \"contracts/auction.sol\":1479:1498  bids[highestBidder] */\n      0xffffffffffffffffffffffffffffffffffffffff\n      and\n      0xffffffffffffffffffffffffffffffffffffffff\n      and\n      dup2\n      mstore\n      0x20\n      add\n      swap1\n      dup2\n      mstore\n      0x20\n      add\n      0x00\n      keccak256\n      sload\n        /* \"contracts/auction.sol\":1448:1451  min */\n      tag_92\n        /* \"contracts/auction.sol\":1448:1499  min(currentBid + bidIncrement, bids[highestBidder]) */\n      jump\t// in\n    tag_90:\n        /* \"contracts/auction.sol\":1428:1445  highestBindingBid */\n      0x01\n        /* \"contracts/auction.sol\":1428:1499  highestBindingBid = min(currentBid + bidIncrement, bids[highestBidder]) */\n      dup2\n      swap1\n      sstore\n      pop\n        /* \"contracts/auction.sol\":1376:1673  if(currentBid <= bids[highestBidder]){\r... */\n      jump(tag_93)\n    tag_89:\n        /* \"contracts/auction.sol\":1560:1611  min(currentBid, bids[highestBidder] + bidIncrement) */\n      tag_94\n        /* \"contracts/auction.sol\":1564:1574  currentBid */\n      dup2\n        /* \"contracts/auction.sol\":1598:1610  bidIncrement */\n      sload(0x04)\n        /* \"contracts/auction.sol\":1576:1580  bids */\n      0x03\n        /* \"contracts/auction.sol\":1576:1595  bids[highestBidder] */\n      0x00\n        /* \"contracts/auction.sol\":1581:1594  highestBidder */\n      0x02\n      0x00\n      swap1\n      sload\n      swap1\n      0x0100\n      exp\n      swap1\n      div\n      0xffffffffffffffffffffffffffffffffffffffff\n      and\n        /* \"contracts/auction.sol\":1576:1595  bids[highestBidder] */\n      0xffffffffffffffffffffffffffffffffffffffff\n      and\n      0xffffffffffffffffffffffffffffffffffffffff\n      and\n      dup2\n      mstore\n      0x20\n      add\n      swap1\n      dup2\n      mstore\n      0x20\n      add\n      0x00\n      keccak256\n      sload\n        /* \"contracts/auction.sol\":1576:1610  bids[highestBidder] + bidIncrement */\n      tag_95\n      swap2\n      swap1\n      tag_87\n      jump\t// in\n    tag_95:\n        /* \"contracts/auction.sol\":1560:1563  min */\n      tag_92\n        /* \"contracts/auction.sol\":1560:1611  min(currentBid, bids[highestBidder] + bidIncrement) */\n      jump\t// in\n    tag_94:\n        /* \"contracts/auction.sol\":1540:1557  highestBindingBid */\n      0x01\n        /* \"contracts/auction.sol\":1540:1611  highestBindingBid = min(currentBid, bids[highestBidder] + bidIncrement) */\n      dup2\n      swap1\n      sstore\n      pop\n        /* \"contracts/auction.sol\":1650:1660  msg.sender */\n      caller\n        /* \"contracts/auction.sol\":1626:1639  highestBidder */\n      0x02\n      0x00\n        /* \"contracts/auction.sol\":1626:1661  highestBidder = payable(msg.sender) */\n      0x0100\n      exp\n      dup2\n      sload\n      dup2\n      0xffffffffffffffffffffffffffffffffffffffff\n      mul\n      not\n      and\n      swap1\n      dup4\n      0xffffffffffffffffffffffffffffffffffffffff\n      and\n      mul\n      or\n      swap1\n      sstore\n      pop\n        /* \"contracts/auction.sol\":1376:1673  if(currentBid <= bids[highestBidder]){\r... */\n    tag_93:\n        /* \"contracts/auction.sol\":1115:1680  {\r... */\n      pop\n        /* \"contracts/auction.sol\":1051:1680  function placeBid() public payable notOwner afterStart beforeEnd{\r... */\n      jump\t// out\n        /* \"contracts/auction.sol\":212:241  uint public highestBindingBid */\n    tag_60:\n      sload(0x01)\n      dup2\n      jump\t// out\n        /* \"contracts/auction.sol\":2258:2702  function endAuction() public onlyOwner afterStart {        \r... */\n    tag_64:\n        /* \"contracts/auction.sol\":573:578  owner */\n      0x00\n      dup1\n      sload\n      swap1\n      0x0100\n      exp\n      swap1\n      div\n      0xffffffffffffffffffffffffffffffffffffffff\n      and\n        /* \"contracts/auction.sol\":559:578  msg.sender == owner */\n      0xffffffffffffffffffffffffffffffffffffffff\n      and\n        /* \"contracts/auction.sol\":559:569  msg.sender */\n      caller\n        /* \"contracts/auction.sol\":559:578  msg.sender == owner */\n      0xffffffffffffffffffffffffffffffffffffffff\n      and\n      eq\n        /* \"contracts/auction.sol\":551:579  require(msg.sender == owner) */\n      tag_97\n      jumpi\n      0x00\n      dup1\n      revert\n    tag_97:\n        /* \"contracts/auction.sol\":745:755  startBlock */\n      sload(0x05)\n        /* \"contracts/auction.sol\":729:741  block.number */\n      number\n        /* \"contracts/auction.sol\":729:755  block.number >= startBlock */\n      lt\n      iszero\n        /* \"contracts/auction.sol\":721:756  require(block.number >= startBlock) */\n      tag_99\n      jumpi\n      0x00\n      dup1\n      revert\n    tag_99:\n        /* \"contracts/auction.sol\":2352:2366  State.CANCELED */\n      0x02\n        /* \"contracts/auction.sol\":2335:2366  auctionStatus == State.CANCELED */\n      dup1\n      dup2\n      gt\n      iszero\n      tag_101\n      jumpi\n      tag_102\n      tag_71\n      jump\t// in\n    tag_102:\n    tag_101:\n        /* \"contracts/auction.sol\":2335:2348  auctionStatus */\n      0x00\n      0x14\n      swap1\n      sload\n      swap1\n      0x0100\n      exp\n      swap1\n      div\n      0xff\n      and\n        /* \"contracts/auction.sol\":2335:2366  auctionStatus == State.CANCELED */\n      0x02\n      dup2\n      gt\n      iszero\n      tag_103\n      jumpi\n      tag_104\n      tag_71\n      jump\t// in\n    tag_104:\n    tag_103:\n      eq\n        /* \"contracts/auction.sol\":2335:2393  auctionStatus == State.CANCELED || block.number > endBlock */\n      dup1\n      tag_105\n      jumpi\n      pop\n        /* \"contracts/auction.sol\":2385:2393  endBlock */\n      sload(0x06)\n        /* \"contracts/auction.sol\":2370:2382  block.number */\n      number\n        /* \"contracts/auction.sol\":2370:2393  block.number > endBlock */\n      gt\n        /* \"contracts/auction.sol\":2335:2393  auctionStatus == State.CANCELED || block.number > endBlock */\n    tag_105:\n        /* \"contracts/auction.sol\":2327:2394  require(auctionStatus == State.CANCELED || block.number > endBlock) */\n      tag_106\n      jumpi\n      0x00\n      dup1\n      revert\n    tag_106:\n        /* \"contracts/auction.sol\":2421:2432  State.ENDED */\n      0x01\n        /* \"contracts/auction.sol\":2405:2418  auctionStatus */\n      0x00\n      0x14\n        /* \"contracts/auction.sol\":2405:2432  auctionStatus = State.ENDED */\n      0x0100\n      exp\n      dup2\n      sload\n      dup2\n      0xff\n      mul\n      not\n      and\n      swap1\n      dup4\n      0x02\n      dup2\n      gt\n      iszero\n      tag_107\n      jumpi\n      tag_108\n      tag_71\n      jump\t// in\n    tag_108:\n    tag_107:\n      mul\n      or\n      swap1\n      sstore\n      pop\n        /* \"contracts/auction.sol\":2258:2702  function endAuction() public onlyOwner afterStart {        \r... */\n      jump\t// out\n        /* \"contracts/auction.sol\":1688:1826  function min(uint a, uint b) pure internal returns(uint){\r... */\n    tag_92:\n        /* \"contracts/auction.sol\":1739:1743  uint */\n      0x00\n        /* \"contracts/auction.sol\":1763:1764  b */\n      dup2\n        /* \"contracts/auction.sol\":1758:1759  a */\n      dup4\n        /* \"contracts/auction.sol\":1758:1764  a <= b */\n      gt\n        /* \"contracts/auction.sol\":1755:1800  if(a <= b){\r... */\n      tag_110\n      jumpi\n        /* \"contracts/auction.sol\":1787:1788  a */\n      dup3\n        /* \"contracts/auction.sol\":1780:1788  return a */\n      swap1\n      pop\n      jump(tag_109)\n        /* \"contracts/auction.sol\":1755:1800  if(a <= b){\r... */\n    tag_110:\n        /* \"contracts/auction.sol\":1817:1818  b */\n      dup2\n        /* \"contracts/auction.sol\":1810:1818  return b */\n      swap1\n      pop\n        /* \"contracts/auction.sol\":1688:1826  function min(uint a, uint b) pure internal returns(uint){\r... */\n    tag_109:\n      swap3\n      swap2\n      pop\n      pop\n      jump\t// out\n        /* \"#utility.yul\":7:146   */\n    tag_112:\n        /* \"#utility.yul\":53:58   */\n      0x00\n        /* \"#utility.yul\":91:97   */\n      dup2\n        /* \"#utility.yul\":78:98   */\n      calldataload\n        /* \"#utility.yul\":69:98   */\n      swap1\n      pop\n        /* \"#utility.yul\":107:140   */\n      tag_114\n        /* \"#utility.yul\":134:139   */\n      dup2\n        /* \"#utility.yul\":107:140   */\n      tag_115\n      jump\t// in\n    tag_114:\n        /* \"#utility.yul\":7:146   */\n      swap3\n      swap2\n      pop\n      pop\n      jump\t// out\n        /* \"#utility.yul\":152:481   */\n    tag_41:\n        /* \"#utility.yul\":211:217   */\n      0x00\n        /* \"#utility.yul\":260:262   */\n      0x20\n        /* \"#utility.yul\":248:257   */\n      dup3\n        /* \"#utility.yul\":239:246   */\n      dup5\n        /* \"#utility.yul\":235:258   */\n      sub\n        /* \"#utility.yul\":231:263   */\n      slt\n        /* \"#utility.yul\":228:347   */\n      iszero\n      tag_117\n      jumpi\n        /* \"#utility.yul\":266:345   */\n      tag_118\n      tag_119\n      jump\t// in\n    tag_118:\n        /* \"#utility.yul\":228:347   */\n    tag_117:\n        /* \"#utility.yul\":386:387   */\n      0x00\n        /* \"#utility.yul\":411:464   */\n      tag_120\n        /* \"#utility.yul\":456:463   */\n      dup5\n        /* \"#utility.yul\":447:453   */\n      dup3\n        /* \"#utility.yul\":436:445   */\n      dup6\n        /* \"#utility.yul\":432:454   */\n      add\n        /* \"#utility.yul\":411:464   */\n      tag_112\n      jump\t// in\n    tag_120:\n        /* \"#utility.yul\":401:464   */\n      swap2\n      pop\n        /* \"#utility.yul\":357:474   */\n      pop\n        /* \"#utility.yul\":152:481   */\n      swap3\n      swap2\n      pop\n      pop\n      jump\t// out\n        /* \"#utility.yul\":487:629   */\n    tag_121:\n        /* \"#utility.yul\":590:622   */\n      tag_123\n        /* \"#utility.yul\":616:621   */\n      dup2\n        /* \"#utility.yul\":590:622   */\n      tag_124\n      jump\t// in\n    tag_123:\n        /* \"#utility.yul\":585:588   */\n      dup3\n        /* \"#utility.yul\":578:623   */\n      mstore\n        /* \"#utility.yul\":487:629   */\n      pop\n      pop\n      jump\t// out\n        /* \"#utility.yul\":635:776   */\n    tag_125:\n        /* \"#utility.yul\":727:769   */\n      tag_127\n        /* \"#utility.yul\":763:768   */\n      dup2\n        /* \"#utility.yul\":727:769   */\n      tag_128\n      jump\t// in\n    tag_127:\n        /* \"#utility.yul\":722:725   */\n      dup3\n        /* \"#utility.yul\":715:770   */\n      mstore\n        /* \"#utility.yul\":635:776   */\n      pop\n      pop\n      jump\t// out\n        /* \"#utility.yul\":782:900   */\n    tag_129:\n        /* \"#utility.yul\":869:893   */\n      tag_131\n        /* \"#utility.yul\":887:892   */\n      dup2\n        /* \"#utility.yul\":869:893   */\n      tag_132\n      jump\t// in\n    tag_131:\n        /* \"#utility.yul\":864:867   */\n      dup3\n        /* \"#utility.yul\":857:894   */\n      mstore\n        /* \"#utility.yul\":782:900   */\n      pop\n      pop\n      jump\t// out\n        /* \"#utility.yul\":906:1160   */\n    tag_48:\n        /* \"#utility.yul\":1015:1019   */\n      0x00\n        /* \"#utility.yul\":1053:1055   */\n      0x20\n        /* \"#utility.yul\":1042:1051   */\n      dup3\n        /* \"#utility.yul\":1038:1056   */\n      add\n        /* \"#utility.yul\":1030:1056   */\n      swap1\n      pop\n        /* \"#utility.yul\":1066:1153   */\n      tag_134\n        /* \"#utility.yul\":1150:1151   */\n      0x00\n        /* \"#utility.yul\":1139:1148   */\n      dup4\n        /* \"#utility.yul\":1135:1152   */\n      add\n        /* \"#utility.yul\":1126:1132   */\n      dup5\n        /* \"#utility.yul\":1066:1153   */\n      tag_121\n      jump\t// in\n    tag_134:\n        /* \"#utility.yul\":906:1160   */\n      swap3\n      swap2\n      pop\n      pop\n      jump\t// out\n        /* \"#utility.yul\":1166:1398   */\n    tag_33:\n        /* \"#utility.yul\":1264:1268   */\n      0x00\n        /* \"#utility.yul\":1302:1304   */\n      0x20\n        /* \"#utility.yul\":1291:1300   */\n      dup3\n        /* \"#utility.yul\":1287:1305   */\n      add\n        /* \"#utility.yul\":1279:1305   */\n      swap1\n      pop\n        /* \"#utility.yul\":1315:1391   */\n      tag_136\n        /* \"#utility.yul\":1388:1389   */\n      0x00\n        /* \"#utility.yul\":1377:1386   */\n      dup4\n        /* \"#utility.yul\":1373:1390   */\n      add\n        /* \"#utility.yul\":1364:1370   */\n      dup5\n        /* \"#utility.yul\":1315:1391   */\n      tag_125\n      jump\t// in\n    tag_136:\n        /* \"#utility.yul\":1166:1398   */\n      swap3\n      swap2\n      pop\n      pop\n      jump\t// out\n        /* \"#utility.yul\":1404:1626   */\n    tag_28:\n        /* \"#utility.yul\":1497:1501   */\n      0x00\n        /* \"#utility.yul\":1535:1537   */\n      0x20\n        /* \"#utility.yul\":1524:1533   */\n      dup3\n        /* \"#utility.yul\":1520:1538   */\n      add\n        /* \"#utility.yul\":1512:1538   */\n      swap1\n      pop\n        /* \"#utility.yul\":1548:1619   */\n      tag_138\n        /* \"#utility.yul\":1616:1617   */\n      0x00\n        /* \"#utility.yul\":1605:1614   */\n      dup4\n        /* \"#utility.yul\":1601:1618   */\n      add\n        /* \"#utility.yul\":1592:1598   */\n      dup5\n        /* \"#utility.yul\":1548:1619   */\n      tag_129\n      jump\t// in\n    tag_138:\n        /* \"#utility.yul\":1404:1626   */\n      swap3\n      swap2\n      pop\n      pop\n      jump\t// out\n        /* \"#utility.yul\":1713:2018   */\n    tag_87:\n        /* \"#utility.yul\":1753:1756   */\n      0x00\n        /* \"#utility.yul\":1772:1792   */\n      tag_142\n        /* \"#utility.yul\":1790:1791   */\n      dup3\n        /* \"#utility.yul\":1772:1792   */\n      tag_132\n      jump\t// in\n    tag_142:\n        /* \"#utility.yul\":1767:1792   */\n      swap2\n      pop\n        /* \"#utility.yul\":1806:1826   */\n      tag_143\n        /* \"#utility.yul\":1824:1825   */\n      dup4\n        /* \"#utility.yul\":1806:1826   */\n      tag_132\n      jump\t// in\n    tag_143:\n        /* \"#utility.yul\":1801:1826   */\n      swap3\n      pop\n        /* \"#utility.yul\":1960:1961   */\n      dup3\n        /* \"#utility.yul\":1892:1958   */\n      0xffffffffffffffffffffffffffffffffffffffffffffffffffffffffffffffff\n        /* \"#utility.yul\":1888:1962   */\n      sub\n        /* \"#utility.yul\":1885:1886   */\n      dup3\n        /* \"#utility.yul\":1882:1963   */\n      gt\n        /* \"#utility.yul\":1879:1986   */\n      iszero\n      tag_144\n      jumpi\n        /* \"#utility.yul\":1966:1984   */\n      tag_145\n      tag_146\n      jump\t// in\n    tag_145:\n        /* \"#utility.yul\":1879:1986   */\n    tag_144:\n        /* \"#utility.yul\":2010:2011   */\n      dup3\n        /* \"#utility.yul\":2007:2008   */\n      dup3\n        /* \"#utility.yul\":2003:2012   */\n      add\n        /* \"#utility.yul\":1996:2012   */\n      swap1\n      pop\n        /* \"#utility.yul\":1713:2018   */\n      swap3\n      swap2\n      pop\n      pop\n      jump\t// out\n        /* \"#utility.yul\":2024:2120   */\n    tag_147:\n        /* \"#utility.yul\":2061:2068   */\n      0x00\n        /* \"#utility.yul\":2090:2114   */\n      tag_149\n        /* \"#utility.yul\":2108:2113   */\n      dup3\n        /* \"#utility.yul\":2090:2114   */\n      tag_150\n      jump\t// in\n    tag_149:\n        /* \"#utility.yul\":2079:2114   */\n      swap1\n      pop\n        /* \"#utility.yul\":2024:2120   */\n      swap2\n      swap1\n      pop\n      jump\t// out\n        /* \"#utility.yul\":2126:2230   */\n    tag_124:\n        /* \"#utility.yul\":2171:2178   */\n      0x00\n        /* \"#utility.yul\":2200:2224   */\n      tag_152\n        /* \"#utility.yul\":2218:2223   */\n      dup3\n        /* \"#utility.yul\":2200:2224   */\n      tag_150\n      jump\t// in\n    tag_152:\n        /* \"#utility.yul\":2189:2224   */\n      swap1\n      pop\n        /* \"#utility.yul\":2126:2230   */\n      swap2\n      swap1\n      pop\n      jump\t// out\n        /* \"#utility.yul\":2236:2361   */\n    tag_153:\n        /* \"#utility.yul\":2280:2287   */\n      0x00\n        /* \"#utility.yul\":2309:2314   */\n      dup2\n        /* \"#utility.yul\":2298:2314   */\n      swap1\n      pop\n        /* \"#utility.yul\":2315:2355   */\n      tag_155\n        /* \"#utility.yul\":2349:2354   */\n      dup3\n        /* \"#utility.yul\":2315:2355   */\n      tag_156\n      jump\t// in\n    tag_155:\n        /* \"#utility.yul\":2236:2361   */\n      swap2\n      swap1\n      pop\n      jump\t// out\n        /* \"#utility.yul\":2367:2493   */\n    tag_150:\n        /* \"#utility.yul\":2404:2411   */\n      0x00\n        /* \"#utility.yul\":2444:2486   */\n      0xffffffffffffffffffffffffffffffffffffffff\n        /* \"#utility.yul\":2437:2442   */\n      dup3\n        /* \"#utility.yul\":2433:2487   */\n      and\n        /* \"#utility.yul\":2422:2487   */\n      swap1\n      pop\n        /* \"#utility.yul\":2367:2493   */\n      swap2\n      swap1\n      pop\n      jump\t// out\n        /* \"#utility.yul\":2499:2576   */\n    tag_132:\n        /* \"#utility.yul\":2536:2543   */\n      0x00\n        /* \"#utility.yul\":2565:2570   */\n      dup2\n        /* \"#utility.yul\":2554:2570   */\n      swap1\n      pop\n        /* \"#utility.yul\":2499:2576   */\n      swap2\n      swap1\n      pop\n      jump\t// out\n        /* \"#utility.yul\":2582:2707   */\n    tag_128:\n        /* \"#utility.yul\":2637:2646   */\n      0x00\n        /* \"#utility.yul\":2670:2701   */\n      tag_160\n        /* \"#utility.yul\":2695:2700   */\n      dup3\n        /* \"#utility.yul\":2670:2701   */\n      tag_153\n      jump\t// in\n    tag_160:\n        /* \"#utility.yul\":2657:2701   */\n      swap1\n      pop\n        /* \"#utility.yul\":2582:2707   */\n      swap2\n      swap1\n      pop\n      jump\t// out\n        /* \"#utility.yul\":2713:2893   */\n    tag_146:\n        /* \"#utility.yul\":2761:2838   */\n      0x4e487b7100000000000000000000000000000000000000000000000000000000\n        /* \"#utility.yul\":2758:2759   */\n      0x00\n        /* \"#utility.yul\":2751:2839   */\n      mstore\n        /* \"#utility.yul\":2858:2862   */\n      0x11\n        /* \"#utility.yul\":2855:2856   */\n      0x04\n        /* \"#utility.yul\":2848:2863   */\n      mstore\n        /* \"#utility.yul\":2882:2886   */\n      0x24\n        /* \"#utility.yul\":2879:2880   */\n      0x00\n        /* \"#utility.yul\":2872:2887   */\n      revert\n        /* \"#utility.yul\":2899:3079   */\n    tag_71:\n        /* \"#utility.yul\":2947:3024   */\n      0x4e487b7100000000000000000000000000000000000000000000000000000000\n        /* \"#utility.yul\":2944:2945   */\n      0x00\n        /* \"#utility.yul\":2937:3025   */\n      mstore\n        /* \"#utility.yul\":3044:3048   */\n      0x21\n        /* \"#utility.yul\":3041:3042   */\n      0x04\n        /* \"#utility.yul\":3034:3049   */\n      mstore\n        /* \"#utility.yul\":3068:3072   */\n      0x24\n        /* \"#utility.yul\":3065:3066   */\n      0x00\n        /* \"#utility.yul\":3058:3073   */\n      revert\n        /* \"#utility.yul\":3208:3325   */\n    tag_119:\n        /* \"#utility.yul\":3317:3318   */\n      0x00\n        /* \"#utility.yul\":3314:3315   */\n      dup1\n        /* \"#utility.yul\":3307:3319   */\n      revert\n        /* \"#utility.yul\":3331:3443   */\n    tag_156:\n        /* \"#utility.yul\":3411:3412   */\n      0x03\n        /* \"#utility.yul\":3404:3409   */\n      dup2\n        /* \"#utility.yul\":3401:3413   */\n      lt\n        /* \"#utility.yul\":3391:3437   */\n      tag_167\n      jumpi\n        /* \"#utility.yul\":3417:3435   */\n      tag_168\n      tag_71\n      jump\t// in\n    tag_168:\n        /* \"#utility.yul\":3391:3437   */\n    tag_167:\n        /* \"#utility.yul\":3331:3443   */\n      pop\n      jump\t// out\n        /* \"#utility.yul\":3449:3571   */\n    tag_115:\n        /* \"#utility.yul\":3522:3546   */\n      tag_170\n        /* \"#utility.yul\":3540:3545   */\n      dup2\n        /* \"#utility.yul\":3522:3546   */\n      tag_147\n      jump\t// in\n    tag_170:\n        /* \"#utility.yul\":3515:3520   */\n      dup2\n        /* \"#utility.yul\":3512:3547   */\n      eq\n        /* \"#utility.yul\":3502:3565   */\n      tag_171\n      jumpi\n        /* \"#utility.yul\":3561:3562   */\n      0x00\n        /* \"#utility.yul\":3558:3559   */\n      dup1\n        /* \"#utility.yul\":3551:3563   */\n      revert\n        /* \"#utility.yul\":3502:3565   */\n    tag_171:\n        /* \"#utility.yul\":3449:3571   */\n      pop\n      jump\t// out\n\n    auxdata: 0xa264697066735822122006f322b198918e3ac640b331f84dcebccf557526eeeb5e7222a71f40f3afb29064736f6c63430008070033\n}\n",
				"bytecode": {
					"linkReferences": {},
					"object": "6080604052606460045534801561001557600080fd5b50336000806101000a81548173ffffffffffffffffffffffffffffffffffffffff021916908373ffffffffffffffffffffffffffffffffffffffff16021790555061006461006960201b60201c565b6101c8565b60008054906101000a900473ffffffffffffffffffffffffffffffffffffffff1673ffffffffffffffffffffffffffffffffffffffff163373ffffffffffffffffffffffffffffffffffffffff16146100c157600080fd5b60008060146101000a81548160ff021916908360028111156100e6576100e5610199565b5b021790555043600581905550619d80600554610102919061010a565b600681905550565b600061011582610160565b915061012083610160565b9250827fffffffffffffffffffffffffffffffffffffffffffffffffffffffffffffffff038211156101555761015461016a565b5b828201905092915050565b6000819050919050565b7f4e487b7100000000000000000000000000000000000000000000000000000000600052601160045260246000fd5b7f4e487b7100000000000000000000000000000000000000000000000000000000600052602160045260246000fd5b6109f2806101d76000396000f3fe6080604052600436106100955760003560e01c80638fa8b790116100595780638fa8b7901461020157806391f9015714610218578063ecfc7ecc14610243578063f5b56c561461024d578063fe67a54b1461027857610113565b8063083c63231461011857806308bfc3001461014357806348cd4cb11461016e57806362ea82db146101995780638da5cb5b146101d657610113565b366101135760008054906101000a900473ffffffffffffffffffffffffffffffffffffffff1673ffffffffffffffffffffffffffffffffffffffff163373ffffffffffffffffffffffffffffffffffffffff1614156100f357600080fd5b60055443101561010257600080fd5b60065443111561011157600080fd5b005b600080fd5b34801561012457600080fd5b5061012d61028f565b60405161013a919061084a565b60405180910390f35b34801561014f57600080fd5b50610158610295565b604051610165919061082f565b60405180910390f35b34801561017a57600080fd5b506101836102ab565b604051610190919061084a565b60405180910390f35b3480156101a557600080fd5b506101c060048036038101906101bb91906107ba565b6102b1565b6040516101cd919061084a565b60405180910390f35b3480156101e257600080fd5b506101eb6102c9565b6040516101f89190610814565b60405180910390f35b34801561020d57600080fd5b506102166102ed565b005b34801561022457600080fd5b5061022d610372565b60405161023a9190610814565b60405180910390f35b61024b610398565b005b34801561025957600080fd5b506102626106a5565b60405161026f919061084a565b60405180910390f35b34801561028457600080fd5b5061028d6106ab565b005b60065481565b60008060149054906101000a900460ff16905090565b60055481565b60036020528060005260406000206000915090505481565b60008054906101000a900473ffffffffffffffffffffffffffffffffffffffff1681565b60008054906101000a900473ffffffffffffffffffffffffffffffffffffffff1673ffffffffffffffffffffffffffffffffffffffff163373ffffffffffffffffffffffffffffffffffffffff161461034557600080fd5b6002600060146101000a81548160ff0219169083600281111561036b5761036a61095d565b5b0217905550565b600260009054906101000a900473ffffffffffffffffffffffffffffffffffffffff1681565b60008054906101000a900473ffffffffffffffffffffffffffffffffffffffff1673ffffffffffffffffffffffffffffffffffffffff163373ffffffffffffffffffffffffffffffffffffffff1614156103f157600080fd5b60055443101561040057600080fd5b60065443111561040f57600080fd5b600060028111156104235761042261095d565b5b61042b610295565b600281111561043d5761043c61095d565b5b1461044757600080fd5b60045434101561045657600080fd5b600034600360003373ffffffffffffffffffffffffffffffffffffffff1673ffffffffffffffffffffffffffffffffffffffff168152602001908152602001600020546104a39190610865565b905060015481116104b357600080fd5b80600360003373ffffffffffffffffffffffffffffffffffffffff1673ffffffffffffffffffffffffffffffffffffffff1681526020019081526020016000208190555060036000600260009054906101000a900473ffffffffffffffffffffffffffffffffffffffff1673ffffffffffffffffffffffffffffffffffffffff1673ffffffffffffffffffffffffffffffffffffffff1681526020019081526020016000205481116105e2576105d7600454826105709190610865565b60036000600260009054906101000a900473ffffffffffffffffffffffffffffffffffffffff1673ffffffffffffffffffffffffffffffffffffffff1673ffffffffffffffffffffffffffffffffffffffff1681526020019081526020016000205461078a565b6001819055506106a2565b61065a8160045460036000600260009054906101000a900473ffffffffffffffffffffffffffffffffffffffff1673ffffffffffffffffffffffffffffffffffffffff1673ffffffffffffffffffffffffffffffffffffffff168152602001908152602001600020546106559190610865565b61078a565b60018190555033600260006101000a81548173ffffffffffffffffffffffffffffffffffffffff021916908373ffffffffffffffffffffffffffffffffffffffff1602179055505b50565b60015481565b60008054906101000a900473ffffffffffffffffffffffffffffffffffffffff1673ffffffffffffffffffffffffffffffffffffffff163373ffffffffffffffffffffffffffffffffffffffff161461070357600080fd5b60055443101561071257600080fd5b6002808111156107255761072461095d565b5b600060149054906101000a900460ff1660028111156107475761074661095d565b5b1480610754575060065443115b61075d57600080fd5b6001600060146101000a81548160ff021916908360028111156107835761078261095d565b5b0217905550565b600081831161079b5782905061079f565b8190505b92915050565b6000813590506107b4816109a5565b92915050565b6000602082840312156107d0576107cf61098c565b5b60006107de848285016107a5565b91505092915050565b6107f0816108cd565b82525050565b6107ff8161091c565b82525050565b61080e81610912565b82525050565b600060208201905061082960008301846107e7565b92915050565b600060208201905061084460008301846107f6565b92915050565b600060208201905061085f6000830184610805565b92915050565b600061087082610912565b915061087b83610912565b9250827fffffffffffffffffffffffffffffffffffffffffffffffffffffffffffffffff038211156108b0576108af61092e565b5b828201905092915050565b60006108c6826108f2565b9050919050565b60006108d8826108f2565b9050919050565b60008190506108ed82610991565b919050565b600073ffffffffffffffffffffffffffffffffffffffff82169050919050565b6000819050919050565b6000610927826108df565b9050919050565b7f4e487b7100000000000000000000000000000000000000000000000000000000600052601160045260246000fd5b7f4e487b7100000000000000000000000000000000000000000000000000000000600052602160045260246000fd5b600080fd5b600381106109a2576109a161095d565b5b50565b6109ae816108bb565b81146109b957600080fd5b5056fea264697066735822122006f322b198918e3ac640b331f84dcebccf557526eeeb5e7222a71f40f3afb29064736f6c63430008070033",
					"opcodes": "PUSH1 0x80 PUSH1 0x40 MSTORE PUSH1 0x64 PUSH1 0x4 SSTORE CALLVALUE DUP1 ISZERO PUSH2 0x15 JUMPI PUSH1 0x0 DUP1 REVERT JUMPDEST POP CALLER PUSH1 0x0 DUP1 PUSH2 0x100 EXP DUP2 SLOAD DUP2 PUSH20 0xFFFFFFFFFFFFFFFFFFFFFFFFFFFFFFFFFFFFFFFF MUL NOT AND SWAP1 DUP4 PUSH20 0xFFFFFFFFFFFFFFFFFFFFFFFFFFFFFFFFFFFFFFFF AND MUL OR SWAP1 SSTORE POP PUSH2 0x64 PUSH2 0x69 PUSH1 0x20 SHL PUSH1 0x20 SHR JUMP JUMPDEST PUSH2 0x1C8 JUMP JUMPDEST PUSH1 0x0 DUP1 SLOAD SWAP1 PUSH2 0x100 EXP SWAP1 DIV PUSH20 0xFFFFFFFFFFFFFFFFFFFFFFFFFFFFFFFFFFFFFFFF AND PUSH20 0xFFFFFFFFFFFFFFFFFFFFFFFFFFFFFFFFFFFFFFFF AND CALLER PUSH20 0xFFFFFFFFFFFFFFFFFFFFFFFFFFFFFFFFFFFFFFFF AND EQ PUSH2 0xC1 JUMPI PUSH1 0x0 DUP1 REVERT JUMPDEST PUSH1 0x0 DUP1 PUSH1 0x14 PUSH2 0x100 EXP DUP2 SLOAD DUP2 PUSH1 0xFF MUL NOT AND SWAP1 DUP4 PUSH1 0x2 DUP2 GT ISZERO PUSH2 0xE6 JUMPI PUSH2 0xE5 PUSH2 0x199 JUMP JUMPDEST JUMPDEST MUL OR SWAP1 SSTORE POP NUMBER PUSH1 0x5 DUP2 SWAP1 SSTORE POP PUSH2 0x9D80 PUSH1 0x5 SLOAD PUSH2 0x102 SWAP2 SWAP1 PUSH2 0x10A JUMP JUMPDEST PUSH1 0x6 DUP2 SWAP1 SSTORE POP JUMP JUMPDEST PUSH1 0x0 PUSH2 0x115 DUP3 PUSH2 0x160 JUMP JUMPDEST SWAP2 POP PUSH2 0x120 DUP4 PUSH2 0x160 JUMP JUMPDEST SWAP3 POP DUP3 PUSH32 0xFFFFFFFFFFFFFFFFFFFFFFFFFFFFFFFFFFFFFFFFFFFFFFFFFFFFFFFFFFFFFFFF SUB DUP3 GT ISZERO PUSH2 0x155 JUMPI PUSH2 0x154 PUSH2 0x16A JUMP JUMPDEST JUMPDEST DUP3 DUP3 ADD SWAP1 POP SWAP3 SWAP2 POP POP JUMP JUMPDEST PUSH1 0x0 DUP2 SWAP1 POP SWAP2 SWAP1 POP JUMP JUMPDEST PUSH32 0x4E487B7100000000000000000000000000000000000000000000000000000000 PUSH1 0x0 MSTORE PUSH1 0x11 PUSH1 0x4 MSTORE PUSH1 0x24 PUSH1 0x0 REVERT JUMPDEST PUSH32 0x4E487B7100000000000000000000000000000000000000000000000000000000 PUSH1 0x0 MSTORE PUSH1 0x21 PUSH1 0x4 MSTORE PUSH1 0x24 PUSH1 0x0 REVERT JUMPDEST PUSH2 0x9F2 DUP1 PUSH2 0x1D7 PUSH1 0x0 CODECOPY PUSH1 0x0 RETURN INVALID PUSH1 0x80 PUSH1 0x40 MSTORE PUSH1 0x4 CALLDATASIZE LT PUSH2 0x95 JUMPI PUSH1 0x0 CALLDATALOAD PUSH1 0xE0 SHR DUP1 PUSH4 0x8FA8B790 GT PUSH2 0x59 JUMPI DUP1 PUSH4 0x8FA8B790 EQ PUSH2 0x201 JUMPI DUP1 PUSH4 0x91F90157 EQ PUSH2 0x218 JUMPI DUP1 PUSH4 0xECFC7ECC EQ PUSH2 0x243 JUMPI DUP1 PUSH4 0xF5B56C56 EQ PUSH2 0x24D JUMPI DUP1 PUSH4 0xFE67A54B EQ PUSH2 0x278 JUMPI PUSH2 0x113 JUMP JUMPDEST DUP1 PUSH4 0x83C6323 EQ PUSH2 0x118 JUMPI DUP1 PUSH4 0x8BFC300 EQ PUSH2 0x143 JUMPI DUP1 PUSH4 0x48CD4CB1 EQ PUSH2 0x16E JUMPI DUP1 PUSH4 0x62EA82DB EQ PUSH2 0x199 JUMPI DUP1 PUSH4 0x8DA5CB5B EQ PUSH2 0x1D6 JUMPI PUSH2 0x113 JUMP JUMPDEST CALLDATASIZE PUSH2 0x113 JUMPI PUSH1 0x0 DUP1 SLOAD SWAP1 PUSH2 0x100 EXP SWAP1 DIV PUSH20 0xFFFFFFFFFFFFFFFFFFFFFFFFFFFFFFFFFFFFFFFF AND PUSH20 0xFFFFFFFFFFFFFFFFFFFFFFFFFFFFFFFFFFFFFFFF AND CALLER PUSH20 0xFFFFFFFFFFFFFFFFFFFFFFFFFFFFFFFFFFFFFFFF AND EQ ISZERO PUSH2 0xF3 JUMPI PUSH1 0x0 DUP1 REVERT JUMPDEST PUSH1 0x5 SLOAD NUMBER LT ISZERO PUSH2 0x102 JUMPI PUSH1 0x0 DUP1 REVERT JUMPDEST PUSH1 0x6 SLOAD NUMBER GT ISZERO PUSH2 0x111 JUMPI PUSH1 0x0 DUP1 REVERT JUMPDEST STOP JUMPDEST PUSH1 0x0 DUP1 REVERT JUMPDEST CALLVALUE DUP1 ISZERO PUSH2 0x124 JUMPI PUSH1 0x0 DUP1 REVERT JUMPDEST POP PUSH2 0x12D PUSH2 0x28F JUMP JUMPDEST PUSH1 0x40 MLOAD PUSH2 0x13A SWAP2 SWAP1 PUSH2 0x84A JUMP JUMPDEST PUSH1 0x40 MLOAD DUP1 SWAP2 SUB SWAP1 RETURN JUMPDEST CALLVALUE DUP1 ISZERO PUSH2 0x14F JUMPI PUSH1 0x0 DUP1 REVERT JUMPDEST POP PUSH2 0x158 PUSH2 0x295 JUMP JUMPDEST PUSH1 0x40 MLOAD PUSH2 0x165 SWAP2 SWAP1 PUSH2 0x82F JUMP JUMPDEST PUSH1 0x40 MLOAD DUP1 SWAP2 SUB SWAP1 RETURN JUMPDEST CALLVALUE DUP1 ISZERO PUSH2 0x17A JUMPI PUSH1 0x0 DUP1 REVERT JUMPDEST POP PUSH2 0x183 PUSH2 0x2AB JUMP JUMPDEST PUSH1 0x40 MLOAD PUSH2 0x190 SWAP2 SWAP1 PUSH2 0x84A JUMP JUMPDEST PUSH1 0x40 MLOAD DUP1 SWAP2 SUB SWAP1 RETURN JUMPDEST CALLVALUE DUP1 ISZERO PUSH2 0x1A5 JUMPI PUSH1 0x0 DUP1 REVERT JUMPDEST POP PUSH2 0x1C0 PUSH1 0x4 DUP1 CALLDATASIZE SUB DUP2 ADD SWAP1 PUSH2 0x1BB SWAP2 SWAP1 PUSH2 0x7BA JUMP JUMPDEST PUSH2 0x2B1 JUMP JUMPDEST PUSH1 0x40 MLOAD PUSH2 0x1CD SWAP2 SWAP1 PUSH2 0x84A JUMP JUMPDEST PUSH1 0x40 MLOAD DUP1 SWAP2 SUB SWAP1 RETURN JUMPDEST CALLVALUE DUP1 ISZERO PUSH2 0x1E2 JUMPI PUSH1 0x0 DUP1 REVERT JUMPDEST POP PUSH2 0x1EB PUSH2 0x2C9 JUMP JUMPDEST PUSH1 0x40 MLOAD PUSH2 0x1F8 SWAP2 SWAP1 PUSH2 0x814 JUMP JUMPDEST PUSH1 0x40 MLOAD DUP1 SWAP2 SUB SWAP1 RETURN JUMPDEST CALLVALUE DUP1 ISZERO PUSH2 0x20D JUMPI PUSH1 0x0 DUP1 REVERT JUMPDEST POP PUSH2 0x216 PUSH2 0x2ED JUMP JUMPDEST STOP JUMPDEST CALLVALUE DUP1 ISZERO PUSH2 0x224 JUMPI PUSH1 0x0 DUP1 REVERT JUMPDEST POP PUSH2 0x22D PUSH2 0x372 JUMP JUMPDEST PUSH1 0x40 MLOAD PUSH2 0x23A SWAP2 SWAP1 PUSH2 0x814 JUMP JUMPDEST PUSH1 0x40 MLOAD DUP1 SWAP2 SUB SWAP1 RETURN JUMPDEST PUSH2 0x24B PUSH2 0x398 JUMP JUMPDEST STOP JUMPDEST CALLVALUE DUP1 ISZERO PUSH2 0x259 JUMPI PUSH1 0x0 DUP1 REVERT JUMPDEST POP PUSH2 0x262 PUSH2 0x6A5 JUMP JUMPDEST PUSH1 0x40 MLOAD PUSH2 0x26F SWAP2 SWAP1 PUSH2 0x84A JUMP JUMPDEST PUSH1 0x40 MLOAD DUP1 SWAP2 SUB SWAP1 RETURN JUMPDEST CALLVALUE DUP1 ISZERO PUSH2 0x284 JUMPI PUSH1 0x0 DUP1 REVERT JUMPDEST POP PUSH2 0x28D PUSH2 0x6AB JUMP JUMPDEST STOP JUMPDEST PUSH1 0x6 SLOAD DUP2 JUMP JUMPDEST PUSH1 0x0 DUP1 PUSH1 0x14 SWAP1 SLOAD SWAP1 PUSH2 0x100 EXP SWAP1 DIV PUSH1 0xFF AND SWAP1 POP SWAP1 JUMP JUMPDEST PUSH1 0x5 SLOAD DUP2 JUMP JUMPDEST PUSH1 0x3 PUSH1 0x20 MSTORE DUP1 PUSH1 0x0 MSTORE PUSH1 0x40 PUSH1 0x0 KECCAK256 PUSH1 0x0 SWAP2 POP SWAP1 POP SLOAD DUP2 JUMP JUMPDEST PUSH1 0x0 DUP1 SLOAD SWAP1 PUSH2 0x100 EXP SWAP1 DIV PUSH20 0xFFFFFFFFFFFFFFFFFFFFFFFFFFFFFFFFFFFFFFFF AND DUP2 JUMP JUMPDEST PUSH1 0x0 DUP1 SLOAD SWAP1 PUSH2 0x100 EXP SWAP1 DIV PUSH20 0xFFFFFFFFFFFFFFFFFFFFFFFFFFFFFFFFFFFFFFFF AND PUSH20 0xFFFFFFFFFFFFFFFFFFFFFFFFFFFFFFFFFFFFFFFF AND CALLER PUSH20 0xFFFFFFFFFFFFFFFFFFFFFFFFFFFFFFFFFFFFFFFF AND EQ PUSH2 0x345 JUMPI PUSH1 0x0 DUP1 REVERT JUMPDEST PUSH1 0x2 PUSH1 0x0 PUSH1 0x14 PUSH2 0x100 EXP DUP2 SLOAD DUP2 PUSH1 0xFF MUL NOT AND SWAP1 DUP4 PUSH1 0x2 DUP2 GT ISZERO PUSH2 0x36B JUMPI PUSH2 0x36A PUSH2 0x95D JUMP JUMPDEST JUMPDEST MUL OR SWAP1 SSTORE POP JUMP JUMPDEST PUSH1 0x2 PUSH1 0x0 SWAP1 SLOAD SWAP1 PUSH2 0x100 EXP SWAP1 DIV PUSH20 0xFFFFFFFFFFFFFFFFFFFFFFFFFFFFFFFFFFFFFFFF AND DUP2 JUMP JUMPDEST PUSH1 0x0 DUP1 SLOAD SWAP1 PUSH2 0x100 EXP SWAP1 DIV PUSH20 0xFFFFFFFFFFFFFFFFFFFFFFFFFFFFFFFFFFFFFFFF AND PUSH20 0xFFFFFFFFFFFFFFFFFFFFFFFFFFFFFFFFFFFFFFFF AND CALLER PUSH20 0xFFFFFFFFFFFFFFFFFFFFFFFFFFFFFFFFFFFFFFFF AND EQ ISZERO PUSH2 0x3F1 JUMPI PUSH1 0x0 DUP1 REVERT JUMPDEST PUSH1 0x5 SLOAD NUMBER LT ISZERO PUSH2 0x400 JUMPI PUSH1 0x0 DUP1 REVERT JUMPDEST PUSH1 0x6 SLOAD NUMBER GT ISZERO PUSH2 0x40F JUMPI PUSH1 0x0 DUP1 REVERT JUMPDEST PUSH1 0x0 PUSH1 0x2 DUP2 GT ISZERO PUSH2 0x423 JUMPI PUSH2 0x422 PUSH2 0x95D JUMP JUMPDEST JUMPDEST PUSH2 0x42B PUSH2 0x295 JUMP JUMPDEST PUSH1 0x2 DUP2 GT ISZERO PUSH2 0x43D JUMPI PUSH2 0x43C PUSH2 0x95D JUMP JUMPDEST JUMPDEST EQ PUSH2 0x447 JUMPI PUSH1 0x0 DUP1 REVERT JUMPDEST PUSH1 0x4 SLOAD CALLVALUE LT ISZERO PUSH2 0x456 JUMPI PUSH1 0x0 DUP1 REVERT JUMPDEST PUSH1 0x0 CALLVALUE PUSH1 0x3 PUSH1 0x0 CALLER PUSH20 0xFFFFFFFFFFFFFFFFFFFFFFFFFFFFFFFFFFFFFFFF AND PUSH20 0xFFFFFFFFFFFFFFFFFFFFFFFFFFFFFFFFFFFFFFFF AND DUP2 MSTORE PUSH1 0x20 ADD SWAP1 DUP2 MSTORE PUSH1 0x20 ADD PUSH1 0x0 KECCAK256 SLOAD PUSH2 0x4A3 SWAP2 SWAP1 PUSH2 0x865 JUMP JUMPDEST SWAP1 POP PUSH1 0x1 SLOAD DUP2 GT PUSH2 0x4B3 JUMPI PUSH1 0x0 DUP1 REVERT JUMPDEST DUP1 PUSH1 0x3 PUSH1 0x0 CALLER PUSH20 0xFFFFFFFFFFFFFFFFFFFFFFFFFFFFFFFFFFFFFFFF AND PUSH20 0xFFFFFFFFFFFFFFFFFFFFFFFFFFFFFFFFFFFFFFFF AND DUP2 MSTORE PUSH1 0x20 ADD SWAP1 DUP2 MSTORE PUSH1 0x20 ADD PUSH1 0x0 KECCAK256 DUP2 SWAP1 SSTORE POP PUSH1 0x3 PUSH1 0x0 PUSH1 0x2 PUSH1 0x0 SWAP1 SLOAD SWAP1 PUSH2 0x100 EXP SWAP1 DIV PUSH20 0xFFFFFFFFFFFFFFFFFFFFFFFFFFFFFFFFFFFFFFFF AND PUSH20 0xFFFFFFFFFFFFFFFFFFFFFFFFFFFFFFFFFFFFFFFF AND PUSH20 0xFFFFFFFFFFFFFFFFFFFFFFFFFFFFFFFFFFFFFFFF AND DUP2 MSTORE PUSH1 0x20 ADD SWAP1 DUP2 MSTORE PUSH1 0x20 ADD PUSH1 0x0 KECCAK256 SLOAD DUP2 GT PUSH2 0x5E2 JUMPI PUSH2 0x5D7 PUSH1 0x4 SLOAD DUP3 PUSH2 0x570 SWAP2 SWAP1 PUSH2 0x865 JUMP JUMPDEST PUSH1 0x3 PUSH1 0x0 PUSH1 0x2 PUSH1 0x0 SWAP1 SLOAD SWAP1 PUSH2 0x100 EXP SWAP1 DIV PUSH20 0xFFFFFFFFFFFFFFFFFFFFFFFFFFFFFFFFFFFFFFFF AND PUSH20 0xFFFFFFFFFFFFFFFFFFFFFFFFFFFFFFFFFFFFFFFF AND PUSH20 0xFFFFFFFFFFFFFFFFFFFFFFFFFFFFFFFFFFFFFFFF AND DUP2 MSTORE PUSH1 0x20 ADD SWAP1 DUP2 MSTORE PUSH1 0x20 ADD PUSH1 0x0 KECCAK256 SLOAD PUSH2 0x78A JUMP JUMPDEST PUSH1 0x1 DUP2 SWAP1 SSTORE POP PUSH2 0x6A2 JUMP JUMPDEST PUSH2 0x65A DUP2 PUSH1 0x4 SLOAD PUSH1 0x3 PUSH1 0x0 PUSH1 0x2 PUSH1 0x0 SWAP1 SLOAD SWAP1 PUSH2 0x100 EXP SWAP1 DIV PUSH20 0xFFFFFFFFFFFFFFFFFFFFFFFFFFFFFFFFFFFFFFFF AND PUSH20 0xFFFFFFFFFFFFFFFFFFFFFFFFFFFFFFFFFFFFFFFF AND PUSH20 0xFFFFFFFFFFFFFFFFFFFFFFFFFFFFFFFFFFFFFFFF AND DUP2 MSTORE PUSH1 0x20 ADD SWAP1 DUP2 MSTORE PUSH1 0x20 ADD PUSH1 0x0 KECCAK256 SLOAD PUSH2 0x655 SWAP2 SWAP1 PUSH2 0x865 JUMP JUMPDEST PUSH2 0x78A JUMP JUMPDEST PUSH1 0x1 DUP2 SWAP1 SSTORE POP CALLER PUSH1 0x2 PUSH1 0x0 PUSH2 0x100 EXP DUP2 SLOAD DUP2 PUSH20 0xFFFFFFFFFFFFFFFFFFFFFFFFFFFFFFFFFFFFFFFF MUL NOT AND SWAP1 DUP4 PUSH20 0xFFFFFFFFFFFFFFFFFFFFFFFFFFFFFFFFFFFFFFFF AND MUL OR SWAP1 SSTORE POP JUMPDEST POP JUMP JUMPDEST PUSH1 0x1 SLOAD DUP2 JUMP JUMPDEST PUSH1 0x0 DUP1 SLOAD SWAP1 PUSH2 0x100 EXP SWAP1 DIV PUSH20 0xFFFFFFFFFFFFFFFFFFFFFFFFFFFFFFFFFFFFFFFF AND PUSH20 0xFFFFFFFFFFFFFFFFFFFFFFFFFFFFFFFFFFFFFFFF AND CALLER PUSH20 0xFFFFFFFFFFFFFFFFFFFFFFFFFFFFFFFFFFFFFFFF AND EQ PUSH2 0x703 JUMPI PUSH1 0x0 DUP1 REVERT JUMPDEST PUSH1 0x5 SLOAD NUMBER LT ISZERO PUSH2 0x712 JUMPI PUSH1 0x0 DUP1 REVERT JUMPDEST PUSH1 0x2 DUP1 DUP2 GT ISZERO PUSH2 0x725 JUMPI PUSH2 0x724 PUSH2 0x95D JUMP JUMPDEST JUMPDEST PUSH1 0x0 PUSH1 0x14 SWAP1 SLOAD SWAP1 PUSH2 0x100 EXP SWAP1 DIV PUSH1 0xFF AND PUSH1 0x2 DUP2 GT ISZERO PUSH2 0x747 JUMPI PUSH2 0x746 PUSH2 0x95D JUMP JUMPDEST JUMPDEST EQ DUP1 PUSH2 0x754 JUMPI POP PUSH1 0x6 SLOAD NUMBER GT JUMPDEST PUSH2 0x75D JUMPI PUSH1 0x0 DUP1 REVERT JUMPDEST PUSH1 0x1 PUSH1 0x0 PUSH1 0x14 PUSH2 0x100 EXP DUP2 SLOAD DUP2 PUSH1 0xFF MUL NOT AND SWAP1 DUP4 PUSH1 0x2 DUP2 GT ISZERO PUSH2 0x783 JUMPI PUSH2 0x782 PUSH2 0x95D JUMP JUMPDEST JUMPDEST MUL OR SWAP1 SSTORE POP JUMP JUMPDEST PUSH1 0x0 DUP2 DUP4 GT PUSH2 0x79B JUMPI DUP3 SWAP1 POP PUSH2 0x79F JUMP JUMPDEST DUP2 SWAP1 POP JUMPDEST SWAP3 SWAP2 POP POP JUMP JUMPDEST PUSH1 0x0 DUP2 CALLDATALOAD SWAP1 POP PUSH2 0x7B4 DUP2 PUSH2 0x9A5 JUMP JUMPDEST SWAP3 SWAP2 POP POP JUMP JUMPDEST PUSH1 0x0 PUSH1 0x20 DUP3 DUP5 SUB SLT ISZERO PUSH2 0x7D0 JUMPI PUSH2 0x7CF PUSH2 0x98C JUMP JUMPDEST JUMPDEST PUSH1 0x0 PUSH2 0x7DE DUP5 DUP3 DUP6 ADD PUSH2 0x7A5 JUMP JUMPDEST SWAP2 POP POP SWAP3 SWAP2 POP POP JUMP JUMPDEST PUSH2 0x7F0 DUP2 PUSH2 0x8CD JUMP JUMPDEST DUP3 MSTORE POP POP JUMP JUMPDEST PUSH2 0x7FF DUP2 PUSH2 0x91C JUMP JUMPDEST DUP3 MSTORE POP POP JUMP JUMPDEST PUSH2 0x80E DUP2 PUSH2 0x912 JUMP JUMPDEST DUP3 MSTORE POP POP JUMP JUMPDEST PUSH1 0x0 PUSH1 0x20 DUP3 ADD SWAP1 POP PUSH2 0x829 PUSH1 0x0 DUP4 ADD DUP5 PUSH2 0x7E7 JUMP JUMPDEST SWAP3 SWAP2 POP POP JUMP JUMPDEST PUSH1 0x0 PUSH1 0x20 DUP3 ADD SWAP1 POP PUSH2 0x844 PUSH1 0x0 DUP4 ADD DUP5 PUSH2 0x7F6 JUMP JUMPDEST SWAP3 SWAP2 POP POP JUMP JUMPDEST PUSH1 0x0 PUSH1 0x20 DUP3 ADD SWAP1 POP PUSH2 0x85F PUSH1 0x0 DUP4 ADD DUP5 PUSH2 0x805 JUMP JUMPDEST SWAP3 SWAP2 POP POP JUMP JUMPDEST PUSH1 0x0 PUSH2 0x870 DUP3 PUSH2 0x912 JUMP JUMPDEST SWAP2 POP PUSH2 0x87B DUP4 PUSH2 0x912 JUMP JUMPDEST SWAP3 POP DUP3 PUSH32 0xFFFFFFFFFFFFFFFFFFFFFFFFFFFFFFFFFFFFFFFFFFFFFFFFFFFFFFFFFFFFFFFF SUB DUP3 GT ISZERO PUSH2 0x8B0 JUMPI PUSH2 0x8AF PUSH2 0x92E JUMP JUMPDEST JUMPDEST DUP3 DUP3 ADD SWAP1 POP SWAP3 SWAP2 POP POP JUMP JUMPDEST PUSH1 0x0 PUSH2 0x8C6 DUP3 PUSH2 0x8F2 JUMP JUMPDEST SWAP1 POP SWAP2 SWAP1 POP JUMP JUMPDEST PUSH1 0x0 PUSH2 0x8D8 DUP3 PUSH2 0x8F2 JUMP JUMPDEST SWAP1 POP SWAP2 SWAP1 POP JUMP JUMPDEST PUSH1 0x0 DUP2 SWAP1 POP PUSH2 0x8ED DUP3 PUSH2 0x991 JUMP JUMPDEST SWAP2 SWAP1 POP JUMP JUMPDEST PUSH1 0x0 PUSH20 0xFFFFFFFFFFFFFFFFFFFFFFFFFFFFFFFFFFFFFFFF DUP3 AND SWAP1 POP SWAP2 SWAP1 POP JUMP JUMPDEST PUSH1 0x0 DUP2 SWAP1 POP SWAP2 SWAP1 POP JUMP JUMPDEST PUSH1 0x0 PUSH2 0x927 DUP3 PUSH2 0x8DF JUMP JUMPDEST SWAP1 POP SWAP2 SWAP1 POP JUMP JUMPDEST PUSH32 0x4E487B7100000000000000000000000000000000000000000000000000000000 PUSH1 0x0 MSTORE PUSH1 0x11 PUSH1 0x4 MSTORE PUSH1 0x24 PUSH1 0x0 REVERT JUMPDEST PUSH32 0x4E487B7100000000000000000000000000000000000000000000000000000000 PUSH1 0x0 MSTORE PUSH1 0x21 PUSH1 0x4 MSTORE PUSH1 0x24 PUSH1 0x0 REVERT JUMPDEST PUSH1 0x0 DUP1 REVERT JUMPDEST PUSH1 0x3 DUP2 LT PUSH2 0x9A2 JUMPI PUSH2 0x9A1 PUSH2 0x95D JUMP JUMPDEST JUMPDEST POP JUMP JUMPDEST PUSH2 0x9AE DUP2 PUSH2 0x8BB JUMP JUMPDEST DUP2 EQ PUSH2 0x9B9 JUMPI PUSH1 0x0 DUP1 REVERT JUMPDEST POP JUMP INVALID LOG2 PUSH5 0x6970667358 0x22 SLT KECCAK256 MOD RETURN 0x22 0xB1 SWAP9 SWAP2 DUP15 GASPRICE 0xC6 BLOCKHASH 0xB3 BALANCE 0xF8 0x4D 0xCE 0xBC 0xCF SSTORE PUSH22 0x26EEEB5E7222A71F40F3AFB29064736F6C6343000807 STOP CALLER "
				},
				"gasEstimates": {
					"creation": {
						"codeDepositCost": "509200",
						"executionCost": "infinite",
						"totalCost": "infinite"
					},
					"external": {
						"": "202",
						"bids(address)": "2881",
						"cancelAuction()": "26648",
						"endAuction()": "33249",
						"endBlock()": "2430",
						"getAuctionState()": "2641",
						"highestBidder()": "2536",
						"highestBindingBid()": "2495",
						"owner()": "2600",
						"placeBid()": "infinite",
						"startBlock()": "2474"
					},
					"internal": {
						"min(uint256,uint256)": "64",
						"startAuction()": "infinite"
					}
				},
				"methodIdentifiers": {
					"bids(address)": "62ea82db",
					"cancelAuction()": "8fa8b790",
					"endAuction()": "fe67a54b",
					"endBlock()": "083c6323",
					"getAuctionState()": "08bfc300",
					"highestBidder()": "91f90157",
					"highestBindingBid()": "f5b56c56",
					"owner()": "8da5cb5b",
					"placeBid()": "ecfc7ecc",
					"startBlock()": "48cd4cb1"
				}
			},
			"storageLayout": {
				"storage": [
					{
						"astId": 3,
						"contract": "contracts/auction.sol:Auction",
						"label": "owner",
						"offset": 0,
						"slot": "0",
						"type": "t_address_payable"
					},
					{
						"astId": 10,
						"contract": "contracts/auction.sol:Auction",
						"label": "auctionStatus",
						"offset": 20,
						"slot": "0",
						"type": "t_enum(State)7"
					},
					{
						"astId": 12,
						"contract": "contracts/auction.sol:Auction",
						"label": "highestBindingBid",
						"offset": 0,
						"slot": "1",
						"type": "t_uint256"
					},
					{
						"astId": 14,
						"contract": "contracts/auction.sol:Auction",
						"label": "highestBidder",
						"offset": 0,
						"slot": "2",
						"type": "t_address_payable"
					},
					{
						"astId": 18,
						"contract": "contracts/auction.sol:Auction",
						"label": "bids",
						"offset": 0,
						"slot": "3",
						"type": "t_mapping(t_address,t_uint256)"
					},
					{
						"astId": 21,
						"contract": "contracts/auction.sol:Auction",
						"label": "bidIncrement",
						"offset": 0,
						"slot": "4",
						"type": "t_uint256"
					},
					{
						"astId": 23,
						"contract": "contracts/auction.sol:Auction",
						"label": "startBlock",
						"offset": 0,
						"slot": "5",
						"type": "t_uint256"
					},
					{
						"astId": 25,
						"contract": "contracts/auction.sol:Auction",
						"label": "endBlock",
						"offset": 0,
						"slot": "6",
						"type": "t_uint256"
					}
				],
				"types": {
					"t_address": {
						"encoding": "inplace",
						"label": "address",
						"numberOfBytes": "20"
					},
					"t_address_payable": {
						"encoding": "inplace",
						"label": "address payable",
						"numberOfBytes": "20"
					},
					"t_enum(State)7": {
						"encoding": "inplace",
						"label": "enum Auction.State",
						"numberOfBytes": "1"
					},
					"t_mapping(t_address,t_uint256)": {
						"encoding": "mapping",
						"key": "t_address",
						"label": "mapping(address => uint256)",
						"numberOfBytes": "32",
						"value": "t_uint256"
					},
					"t_uint256": {
						"encoding": "inplace",
						"label": "uint256",
						"numberOfBytes": "32"
					}
				}
			},
			"userdoc": {
				"kind": "user",
				"methods": {},
				"version": 1
			}
		}
	}
}