{
	"contracts/auction.sol": {
		"Auction": {
			"abi": [
				{
					"inputs": [],
					"stateMutability": "nonpayable",
					"type": "constructor"
				},
				{
					"stateMutability": "payable",
					"type": "fallback"
				},
				{
					"inputs": [],
					"name": "auctionStatus",
					"outputs": [
						{
							"internalType": "enum Auction.State",
							"name": "",
							"type": "uint8"
						}
					],
					"stateMutability": "view",
					"type": "function"
				},
				{
					"inputs": [
						{
							"internalType": "address",
							"name": "",
							"type": "address"
						}
					],
					"name": "bids",
					"outputs": [
						{
							"internalType": "uint256",
							"name": "",
							"type": "uint256"
						}
					],
					"stateMutability": "view",
					"type": "function"
				},
				{
					"inputs": [],
					"name": "endBlock",
					"outputs": [
						{
							"internalType": "uint256",
							"name": "",
							"type": "uint256"
						}
					],
					"stateMutability": "view",
					"type": "function"
				},
				{
					"inputs": [],
					"name": "getAuctionState",
					"outputs": [
						{
							"internalType": "enum Auction.State",
							"name": "",
							"type": "uint8"
						}
					],
					"stateMutability": "view",
					"type": "function"
				},
				{
					"inputs": [],
					"name": "highestBidder",
					"outputs": [
						{
							"internalType": "address payable",
							"name": "",
							"type": "address"
						}
					],
					"stateMutability": "view",
					"type": "function"
				},
				{
					"inputs": [],
					"name": "highestBindingBid",
					"outputs": [
						{
							"internalType": "uint256",
							"name": "",
							"type": "uint256"
						}
					],
					"stateMutability": "view",
					"type": "function"
				},
				{
					"inputs": [],
					"name": "owner",
					"outputs": [
						{
							"internalType": "address payable",
							"name": "",
							"type": "address"
						}
					],
					"stateMutability": "view",
					"type": "function"
				},
				{
					"inputs": [],
					"name": "placeBid",
					"outputs": [],
					"stateMutability": "payable",
					"type": "function"
				},
				{
					"inputs": [],
					"name": "startBlock",
					"outputs": [
						{
							"internalType": "uint256",
							"name": "",
							"type": "uint256"
						}
					],
					"stateMutability": "view",
					"type": "function"
				},
				{
					"stateMutability": "payable",
					"type": "receive"
				}
			],
			"devdoc": {
				"kind": "dev",
				"methods": {},
				"version": 1
			},
			"evm": {
				"assembly": "    /* \"contracts/auction.sol\":73:2681  contract Auction{\r... */\n  mstore(0x40, 0x80)\n    /* \"contracts/auction.sol\":356:359  100 */\n  0x64\n    /* \"contracts/auction.sol\":336:359  uint bidIncrement = 100 */\n  0x04\n  sstore\n    /* \"contracts/auction.sol\":426:512  constructor(){\r... */\n  callvalue\n  dup1\n  iszero\n  tag_1\n  jumpi\n  0x00\n  dup1\n  revert\ntag_1:\n  pop\n    /* \"contracts/auction.sol\":466:476  msg.sender */\n  caller\n    /* \"contracts/auction.sol\":450:455  owner */\n  0x00\n  dup1\n    /* \"contracts/auction.sol\":450:477  owner = payable(msg.sender) */\n  0x0100\n  exp\n  dup2\n  sload\n  dup2\n  0xffffffffffffffffffffffffffffffffffffffff\n  mul\n  not\n  and\n  swap1\n  dup4\n  0xffffffffffffffffffffffffffffffffffffffff\n  and\n  mul\n  or\n  swap1\n  sstore\n  pop\n    /* \"contracts/auction.sol\":73:2681  contract Auction{\r... */\n  dataSize(sub_0)\n  dup1\n  dataOffset(sub_0)\n  0x00\n  codecopy\n  0x00\n  return\nstop\n\nsub_0: assembly {\n        /* \"contracts/auction.sol\":73:2681  contract Auction{\r... */\n      mstore(0x40, 0x80)\n      jumpi(tag_1, lt(calldatasize, 0x04))\n      shr(0xe0, calldataload(0x00))\n      dup1\n      0x8da5cb5b\n      gt\n      tag_12\n      jumpi\n      dup1\n      0x8da5cb5b\n      eq\n      tag_7\n      jumpi\n      dup1\n      0x91f90157\n      eq\n      tag_8\n      jumpi\n      dup1\n      0x9d6a0f28\n      eq\n      tag_9\n      jumpi\n      dup1\n      0xecfc7ecc\n      eq\n      tag_10\n      jumpi\n      dup1\n      0xf5b56c56\n      eq\n      tag_11\n      jumpi\n      jump(tag_2)\n    tag_12:\n      dup1\n      0x083c6323\n      eq\n      tag_3\n      jumpi\n      dup1\n      0x08bfc300\n      eq\n      tag_4\n      jumpi\n      dup1\n      0x48cd4cb1\n      eq\n      tag_5\n      jumpi\n      dup1\n      0x62ea82db\n      eq\n      tag_6\n      jumpi\n      jump(tag_2)\n    tag_1:\n      jumpi(tag_2, calldatasize)\n        /* \"contracts/auction.sol\":657:662  owner */\n      0x00\n      dup1\n      sload\n      swap1\n      0x0100\n      exp\n      swap1\n      div\n      0xffffffffffffffffffffffffffffffffffffffff\n      and\n        /* \"contracts/auction.sol\":643:662  msg.sender != owner */\n      0xffffffffffffffffffffffffffffffffffffffff\n      and\n        /* \"contracts/auction.sol\":643:653  msg.sender */\n      caller\n        /* \"contracts/auction.sol\":643:662  msg.sender != owner */\n      0xffffffffffffffffffffffffffffffffffffffff\n      and\n      eq\n      iszero\n        /* \"contracts/auction.sol\":635:663  require(msg.sender != owner) */\n      tag_15\n      jumpi\n      0x00\n      dup1\n      revert\n    tag_15:\n        /* \"contracts/auction.sol\":745:755  startBlock */\n      sload(0x05)\n        /* \"contracts/auction.sol\":729:741  block.number */\n      number\n        /* \"contracts/auction.sol\":729:755  block.number >= startBlock */\n      lt\n      iszero\n        /* \"contracts/auction.sol\":721:756  require(block.number >= startBlock) */\n      tag_17\n      jumpi\n      0x00\n      dup1\n      revert\n    tag_17:\n        /* \"contracts/auction.sol\":837:845  endBlock */\n      sload(0x06)\n        /* \"contracts/auction.sol\":821:833  block.number */\n      number\n        /* \"contracts/auction.sol\":821:845  block.number <= endBlock */\n      gt\n      iszero\n        /* \"contracts/auction.sol\":813:846  require(block.number <= endBlock) */\n      tag_19\n      jumpi\n      0x00\n      dup1\n      revert\n    tag_19:\n        /* \"contracts/auction.sol\":73:2681  contract Auction{\r... */\n      stop\n    tag_2:\n        /* \"contracts/auction.sol\":1027:1035  revert() */\n      0x00\n      dup1\n      revert\n        /* \"contracts/auction.sol\":397:417  uint public endBlock */\n    tag_3:\n      callvalue\n      dup1\n      iszero\n      tag_23\n      jumpi\n      0x00\n      dup1\n      revert\n    tag_23:\n      pop\n      tag_24\n      tag_25\n      jump\t// in\n    tag_24:\n      mload(0x40)\n      tag_26\n      swap2\n      swap1\n      tag_27\n      jump\t// in\n    tag_26:\n      mload(0x40)\n      dup1\n      swap2\n      sub\n      swap1\n      return\n        /* \"contracts/auction.sol\":1885:1977  function getAuctionState() public view returns(State){\r... */\n    tag_4:\n      callvalue\n      dup1\n      iszero\n      tag_28\n      jumpi\n      0x00\n      dup1\n      revert\n    tag_28:\n      pop\n      tag_29\n      tag_30\n      jump\t// in\n    tag_29:\n      mload(0x40)\n      tag_31\n      swap2\n      swap1\n      tag_32\n      jump\t// in\n    tag_31:\n      mload(0x40)\n      dup1\n      swap2\n      sub\n      swap1\n      return\n        /* \"contracts/auction.sol\":368:390  uint public startBlock */\n    tag_5:\n      callvalue\n      dup1\n      iszero\n      tag_33\n      jumpi\n      0x00\n      dup1\n      revert\n    tag_33:\n      pop\n      tag_34\n      tag_35\n      jump\t// in\n    tag_34:\n      mload(0x40)\n      tag_36\n      swap2\n      swap1\n      tag_27\n      jump\t// in\n    tag_36:\n      mload(0x40)\n      dup1\n      swap2\n      sub\n      swap1\n      return\n        /* \"contracts/auction.sol\":291:327  mapping(address => uint) public bids */\n    tag_6:\n      callvalue\n      dup1\n      iszero\n      tag_37\n      jumpi\n      0x00\n      dup1\n      revert\n    tag_37:\n      pop\n      tag_38\n      0x04\n      dup1\n      calldatasize\n      sub\n      dup2\n      add\n      swap1\n      tag_39\n      swap2\n      swap1\n      tag_40\n      jump\t// in\n    tag_39:\n      tag_41\n      jump\t// in\n    tag_38:\n      mload(0x40)\n      tag_42\n      swap2\n      swap1\n      tag_27\n      jump\t// in\n    tag_42:\n      mload(0x40)\n      dup1\n      swap2\n      sub\n      swap1\n      return\n        /* \"contracts/auction.sol\":98:126  address payable public owner */\n    tag_7:\n      callvalue\n      dup1\n      iszero\n      tag_43\n      jumpi\n      0x00\n      dup1\n      revert\n    tag_43:\n      pop\n      tag_44\n      tag_45\n      jump\t// in\n    tag_44:\n      mload(0x40)\n      tag_46\n      swap2\n      swap1\n      tag_47\n      jump\t// in\n    tag_46:\n      mload(0x40)\n      dup1\n      swap2\n      sub\n      swap1\n      return\n        /* \"contracts/auction.sol\":246:282  address payable public highestBidder */\n    tag_8:\n      callvalue\n      dup1\n      iszero\n      tag_48\n      jumpi\n      0x00\n      dup1\n      revert\n    tag_48:\n      pop\n      tag_49\n      tag_50\n      jump\t// in\n    tag_49:\n      mload(0x40)\n      tag_51\n      swap2\n      swap1\n      tag_47\n      jump\t// in\n    tag_51:\n      mload(0x40)\n      dup1\n      swap2\n      sub\n      swap1\n      return\n        /* \"contracts/auction.sol\":175:201  State public auctionStatus */\n    tag_9:\n      callvalue\n      dup1\n      iszero\n      tag_52\n      jumpi\n      0x00\n      dup1\n      revert\n    tag_52:\n      pop\n      tag_53\n      tag_54\n      jump\t// in\n    tag_53:\n      mload(0x40)\n      tag_55\n      swap2\n      swap1\n      tag_32\n      jump\t// in\n    tag_55:\n      mload(0x40)\n      dup1\n      swap2\n      sub\n      swap1\n      return\n        /* \"contracts/auction.sol\":1051:1680  function placeBid() public payable notOwner afterStart beforeEnd{\r... */\n    tag_10:\n      tag_56\n      tag_57\n      jump\t// in\n    tag_56:\n      stop\n        /* \"contracts/auction.sol\":210:239  uint public highestBindingBid */\n    tag_11:\n      callvalue\n      dup1\n      iszero\n      tag_58\n      jumpi\n      0x00\n      dup1\n      revert\n    tag_58:\n      pop\n      tag_59\n      tag_60\n      jump\t// in\n    tag_59:\n      mload(0x40)\n      tag_61\n      swap2\n      swap1\n      tag_27\n      jump\t// in\n    tag_61:\n      mload(0x40)\n      dup1\n      swap2\n      sub\n      swap1\n      return\n        /* \"contracts/auction.sol\":397:417  uint public endBlock */\n    tag_25:\n      sload(0x06)\n      dup2\n      jump\t// out\n        /* \"contracts/auction.sol\":1885:1977  function getAuctionState() public view returns(State){\r... */\n    tag_30:\n        /* \"contracts/auction.sol\":1932:1937  State */\n      0x00\n        /* \"contracts/auction.sol\":1956:1969  auctionStatus */\n      dup1\n      0x14\n      swap1\n      sload\n      swap1\n      0x0100\n      exp\n      swap1\n      div\n      0xff\n      and\n        /* \"contracts/auction.sol\":1949:1969  return auctionStatus */\n      swap1\n      pop\n        /* \"contracts/auction.sol\":1885:1977  function getAuctionState() public view returns(State){\r... */\n      swap1\n      jump\t// out\n        /* \"contracts/auction.sol\":368:390  uint public startBlock */\n    tag_35:\n      sload(0x05)\n      dup2\n      jump\t// out\n        /* \"contracts/auction.sol\":291:327  mapping(address => uint) public bids */\n    tag_41:\n      mstore(0x20, 0x03)\n      dup1\n      0x00\n      mstore\n      keccak256(0x00, 0x40)\n      0x00\n      swap2\n      pop\n      swap1\n      pop\n      sload\n      dup2\n      jump\t// out\n        /* \"contracts/auction.sol\":98:126  address payable public owner */\n    tag_45:\n      0x00\n      dup1\n      sload\n      swap1\n      0x0100\n      exp\n      swap1\n      div\n      0xffffffffffffffffffffffffffffffffffffffff\n      and\n      dup2\n      jump\t// out\n        /* \"contracts/auction.sol\":246:282  address payable public highestBidder */\n    tag_50:\n      0x02\n      0x00\n      swap1\n      sload\n      swap1\n      0x0100\n      exp\n      swap1\n      div\n      0xffffffffffffffffffffffffffffffffffffffff\n      and\n      dup2\n      jump\t// out\n        /* \"contracts/auction.sol\":175:201  State public auctionStatus */\n    tag_54:\n      0x00\n      0x14\n      swap1\n      sload\n      swap1\n      0x0100\n      exp\n      swap1\n      div\n      0xff\n      and\n      dup2\n      jump\t// out\n        /* \"contracts/auction.sol\":1051:1680  function placeBid() public payable notOwner afterStart beforeEnd{\r... */\n    tag_57:\n        /* \"contracts/auction.sol\":657:662  owner */\n      0x00\n      dup1\n      sload\n      swap1\n      0x0100\n      exp\n      swap1\n      div\n      0xffffffffffffffffffffffffffffffffffffffff\n      and\n        /* \"contracts/auction.sol\":643:662  msg.sender != owner */\n      0xffffffffffffffffffffffffffffffffffffffff\n      and\n        /* \"contracts/auction.sol\":643:653  msg.sender */\n      caller\n        /* \"contracts/auction.sol\":643:662  msg.sender != owner */\n      0xffffffffffffffffffffffffffffffffffffffff\n      and\n      eq\n      iszero\n        /* \"contracts/auction.sol\":635:663  require(msg.sender != owner) */\n      tag_64\n      jumpi\n      0x00\n      dup1\n      revert\n    tag_64:\n        /* \"contracts/auction.sol\":745:755  startBlock */\n      sload(0x05)\n        /* \"contracts/auction.sol\":729:741  block.number */\n      number\n        /* \"contracts/auction.sol\":729:755  block.number >= startBlock */\n      lt\n      iszero\n        /* \"contracts/auction.sol\":721:756  require(block.number >= startBlock) */\n      tag_66\n      jumpi\n      0x00\n      dup1\n      revert\n    tag_66:\n        /* \"contracts/auction.sol\":837:845  endBlock */\n      sload(0x06)\n        /* \"contracts/auction.sol\":821:833  block.number */\n      number\n        /* \"contracts/auction.sol\":821:845  block.number <= endBlock */\n      gt\n      iszero\n        /* \"contracts/auction.sol\":813:846  require(block.number <= endBlock) */\n      tag_68\n      jumpi\n      0x00\n      dup1\n      revert\n    tag_68:\n        /* \"contracts/auction.sol\":1155:1168  State.RUNNING */\n      0x00\n        /* \"contracts/auction.sol\":1134:1168  getAuctionState() == State.RUNNING */\n      0x02\n      dup2\n      gt\n      iszero\n      tag_70\n      jumpi\n      tag_71\n      tag_72\n      jump\t// in\n    tag_71:\n    tag_70:\n        /* \"contracts/auction.sol\":1134:1151  getAuctionState() */\n      tag_73\n        /* \"contracts/auction.sol\":1134:1149  getAuctionState */\n      tag_30\n        /* \"contracts/auction.sol\":1134:1151  getAuctionState() */\n      jump\t// in\n    tag_73:\n        /* \"contracts/auction.sol\":1134:1168  getAuctionState() == State.RUNNING */\n      0x02\n      dup2\n      gt\n      iszero\n      tag_74\n      jumpi\n      tag_75\n      tag_72\n      jump\t// in\n    tag_75:\n    tag_74:\n      eq\n        /* \"contracts/auction.sol\":1126:1169  require(getAuctionState() == State.RUNNING) */\n      tag_76\n      jumpi\n      0x00\n      dup1\n      revert\n    tag_76:\n        /* \"contracts/auction.sol\":1201:1213  bidIncrement */\n      sload(0x04)\n        /* \"contracts/auction.sol\":1188:1197  msg.value */\n      callvalue\n        /* \"contracts/auction.sol\":1188:1213  msg.value >= bidIncrement */\n      lt\n      iszero\n        /* \"contracts/auction.sol\":1180:1214  require(msg.value >= bidIncrement) */\n      tag_77\n      jumpi\n      0x00\n      dup1\n      revert\n    tag_77:\n        /* \"contracts/auction.sol\":1227:1242  uint currentBid */\n      0x00\n        /* \"contracts/auction.sol\":1264:1273  msg.value */\n      callvalue\n        /* \"contracts/auction.sol\":1245:1249  bids */\n      0x03\n        /* \"contracts/auction.sol\":1245:1261  bids[msg.sender] */\n      0x00\n        /* \"contracts/auction.sol\":1250:1260  msg.sender */\n      caller\n        /* \"contracts/auction.sol\":1245:1261  bids[msg.sender] */\n      0xffffffffffffffffffffffffffffffffffffffff\n      and\n      0xffffffffffffffffffffffffffffffffffffffff\n      and\n      dup2\n      mstore\n      0x20\n      add\n      swap1\n      dup2\n      mstore\n      0x20\n      add\n      0x00\n      keccak256\n      sload\n        /* \"contracts/auction.sol\":1245:1273  bids[msg.sender] + msg.value */\n      tag_78\n      swap2\n      swap1\n      tag_79\n      jump\t// in\n    tag_78:\n        /* \"contracts/auction.sol\":1227:1273  uint currentBid = bids[msg.sender] + msg.value */\n      swap1\n      pop\n        /* \"contracts/auction.sol\":1305:1322  highestBindingBid */\n      sload(0x01)\n        /* \"contracts/auction.sol\":1292:1302  currentBid */\n      dup2\n        /* \"contracts/auction.sol\":1292:1322  currentBid > highestBindingBid */\n      gt\n        /* \"contracts/auction.sol\":1284:1323  require(currentBid > highestBindingBid) */\n      tag_80\n      jumpi\n      0x00\n      dup1\n      revert\n    tag_80:\n        /* \"contracts/auction.sol\":1353:1363  currentBid */\n      dup1\n        /* \"contracts/auction.sol\":1334:1338  bids */\n      0x03\n        /* \"contracts/auction.sol\":1334:1350  bids[msg.sender] */\n      0x00\n        /* \"contracts/auction.sol\":1339:1349  msg.sender */\n      caller\n        /* \"contracts/auction.sol\":1334:1350  bids[msg.sender] */\n      0xffffffffffffffffffffffffffffffffffffffff\n      and\n      0xffffffffffffffffffffffffffffffffffffffff\n      and\n      dup2\n      mstore\n      0x20\n      add\n      swap1\n      dup2\n      mstore\n      0x20\n      add\n      0x00\n      keccak256\n        /* \"contracts/auction.sol\":1334:1363  bids[msg.sender] = currentBid */\n      dup2\n      swap1\n      sstore\n      pop\n        /* \"contracts/auction.sol\":1393:1397  bids */\n      0x03\n        /* \"contracts/auction.sol\":1393:1412  bids[highestBidder] */\n      0x00\n        /* \"contracts/auction.sol\":1398:1411  highestBidder */\n      0x02\n      0x00\n      swap1\n      sload\n      swap1\n      0x0100\n      exp\n      swap1\n      div\n      0xffffffffffffffffffffffffffffffffffffffff\n      and\n        /* \"contracts/auction.sol\":1393:1412  bids[highestBidder] */\n      0xffffffffffffffffffffffffffffffffffffffff\n      and\n      0xffffffffffffffffffffffffffffffffffffffff\n      and\n      dup2\n      mstore\n      0x20\n      add\n      swap1\n      dup2\n      mstore\n      0x20\n      add\n      0x00\n      keccak256\n      sload\n        /* \"contracts/auction.sol\":1379:1389  currentBid */\n      dup2\n        /* \"contracts/auction.sol\":1379:1412  currentBid <= bids[highestBidder] */\n      gt\n        /* \"contracts/auction.sol\":1376:1673  if(currentBid <= bids[highestBidder]){\r... */\n      tag_81\n      jumpi\n        /* \"contracts/auction.sol\":1448:1499  min(currentBid + bidIncrement, bids[highestBidder]) */\n      tag_82\n        /* \"contracts/auction.sol\":1465:1477  bidIncrement */\n      sload(0x04)\n        /* \"contracts/auction.sol\":1452:1462  currentBid */\n      dup3\n        /* \"contracts/auction.sol\":1452:1477  currentBid + bidIncrement */\n      tag_83\n      swap2\n      swap1\n      tag_79\n      jump\t// in\n    tag_83:\n        /* \"contracts/auction.sol\":1479:1483  bids */\n      0x03\n        /* \"contracts/auction.sol\":1479:1498  bids[highestBidder] */\n      0x00\n        /* \"contracts/auction.sol\":1484:1497  highestBidder */\n      0x02\n      0x00\n      swap1\n      sload\n      swap1\n      0x0100\n      exp\n      swap1\n      div\n      0xffffffffffffffffffffffffffffffffffffffff\n      and\n        /* \"contracts/auction.sol\":1479:1498  bids[highestBidder] */\n      0xffffffffffffffffffffffffffffffffffffffff\n      and\n      0xffffffffffffffffffffffffffffffffffffffff\n      and\n      dup2\n      mstore\n      0x20\n      add\n      swap1\n      dup2\n      mstore\n      0x20\n      add\n      0x00\n      keccak256\n      sload\n        /* \"contracts/auction.sol\":1448:1451  min */\n      tag_84\n        /* \"contracts/auction.sol\":1448:1499  min(currentBid + bidIncrement, bids[highestBidder]) */\n      jump\t// in\n    tag_82:\n        /* \"contracts/auction.sol\":1428:1445  highestBindingBid */\n      0x01\n        /* \"contracts/auction.sol\":1428:1499  highestBindingBid = min(currentBid + bidIncrement, bids[highestBidder]) */\n      dup2\n      swap1\n      sstore\n      pop\n        /* \"contracts/auction.sol\":1376:1673  if(currentBid <= bids[highestBidder]){\r... */\n      jump(tag_85)\n    tag_81:\n        /* \"contracts/auction.sol\":1560:1611  min(currentBid, bids[highestBidder] + bidIncrement) */\n      tag_86\n        /* \"contracts/auction.sol\":1564:1574  currentBid */\n      dup2\n        /* \"contracts/auction.sol\":1598:1610  bidIncrement */\n      sload(0x04)\n        /* \"contracts/auction.sol\":1576:1580  bids */\n      0x03\n        /* \"contracts/auction.sol\":1576:1595  bids[highestBidder] */\n      0x00\n        /* \"contracts/auction.sol\":1581:1594  highestBidder */\n      0x02\n      0x00\n      swap1\n      sload\n      swap1\n      0x0100\n      exp\n      swap1\n      div\n      0xffffffffffffffffffffffffffffffffffffffff\n      and\n        /* \"contracts/auction.sol\":1576:1595  bids[highestBidder] */\n      0xffffffffffffffffffffffffffffffffffffffff\n      and\n      0xffffffffffffffffffffffffffffffffffffffff\n      and\n      dup2\n      mstore\n      0x20\n      add\n      swap1\n      dup2\n      mstore\n      0x20\n      add\n      0x00\n      keccak256\n      sload\n        /* \"contracts/auction.sol\":1576:1610  bids[highestBidder] + bidIncrement */\n      tag_87\n      swap2\n      swap1\n      tag_79\n      jump\t// in\n    tag_87:\n        /* \"contracts/auction.sol\":1560:1563  min */\n      tag_84\n        /* \"contracts/auction.sol\":1560:1611  min(currentBid, bids[highestBidder] + bidIncrement) */\n      jump\t// in\n    tag_86:\n        /* \"contracts/auction.sol\":1540:1557  highestBindingBid */\n      0x01\n        /* \"contracts/auction.sol\":1540:1611  highestBindingBid = min(currentBid, bids[highestBidder] + bidIncrement) */\n      dup2\n      swap1\n      sstore\n      pop\n        /* \"contracts/auction.sol\":1650:1660  msg.sender */\n      caller\n        /* \"contracts/auction.sol\":1626:1639  highestBidder */\n      0x02\n      0x00\n        /* \"contracts/auction.sol\":1626:1661  highestBidder = payable(msg.sender) */\n      0x0100\n      exp\n      dup2\n      sload\n      dup2\n      0xffffffffffffffffffffffffffffffffffffffff\n      mul\n      not\n      and\n      swap1\n      dup4\n      0xffffffffffffffffffffffffffffffffffffffff\n      and\n      mul\n      or\n      swap1\n      sstore\n      pop\n        /* \"contracts/auction.sol\":1376:1673  if(currentBid <= bids[highestBidder]){\r... */\n    tag_85:\n        /* \"contracts/auction.sol\":1115:1680  {\r... */\n      pop\n        /* \"contracts/auction.sol\":1051:1680  function placeBid() public payable notOwner afterStart beforeEnd{\r... */\n      jump\t// out\n        /* \"contracts/auction.sol\":210:239  uint public highestBindingBid */\n    tag_60:\n      sload(0x01)\n      dup2\n      jump\t// out\n        /* \"contracts/auction.sol\":1688:1826  function min(uint a, uint b) pure internal returns(uint){\r... */\n    tag_84:\n        /* \"contracts/auction.sol\":1739:1743  uint */\n      0x00\n        /* \"contracts/auction.sol\":1763:1764  b */\n      dup2\n        /* \"contracts/auction.sol\":1758:1759  a */\n      dup4\n        /* \"contracts/auction.sol\":1758:1764  a <= b */\n      gt\n        /* \"contracts/auction.sol\":1755:1800  if(a <= b){\r... */\n      tag_89\n      jumpi\n        /* \"contracts/auction.sol\":1787:1788  a */\n      dup3\n        /* \"contracts/auction.sol\":1780:1788  return a */\n      swap1\n      pop\n      jump(tag_88)\n        /* \"contracts/auction.sol\":1755:1800  if(a <= b){\r... */\n    tag_89:\n        /* \"contracts/auction.sol\":1817:1818  b */\n      dup2\n        /* \"contracts/auction.sol\":1810:1818  return b */\n      swap1\n      pop\n        /* \"contracts/auction.sol\":1688:1826  function min(uint a, uint b) pure internal returns(uint){\r... */\n    tag_88:\n      swap3\n      swap2\n      pop\n      pop\n      jump\t// out\n        /* \"#utility.yul\":7:146   */\n    tag_91:\n        /* \"#utility.yul\":53:58   */\n      0x00\n        /* \"#utility.yul\":91:97   */\n      dup2\n        /* \"#utility.yul\":78:98   */\n      calldataload\n        /* \"#utility.yul\":69:98   */\n      swap1\n      pop\n        /* \"#utility.yul\":107:140   */\n      tag_93\n        /* \"#utility.yul\":134:139   */\n      dup2\n        /* \"#utility.yul\":107:140   */\n      tag_94\n      jump\t// in\n    tag_93:\n        /* \"#utility.yul\":7:146   */\n      swap3\n      swap2\n      pop\n      pop\n      jump\t// out\n        /* \"#utility.yul\":152:481   */\n    tag_40:\n        /* \"#utility.yul\":211:217   */\n      0x00\n        /* \"#utility.yul\":260:262   */\n      0x20\n        /* \"#utility.yul\":248:257   */\n      dup3\n        /* \"#utility.yul\":239:246   */\n      dup5\n        /* \"#utility.yul\":235:258   */\n      sub\n        /* \"#utility.yul\":231:263   */\n      slt\n        /* \"#utility.yul\":228:347   */\n      iszero\n      tag_96\n      jumpi\n        /* \"#utility.yul\":266:345   */\n      tag_97\n      tag_98\n      jump\t// in\n    tag_97:\n        /* \"#utility.yul\":228:347   */\n    tag_96:\n        /* \"#utility.yul\":386:387   */\n      0x00\n        /* \"#utility.yul\":411:464   */\n      tag_99\n        /* \"#utility.yul\":456:463   */\n      dup5\n        /* \"#utility.yul\":447:453   */\n      dup3\n        /* \"#utility.yul\":436:445   */\n      dup6\n        /* \"#utility.yul\":432:454   */\n      add\n        /* \"#utility.yul\":411:464   */\n      tag_91\n      jump\t// in\n    tag_99:\n        /* \"#utility.yul\":401:464   */\n      swap2\n      pop\n        /* \"#utility.yul\":357:474   */\n      pop\n        /* \"#utility.yul\":152:481   */\n      swap3\n      swap2\n      pop\n      pop\n      jump\t// out\n        /* \"#utility.yul\":487:629   */\n    tag_100:\n        /* \"#utility.yul\":590:622   */\n      tag_102\n        /* \"#utility.yul\":616:621   */\n      dup2\n        /* \"#utility.yul\":590:622   */\n      tag_103\n      jump\t// in\n    tag_102:\n        /* \"#utility.yul\":585:588   */\n      dup3\n        /* \"#utility.yul\":578:623   */\n      mstore\n        /* \"#utility.yul\":487:629   */\n      pop\n      pop\n      jump\t// out\n        /* \"#utility.yul\":635:776   */\n    tag_104:\n        /* \"#utility.yul\":727:769   */\n      tag_106\n        /* \"#utility.yul\":763:768   */\n      dup2\n        /* \"#utility.yul\":727:769   */\n      tag_107\n      jump\t// in\n    tag_106:\n        /* \"#utility.yul\":722:725   */\n      dup3\n        /* \"#utility.yul\":715:770   */\n      mstore\n        /* \"#utility.yul\":635:776   */\n      pop\n      pop\n      jump\t// out\n        /* \"#utility.yul\":782:900   */\n    tag_108:\n        /* \"#utility.yul\":869:893   */\n      tag_110\n        /* \"#utility.yul\":887:892   */\n      dup2\n        /* \"#utility.yul\":869:893   */\n      tag_111\n      jump\t// in\n    tag_110:\n        /* \"#utility.yul\":864:867   */\n      dup3\n        /* \"#utility.yul\":857:894   */\n      mstore\n        /* \"#utility.yul\":782:900   */\n      pop\n      pop\n      jump\t// out\n        /* \"#utility.yul\":906:1160   */\n    tag_47:\n        /* \"#utility.yul\":1015:1019   */\n      0x00\n        /* \"#utility.yul\":1053:1055   */\n      0x20\n        /* \"#utility.yul\":1042:1051   */\n      dup3\n        /* \"#utility.yul\":1038:1056   */\n      add\n        /* \"#utility.yul\":1030:1056   */\n      swap1\n      pop\n        /* \"#utility.yul\":1066:1153   */\n      tag_113\n        /* \"#utility.yul\":1150:1151   */\n      0x00\n        /* \"#utility.yul\":1139:1148   */\n      dup4\n        /* \"#utility.yul\":1135:1152   */\n      add\n        /* \"#utility.yul\":1126:1132   */\n      dup5\n        /* \"#utility.yul\":1066:1153   */\n      tag_100\n      jump\t// in\n    tag_113:\n        /* \"#utility.yul\":906:1160   */\n      swap3\n      swap2\n      pop\n      pop\n      jump\t// out\n        /* \"#utility.yul\":1166:1398   */\n    tag_32:\n        /* \"#utility.yul\":1264:1268   */\n      0x00\n        /* \"#utility.yul\":1302:1304   */\n      0x20\n        /* \"#utility.yul\":1291:1300   */\n      dup3\n        /* \"#utility.yul\":1287:1305   */\n      add\n        /* \"#utility.yul\":1279:1305   */\n      swap1\n      pop\n        /* \"#utility.yul\":1315:1391   */\n      tag_115\n        /* \"#utility.yul\":1388:1389   */\n      0x00\n        /* \"#utility.yul\":1377:1386   */\n      dup4\n        /* \"#utility.yul\":1373:1390   */\n      add\n        /* \"#utility.yul\":1364:1370   */\n      dup5\n        /* \"#utility.yul\":1315:1391   */\n      tag_104\n      jump\t// in\n    tag_115:\n        /* \"#utility.yul\":1166:1398   */\n      swap3\n      swap2\n      pop\n      pop\n      jump\t// out\n        /* \"#utility.yul\":1404:1626   */\n    tag_27:\n        /* \"#utility.yul\":1497:1501   */\n      0x00\n        /* \"#utility.yul\":1535:1537   */\n      0x20\n        /* \"#utility.yul\":1524:1533   */\n      dup3\n        /* \"#utility.yul\":1520:1538   */\n      add\n        /* \"#utility.yul\":1512:1538   */\n      swap1\n      pop\n        /* \"#utility.yul\":1548:1619   */\n      tag_117\n        /* \"#utility.yul\":1616:1617   */\n      0x00\n        /* \"#utility.yul\":1605:1614   */\n      dup4\n        /* \"#utility.yul\":1601:1618   */\n      add\n        /* \"#utility.yul\":1592:1598   */\n      dup5\n        /* \"#utility.yul\":1548:1619   */\n      tag_108\n      jump\t// in\n    tag_117:\n        /* \"#utility.yul\":1404:1626   */\n      swap3\n      swap2\n      pop\n      pop\n      jump\t// out\n        /* \"#utility.yul\":1713:2018   */\n    tag_79:\n        /* \"#utility.yul\":1753:1756   */\n      0x00\n        /* \"#utility.yul\":1772:1792   */\n      tag_121\n        /* \"#utility.yul\":1790:1791   */\n      dup3\n        /* \"#utility.yul\":1772:1792   */\n      tag_111\n      jump\t// in\n    tag_121:\n        /* \"#utility.yul\":1767:1792   */\n      swap2\n      pop\n        /* \"#utility.yul\":1806:1826   */\n      tag_122\n        /* \"#utility.yul\":1824:1825   */\n      dup4\n        /* \"#utility.yul\":1806:1826   */\n      tag_111\n      jump\t// in\n    tag_122:\n        /* \"#utility.yul\":1801:1826   */\n      swap3\n      pop\n        /* \"#utility.yul\":1960:1961   */\n      dup3\n        /* \"#utility.yul\":1892:1958   */\n      0xffffffffffffffffffffffffffffffffffffffffffffffffffffffffffffffff\n        /* \"#utility.yul\":1888:1962   */\n      sub\n        /* \"#utility.yul\":1885:1886   */\n      dup3\n        /* \"#utility.yul\":1882:1963   */\n      gt\n        /* \"#utility.yul\":1879:1986   */\n      iszero\n      tag_123\n      jumpi\n        /* \"#utility.yul\":1966:1984   */\n      tag_124\n      tag_125\n      jump\t// in\n    tag_124:\n        /* \"#utility.yul\":1879:1986   */\n    tag_123:\n        /* \"#utility.yul\":2010:2011   */\n      dup3\n        /* \"#utility.yul\":2007:2008   */\n      dup3\n        /* \"#utility.yul\":2003:2012   */\n      add\n        /* \"#utility.yul\":1996:2012   */\n      swap1\n      pop\n        /* \"#utility.yul\":1713:2018   */\n      swap3\n      swap2\n      pop\n      pop\n      jump\t// out\n        /* \"#utility.yul\":2024:2120   */\n    tag_126:\n        /* \"#utility.yul\":2061:2068   */\n      0x00\n        /* \"#utility.yul\":2090:2114   */\n      tag_128\n        /* \"#utility.yul\":2108:2113   */\n      dup3\n        /* \"#utility.yul\":2090:2114   */\n      tag_129\n      jump\t// in\n    tag_128:\n        /* \"#utility.yul\":2079:2114   */\n      swap1\n      pop\n        /* \"#utility.yul\":2024:2120   */\n      swap2\n      swap1\n      pop\n      jump\t// out\n        /* \"#utility.yul\":2126:2230   */\n    tag_103:\n        /* \"#utility.yul\":2171:2178   */\n      0x00\n        /* \"#utility.yul\":2200:2224   */\n      tag_131\n        /* \"#utility.yul\":2218:2223   */\n      dup3\n        /* \"#utility.yul\":2200:2224   */\n      tag_129\n      jump\t// in\n    tag_131:\n        /* \"#utility.yul\":2189:2224   */\n      swap1\n      pop\n        /* \"#utility.yul\":2126:2230   */\n      swap2\n      swap1\n      pop\n      jump\t// out\n        /* \"#utility.yul\":2236:2361   */\n    tag_132:\n        /* \"#utility.yul\":2280:2287   */\n      0x00\n        /* \"#utility.yul\":2309:2314   */\n      dup2\n        /* \"#utility.yul\":2298:2314   */\n      swap1\n      pop\n        /* \"#utility.yul\":2315:2355   */\n      tag_134\n        /* \"#utility.yul\":2349:2354   */\n      dup3\n        /* \"#utility.yul\":2315:2355   */\n      tag_135\n      jump\t// in\n    tag_134:\n        /* \"#utility.yul\":2236:2361   */\n      swap2\n      swap1\n      pop\n      jump\t// out\n        /* \"#utility.yul\":2367:2493   */\n    tag_129:\n        /* \"#utility.yul\":2404:2411   */\n      0x00\n        /* \"#utility.yul\":2444:2486   */\n      0xffffffffffffffffffffffffffffffffffffffff\n        /* \"#utility.yul\":2437:2442   */\n      dup3\n        /* \"#utility.yul\":2433:2487   */\n      and\n        /* \"#utility.yul\":2422:2487   */\n      swap1\n      pop\n        /* \"#utility.yul\":2367:2493   */\n      swap2\n      swap1\n      pop\n      jump\t// out\n        /* \"#utility.yul\":2499:2576   */\n    tag_111:\n        /* \"#utility.yul\":2536:2543   */\n      0x00\n        /* \"#utility.yul\":2565:2570   */\n      dup2\n        /* \"#utility.yul\":2554:2570   */\n      swap1\n      pop\n        /* \"#utility.yul\":2499:2576   */\n      swap2\n      swap1\n      pop\n      jump\t// out\n        /* \"#utility.yul\":2582:2707   */\n    tag_107:\n        /* \"#utility.yul\":2637:2646   */\n      0x00\n        /* \"#utility.yul\":2670:2701   */\n      tag_139\n        /* \"#utility.yul\":2695:2700   */\n      dup3\n        /* \"#utility.yul\":2670:2701   */\n      tag_132\n      jump\t// in\n    tag_139:\n        /* \"#utility.yul\":2657:2701   */\n      swap1\n      pop\n        /* \"#utility.yul\":2582:2707   */\n      swap2\n      swap1\n      pop\n      jump\t// out\n        /* \"#utility.yul\":2713:2893   */\n    tag_125:\n        /* \"#utility.yul\":2761:2838   */\n      0x4e487b7100000000000000000000000000000000000000000000000000000000\n        /* \"#utility.yul\":2758:2759   */\n      0x00\n        /* \"#utility.yul\":2751:2839   */\n      mstore\n        /* \"#utility.yul\":2858:2862   */\n      0x11\n        /* \"#utility.yul\":2855:2856   */\n      0x04\n        /* \"#utility.yul\":2848:2863   */\n      mstore\n        /* \"#utility.yul\":2882:2886   */\n      0x24\n        /* \"#utility.yul\":2879:2880   */\n      0x00\n        /* \"#utility.yul\":2872:2887   */\n      revert\n        /* \"#utility.yul\":2899:3079   */\n    tag_72:\n        /* \"#utility.yul\":2947:3024   */\n      0x4e487b7100000000000000000000000000000000000000000000000000000000\n        /* \"#utility.yul\":2944:2945   */\n      0x00\n        /* \"#utility.yul\":2937:3025   */\n      mstore\n        /* \"#utility.yul\":3044:3048   */\n      0x21\n        /* \"#utility.yul\":3041:3042   */\n      0x04\n        /* \"#utility.yul\":3034:3049   */\n      mstore\n        /* \"#utility.yul\":3068:3072   */\n      0x24\n        /* \"#utility.yul\":3065:3066   */\n      0x00\n        /* \"#utility.yul\":3058:3073   */\n      revert\n        /* \"#utility.yul\":3208:3325   */\n    tag_98:\n        /* \"#utility.yul\":3317:3318   */\n      0x00\n        /* \"#utility.yul\":3314:3315   */\n      dup1\n        /* \"#utility.yul\":3307:3319   */\n      revert\n        /* \"#utility.yul\":3331:3443   */\n    tag_135:\n        /* \"#utility.yul\":3411:3412   */\n      0x03\n        /* \"#utility.yul\":3404:3409   */\n      dup2\n        /* \"#utility.yul\":3401:3413   */\n      lt\n        /* \"#utility.yul\":3391:3437   */\n      tag_146\n      jumpi\n        /* \"#utility.yul\":3417:3435   */\n      tag_147\n      tag_72\n      jump\t// in\n    tag_147:\n        /* \"#utility.yul\":3391:3437   */\n    tag_146:\n        /* \"#utility.yul\":3331:3443   */\n      pop\n      jump\t// out\n        /* \"#utility.yul\":3449:3571   */\n    tag_94:\n        /* \"#utility.yul\":3522:3546   */\n      tag_149\n        /* \"#utility.yul\":3540:3545   */\n      dup2\n        /* \"#utility.yul\":3522:3546   */\n      tag_126\n      jump\t// in\n    tag_149:\n        /* \"#utility.yul\":3515:3520   */\n      dup2\n        /* \"#utility.yul\":3512:3547   */\n      eq\n        /* \"#utility.yul\":3502:3565   */\n      tag_150\n      jumpi\n        /* \"#utility.yul\":3561:3562   */\n      0x00\n        /* \"#utility.yul\":3558:3559   */\n      dup1\n        /* \"#utility.yul\":3551:3563   */\n      revert\n        /* \"#utility.yul\":3502:3565   */\n    tag_150:\n        /* \"#utility.yul\":3449:3571   */\n      pop\n      jump\t// out\n\n    auxdata: 0xa264697066735822122062cd065d2aeeb265a6e96dbb99b2960f5a7d088c776c650ae4ef2385c097dc3264736f6c63430008070033\n}\n",
				"bytecode": {
					"linkReferences": {},
					"object": "6080604052606460045534801561001557600080fd5b50336000806101000a81548173ffffffffffffffffffffffffffffffffffffffff021916908373ffffffffffffffffffffffffffffffffffffffff160217905550610893806100656000396000f3fe60806040526004361061008a5760003560e01c80638da5cb5b116100595780638da5cb5b146101cb57806391f90157146101f65780639d6a0f2814610221578063ecfc7ecc1461024c578063f5b56c561461025657610108565b8063083c63231461010d57806308bfc3001461013857806348cd4cb11461016357806362ea82db1461018e57610108565b366101085760008054906101000a900473ffffffffffffffffffffffffffffffffffffffff1673ffffffffffffffffffffffffffffffffffffffff163373ffffffffffffffffffffffffffffffffffffffff1614156100e857600080fd5b6005544310156100f757600080fd5b60065443111561010657600080fd5b005b600080fd5b34801561011957600080fd5b50610122610281565b60405161012f91906106eb565b60405180910390f35b34801561014457600080fd5b5061014d610287565b60405161015a91906106d0565b60405180910390f35b34801561016f57600080fd5b5061017861029d565b60405161018591906106eb565b60405180910390f35b34801561019a57600080fd5b506101b560048036038101906101b0919061065b565b6102a3565b6040516101c291906106eb565b60405180910390f35b3480156101d757600080fd5b506101e06102bb565b6040516101ed91906106b5565b60405180910390f35b34801561020257600080fd5b5061020b6102df565b60405161021891906106b5565b60405180910390f35b34801561022d57600080fd5b50610236610305565b60405161024391906106d0565b60405180910390f35b610254610318565b005b34801561026257600080fd5b5061026b610625565b60405161027891906106eb565b60405180910390f35b60065481565b60008060149054906101000a900460ff16905090565b60055481565b60036020528060005260406000206000915090505481565b60008054906101000a900473ffffffffffffffffffffffffffffffffffffffff1681565b600260009054906101000a900473ffffffffffffffffffffffffffffffffffffffff1681565b600060149054906101000a900460ff1681565b60008054906101000a900473ffffffffffffffffffffffffffffffffffffffff1673ffffffffffffffffffffffffffffffffffffffff163373ffffffffffffffffffffffffffffffffffffffff16141561037157600080fd5b60055443101561038057600080fd5b60065443111561038f57600080fd5b600060028111156103a3576103a26107fe565b5b6103ab610287565b60028111156103bd576103bc6107fe565b5b146103c757600080fd5b6004543410156103d657600080fd5b600034600360003373ffffffffffffffffffffffffffffffffffffffff1673ffffffffffffffffffffffffffffffffffffffff168152602001908152602001600020546104239190610706565b9050600154811161043357600080fd5b80600360003373ffffffffffffffffffffffffffffffffffffffff1673ffffffffffffffffffffffffffffffffffffffff1681526020019081526020016000208190555060036000600260009054906101000a900473ffffffffffffffffffffffffffffffffffffffff1673ffffffffffffffffffffffffffffffffffffffff1673ffffffffffffffffffffffffffffffffffffffff16815260200190815260200160002054811161056257610557600454826104f09190610706565b60036000600260009054906101000a900473ffffffffffffffffffffffffffffffffffffffff1673ffffffffffffffffffffffffffffffffffffffff1673ffffffffffffffffffffffffffffffffffffffff1681526020019081526020016000205461062b565b600181905550610622565b6105da8160045460036000600260009054906101000a900473ffffffffffffffffffffffffffffffffffffffff1673ffffffffffffffffffffffffffffffffffffffff1673ffffffffffffffffffffffffffffffffffffffff168152602001908152602001600020546105d59190610706565b61062b565b60018190555033600260006101000a81548173ffffffffffffffffffffffffffffffffffffffff021916908373ffffffffffffffffffffffffffffffffffffffff1602179055505b50565b60015481565b600081831161063c57829050610640565b8190505b92915050565b60008135905061065581610846565b92915050565b6000602082840312156106715761067061082d565b5b600061067f84828501610646565b91505092915050565b6106918161076e565b82525050565b6106a0816107bd565b82525050565b6106af816107b3565b82525050565b60006020820190506106ca6000830184610688565b92915050565b60006020820190506106e56000830184610697565b92915050565b600060208201905061070060008301846106a6565b92915050565b6000610711826107b3565b915061071c836107b3565b9250827fffffffffffffffffffffffffffffffffffffffffffffffffffffffffffffffff03821115610751576107506107cf565b5b828201905092915050565b600061076782610793565b9050919050565b600061077982610793565b9050919050565b600081905061078e82610832565b919050565b600073ffffffffffffffffffffffffffffffffffffffff82169050919050565b6000819050919050565b60006107c882610780565b9050919050565b7f4e487b7100000000000000000000000000000000000000000000000000000000600052601160045260246000fd5b7f4e487b7100000000000000000000000000000000000000000000000000000000600052602160045260246000fd5b600080fd5b60038110610843576108426107fe565b5b50565b61084f8161075c565b811461085a57600080fd5b5056fea264697066735822122062cd065d2aeeb265a6e96dbb99b2960f5a7d088c776c650ae4ef2385c097dc3264736f6c63430008070033",
					"opcodes": "PUSH1 0x80 PUSH1 0x40 MSTORE PUSH1 0x64 PUSH1 0x4 SSTORE CALLVALUE DUP1 ISZERO PUSH2 0x15 JUMPI PUSH1 0x0 DUP1 REVERT JUMPDEST POP CALLER PUSH1 0x0 DUP1 PUSH2 0x100 EXP DUP2 SLOAD DUP2 PUSH20 0xFFFFFFFFFFFFFFFFFFFFFFFFFFFFFFFFFFFFFFFF MUL NOT AND SWAP1 DUP4 PUSH20 0xFFFFFFFFFFFFFFFFFFFFFFFFFFFFFFFFFFFFFFFF AND MUL OR SWAP1 SSTORE POP PUSH2 0x893 DUP1 PUSH2 0x65 PUSH1 0x0 CODECOPY PUSH1 0x0 RETURN INVALID PUSH1 0x80 PUSH1 0x40 MSTORE PUSH1 0x4 CALLDATASIZE LT PUSH2 0x8A JUMPI PUSH1 0x0 CALLDATALOAD PUSH1 0xE0 SHR DUP1 PUSH4 0x8DA5CB5B GT PUSH2 0x59 JUMPI DUP1 PUSH4 0x8DA5CB5B EQ PUSH2 0x1CB JUMPI DUP1 PUSH4 0x91F90157 EQ PUSH2 0x1F6 JUMPI DUP1 PUSH4 0x9D6A0F28 EQ PUSH2 0x221 JUMPI DUP1 PUSH4 0xECFC7ECC EQ PUSH2 0x24C JUMPI DUP1 PUSH4 0xF5B56C56 EQ PUSH2 0x256 JUMPI PUSH2 0x108 JUMP JUMPDEST DUP1 PUSH4 0x83C6323 EQ PUSH2 0x10D JUMPI DUP1 PUSH4 0x8BFC300 EQ PUSH2 0x138 JUMPI DUP1 PUSH4 0x48CD4CB1 EQ PUSH2 0x163 JUMPI DUP1 PUSH4 0x62EA82DB EQ PUSH2 0x18E JUMPI PUSH2 0x108 JUMP JUMPDEST CALLDATASIZE PUSH2 0x108 JUMPI PUSH1 0x0 DUP1 SLOAD SWAP1 PUSH2 0x100 EXP SWAP1 DIV PUSH20 0xFFFFFFFFFFFFFFFFFFFFFFFFFFFFFFFFFFFFFFFF AND PUSH20 0xFFFFFFFFFFFFFFFFFFFFFFFFFFFFFFFFFFFFFFFF AND CALLER PUSH20 0xFFFFFFFFFFFFFFFFFFFFFFFFFFFFFFFFFFFFFFFF AND EQ ISZERO PUSH2 0xE8 JUMPI PUSH1 0x0 DUP1 REVERT JUMPDEST PUSH1 0x5 SLOAD NUMBER LT ISZERO PUSH2 0xF7 JUMPI PUSH1 0x0 DUP1 REVERT JUMPDEST PUSH1 0x6 SLOAD NUMBER GT ISZERO PUSH2 0x106 JUMPI PUSH1 0x0 DUP1 REVERT JUMPDEST STOP JUMPDEST PUSH1 0x0 DUP1 REVERT JUMPDEST CALLVALUE DUP1 ISZERO PUSH2 0x119 JUMPI PUSH1 0x0 DUP1 REVERT JUMPDEST POP PUSH2 0x122 PUSH2 0x281 JUMP JUMPDEST PUSH1 0x40 MLOAD PUSH2 0x12F SWAP2 SWAP1 PUSH2 0x6EB JUMP JUMPDEST PUSH1 0x40 MLOAD DUP1 SWAP2 SUB SWAP1 RETURN JUMPDEST CALLVALUE DUP1 ISZERO PUSH2 0x144 JUMPI PUSH1 0x0 DUP1 REVERT JUMPDEST POP PUSH2 0x14D PUSH2 0x287 JUMP JUMPDEST PUSH1 0x40 MLOAD PUSH2 0x15A SWAP2 SWAP1 PUSH2 0x6D0 JUMP JUMPDEST PUSH1 0x40 MLOAD DUP1 SWAP2 SUB SWAP1 RETURN JUMPDEST CALLVALUE DUP1 ISZERO PUSH2 0x16F JUMPI PUSH1 0x0 DUP1 REVERT JUMPDEST POP PUSH2 0x178 PUSH2 0x29D JUMP JUMPDEST PUSH1 0x40 MLOAD PUSH2 0x185 SWAP2 SWAP1 PUSH2 0x6EB JUMP JUMPDEST PUSH1 0x40 MLOAD DUP1 SWAP2 SUB SWAP1 RETURN JUMPDEST CALLVALUE DUP1 ISZERO PUSH2 0x19A JUMPI PUSH1 0x0 DUP1 REVERT JUMPDEST POP PUSH2 0x1B5 PUSH1 0x4 DUP1 CALLDATASIZE SUB DUP2 ADD SWAP1 PUSH2 0x1B0 SWAP2 SWAP1 PUSH2 0x65B JUMP JUMPDEST PUSH2 0x2A3 JUMP JUMPDEST PUSH1 0x40 MLOAD PUSH2 0x1C2 SWAP2 SWAP1 PUSH2 0x6EB JUMP JUMPDEST PUSH1 0x40 MLOAD DUP1 SWAP2 SUB SWAP1 RETURN JUMPDEST CALLVALUE DUP1 ISZERO PUSH2 0x1D7 JUMPI PUSH1 0x0 DUP1 REVERT JUMPDEST POP PUSH2 0x1E0 PUSH2 0x2BB JUMP JUMPDEST PUSH1 0x40 MLOAD PUSH2 0x1ED SWAP2 SWAP1 PUSH2 0x6B5 JUMP JUMPDEST PUSH1 0x40 MLOAD DUP1 SWAP2 SUB SWAP1 RETURN JUMPDEST CALLVALUE DUP1 ISZERO PUSH2 0x202 JUMPI PUSH1 0x0 DUP1 REVERT JUMPDEST POP PUSH2 0x20B PUSH2 0x2DF JUMP JUMPDEST PUSH1 0x40 MLOAD PUSH2 0x218 SWAP2 SWAP1 PUSH2 0x6B5 JUMP JUMPDEST PUSH1 0x40 MLOAD DUP1 SWAP2 SUB SWAP1 RETURN JUMPDEST CALLVALUE DUP1 ISZERO PUSH2 0x22D JUMPI PUSH1 0x0 DUP1 REVERT JUMPDEST POP PUSH2 0x236 PUSH2 0x305 JUMP JUMPDEST PUSH1 0x40 MLOAD PUSH2 0x243 SWAP2 SWAP1 PUSH2 0x6D0 JUMP JUMPDEST PUSH1 0x40 MLOAD DUP1 SWAP2 SUB SWAP1 RETURN JUMPDEST PUSH2 0x254 PUSH2 0x318 JUMP JUMPDEST STOP JUMPDEST CALLVALUE DUP1 ISZERO PUSH2 0x262 JUMPI PUSH1 0x0 DUP1 REVERT JUMPDEST POP PUSH2 0x26B PUSH2 0x625 JUMP JUMPDEST PUSH1 0x40 MLOAD PUSH2 0x278 SWAP2 SWAP1 PUSH2 0x6EB JUMP JUMPDEST PUSH1 0x40 MLOAD DUP1 SWAP2 SUB SWAP1 RETURN JUMPDEST PUSH1 0x6 SLOAD DUP2 JUMP JUMPDEST PUSH1 0x0 DUP1 PUSH1 0x14 SWAP1 SLOAD SWAP1 PUSH2 0x100 EXP SWAP1 DIV PUSH1 0xFF AND SWAP1 POP SWAP1 JUMP JUMPDEST PUSH1 0x5 SLOAD DUP2 JUMP JUMPDEST PUSH1 0x3 PUSH1 0x20 MSTORE DUP1 PUSH1 0x0 MSTORE PUSH1 0x40 PUSH1 0x0 KECCAK256 PUSH1 0x0 SWAP2 POP SWAP1 POP SLOAD DUP2 JUMP JUMPDEST PUSH1 0x0 DUP1 SLOAD SWAP1 PUSH2 0x100 EXP SWAP1 DIV PUSH20 0xFFFFFFFFFFFFFFFFFFFFFFFFFFFFFFFFFFFFFFFF AND DUP2 JUMP JUMPDEST PUSH1 0x2 PUSH1 0x0 SWAP1 SLOAD SWAP1 PUSH2 0x100 EXP SWAP1 DIV PUSH20 0xFFFFFFFFFFFFFFFFFFFFFFFFFFFFFFFFFFFFFFFF AND DUP2 JUMP JUMPDEST PUSH1 0x0 PUSH1 0x14 SWAP1 SLOAD SWAP1 PUSH2 0x100 EXP SWAP1 DIV PUSH1 0xFF AND DUP2 JUMP JUMPDEST PUSH1 0x0 DUP1 SLOAD SWAP1 PUSH2 0x100 EXP SWAP1 DIV PUSH20 0xFFFFFFFFFFFFFFFFFFFFFFFFFFFFFFFFFFFFFFFF AND PUSH20 0xFFFFFFFFFFFFFFFFFFFFFFFFFFFFFFFFFFFFFFFF AND CALLER PUSH20 0xFFFFFFFFFFFFFFFFFFFFFFFFFFFFFFFFFFFFFFFF AND EQ ISZERO PUSH2 0x371 JUMPI PUSH1 0x0 DUP1 REVERT JUMPDEST PUSH1 0x5 SLOAD NUMBER LT ISZERO PUSH2 0x380 JUMPI PUSH1 0x0 DUP1 REVERT JUMPDEST PUSH1 0x6 SLOAD NUMBER GT ISZERO PUSH2 0x38F JUMPI PUSH1 0x0 DUP1 REVERT JUMPDEST PUSH1 0x0 PUSH1 0x2 DUP2 GT ISZERO PUSH2 0x3A3 JUMPI PUSH2 0x3A2 PUSH2 0x7FE JUMP JUMPDEST JUMPDEST PUSH2 0x3AB PUSH2 0x287 JUMP JUMPDEST PUSH1 0x2 DUP2 GT ISZERO PUSH2 0x3BD JUMPI PUSH2 0x3BC PUSH2 0x7FE JUMP JUMPDEST JUMPDEST EQ PUSH2 0x3C7 JUMPI PUSH1 0x0 DUP1 REVERT JUMPDEST PUSH1 0x4 SLOAD CALLVALUE LT ISZERO PUSH2 0x3D6 JUMPI PUSH1 0x0 DUP1 REVERT JUMPDEST PUSH1 0x0 CALLVALUE PUSH1 0x3 PUSH1 0x0 CALLER PUSH20 0xFFFFFFFFFFFFFFFFFFFFFFFFFFFFFFFFFFFFFFFF AND PUSH20 0xFFFFFFFFFFFFFFFFFFFFFFFFFFFFFFFFFFFFFFFF AND DUP2 MSTORE PUSH1 0x20 ADD SWAP1 DUP2 MSTORE PUSH1 0x20 ADD PUSH1 0x0 KECCAK256 SLOAD PUSH2 0x423 SWAP2 SWAP1 PUSH2 0x706 JUMP JUMPDEST SWAP1 POP PUSH1 0x1 SLOAD DUP2 GT PUSH2 0x433 JUMPI PUSH1 0x0 DUP1 REVERT JUMPDEST DUP1 PUSH1 0x3 PUSH1 0x0 CALLER PUSH20 0xFFFFFFFFFFFFFFFFFFFFFFFFFFFFFFFFFFFFFFFF AND PUSH20 0xFFFFFFFFFFFFFFFFFFFFFFFFFFFFFFFFFFFFFFFF AND DUP2 MSTORE PUSH1 0x20 ADD SWAP1 DUP2 MSTORE PUSH1 0x20 ADD PUSH1 0x0 KECCAK256 DUP2 SWAP1 SSTORE POP PUSH1 0x3 PUSH1 0x0 PUSH1 0x2 PUSH1 0x0 SWAP1 SLOAD SWAP1 PUSH2 0x100 EXP SWAP1 DIV PUSH20 0xFFFFFFFFFFFFFFFFFFFFFFFFFFFFFFFFFFFFFFFF AND PUSH20 0xFFFFFFFFFFFFFFFFFFFFFFFFFFFFFFFFFFFFFFFF AND PUSH20 0xFFFFFFFFFFFFFFFFFFFFFFFFFFFFFFFFFFFFFFFF AND DUP2 MSTORE PUSH1 0x20 ADD SWAP1 DUP2 MSTORE PUSH1 0x20 ADD PUSH1 0x0 KECCAK256 SLOAD DUP2 GT PUSH2 0x562 JUMPI PUSH2 0x557 PUSH1 0x4 SLOAD DUP3 PUSH2 0x4F0 SWAP2 SWAP1 PUSH2 0x706 JUMP JUMPDEST PUSH1 0x3 PUSH1 0x0 PUSH1 0x2 PUSH1 0x0 SWAP1 SLOAD SWAP1 PUSH2 0x100 EXP SWAP1 DIV PUSH20 0xFFFFFFFFFFFFFFFFFFFFFFFFFFFFFFFFFFFFFFFF AND PUSH20 0xFFFFFFFFFFFFFFFFFFFFFFFFFFFFFFFFFFFFFFFF AND PUSH20 0xFFFFFFFFFFFFFFFFFFFFFFFFFFFFFFFFFFFFFFFF AND DUP2 MSTORE PUSH1 0x20 ADD SWAP1 DUP2 MSTORE PUSH1 0x20 ADD PUSH1 0x0 KECCAK256 SLOAD PUSH2 0x62B JUMP JUMPDEST PUSH1 0x1 DUP2 SWAP1 SSTORE POP PUSH2 0x622 JUMP JUMPDEST PUSH2 0x5DA DUP2 PUSH1 0x4 SLOAD PUSH1 0x3 PUSH1 0x0 PUSH1 0x2 PUSH1 0x0 SWAP1 SLOAD SWAP1 PUSH2 0x100 EXP SWAP1 DIV PUSH20 0xFFFFFFFFFFFFFFFFFFFFFFFFFFFFFFFFFFFFFFFF AND PUSH20 0xFFFFFFFFFFFFFFFFFFFFFFFFFFFFFFFFFFFFFFFF AND PUSH20 0xFFFFFFFFFFFFFFFFFFFFFFFFFFFFFFFFFFFFFFFF AND DUP2 MSTORE PUSH1 0x20 ADD SWAP1 DUP2 MSTORE PUSH1 0x20 ADD PUSH1 0x0 KECCAK256 SLOAD PUSH2 0x5D5 SWAP2 SWAP1 PUSH2 0x706 JUMP JUMPDEST PUSH2 0x62B JUMP JUMPDEST PUSH1 0x1 DUP2 SWAP1 SSTORE POP CALLER PUSH1 0x2 PUSH1 0x0 PUSH2 0x100 EXP DUP2 SLOAD DUP2 PUSH20 0xFFFFFFFFFFFFFFFFFFFFFFFFFFFFFFFFFFFFFFFF MUL NOT AND SWAP1 DUP4 PUSH20 0xFFFFFFFFFFFFFFFFFFFFFFFFFFFFFFFFFFFFFFFF AND MUL OR SWAP1 SSTORE POP JUMPDEST POP JUMP JUMPDEST PUSH1 0x1 SLOAD DUP2 JUMP JUMPDEST PUSH1 0x0 DUP2 DUP4 GT PUSH2 0x63C JUMPI DUP3 SWAP1 POP PUSH2 0x640 JUMP JUMPDEST DUP2 SWAP1 POP JUMPDEST SWAP3 SWAP2 POP POP JUMP JUMPDEST PUSH1 0x0 DUP2 CALLDATALOAD SWAP1 POP PUSH2 0x655 DUP2 PUSH2 0x846 JUMP JUMPDEST SWAP3 SWAP2 POP POP JUMP JUMPDEST PUSH1 0x0 PUSH1 0x20 DUP3 DUP5 SUB SLT ISZERO PUSH2 0x671 JUMPI PUSH2 0x670 PUSH2 0x82D JUMP JUMPDEST JUMPDEST PUSH1 0x0 PUSH2 0x67F DUP5 DUP3 DUP6 ADD PUSH2 0x646 JUMP JUMPDEST SWAP2 POP POP SWAP3 SWAP2 POP POP JUMP JUMPDEST PUSH2 0x691 DUP2 PUSH2 0x76E JUMP JUMPDEST DUP3 MSTORE POP POP JUMP JUMPDEST PUSH2 0x6A0 DUP2 PUSH2 0x7BD JUMP JUMPDEST DUP3 MSTORE POP POP JUMP JUMPDEST PUSH2 0x6AF DUP2 PUSH2 0x7B3 JUMP JUMPDEST DUP3 MSTORE POP POP JUMP JUMPDEST PUSH1 0x0 PUSH1 0x20 DUP3 ADD SWAP1 POP PUSH2 0x6CA PUSH1 0x0 DUP4 ADD DUP5 PUSH2 0x688 JUMP JUMPDEST SWAP3 SWAP2 POP POP JUMP JUMPDEST PUSH1 0x0 PUSH1 0x20 DUP3 ADD SWAP1 POP PUSH2 0x6E5 PUSH1 0x0 DUP4 ADD DUP5 PUSH2 0x697 JUMP JUMPDEST SWAP3 SWAP2 POP POP JUMP JUMPDEST PUSH1 0x0 PUSH1 0x20 DUP3 ADD SWAP1 POP PUSH2 0x700 PUSH1 0x0 DUP4 ADD DUP5 PUSH2 0x6A6 JUMP JUMPDEST SWAP3 SWAP2 POP POP JUMP JUMPDEST PUSH1 0x0 PUSH2 0x711 DUP3 PUSH2 0x7B3 JUMP JUMPDEST SWAP2 POP PUSH2 0x71C DUP4 PUSH2 0x7B3 JUMP JUMPDEST SWAP3 POP DUP3 PUSH32 0xFFFFFFFFFFFFFFFFFFFFFFFFFFFFFFFFFFFFFFFFFFFFFFFFFFFFFFFFFFFFFFFF SUB DUP3 GT ISZERO PUSH2 0x751 JUMPI PUSH2 0x750 PUSH2 0x7CF JUMP JUMPDEST JUMPDEST DUP3 DUP3 ADD SWAP1 POP SWAP3 SWAP2 POP POP JUMP JUMPDEST PUSH1 0x0 PUSH2 0x767 DUP3 PUSH2 0x793 JUMP JUMPDEST SWAP1 POP SWAP2 SWAP1 POP JUMP JUMPDEST PUSH1 0x0 PUSH2 0x779 DUP3 PUSH2 0x793 JUMP JUMPDEST SWAP1 POP SWAP2 SWAP1 POP JUMP JUMPDEST PUSH1 0x0 DUP2 SWAP1 POP PUSH2 0x78E DUP3 PUSH2 0x832 JUMP JUMPDEST SWAP2 SWAP1 POP JUMP JUMPDEST PUSH1 0x0 PUSH20 0xFFFFFFFFFFFFFFFFFFFFFFFFFFFFFFFFFFFFFFFF DUP3 AND SWAP1 POP SWAP2 SWAP1 POP JUMP JUMPDEST PUSH1 0x0 DUP2 SWAP1 POP SWAP2 SWAP1 POP JUMP JUMPDEST PUSH1 0x0 PUSH2 0x7C8 DUP3 PUSH2 0x780 JUMP JUMPDEST SWAP1 POP SWAP2 SWAP1 POP JUMP JUMPDEST PUSH32 0x4E487B7100000000000000000000000000000000000000000000000000000000 PUSH1 0x0 MSTORE PUSH1 0x11 PUSH1 0x4 MSTORE PUSH1 0x24 PUSH1 0x0 REVERT JUMPDEST PUSH32 0x4E487B7100000000000000000000000000000000000000000000000000000000 PUSH1 0x0 MSTORE PUSH1 0x21 PUSH1 0x4 MSTORE PUSH1 0x24 PUSH1 0x0 REVERT JUMPDEST PUSH1 0x0 DUP1 REVERT JUMPDEST PUSH1 0x3 DUP2 LT PUSH2 0x843 JUMPI PUSH2 0x842 PUSH2 0x7FE JUMP JUMPDEST JUMPDEST POP JUMP JUMPDEST PUSH2 0x84F DUP2 PUSH2 0x75C JUMP JUMPDEST DUP2 EQ PUSH2 0x85A JUMPI PUSH1 0x0 DUP1 REVERT JUMPDEST POP JUMP INVALID LOG2 PUSH5 0x6970667358 0x22 SLT KECCAK256 PUSH3 0xCD065D 0x2A 0xEE 0xB2 PUSH6 0xA6E96DBB99B2 SWAP7 0xF GAS PUSH30 0x88C776C650AE4EF2385C097DC3264736F6C634300080700330000000000 "
				},
				"gasEstimates": {
					"creation": {
						"codeDepositCost": "439000",
						"executionCost": "46846",
						"totalCost": "485846"
					},
					"external": {
						"": "180",
						"auctionStatus()": "2654",
						"bids(address)": "2881",
						"endBlock()": "2430",
						"getAuctionState()": "2641",
						"highestBidder()": "2536",
						"highestBindingBid()": "2517",
						"owner()": "2511",
						"placeBid()": "infinite",
						"startBlock()": "2474"
					},
					"internal": {
						"min(uint256,uint256)": "64",
						"startAuction()": "infinite"
					}
				},
				"methodIdentifiers": {
					"auctionStatus()": "9d6a0f28",
					"bids(address)": "62ea82db",
					"endBlock()": "083c6323",
					"getAuctionState()": "08bfc300",
					"highestBidder()": "91f90157",
					"highestBindingBid()": "f5b56c56",
					"owner()": "8da5cb5b",
					"placeBid()": "ecfc7ecc",
					"startBlock()": "48cd4cb1"
				}
			},
			"storageLayout": {
				"storage": [
					{
						"astId": 3,
						"contract": "contracts/auction.sol:Auction",
						"label": "owner",
						"offset": 0,
						"slot": "0",
						"type": "t_address_payable"
					},
					{
						"astId": 10,
						"contract": "contracts/auction.sol:Auction",
						"label": "auctionStatus",
						"offset": 20,
						"slot": "0",
						"type": "t_enum(State)7"
					},
					{
						"astId": 12,
						"contract": "contracts/auction.sol:Auction",
						"label": "highestBindingBid",
						"offset": 0,
						"slot": "1",
						"type": "t_uint256"
					},
					{
						"astId": 14,
						"contract": "contracts/auction.sol:Auction",
						"label": "highestBidder",
						"offset": 0,
						"slot": "2",
						"type": "t_address_payable"
					},
					{
						"astId": 18,
						"contract": "contracts/auction.sol:Auction",
						"label": "bids",
						"offset": 0,
						"slot": "3",
						"type": "t_mapping(t_address,t_uint256)"
					},
					{
						"astId": 21,
						"contract": "contracts/auction.sol:Auction",
						"label": "bidIncrement",
						"offset": 0,
						"slot": "4",
						"type": "t_uint256"
					},
					{
						"astId": 23,
						"contract": "contracts/auction.sol:Auction",
						"label": "startBlock",
						"offset": 0,
						"slot": "5",
						"type": "t_uint256"
					},
					{
						"astId": 25,
						"contract": "contracts/auction.sol:Auction",
						"label": "endBlock",
						"offset": 0,
						"slot": "6",
						"type": "t_uint256"
					}
				],
				"types": {
					"t_address": {
						"encoding": "inplace",
						"label": "address",
						"numberOfBytes": "20"
					},
					"t_address_payable": {
						"encoding": "inplace",
						"label": "address payable",
						"numberOfBytes": "20"
					},
					"t_enum(State)7": {
						"encoding": "inplace",
						"label": "enum Auction.State",
						"numberOfBytes": "1"
					},
					"t_mapping(t_address,t_uint256)": {
						"encoding": "mapping",
						"key": "t_address",
						"label": "mapping(address => uint256)",
						"numberOfBytes": "32",
						"value": "t_uint256"
					},
					"t_uint256": {
						"encoding": "inplace",
						"label": "uint256",
						"numberOfBytes": "32"
					}
				}
			},
			"userdoc": {
				"kind": "user",
				"methods": {},
				"version": 1
			}
		}
	}
}