{
	"contracts/auction.sol": {
		"Auction": {
			"abi": [
				{
					"inputs": [],
					"stateMutability": "nonpayable",
					"type": "constructor"
				},
				{
					"stateMutability": "payable",
					"type": "fallback"
				},
				{
					"inputs": [
						{
							"internalType": "address",
							"name": "",
							"type": "address"
						}
					],
					"name": "bids",
					"outputs": [
						{
							"internalType": "uint256",
							"name": "",
							"type": "uint256"
						}
					],
					"stateMutability": "view",
					"type": "function"
				},
				{
					"inputs": [],
					"name": "endBlock",
					"outputs": [
						{
							"internalType": "uint256",
							"name": "",
							"type": "uint256"
						}
					],
					"stateMutability": "view",
					"type": "function"
				},
				{
					"inputs": [],
					"name": "getAuctionState",
					"outputs": [
						{
							"internalType": "enum Auction.State",
							"name": "",
							"type": "uint8"
						}
					],
					"stateMutability": "view",
					"type": "function"
				},
				{
					"inputs": [],
					"name": "highestBidder",
					"outputs": [
						{
							"internalType": "address payable",
							"name": "",
							"type": "address"
						}
					],
					"stateMutability": "view",
					"type": "function"
				},
				{
					"inputs": [],
					"name": "highestBindingBid",
					"outputs": [
						{
							"internalType": "uint256",
							"name": "",
							"type": "uint256"
						}
					],
					"stateMutability": "view",
					"type": "function"
				},
				{
					"inputs": [],
					"name": "owner",
					"outputs": [
						{
							"internalType": "address payable",
							"name": "",
							"type": "address"
						}
					],
					"stateMutability": "view",
					"type": "function"
				},
				{
					"inputs": [],
					"name": "placeBid",
					"outputs": [],
					"stateMutability": "payable",
					"type": "function"
				},
				{
					"inputs": [],
					"name": "startBlock",
					"outputs": [
						{
							"internalType": "uint256",
							"name": "",
							"type": "uint256"
						}
					],
					"stateMutability": "view",
					"type": "function"
				},
				{
					"stateMutability": "payable",
					"type": "receive"
				}
			],
			"devdoc": {
				"kind": "dev",
				"methods": {},
				"version": 1
			},
			"evm": {
				"assembly": "    /* \"contracts/auction.sol\":73:2659  contract Auction{\r... */\n  mstore(0x40, 0x80)\n    /* \"contracts/auction.sol\":357:360  100 */\n  0x64\n    /* \"contracts/auction.sol\":337:360  uint bidIncrement = 100 */\n  0x04\n  sstore\n    /* \"contracts/auction.sol\":427:511  constructor(){\r... */\n  callvalue\n  dup1\n  iszero\n  tag_1\n  jumpi\n  0x00\n  dup1\n  revert\ntag_1:\n  pop\n    /* \"contracts/auction.sol\":467:477  msg.sender */\n  caller\n    /* \"contracts/auction.sol\":451:456  owner */\n  0x00\n  dup1\n    /* \"contracts/auction.sol\":451:478  owner = payable(msg.sender) */\n  0x0100\n  exp\n  dup2\n  sload\n  dup2\n  0xffffffffffffffffffffffffffffffffffffffff\n  mul\n  not\n  and\n  swap1\n  dup4\n  0xffffffffffffffffffffffffffffffffffffffff\n  and\n  mul\n  or\n  swap1\n  sstore\n  pop\n    /* \"contracts/auction.sol\":489:503  startAuction() */\n  tag_4\n    /* \"contracts/auction.sol\":489:501  startAuction */\n  shl(0x20, tag_5)\n    /* \"contracts/auction.sol\":489:503  startAuction() */\n  0x20\n  shr\n  jump\t// in\ntag_4:\n    /* \"contracts/auction.sol\":73:2659  contract Auction{\r... */\n  jump(tag_6)\n    /* \"contracts/auction.sol\":1986:2249  function startAuction() private onlyOwner {\r... */\ntag_5:\n    /* \"contracts/auction.sol\":572:577  owner */\n  0x00\n  dup1\n  sload\n  swap1\n  0x0100\n  exp\n  swap1\n  div\n  0xffffffffffffffffffffffffffffffffffffffff\n  and\n    /* \"contracts/auction.sol\":558:577  msg.sender == owner */\n  0xffffffffffffffffffffffffffffffffffffffff\n  and\n    /* \"contracts/auction.sol\":558:568  msg.sender */\n  caller\n    /* \"contracts/auction.sol\":558:577  msg.sender == owner */\n  0xffffffffffffffffffffffffffffffffffffffff\n  and\n  eq\n    /* \"contracts/auction.sol\":550:578  require(msg.sender == owner) */\n  tag_8\n  jumpi\n  0x00\n  dup1\n  revert\ntag_8:\n    /* \"contracts/auction.sol\":2055:2068  State.RUNNING */\n  0x00\n    /* \"contracts/auction.sol\":2039:2052  auctionStatus */\n  dup1\n  0x14\n    /* \"contracts/auction.sol\":2039:2068  auctionStatus = State.RUNNING */\n  0x0100\n  exp\n  dup2\n  sload\n  dup2\n  0xff\n  mul\n  not\n  and\n  swap1\n  dup4\n  0x02\n  dup2\n  gt\n  iszero\n  tag_10\n  jumpi\n  tag_11\n  tag_12\n  jump\t// in\ntag_11:\ntag_10:\n  mul\n  or\n  swap1\n  sstore\n  pop\n    /* \"contracts/auction.sol\":2094:2106  block.number */\n  number\n    /* \"contracts/auction.sol\":2081:2091  startBlock */\n  0x05\n    /* \"contracts/auction.sol\":2081:2106  startBlock = block.number */\n  dup2\n  swap1\n  sstore\n  pop\n    /* \"contracts/auction.sol\":2214:2219  40320 */\n  0x9d80\n    /* \"contracts/auction.sol\":2201:2211  startBlock */\n  sload(0x05)\n    /* \"contracts/auction.sol\":2201:2219  startBlock + 40320 */\n  tag_13\n  swap2\n  swap1\n  tag_14\n  jump\t// in\ntag_13:\n    /* \"contracts/auction.sol\":2190:2198  endBlock */\n  0x06\n    /* \"contracts/auction.sol\":2190:2219  endBlock = startBlock + 40320 */\n  dup2\n  swap1\n  sstore\n  pop\n    /* \"contracts/auction.sol\":1986:2249  function startAuction() private onlyOwner {\r... */\n  jump\t// out\n    /* \"#utility.yul\":7:312   */\ntag_14:\n    /* \"#utility.yul\":47:50   */\n  0x00\n    /* \"#utility.yul\":66:86   */\n  tag_17\n    /* \"#utility.yul\":84:85   */\n  dup3\n    /* \"#utility.yul\":66:86   */\n  tag_18\n  jump\t// in\ntag_17:\n    /* \"#utility.yul\":61:86   */\n  swap2\n  pop\n    /* \"#utility.yul\":100:120   */\n  tag_19\n    /* \"#utility.yul\":118:119   */\n  dup4\n    /* \"#utility.yul\":100:120   */\n  tag_18\n  jump\t// in\ntag_19:\n    /* \"#utility.yul\":95:120   */\n  swap3\n  pop\n    /* \"#utility.yul\":254:255   */\n  dup3\n    /* \"#utility.yul\":186:252   */\n  0xffffffffffffffffffffffffffffffffffffffffffffffffffffffffffffffff\n    /* \"#utility.yul\":182:256   */\n  sub\n    /* \"#utility.yul\":179:180   */\n  dup3\n    /* \"#utility.yul\":176:257   */\n  gt\n    /* \"#utility.yul\":173:280   */\n  iszero\n  tag_20\n  jumpi\n    /* \"#utility.yul\":260:278   */\n  tag_21\n  tag_22\n  jump\t// in\ntag_21:\n    /* \"#utility.yul\":173:280   */\ntag_20:\n    /* \"#utility.yul\":304:305   */\n  dup3\n    /* \"#utility.yul\":301:302   */\n  dup3\n    /* \"#utility.yul\":297:306   */\n  add\n    /* \"#utility.yul\":290:306   */\n  swap1\n  pop\n    /* \"#utility.yul\":7:312   */\n  swap3\n  swap2\n  pop\n  pop\n  jump\t// out\n    /* \"#utility.yul\":318:395   */\ntag_18:\n    /* \"#utility.yul\":355:362   */\n  0x00\n    /* \"#utility.yul\":384:389   */\n  dup2\n    /* \"#utility.yul\":373:389   */\n  swap1\n  pop\n    /* \"#utility.yul\":318:395   */\n  swap2\n  swap1\n  pop\n  jump\t// out\n    /* \"#utility.yul\":401:581   */\ntag_22:\n    /* \"#utility.yul\":449:526   */\n  0x4e487b7100000000000000000000000000000000000000000000000000000000\n    /* \"#utility.yul\":446:447   */\n  0x00\n    /* \"#utility.yul\":439:527   */\n  mstore\n    /* \"#utility.yul\":546:550   */\n  0x11\n    /* \"#utility.yul\":543:544   */\n  0x04\n    /* \"#utility.yul\":536:551   */\n  mstore\n    /* \"#utility.yul\":570:574   */\n  0x24\n    /* \"#utility.yul\":567:568   */\n  0x00\n    /* \"#utility.yul\":560:575   */\n  revert\n    /* \"#utility.yul\":587:767   */\ntag_12:\n    /* \"#utility.yul\":635:712   */\n  0x4e487b7100000000000000000000000000000000000000000000000000000000\n    /* \"#utility.yul\":632:633   */\n  0x00\n    /* \"#utility.yul\":625:713   */\n  mstore\n    /* \"#utility.yul\":732:736   */\n  0x21\n    /* \"#utility.yul\":729:730   */\n  0x04\n    /* \"#utility.yul\":722:737   */\n  mstore\n    /* \"#utility.yul\":756:760   */\n  0x24\n    /* \"#utility.yul\":753:754   */\n  0x00\n    /* \"#utility.yul\":746:761   */\n  revert\n    /* \"contracts/auction.sol\":73:2659  contract Auction{\r... */\ntag_6:\n  dataSize(sub_0)\n  dup1\n  dataOffset(sub_0)\n  0x00\n  codecopy\n  0x00\n  return\nstop\n\nsub_0: assembly {\n        /* \"contracts/auction.sol\":73:2659  contract Auction{\r... */\n      mstore(0x40, 0x80)\n      jumpi(tag_1, lt(calldatasize, 0x04))\n      shr(0xe0, calldataload(0x00))\n      dup1\n      0x8da5cb5b\n      gt\n      tag_11\n      jumpi\n      dup1\n      0x8da5cb5b\n      eq\n      tag_7\n      jumpi\n      dup1\n      0x91f90157\n      eq\n      tag_8\n      jumpi\n      dup1\n      0xecfc7ecc\n      eq\n      tag_9\n      jumpi\n      dup1\n      0xf5b56c56\n      eq\n      tag_10\n      jumpi\n      jump(tag_2)\n    tag_11:\n      dup1\n      0x083c6323\n      eq\n      tag_3\n      jumpi\n      dup1\n      0x08bfc300\n      eq\n      tag_4\n      jumpi\n      dup1\n      0x48cd4cb1\n      eq\n      tag_5\n      jumpi\n      dup1\n      0x62ea82db\n      eq\n      tag_6\n      jumpi\n      jump(tag_2)\n    tag_1:\n      jumpi(tag_2, calldatasize)\n        /* \"contracts/auction.sol\":656:661  owner */\n      0x00\n      dup1\n      sload\n      swap1\n      0x0100\n      exp\n      swap1\n      div\n      0xffffffffffffffffffffffffffffffffffffffff\n      and\n        /* \"contracts/auction.sol\":642:661  msg.sender != owner */\n      0xffffffffffffffffffffffffffffffffffffffff\n      and\n        /* \"contracts/auction.sol\":642:652  msg.sender */\n      caller\n        /* \"contracts/auction.sol\":642:661  msg.sender != owner */\n      0xffffffffffffffffffffffffffffffffffffffff\n      and\n      eq\n      iszero\n        /* \"contracts/auction.sol\":634:662  require(msg.sender != owner) */\n      tag_14\n      jumpi\n      0x00\n      dup1\n      revert\n    tag_14:\n        /* \"contracts/auction.sol\":744:754  startBlock */\n      sload(0x05)\n        /* \"contracts/auction.sol\":728:740  block.number */\n      number\n        /* \"contracts/auction.sol\":728:754  block.number >= startBlock */\n      lt\n      iszero\n        /* \"contracts/auction.sol\":720:755  require(block.number >= startBlock) */\n      tag_16\n      jumpi\n      0x00\n      dup1\n      revert\n    tag_16:\n        /* \"contracts/auction.sol\":836:844  endBlock */\n      sload(0x06)\n        /* \"contracts/auction.sol\":820:832  block.number */\n      number\n        /* \"contracts/auction.sol\":820:844  block.number <= endBlock */\n      gt\n      iszero\n        /* \"contracts/auction.sol\":812:845  require(block.number <= endBlock) */\n      tag_18\n      jumpi\n      0x00\n      dup1\n      revert\n    tag_18:\n        /* \"contracts/auction.sol\":73:2659  contract Auction{\r... */\n      stop\n    tag_2:\n        /* \"contracts/auction.sol\":1026:1034  revert() */\n      0x00\n      dup1\n      revert\n        /* \"contracts/auction.sol\":398:418  uint public endBlock */\n    tag_3:\n      callvalue\n      dup1\n      iszero\n      tag_22\n      jumpi\n      0x00\n      dup1\n      revert\n    tag_22:\n      pop\n      tag_23\n      tag_24\n      jump\t// in\n    tag_23:\n      mload(0x40)\n      tag_25\n      swap2\n      swap1\n      tag_26\n      jump\t// in\n    tag_25:\n      mload(0x40)\n      dup1\n      swap2\n      sub\n      swap1\n      return\n        /* \"contracts/auction.sol\":1884:1976  function getAuctionState() public view returns(State){\r... */\n    tag_4:\n      callvalue\n      dup1\n      iszero\n      tag_27\n      jumpi\n      0x00\n      dup1\n      revert\n    tag_27:\n      pop\n      tag_28\n      tag_29\n      jump\t// in\n    tag_28:\n      mload(0x40)\n      tag_30\n      swap2\n      swap1\n      tag_31\n      jump\t// in\n    tag_30:\n      mload(0x40)\n      dup1\n      swap2\n      sub\n      swap1\n      return\n        /* \"contracts/auction.sol\":369:391  uint public startBlock */\n    tag_5:\n      callvalue\n      dup1\n      iszero\n      tag_32\n      jumpi\n      0x00\n      dup1\n      revert\n    tag_32:\n      pop\n      tag_33\n      tag_34\n      jump\t// in\n    tag_33:\n      mload(0x40)\n      tag_35\n      swap2\n      swap1\n      tag_26\n      jump\t// in\n    tag_35:\n      mload(0x40)\n      dup1\n      swap2\n      sub\n      swap1\n      return\n        /* \"contracts/auction.sol\":292:328  mapping(address => uint) public bids */\n    tag_6:\n      callvalue\n      dup1\n      iszero\n      tag_36\n      jumpi\n      0x00\n      dup1\n      revert\n    tag_36:\n      pop\n      tag_37\n      0x04\n      dup1\n      calldatasize\n      sub\n      dup2\n      add\n      swap1\n      tag_38\n      swap2\n      swap1\n      tag_39\n      jump\t// in\n    tag_38:\n      tag_40\n      jump\t// in\n    tag_37:\n      mload(0x40)\n      tag_41\n      swap2\n      swap1\n      tag_26\n      jump\t// in\n    tag_41:\n      mload(0x40)\n      dup1\n      swap2\n      sub\n      swap1\n      return\n        /* \"contracts/auction.sol\":98:126  address payable public owner */\n    tag_7:\n      callvalue\n      dup1\n      iszero\n      tag_42\n      jumpi\n      0x00\n      dup1\n      revert\n    tag_42:\n      pop\n      tag_43\n      tag_44\n      jump\t// in\n    tag_43:\n      mload(0x40)\n      tag_45\n      swap2\n      swap1\n      tag_46\n      jump\t// in\n    tag_45:\n      mload(0x40)\n      dup1\n      swap2\n      sub\n      swap1\n      return\n        /* \"contracts/auction.sol\":247:283  address payable public highestBidder */\n    tag_8:\n      callvalue\n      dup1\n      iszero\n      tag_47\n      jumpi\n      0x00\n      dup1\n      revert\n    tag_47:\n      pop\n      tag_48\n      tag_49\n      jump\t// in\n    tag_48:\n      mload(0x40)\n      tag_50\n      swap2\n      swap1\n      tag_46\n      jump\t// in\n    tag_50:\n      mload(0x40)\n      dup1\n      swap2\n      sub\n      swap1\n      return\n        /* \"contracts/auction.sol\":1050:1679  function placeBid() public payable notOwner afterStart beforeEnd{\r... */\n    tag_9:\n      tag_51\n      tag_52\n      jump\t// in\n    tag_51:\n      stop\n        /* \"contracts/auction.sol\":211:240  uint public highestBindingBid */\n    tag_10:\n      callvalue\n      dup1\n      iszero\n      tag_53\n      jumpi\n      0x00\n      dup1\n      revert\n    tag_53:\n      pop\n      tag_54\n      tag_55\n      jump\t// in\n    tag_54:\n      mload(0x40)\n      tag_56\n      swap2\n      swap1\n      tag_26\n      jump\t// in\n    tag_56:\n      mload(0x40)\n      dup1\n      swap2\n      sub\n      swap1\n      return\n        /* \"contracts/auction.sol\":398:418  uint public endBlock */\n    tag_24:\n      sload(0x06)\n      dup2\n      jump\t// out\n        /* \"contracts/auction.sol\":1884:1976  function getAuctionState() public view returns(State){\r... */\n    tag_29:\n        /* \"contracts/auction.sol\":1931:1936  State */\n      0x00\n        /* \"contracts/auction.sol\":1955:1968  auctionStatus */\n      dup1\n      0x14\n      swap1\n      sload\n      swap1\n      0x0100\n      exp\n      swap1\n      div\n      0xff\n      and\n        /* \"contracts/auction.sol\":1948:1968  return auctionStatus */\n      swap1\n      pop\n        /* \"contracts/auction.sol\":1884:1976  function getAuctionState() public view returns(State){\r... */\n      swap1\n      jump\t// out\n        /* \"contracts/auction.sol\":369:391  uint public startBlock */\n    tag_34:\n      sload(0x05)\n      dup2\n      jump\t// out\n        /* \"contracts/auction.sol\":292:328  mapping(address => uint) public bids */\n    tag_40:\n      mstore(0x20, 0x03)\n      dup1\n      0x00\n      mstore\n      keccak256(0x00, 0x40)\n      0x00\n      swap2\n      pop\n      swap1\n      pop\n      sload\n      dup2\n      jump\t// out\n        /* \"contracts/auction.sol\":98:126  address payable public owner */\n    tag_44:\n      0x00\n      dup1\n      sload\n      swap1\n      0x0100\n      exp\n      swap1\n      div\n      0xffffffffffffffffffffffffffffffffffffffff\n      and\n      dup2\n      jump\t// out\n        /* \"contracts/auction.sol\":247:283  address payable public highestBidder */\n    tag_49:\n      0x02\n      0x00\n      swap1\n      sload\n      swap1\n      0x0100\n      exp\n      swap1\n      div\n      0xffffffffffffffffffffffffffffffffffffffff\n      and\n      dup2\n      jump\t// out\n        /* \"contracts/auction.sol\":1050:1679  function placeBid() public payable notOwner afterStart beforeEnd{\r... */\n    tag_52:\n        /* \"contracts/auction.sol\":656:661  owner */\n      0x00\n      dup1\n      sload\n      swap1\n      0x0100\n      exp\n      swap1\n      div\n      0xffffffffffffffffffffffffffffffffffffffff\n      and\n        /* \"contracts/auction.sol\":642:661  msg.sender != owner */\n      0xffffffffffffffffffffffffffffffffffffffff\n      and\n        /* \"contracts/auction.sol\":642:652  msg.sender */\n      caller\n        /* \"contracts/auction.sol\":642:661  msg.sender != owner */\n      0xffffffffffffffffffffffffffffffffffffffff\n      and\n      eq\n      iszero\n        /* \"contracts/auction.sol\":634:662  require(msg.sender != owner) */\n      tag_59\n      jumpi\n      0x00\n      dup1\n      revert\n    tag_59:\n        /* \"contracts/auction.sol\":744:754  startBlock */\n      sload(0x05)\n        /* \"contracts/auction.sol\":728:740  block.number */\n      number\n        /* \"contracts/auction.sol\":728:754  block.number >= startBlock */\n      lt\n      iszero\n        /* \"contracts/auction.sol\":720:755  require(block.number >= startBlock) */\n      tag_61\n      jumpi\n      0x00\n      dup1\n      revert\n    tag_61:\n        /* \"contracts/auction.sol\":836:844  endBlock */\n      sload(0x06)\n        /* \"contracts/auction.sol\":820:832  block.number */\n      number\n        /* \"contracts/auction.sol\":820:844  block.number <= endBlock */\n      gt\n      iszero\n        /* \"contracts/auction.sol\":812:845  require(block.number <= endBlock) */\n      tag_63\n      jumpi\n      0x00\n      dup1\n      revert\n    tag_63:\n        /* \"contracts/auction.sol\":1154:1167  State.RUNNING */\n      0x00\n        /* \"contracts/auction.sol\":1133:1167  getAuctionState() == State.RUNNING */\n      0x02\n      dup2\n      gt\n      iszero\n      tag_65\n      jumpi\n      tag_66\n      tag_67\n      jump\t// in\n    tag_66:\n    tag_65:\n        /* \"contracts/auction.sol\":1133:1150  getAuctionState() */\n      tag_68\n        /* \"contracts/auction.sol\":1133:1148  getAuctionState */\n      tag_29\n        /* \"contracts/auction.sol\":1133:1150  getAuctionState() */\n      jump\t// in\n    tag_68:\n        /* \"contracts/auction.sol\":1133:1167  getAuctionState() == State.RUNNING */\n      0x02\n      dup2\n      gt\n      iszero\n      tag_69\n      jumpi\n      tag_70\n      tag_67\n      jump\t// in\n    tag_70:\n    tag_69:\n      eq\n        /* \"contracts/auction.sol\":1125:1168  require(getAuctionState() == State.RUNNING) */\n      tag_71\n      jumpi\n      0x00\n      dup1\n      revert\n    tag_71:\n        /* \"contracts/auction.sol\":1200:1212  bidIncrement */\n      sload(0x04)\n        /* \"contracts/auction.sol\":1187:1196  msg.value */\n      callvalue\n        /* \"contracts/auction.sol\":1187:1212  msg.value >= bidIncrement */\n      lt\n      iszero\n        /* \"contracts/auction.sol\":1179:1213  require(msg.value >= bidIncrement) */\n      tag_72\n      jumpi\n      0x00\n      dup1\n      revert\n    tag_72:\n        /* \"contracts/auction.sol\":1226:1241  uint currentBid */\n      0x00\n        /* \"contracts/auction.sol\":1263:1272  msg.value */\n      callvalue\n        /* \"contracts/auction.sol\":1244:1248  bids */\n      0x03\n        /* \"contracts/auction.sol\":1244:1260  bids[msg.sender] */\n      0x00\n        /* \"contracts/auction.sol\":1249:1259  msg.sender */\n      caller\n        /* \"contracts/auction.sol\":1244:1260  bids[msg.sender] */\n      0xffffffffffffffffffffffffffffffffffffffff\n      and\n      0xffffffffffffffffffffffffffffffffffffffff\n      and\n      dup2\n      mstore\n      0x20\n      add\n      swap1\n      dup2\n      mstore\n      0x20\n      add\n      0x00\n      keccak256\n      sload\n        /* \"contracts/auction.sol\":1244:1272  bids[msg.sender] + msg.value */\n      tag_73\n      swap2\n      swap1\n      tag_74\n      jump\t// in\n    tag_73:\n        /* \"contracts/auction.sol\":1226:1272  uint currentBid = bids[msg.sender] + msg.value */\n      swap1\n      pop\n        /* \"contracts/auction.sol\":1304:1321  highestBindingBid */\n      sload(0x01)\n        /* \"contracts/auction.sol\":1291:1301  currentBid */\n      dup2\n        /* \"contracts/auction.sol\":1291:1321  currentBid > highestBindingBid */\n      gt\n        /* \"contracts/auction.sol\":1283:1322  require(currentBid > highestBindingBid) */\n      tag_75\n      jumpi\n      0x00\n      dup1\n      revert\n    tag_75:\n        /* \"contracts/auction.sol\":1352:1362  currentBid */\n      dup1\n        /* \"contracts/auction.sol\":1333:1337  bids */\n      0x03\n        /* \"contracts/auction.sol\":1333:1349  bids[msg.sender] */\n      0x00\n        /* \"contracts/auction.sol\":1338:1348  msg.sender */\n      caller\n        /* \"contracts/auction.sol\":1333:1349  bids[msg.sender] */\n      0xffffffffffffffffffffffffffffffffffffffff\n      and\n      0xffffffffffffffffffffffffffffffffffffffff\n      and\n      dup2\n      mstore\n      0x20\n      add\n      swap1\n      dup2\n      mstore\n      0x20\n      add\n      0x00\n      keccak256\n        /* \"contracts/auction.sol\":1333:1362  bids[msg.sender] = currentBid */\n      dup2\n      swap1\n      sstore\n      pop\n        /* \"contracts/auction.sol\":1392:1396  bids */\n      0x03\n        /* \"contracts/auction.sol\":1392:1411  bids[highestBidder] */\n      0x00\n        /* \"contracts/auction.sol\":1397:1410  highestBidder */\n      0x02\n      0x00\n      swap1\n      sload\n      swap1\n      0x0100\n      exp\n      swap1\n      div\n      0xffffffffffffffffffffffffffffffffffffffff\n      and\n        /* \"contracts/auction.sol\":1392:1411  bids[highestBidder] */\n      0xffffffffffffffffffffffffffffffffffffffff\n      and\n      0xffffffffffffffffffffffffffffffffffffffff\n      and\n      dup2\n      mstore\n      0x20\n      add\n      swap1\n      dup2\n      mstore\n      0x20\n      add\n      0x00\n      keccak256\n      sload\n        /* \"contracts/auction.sol\":1378:1388  currentBid */\n      dup2\n        /* \"contracts/auction.sol\":1378:1411  currentBid <= bids[highestBidder] */\n      gt\n        /* \"contracts/auction.sol\":1375:1672  if(currentBid <= bids[highestBidder]){\r... */\n      tag_76\n      jumpi\n        /* \"contracts/auction.sol\":1447:1498  min(currentBid + bidIncrement, bids[highestBidder]) */\n      tag_77\n        /* \"contracts/auction.sol\":1464:1476  bidIncrement */\n      sload(0x04)\n        /* \"contracts/auction.sol\":1451:1461  currentBid */\n      dup3\n        /* \"contracts/auction.sol\":1451:1476  currentBid + bidIncrement */\n      tag_78\n      swap2\n      swap1\n      tag_74\n      jump\t// in\n    tag_78:\n        /* \"contracts/auction.sol\":1478:1482  bids */\n      0x03\n        /* \"contracts/auction.sol\":1478:1497  bids[highestBidder] */\n      0x00\n        /* \"contracts/auction.sol\":1483:1496  highestBidder */\n      0x02\n      0x00\n      swap1\n      sload\n      swap1\n      0x0100\n      exp\n      swap1\n      div\n      0xffffffffffffffffffffffffffffffffffffffff\n      and\n        /* \"contracts/auction.sol\":1478:1497  bids[highestBidder] */\n      0xffffffffffffffffffffffffffffffffffffffff\n      and\n      0xffffffffffffffffffffffffffffffffffffffff\n      and\n      dup2\n      mstore\n      0x20\n      add\n      swap1\n      dup2\n      mstore\n      0x20\n      add\n      0x00\n      keccak256\n      sload\n        /* \"contracts/auction.sol\":1447:1450  min */\n      tag_79\n        /* \"contracts/auction.sol\":1447:1498  min(currentBid + bidIncrement, bids[highestBidder]) */\n      jump\t// in\n    tag_77:\n        /* \"contracts/auction.sol\":1427:1444  highestBindingBid */\n      0x01\n        /* \"contracts/auction.sol\":1427:1498  highestBindingBid = min(currentBid + bidIncrement, bids[highestBidder]) */\n      dup2\n      swap1\n      sstore\n      pop\n        /* \"contracts/auction.sol\":1375:1672  if(currentBid <= bids[highestBidder]){\r... */\n      jump(tag_80)\n    tag_76:\n        /* \"contracts/auction.sol\":1559:1610  min(currentBid, bids[highestBidder] + bidIncrement) */\n      tag_81\n        /* \"contracts/auction.sol\":1563:1573  currentBid */\n      dup2\n        /* \"contracts/auction.sol\":1597:1609  bidIncrement */\n      sload(0x04)\n        /* \"contracts/auction.sol\":1575:1579  bids */\n      0x03\n        /* \"contracts/auction.sol\":1575:1594  bids[highestBidder] */\n      0x00\n        /* \"contracts/auction.sol\":1580:1593  highestBidder */\n      0x02\n      0x00\n      swap1\n      sload\n      swap1\n      0x0100\n      exp\n      swap1\n      div\n      0xffffffffffffffffffffffffffffffffffffffff\n      and\n        /* \"contracts/auction.sol\":1575:1594  bids[highestBidder] */\n      0xffffffffffffffffffffffffffffffffffffffff\n      and\n      0xffffffffffffffffffffffffffffffffffffffff\n      and\n      dup2\n      mstore\n      0x20\n      add\n      swap1\n      dup2\n      mstore\n      0x20\n      add\n      0x00\n      keccak256\n      sload\n        /* \"contracts/auction.sol\":1575:1609  bids[highestBidder] + bidIncrement */\n      tag_82\n      swap2\n      swap1\n      tag_74\n      jump\t// in\n    tag_82:\n        /* \"contracts/auction.sol\":1559:1562  min */\n      tag_79\n        /* \"contracts/auction.sol\":1559:1610  min(currentBid, bids[highestBidder] + bidIncrement) */\n      jump\t// in\n    tag_81:\n        /* \"contracts/auction.sol\":1539:1556  highestBindingBid */\n      0x01\n        /* \"contracts/auction.sol\":1539:1610  highestBindingBid = min(currentBid, bids[highestBidder] + bidIncrement) */\n      dup2\n      swap1\n      sstore\n      pop\n        /* \"contracts/auction.sol\":1649:1659  msg.sender */\n      caller\n        /* \"contracts/auction.sol\":1625:1638  highestBidder */\n      0x02\n      0x00\n        /* \"contracts/auction.sol\":1625:1660  highestBidder = payable(msg.sender) */\n      0x0100\n      exp\n      dup2\n      sload\n      dup2\n      0xffffffffffffffffffffffffffffffffffffffff\n      mul\n      not\n      and\n      swap1\n      dup4\n      0xffffffffffffffffffffffffffffffffffffffff\n      and\n      mul\n      or\n      swap1\n      sstore\n      pop\n        /* \"contracts/auction.sol\":1375:1672  if(currentBid <= bids[highestBidder]){\r... */\n    tag_80:\n        /* \"contracts/auction.sol\":1114:1679  {\r... */\n      pop\n        /* \"contracts/auction.sol\":1050:1679  function placeBid() public payable notOwner afterStart beforeEnd{\r... */\n      jump\t// out\n        /* \"contracts/auction.sol\":211:240  uint public highestBindingBid */\n    tag_55:\n      sload(0x01)\n      dup2\n      jump\t// out\n        /* \"contracts/auction.sol\":1687:1825  function min(uint a, uint b) pure internal returns(uint){\r... */\n    tag_79:\n        /* \"contracts/auction.sol\":1738:1742  uint */\n      0x00\n        /* \"contracts/auction.sol\":1762:1763  b */\n      dup2\n        /* \"contracts/auction.sol\":1757:1758  a */\n      dup4\n        /* \"contracts/auction.sol\":1757:1763  a <= b */\n      gt\n        /* \"contracts/auction.sol\":1754:1799  if(a <= b){\r... */\n      tag_84\n      jumpi\n        /* \"contracts/auction.sol\":1786:1787  a */\n      dup3\n        /* \"contracts/auction.sol\":1779:1787  return a */\n      swap1\n      pop\n      jump(tag_83)\n        /* \"contracts/auction.sol\":1754:1799  if(a <= b){\r... */\n    tag_84:\n        /* \"contracts/auction.sol\":1816:1817  b */\n      dup2\n        /* \"contracts/auction.sol\":1809:1817  return b */\n      swap1\n      pop\n        /* \"contracts/auction.sol\":1687:1825  function min(uint a, uint b) pure internal returns(uint){\r... */\n    tag_83:\n      swap3\n      swap2\n      pop\n      pop\n      jump\t// out\n        /* \"#utility.yul\":7:146   */\n    tag_86:\n        /* \"#utility.yul\":53:58   */\n      0x00\n        /* \"#utility.yul\":91:97   */\n      dup2\n        /* \"#utility.yul\":78:98   */\n      calldataload\n        /* \"#utility.yul\":69:98   */\n      swap1\n      pop\n        /* \"#utility.yul\":107:140   */\n      tag_88\n        /* \"#utility.yul\":134:139   */\n      dup2\n        /* \"#utility.yul\":107:140   */\n      tag_89\n      jump\t// in\n    tag_88:\n        /* \"#utility.yul\":7:146   */\n      swap3\n      swap2\n      pop\n      pop\n      jump\t// out\n        /* \"#utility.yul\":152:481   */\n    tag_39:\n        /* \"#utility.yul\":211:217   */\n      0x00\n        /* \"#utility.yul\":260:262   */\n      0x20\n        /* \"#utility.yul\":248:257   */\n      dup3\n        /* \"#utility.yul\":239:246   */\n      dup5\n        /* \"#utility.yul\":235:258   */\n      sub\n        /* \"#utility.yul\":231:263   */\n      slt\n        /* \"#utility.yul\":228:347   */\n      iszero\n      tag_91\n      jumpi\n        /* \"#utility.yul\":266:345   */\n      tag_92\n      tag_93\n      jump\t// in\n    tag_92:\n        /* \"#utility.yul\":228:347   */\n    tag_91:\n        /* \"#utility.yul\":386:387   */\n      0x00\n        /* \"#utility.yul\":411:464   */\n      tag_94\n        /* \"#utility.yul\":456:463   */\n      dup5\n        /* \"#utility.yul\":447:453   */\n      dup3\n        /* \"#utility.yul\":436:445   */\n      dup6\n        /* \"#utility.yul\":432:454   */\n      add\n        /* \"#utility.yul\":411:464   */\n      tag_86\n      jump\t// in\n    tag_94:\n        /* \"#utility.yul\":401:464   */\n      swap2\n      pop\n        /* \"#utility.yul\":357:474   */\n      pop\n        /* \"#utility.yul\":152:481   */\n      swap3\n      swap2\n      pop\n      pop\n      jump\t// out\n        /* \"#utility.yul\":487:629   */\n    tag_95:\n        /* \"#utility.yul\":590:622   */\n      tag_97\n        /* \"#utility.yul\":616:621   */\n      dup2\n        /* \"#utility.yul\":590:622   */\n      tag_98\n      jump\t// in\n    tag_97:\n        /* \"#utility.yul\":585:588   */\n      dup3\n        /* \"#utility.yul\":578:623   */\n      mstore\n        /* \"#utility.yul\":487:629   */\n      pop\n      pop\n      jump\t// out\n        /* \"#utility.yul\":635:776   */\n    tag_99:\n        /* \"#utility.yul\":727:769   */\n      tag_101\n        /* \"#utility.yul\":763:768   */\n      dup2\n        /* \"#utility.yul\":727:769   */\n      tag_102\n      jump\t// in\n    tag_101:\n        /* \"#utility.yul\":722:725   */\n      dup3\n        /* \"#utility.yul\":715:770   */\n      mstore\n        /* \"#utility.yul\":635:776   */\n      pop\n      pop\n      jump\t// out\n        /* \"#utility.yul\":782:900   */\n    tag_103:\n        /* \"#utility.yul\":869:893   */\n      tag_105\n        /* \"#utility.yul\":887:892   */\n      dup2\n        /* \"#utility.yul\":869:893   */\n      tag_106\n      jump\t// in\n    tag_105:\n        /* \"#utility.yul\":864:867   */\n      dup3\n        /* \"#utility.yul\":857:894   */\n      mstore\n        /* \"#utility.yul\":782:900   */\n      pop\n      pop\n      jump\t// out\n        /* \"#utility.yul\":906:1160   */\n    tag_46:\n        /* \"#utility.yul\":1015:1019   */\n      0x00\n        /* \"#utility.yul\":1053:1055   */\n      0x20\n        /* \"#utility.yul\":1042:1051   */\n      dup3\n        /* \"#utility.yul\":1038:1056   */\n      add\n        /* \"#utility.yul\":1030:1056   */\n      swap1\n      pop\n        /* \"#utility.yul\":1066:1153   */\n      tag_108\n        /* \"#utility.yul\":1150:1151   */\n      0x00\n        /* \"#utility.yul\":1139:1148   */\n      dup4\n        /* \"#utility.yul\":1135:1152   */\n      add\n        /* \"#utility.yul\":1126:1132   */\n      dup5\n        /* \"#utility.yul\":1066:1153   */\n      tag_95\n      jump\t// in\n    tag_108:\n        /* \"#utility.yul\":906:1160   */\n      swap3\n      swap2\n      pop\n      pop\n      jump\t// out\n        /* \"#utility.yul\":1166:1398   */\n    tag_31:\n        /* \"#utility.yul\":1264:1268   */\n      0x00\n        /* \"#utility.yul\":1302:1304   */\n      0x20\n        /* \"#utility.yul\":1291:1300   */\n      dup3\n        /* \"#utility.yul\":1287:1305   */\n      add\n        /* \"#utility.yul\":1279:1305   */\n      swap1\n      pop\n        /* \"#utility.yul\":1315:1391   */\n      tag_110\n        /* \"#utility.yul\":1388:1389   */\n      0x00\n        /* \"#utility.yul\":1377:1386   */\n      dup4\n        /* \"#utility.yul\":1373:1390   */\n      add\n        /* \"#utility.yul\":1364:1370   */\n      dup5\n        /* \"#utility.yul\":1315:1391   */\n      tag_99\n      jump\t// in\n    tag_110:\n        /* \"#utility.yul\":1166:1398   */\n      swap3\n      swap2\n      pop\n      pop\n      jump\t// out\n        /* \"#utility.yul\":1404:1626   */\n    tag_26:\n        /* \"#utility.yul\":1497:1501   */\n      0x00\n        /* \"#utility.yul\":1535:1537   */\n      0x20\n        /* \"#utility.yul\":1524:1533   */\n      dup3\n        /* \"#utility.yul\":1520:1538   */\n      add\n        /* \"#utility.yul\":1512:1538   */\n      swap1\n      pop\n        /* \"#utility.yul\":1548:1619   */\n      tag_112\n        /* \"#utility.yul\":1616:1617   */\n      0x00\n        /* \"#utility.yul\":1605:1614   */\n      dup4\n        /* \"#utility.yul\":1601:1618   */\n      add\n        /* \"#utility.yul\":1592:1598   */\n      dup5\n        /* \"#utility.yul\":1548:1619   */\n      tag_103\n      jump\t// in\n    tag_112:\n        /* \"#utility.yul\":1404:1626   */\n      swap3\n      swap2\n      pop\n      pop\n      jump\t// out\n        /* \"#utility.yul\":1713:2018   */\n    tag_74:\n        /* \"#utility.yul\":1753:1756   */\n      0x00\n        /* \"#utility.yul\":1772:1792   */\n      tag_116\n        /* \"#utility.yul\":1790:1791   */\n      dup3\n        /* \"#utility.yul\":1772:1792   */\n      tag_106\n      jump\t// in\n    tag_116:\n        /* \"#utility.yul\":1767:1792   */\n      swap2\n      pop\n        /* \"#utility.yul\":1806:1826   */\n      tag_117\n        /* \"#utility.yul\":1824:1825   */\n      dup4\n        /* \"#utility.yul\":1806:1826   */\n      tag_106\n      jump\t// in\n    tag_117:\n        /* \"#utility.yul\":1801:1826   */\n      swap3\n      pop\n        /* \"#utility.yul\":1960:1961   */\n      dup3\n        /* \"#utility.yul\":1892:1958   */\n      0xffffffffffffffffffffffffffffffffffffffffffffffffffffffffffffffff\n        /* \"#utility.yul\":1888:1962   */\n      sub\n        /* \"#utility.yul\":1885:1886   */\n      dup3\n        /* \"#utility.yul\":1882:1963   */\n      gt\n        /* \"#utility.yul\":1879:1986   */\n      iszero\n      tag_118\n      jumpi\n        /* \"#utility.yul\":1966:1984   */\n      tag_119\n      tag_120\n      jump\t// in\n    tag_119:\n        /* \"#utility.yul\":1879:1986   */\n    tag_118:\n        /* \"#utility.yul\":2010:2011   */\n      dup3\n        /* \"#utility.yul\":2007:2008   */\n      dup3\n        /* \"#utility.yul\":2003:2012   */\n      add\n        /* \"#utility.yul\":1996:2012   */\n      swap1\n      pop\n        /* \"#utility.yul\":1713:2018   */\n      swap3\n      swap2\n      pop\n      pop\n      jump\t// out\n        /* \"#utility.yul\":2024:2120   */\n    tag_121:\n        /* \"#utility.yul\":2061:2068   */\n      0x00\n        /* \"#utility.yul\":2090:2114   */\n      tag_123\n        /* \"#utility.yul\":2108:2113   */\n      dup3\n        /* \"#utility.yul\":2090:2114   */\n      tag_124\n      jump\t// in\n    tag_123:\n        /* \"#utility.yul\":2079:2114   */\n      swap1\n      pop\n        /* \"#utility.yul\":2024:2120   */\n      swap2\n      swap1\n      pop\n      jump\t// out\n        /* \"#utility.yul\":2126:2230   */\n    tag_98:\n        /* \"#utility.yul\":2171:2178   */\n      0x00\n        /* \"#utility.yul\":2200:2224   */\n      tag_126\n        /* \"#utility.yul\":2218:2223   */\n      dup3\n        /* \"#utility.yul\":2200:2224   */\n      tag_124\n      jump\t// in\n    tag_126:\n        /* \"#utility.yul\":2189:2224   */\n      swap1\n      pop\n        /* \"#utility.yul\":2126:2230   */\n      swap2\n      swap1\n      pop\n      jump\t// out\n        /* \"#utility.yul\":2236:2361   */\n    tag_127:\n        /* \"#utility.yul\":2280:2287   */\n      0x00\n        /* \"#utility.yul\":2309:2314   */\n      dup2\n        /* \"#utility.yul\":2298:2314   */\n      swap1\n      pop\n        /* \"#utility.yul\":2315:2355   */\n      tag_129\n        /* \"#utility.yul\":2349:2354   */\n      dup3\n        /* \"#utility.yul\":2315:2355   */\n      tag_130\n      jump\t// in\n    tag_129:\n        /* \"#utility.yul\":2236:2361   */\n      swap2\n      swap1\n      pop\n      jump\t// out\n        /* \"#utility.yul\":2367:2493   */\n    tag_124:\n        /* \"#utility.yul\":2404:2411   */\n      0x00\n        /* \"#utility.yul\":2444:2486   */\n      0xffffffffffffffffffffffffffffffffffffffff\n        /* \"#utility.yul\":2437:2442   */\n      dup3\n        /* \"#utility.yul\":2433:2487   */\n      and\n        /* \"#utility.yul\":2422:2487   */\n      swap1\n      pop\n        /* \"#utility.yul\":2367:2493   */\n      swap2\n      swap1\n      pop\n      jump\t// out\n        /* \"#utility.yul\":2499:2576   */\n    tag_106:\n        /* \"#utility.yul\":2536:2543   */\n      0x00\n        /* \"#utility.yul\":2565:2570   */\n      dup2\n        /* \"#utility.yul\":2554:2570   */\n      swap1\n      pop\n        /* \"#utility.yul\":2499:2576   */\n      swap2\n      swap1\n      pop\n      jump\t// out\n        /* \"#utility.yul\":2582:2707   */\n    tag_102:\n        /* \"#utility.yul\":2637:2646   */\n      0x00\n        /* \"#utility.yul\":2670:2701   */\n      tag_134\n        /* \"#utility.yul\":2695:2700   */\n      dup3\n        /* \"#utility.yul\":2670:2701   */\n      tag_127\n      jump\t// in\n    tag_134:\n        /* \"#utility.yul\":2657:2701   */\n      swap1\n      pop\n        /* \"#utility.yul\":2582:2707   */\n      swap2\n      swap1\n      pop\n      jump\t// out\n        /* \"#utility.yul\":2713:2893   */\n    tag_120:\n        /* \"#utility.yul\":2761:2838   */\n      0x4e487b7100000000000000000000000000000000000000000000000000000000\n        /* \"#utility.yul\":2758:2759   */\n      0x00\n        /* \"#utility.yul\":2751:2839   */\n      mstore\n        /* \"#utility.yul\":2858:2862   */\n      0x11\n        /* \"#utility.yul\":2855:2856   */\n      0x04\n        /* \"#utility.yul\":2848:2863   */\n      mstore\n        /* \"#utility.yul\":2882:2886   */\n      0x24\n        /* \"#utility.yul\":2879:2880   */\n      0x00\n        /* \"#utility.yul\":2872:2887   */\n      revert\n        /* \"#utility.yul\":2899:3079   */\n    tag_67:\n        /* \"#utility.yul\":2947:3024   */\n      0x4e487b7100000000000000000000000000000000000000000000000000000000\n        /* \"#utility.yul\":2944:2945   */\n      0x00\n        /* \"#utility.yul\":2937:3025   */\n      mstore\n        /* \"#utility.yul\":3044:3048   */\n      0x21\n        /* \"#utility.yul\":3041:3042   */\n      0x04\n        /* \"#utility.yul\":3034:3049   */\n      mstore\n        /* \"#utility.yul\":3068:3072   */\n      0x24\n        /* \"#utility.yul\":3065:3066   */\n      0x00\n        /* \"#utility.yul\":3058:3073   */\n      revert\n        /* \"#utility.yul\":3208:3325   */\n    tag_93:\n        /* \"#utility.yul\":3317:3318   */\n      0x00\n        /* \"#utility.yul\":3314:3315   */\n      dup1\n        /* \"#utility.yul\":3307:3319   */\n      revert\n        /* \"#utility.yul\":3331:3443   */\n    tag_130:\n        /* \"#utility.yul\":3411:3412   */\n      0x03\n        /* \"#utility.yul\":3404:3409   */\n      dup2\n        /* \"#utility.yul\":3401:3413   */\n      lt\n        /* \"#utility.yul\":3391:3437   */\n      tag_141\n      jumpi\n        /* \"#utility.yul\":3417:3435   */\n      tag_142\n      tag_67\n      jump\t// in\n    tag_142:\n        /* \"#utility.yul\":3391:3437   */\n    tag_141:\n        /* \"#utility.yul\":3331:3443   */\n      pop\n      jump\t// out\n        /* \"#utility.yul\":3449:3571   */\n    tag_89:\n        /* \"#utility.yul\":3522:3546   */\n      tag_144\n        /* \"#utility.yul\":3540:3545   */\n      dup2\n        /* \"#utility.yul\":3522:3546   */\n      tag_121\n      jump\t// in\n    tag_144:\n        /* \"#utility.yul\":3515:3520   */\n      dup2\n        /* \"#utility.yul\":3512:3547   */\n      eq\n        /* \"#utility.yul\":3502:3565   */\n      tag_145\n      jumpi\n        /* \"#utility.yul\":3561:3562   */\n      0x00\n        /* \"#utility.yul\":3558:3559   */\n      dup1\n        /* \"#utility.yul\":3551:3563   */\n      revert\n        /* \"#utility.yul\":3502:3565   */\n    tag_145:\n        /* \"#utility.yul\":3449:3571   */\n      pop\n      jump\t// out\n\n    auxdata: 0xa2646970667358221220977a3c04b602418dd9028903b750ba27f8d70e9fe56e7c96fff9cdcedde6cf7464736f6c63430008070033\n}\n",
				"bytecode": {
					"linkReferences": {},
					"object": "6080604052606460045534801561001557600080fd5b50336000806101000a81548173ffffffffffffffffffffffffffffffffffffffff021916908373ffffffffffffffffffffffffffffffffffffffff16021790555061006461006960201b60201c565b6101c8565b60008054906101000a900473ffffffffffffffffffffffffffffffffffffffff1673ffffffffffffffffffffffffffffffffffffffff163373ffffffffffffffffffffffffffffffffffffffff16146100c157600080fd5b60008060146101000a81548160ff021916908360028111156100e6576100e5610199565b5b021790555043600581905550619d80600554610102919061010a565b600681905550565b600061011582610160565b915061012083610160565b9250827fffffffffffffffffffffffffffffffffffffffffffffffffffffffffffffffff038211156101555761015461016a565b5b828201905092915050565b6000819050919050565b7f4e487b7100000000000000000000000000000000000000000000000000000000600052601160045260246000fd5b7f4e487b7100000000000000000000000000000000000000000000000000000000600052602160045260246000fd5b61084a806101d76000396000f3fe60806040526004361061007f5760003560e01c80638da5cb5b1161004e5780638da5cb5b146101c057806391f90157146101eb578063ecfc7ecc14610216578063f5b56c5614610220576100fd565b8063083c63231461010257806308bfc3001461012d57806348cd4cb11461015857806362ea82db14610183576100fd565b366100fd5760008054906101000a900473ffffffffffffffffffffffffffffffffffffffff1673ffffffffffffffffffffffffffffffffffffffff163373ffffffffffffffffffffffffffffffffffffffff1614156100dd57600080fd5b6005544310156100ec57600080fd5b6006544311156100fb57600080fd5b005b600080fd5b34801561010e57600080fd5b5061011761024b565b60405161012491906106a2565b60405180910390f35b34801561013957600080fd5b50610142610251565b60405161014f9190610687565b60405180910390f35b34801561016457600080fd5b5061016d610267565b60405161017a91906106a2565b60405180910390f35b34801561018f57600080fd5b506101aa60048036038101906101a59190610612565b61026d565b6040516101b791906106a2565b60405180910390f35b3480156101cc57600080fd5b506101d5610285565b6040516101e2919061066c565b60405180910390f35b3480156101f757600080fd5b506102006102a9565b60405161020d919061066c565b60405180910390f35b61021e6102cf565b005b34801561022c57600080fd5b506102356105dc565b60405161024291906106a2565b60405180910390f35b60065481565b60008060149054906101000a900460ff16905090565b60055481565b60036020528060005260406000206000915090505481565b60008054906101000a900473ffffffffffffffffffffffffffffffffffffffff1681565b600260009054906101000a900473ffffffffffffffffffffffffffffffffffffffff1681565b60008054906101000a900473ffffffffffffffffffffffffffffffffffffffff1673ffffffffffffffffffffffffffffffffffffffff163373ffffffffffffffffffffffffffffffffffffffff16141561032857600080fd5b60055443101561033757600080fd5b60065443111561034657600080fd5b6000600281111561035a576103596107b5565b5b610362610251565b6002811115610374576103736107b5565b5b1461037e57600080fd5b60045434101561038d57600080fd5b600034600360003373ffffffffffffffffffffffffffffffffffffffff1673ffffffffffffffffffffffffffffffffffffffff168152602001908152602001600020546103da91906106bd565b905060015481116103ea57600080fd5b80600360003373ffffffffffffffffffffffffffffffffffffffff1673ffffffffffffffffffffffffffffffffffffffff1681526020019081526020016000208190555060036000600260009054906101000a900473ffffffffffffffffffffffffffffffffffffffff1673ffffffffffffffffffffffffffffffffffffffff1673ffffffffffffffffffffffffffffffffffffffff1681526020019081526020016000205481116105195761050e600454826104a791906106bd565b60036000600260009054906101000a900473ffffffffffffffffffffffffffffffffffffffff1673ffffffffffffffffffffffffffffffffffffffff1673ffffffffffffffffffffffffffffffffffffffff168152602001908152602001600020546105e2565b6001819055506105d9565b6105918160045460036000600260009054906101000a900473ffffffffffffffffffffffffffffffffffffffff1673ffffffffffffffffffffffffffffffffffffffff1673ffffffffffffffffffffffffffffffffffffffff1681526020019081526020016000205461058c91906106bd565b6105e2565b60018190555033600260006101000a81548173ffffffffffffffffffffffffffffffffffffffff021916908373ffffffffffffffffffffffffffffffffffffffff1602179055505b50565b60015481565b60008183116105f3578290506105f7565b8190505b92915050565b60008135905061060c816107fd565b92915050565b600060208284031215610628576106276107e4565b5b6000610636848285016105fd565b91505092915050565b61064881610725565b82525050565b61065781610774565b82525050565b6106668161076a565b82525050565b6000602082019050610681600083018461063f565b92915050565b600060208201905061069c600083018461064e565b92915050565b60006020820190506106b7600083018461065d565b92915050565b60006106c88261076a565b91506106d38361076a565b9250827fffffffffffffffffffffffffffffffffffffffffffffffffffffffffffffffff0382111561070857610707610786565b5b828201905092915050565b600061071e8261074a565b9050919050565b60006107308261074a565b9050919050565b6000819050610745826107e9565b919050565b600073ffffffffffffffffffffffffffffffffffffffff82169050919050565b6000819050919050565b600061077f82610737565b9050919050565b7f4e487b7100000000000000000000000000000000000000000000000000000000600052601160045260246000fd5b7f4e487b7100000000000000000000000000000000000000000000000000000000600052602160045260246000fd5b600080fd5b600381106107fa576107f96107b5565b5b50565b61080681610713565b811461081157600080fd5b5056fea2646970667358221220977a3c04b602418dd9028903b750ba27f8d70e9fe56e7c96fff9cdcedde6cf7464736f6c63430008070033",
					"opcodes": "PUSH1 0x80 PUSH1 0x40 MSTORE PUSH1 0x64 PUSH1 0x4 SSTORE CALLVALUE DUP1 ISZERO PUSH2 0x15 JUMPI PUSH1 0x0 DUP1 REVERT JUMPDEST POP CALLER PUSH1 0x0 DUP1 PUSH2 0x100 EXP DUP2 SLOAD DUP2 PUSH20 0xFFFFFFFFFFFFFFFFFFFFFFFFFFFFFFFFFFFFFFFF MUL NOT AND SWAP1 DUP4 PUSH20 0xFFFFFFFFFFFFFFFFFFFFFFFFFFFFFFFFFFFFFFFF AND MUL OR SWAP1 SSTORE POP PUSH2 0x64 PUSH2 0x69 PUSH1 0x20 SHL PUSH1 0x20 SHR JUMP JUMPDEST PUSH2 0x1C8 JUMP JUMPDEST PUSH1 0x0 DUP1 SLOAD SWAP1 PUSH2 0x100 EXP SWAP1 DIV PUSH20 0xFFFFFFFFFFFFFFFFFFFFFFFFFFFFFFFFFFFFFFFF AND PUSH20 0xFFFFFFFFFFFFFFFFFFFFFFFFFFFFFFFFFFFFFFFF AND CALLER PUSH20 0xFFFFFFFFFFFFFFFFFFFFFFFFFFFFFFFFFFFFFFFF AND EQ PUSH2 0xC1 JUMPI PUSH1 0x0 DUP1 REVERT JUMPDEST PUSH1 0x0 DUP1 PUSH1 0x14 PUSH2 0x100 EXP DUP2 SLOAD DUP2 PUSH1 0xFF MUL NOT AND SWAP1 DUP4 PUSH1 0x2 DUP2 GT ISZERO PUSH2 0xE6 JUMPI PUSH2 0xE5 PUSH2 0x199 JUMP JUMPDEST JUMPDEST MUL OR SWAP1 SSTORE POP NUMBER PUSH1 0x5 DUP2 SWAP1 SSTORE POP PUSH2 0x9D80 PUSH1 0x5 SLOAD PUSH2 0x102 SWAP2 SWAP1 PUSH2 0x10A JUMP JUMPDEST PUSH1 0x6 DUP2 SWAP1 SSTORE POP JUMP JUMPDEST PUSH1 0x0 PUSH2 0x115 DUP3 PUSH2 0x160 JUMP JUMPDEST SWAP2 POP PUSH2 0x120 DUP4 PUSH2 0x160 JUMP JUMPDEST SWAP3 POP DUP3 PUSH32 0xFFFFFFFFFFFFFFFFFFFFFFFFFFFFFFFFFFFFFFFFFFFFFFFFFFFFFFFFFFFFFFFF SUB DUP3 GT ISZERO PUSH2 0x155 JUMPI PUSH2 0x154 PUSH2 0x16A JUMP JUMPDEST JUMPDEST DUP3 DUP3 ADD SWAP1 POP SWAP3 SWAP2 POP POP JUMP JUMPDEST PUSH1 0x0 DUP2 SWAP1 POP SWAP2 SWAP1 POP JUMP JUMPDEST PUSH32 0x4E487B7100000000000000000000000000000000000000000000000000000000 PUSH1 0x0 MSTORE PUSH1 0x11 PUSH1 0x4 MSTORE PUSH1 0x24 PUSH1 0x0 REVERT JUMPDEST PUSH32 0x4E487B7100000000000000000000000000000000000000000000000000000000 PUSH1 0x0 MSTORE PUSH1 0x21 PUSH1 0x4 MSTORE PUSH1 0x24 PUSH1 0x0 REVERT JUMPDEST PUSH2 0x84A DUP1 PUSH2 0x1D7 PUSH1 0x0 CODECOPY PUSH1 0x0 RETURN INVALID PUSH1 0x80 PUSH1 0x40 MSTORE PUSH1 0x4 CALLDATASIZE LT PUSH2 0x7F JUMPI PUSH1 0x0 CALLDATALOAD PUSH1 0xE0 SHR DUP1 PUSH4 0x8DA5CB5B GT PUSH2 0x4E JUMPI DUP1 PUSH4 0x8DA5CB5B EQ PUSH2 0x1C0 JUMPI DUP1 PUSH4 0x91F90157 EQ PUSH2 0x1EB JUMPI DUP1 PUSH4 0xECFC7ECC EQ PUSH2 0x216 JUMPI DUP1 PUSH4 0xF5B56C56 EQ PUSH2 0x220 JUMPI PUSH2 0xFD JUMP JUMPDEST DUP1 PUSH4 0x83C6323 EQ PUSH2 0x102 JUMPI DUP1 PUSH4 0x8BFC300 EQ PUSH2 0x12D JUMPI DUP1 PUSH4 0x48CD4CB1 EQ PUSH2 0x158 JUMPI DUP1 PUSH4 0x62EA82DB EQ PUSH2 0x183 JUMPI PUSH2 0xFD JUMP JUMPDEST CALLDATASIZE PUSH2 0xFD JUMPI PUSH1 0x0 DUP1 SLOAD SWAP1 PUSH2 0x100 EXP SWAP1 DIV PUSH20 0xFFFFFFFFFFFFFFFFFFFFFFFFFFFFFFFFFFFFFFFF AND PUSH20 0xFFFFFFFFFFFFFFFFFFFFFFFFFFFFFFFFFFFFFFFF AND CALLER PUSH20 0xFFFFFFFFFFFFFFFFFFFFFFFFFFFFFFFFFFFFFFFF AND EQ ISZERO PUSH2 0xDD JUMPI PUSH1 0x0 DUP1 REVERT JUMPDEST PUSH1 0x5 SLOAD NUMBER LT ISZERO PUSH2 0xEC JUMPI PUSH1 0x0 DUP1 REVERT JUMPDEST PUSH1 0x6 SLOAD NUMBER GT ISZERO PUSH2 0xFB JUMPI PUSH1 0x0 DUP1 REVERT JUMPDEST STOP JUMPDEST PUSH1 0x0 DUP1 REVERT JUMPDEST CALLVALUE DUP1 ISZERO PUSH2 0x10E JUMPI PUSH1 0x0 DUP1 REVERT JUMPDEST POP PUSH2 0x117 PUSH2 0x24B JUMP JUMPDEST PUSH1 0x40 MLOAD PUSH2 0x124 SWAP2 SWAP1 PUSH2 0x6A2 JUMP JUMPDEST PUSH1 0x40 MLOAD DUP1 SWAP2 SUB SWAP1 RETURN JUMPDEST CALLVALUE DUP1 ISZERO PUSH2 0x139 JUMPI PUSH1 0x0 DUP1 REVERT JUMPDEST POP PUSH2 0x142 PUSH2 0x251 JUMP JUMPDEST PUSH1 0x40 MLOAD PUSH2 0x14F SWAP2 SWAP1 PUSH2 0x687 JUMP JUMPDEST PUSH1 0x40 MLOAD DUP1 SWAP2 SUB SWAP1 RETURN JUMPDEST CALLVALUE DUP1 ISZERO PUSH2 0x164 JUMPI PUSH1 0x0 DUP1 REVERT JUMPDEST POP PUSH2 0x16D PUSH2 0x267 JUMP JUMPDEST PUSH1 0x40 MLOAD PUSH2 0x17A SWAP2 SWAP1 PUSH2 0x6A2 JUMP JUMPDEST PUSH1 0x40 MLOAD DUP1 SWAP2 SUB SWAP1 RETURN JUMPDEST CALLVALUE DUP1 ISZERO PUSH2 0x18F JUMPI PUSH1 0x0 DUP1 REVERT JUMPDEST POP PUSH2 0x1AA PUSH1 0x4 DUP1 CALLDATASIZE SUB DUP2 ADD SWAP1 PUSH2 0x1A5 SWAP2 SWAP1 PUSH2 0x612 JUMP JUMPDEST PUSH2 0x26D JUMP JUMPDEST PUSH1 0x40 MLOAD PUSH2 0x1B7 SWAP2 SWAP1 PUSH2 0x6A2 JUMP JUMPDEST PUSH1 0x40 MLOAD DUP1 SWAP2 SUB SWAP1 RETURN JUMPDEST CALLVALUE DUP1 ISZERO PUSH2 0x1CC JUMPI PUSH1 0x0 DUP1 REVERT JUMPDEST POP PUSH2 0x1D5 PUSH2 0x285 JUMP JUMPDEST PUSH1 0x40 MLOAD PUSH2 0x1E2 SWAP2 SWAP1 PUSH2 0x66C JUMP JUMPDEST PUSH1 0x40 MLOAD DUP1 SWAP2 SUB SWAP1 RETURN JUMPDEST CALLVALUE DUP1 ISZERO PUSH2 0x1F7 JUMPI PUSH1 0x0 DUP1 REVERT JUMPDEST POP PUSH2 0x200 PUSH2 0x2A9 JUMP JUMPDEST PUSH1 0x40 MLOAD PUSH2 0x20D SWAP2 SWAP1 PUSH2 0x66C JUMP JUMPDEST PUSH1 0x40 MLOAD DUP1 SWAP2 SUB SWAP1 RETURN JUMPDEST PUSH2 0x21E PUSH2 0x2CF JUMP JUMPDEST STOP JUMPDEST CALLVALUE DUP1 ISZERO PUSH2 0x22C JUMPI PUSH1 0x0 DUP1 REVERT JUMPDEST POP PUSH2 0x235 PUSH2 0x5DC JUMP JUMPDEST PUSH1 0x40 MLOAD PUSH2 0x242 SWAP2 SWAP1 PUSH2 0x6A2 JUMP JUMPDEST PUSH1 0x40 MLOAD DUP1 SWAP2 SUB SWAP1 RETURN JUMPDEST PUSH1 0x6 SLOAD DUP2 JUMP JUMPDEST PUSH1 0x0 DUP1 PUSH1 0x14 SWAP1 SLOAD SWAP1 PUSH2 0x100 EXP SWAP1 DIV PUSH1 0xFF AND SWAP1 POP SWAP1 JUMP JUMPDEST PUSH1 0x5 SLOAD DUP2 JUMP JUMPDEST PUSH1 0x3 PUSH1 0x20 MSTORE DUP1 PUSH1 0x0 MSTORE PUSH1 0x40 PUSH1 0x0 KECCAK256 PUSH1 0x0 SWAP2 POP SWAP1 POP SLOAD DUP2 JUMP JUMPDEST PUSH1 0x0 DUP1 SLOAD SWAP1 PUSH2 0x100 EXP SWAP1 DIV PUSH20 0xFFFFFFFFFFFFFFFFFFFFFFFFFFFFFFFFFFFFFFFF AND DUP2 JUMP JUMPDEST PUSH1 0x2 PUSH1 0x0 SWAP1 SLOAD SWAP1 PUSH2 0x100 EXP SWAP1 DIV PUSH20 0xFFFFFFFFFFFFFFFFFFFFFFFFFFFFFFFFFFFFFFFF AND DUP2 JUMP JUMPDEST PUSH1 0x0 DUP1 SLOAD SWAP1 PUSH2 0x100 EXP SWAP1 DIV PUSH20 0xFFFFFFFFFFFFFFFFFFFFFFFFFFFFFFFFFFFFFFFF AND PUSH20 0xFFFFFFFFFFFFFFFFFFFFFFFFFFFFFFFFFFFFFFFF AND CALLER PUSH20 0xFFFFFFFFFFFFFFFFFFFFFFFFFFFFFFFFFFFFFFFF AND EQ ISZERO PUSH2 0x328 JUMPI PUSH1 0x0 DUP1 REVERT JUMPDEST PUSH1 0x5 SLOAD NUMBER LT ISZERO PUSH2 0x337 JUMPI PUSH1 0x0 DUP1 REVERT JUMPDEST PUSH1 0x6 SLOAD NUMBER GT ISZERO PUSH2 0x346 JUMPI PUSH1 0x0 DUP1 REVERT JUMPDEST PUSH1 0x0 PUSH1 0x2 DUP2 GT ISZERO PUSH2 0x35A JUMPI PUSH2 0x359 PUSH2 0x7B5 JUMP JUMPDEST JUMPDEST PUSH2 0x362 PUSH2 0x251 JUMP JUMPDEST PUSH1 0x2 DUP2 GT ISZERO PUSH2 0x374 JUMPI PUSH2 0x373 PUSH2 0x7B5 JUMP JUMPDEST JUMPDEST EQ PUSH2 0x37E JUMPI PUSH1 0x0 DUP1 REVERT JUMPDEST PUSH1 0x4 SLOAD CALLVALUE LT ISZERO PUSH2 0x38D JUMPI PUSH1 0x0 DUP1 REVERT JUMPDEST PUSH1 0x0 CALLVALUE PUSH1 0x3 PUSH1 0x0 CALLER PUSH20 0xFFFFFFFFFFFFFFFFFFFFFFFFFFFFFFFFFFFFFFFF AND PUSH20 0xFFFFFFFFFFFFFFFFFFFFFFFFFFFFFFFFFFFFFFFF AND DUP2 MSTORE PUSH1 0x20 ADD SWAP1 DUP2 MSTORE PUSH1 0x20 ADD PUSH1 0x0 KECCAK256 SLOAD PUSH2 0x3DA SWAP2 SWAP1 PUSH2 0x6BD JUMP JUMPDEST SWAP1 POP PUSH1 0x1 SLOAD DUP2 GT PUSH2 0x3EA JUMPI PUSH1 0x0 DUP1 REVERT JUMPDEST DUP1 PUSH1 0x3 PUSH1 0x0 CALLER PUSH20 0xFFFFFFFFFFFFFFFFFFFFFFFFFFFFFFFFFFFFFFFF AND PUSH20 0xFFFFFFFFFFFFFFFFFFFFFFFFFFFFFFFFFFFFFFFF AND DUP2 MSTORE PUSH1 0x20 ADD SWAP1 DUP2 MSTORE PUSH1 0x20 ADD PUSH1 0x0 KECCAK256 DUP2 SWAP1 SSTORE POP PUSH1 0x3 PUSH1 0x0 PUSH1 0x2 PUSH1 0x0 SWAP1 SLOAD SWAP1 PUSH2 0x100 EXP SWAP1 DIV PUSH20 0xFFFFFFFFFFFFFFFFFFFFFFFFFFFFFFFFFFFFFFFF AND PUSH20 0xFFFFFFFFFFFFFFFFFFFFFFFFFFFFFFFFFFFFFFFF AND PUSH20 0xFFFFFFFFFFFFFFFFFFFFFFFFFFFFFFFFFFFFFFFF AND DUP2 MSTORE PUSH1 0x20 ADD SWAP1 DUP2 MSTORE PUSH1 0x20 ADD PUSH1 0x0 KECCAK256 SLOAD DUP2 GT PUSH2 0x519 JUMPI PUSH2 0x50E PUSH1 0x4 SLOAD DUP3 PUSH2 0x4A7 SWAP2 SWAP1 PUSH2 0x6BD JUMP JUMPDEST PUSH1 0x3 PUSH1 0x0 PUSH1 0x2 PUSH1 0x0 SWAP1 SLOAD SWAP1 PUSH2 0x100 EXP SWAP1 DIV PUSH20 0xFFFFFFFFFFFFFFFFFFFFFFFFFFFFFFFFFFFFFFFF AND PUSH20 0xFFFFFFFFFFFFFFFFFFFFFFFFFFFFFFFFFFFFFFFF AND PUSH20 0xFFFFFFFFFFFFFFFFFFFFFFFFFFFFFFFFFFFFFFFF AND DUP2 MSTORE PUSH1 0x20 ADD SWAP1 DUP2 MSTORE PUSH1 0x20 ADD PUSH1 0x0 KECCAK256 SLOAD PUSH2 0x5E2 JUMP JUMPDEST PUSH1 0x1 DUP2 SWAP1 SSTORE POP PUSH2 0x5D9 JUMP JUMPDEST PUSH2 0x591 DUP2 PUSH1 0x4 SLOAD PUSH1 0x3 PUSH1 0x0 PUSH1 0x2 PUSH1 0x0 SWAP1 SLOAD SWAP1 PUSH2 0x100 EXP SWAP1 DIV PUSH20 0xFFFFFFFFFFFFFFFFFFFFFFFFFFFFFFFFFFFFFFFF AND PUSH20 0xFFFFFFFFFFFFFFFFFFFFFFFFFFFFFFFFFFFFFFFF AND PUSH20 0xFFFFFFFFFFFFFFFFFFFFFFFFFFFFFFFFFFFFFFFF AND DUP2 MSTORE PUSH1 0x20 ADD SWAP1 DUP2 MSTORE PUSH1 0x20 ADD PUSH1 0x0 KECCAK256 SLOAD PUSH2 0x58C SWAP2 SWAP1 PUSH2 0x6BD JUMP JUMPDEST PUSH2 0x5E2 JUMP JUMPDEST PUSH1 0x1 DUP2 SWAP1 SSTORE POP CALLER PUSH1 0x2 PUSH1 0x0 PUSH2 0x100 EXP DUP2 SLOAD DUP2 PUSH20 0xFFFFFFFFFFFFFFFFFFFFFFFFFFFFFFFFFFFFFFFF MUL NOT AND SWAP1 DUP4 PUSH20 0xFFFFFFFFFFFFFFFFFFFFFFFFFFFFFFFFFFFFFFFF AND MUL OR SWAP1 SSTORE POP JUMPDEST POP JUMP JUMPDEST PUSH1 0x1 SLOAD DUP2 JUMP JUMPDEST PUSH1 0x0 DUP2 DUP4 GT PUSH2 0x5F3 JUMPI DUP3 SWAP1 POP PUSH2 0x5F7 JUMP JUMPDEST DUP2 SWAP1 POP JUMPDEST SWAP3 SWAP2 POP POP JUMP JUMPDEST PUSH1 0x0 DUP2 CALLDATALOAD SWAP1 POP PUSH2 0x60C DUP2 PUSH2 0x7FD JUMP JUMPDEST SWAP3 SWAP2 POP POP JUMP JUMPDEST PUSH1 0x0 PUSH1 0x20 DUP3 DUP5 SUB SLT ISZERO PUSH2 0x628 JUMPI PUSH2 0x627 PUSH2 0x7E4 JUMP JUMPDEST JUMPDEST PUSH1 0x0 PUSH2 0x636 DUP5 DUP3 DUP6 ADD PUSH2 0x5FD JUMP JUMPDEST SWAP2 POP POP SWAP3 SWAP2 POP POP JUMP JUMPDEST PUSH2 0x648 DUP2 PUSH2 0x725 JUMP JUMPDEST DUP3 MSTORE POP POP JUMP JUMPDEST PUSH2 0x657 DUP2 PUSH2 0x774 JUMP JUMPDEST DUP3 MSTORE POP POP JUMP JUMPDEST PUSH2 0x666 DUP2 PUSH2 0x76A JUMP JUMPDEST DUP3 MSTORE POP POP JUMP JUMPDEST PUSH1 0x0 PUSH1 0x20 DUP3 ADD SWAP1 POP PUSH2 0x681 PUSH1 0x0 DUP4 ADD DUP5 PUSH2 0x63F JUMP JUMPDEST SWAP3 SWAP2 POP POP JUMP JUMPDEST PUSH1 0x0 PUSH1 0x20 DUP3 ADD SWAP1 POP PUSH2 0x69C PUSH1 0x0 DUP4 ADD DUP5 PUSH2 0x64E JUMP JUMPDEST SWAP3 SWAP2 POP POP JUMP JUMPDEST PUSH1 0x0 PUSH1 0x20 DUP3 ADD SWAP1 POP PUSH2 0x6B7 PUSH1 0x0 DUP4 ADD DUP5 PUSH2 0x65D JUMP JUMPDEST SWAP3 SWAP2 POP POP JUMP JUMPDEST PUSH1 0x0 PUSH2 0x6C8 DUP3 PUSH2 0x76A JUMP JUMPDEST SWAP2 POP PUSH2 0x6D3 DUP4 PUSH2 0x76A JUMP JUMPDEST SWAP3 POP DUP3 PUSH32 0xFFFFFFFFFFFFFFFFFFFFFFFFFFFFFFFFFFFFFFFFFFFFFFFFFFFFFFFFFFFFFFFF SUB DUP3 GT ISZERO PUSH2 0x708 JUMPI PUSH2 0x707 PUSH2 0x786 JUMP JUMPDEST JUMPDEST DUP3 DUP3 ADD SWAP1 POP SWAP3 SWAP2 POP POP JUMP JUMPDEST PUSH1 0x0 PUSH2 0x71E DUP3 PUSH2 0x74A JUMP JUMPDEST SWAP1 POP SWAP2 SWAP1 POP JUMP JUMPDEST PUSH1 0x0 PUSH2 0x730 DUP3 PUSH2 0x74A JUMP JUMPDEST SWAP1 POP SWAP2 SWAP1 POP JUMP JUMPDEST PUSH1 0x0 DUP2 SWAP1 POP PUSH2 0x745 DUP3 PUSH2 0x7E9 JUMP JUMPDEST SWAP2 SWAP1 POP JUMP JUMPDEST PUSH1 0x0 PUSH20 0xFFFFFFFFFFFFFFFFFFFFFFFFFFFFFFFFFFFFFFFF DUP3 AND SWAP1 POP SWAP2 SWAP1 POP JUMP JUMPDEST PUSH1 0x0 DUP2 SWAP1 POP SWAP2 SWAP1 POP JUMP JUMPDEST PUSH1 0x0 PUSH2 0x77F DUP3 PUSH2 0x737 JUMP JUMPDEST SWAP1 POP SWAP2 SWAP1 POP JUMP JUMPDEST PUSH32 0x4E487B7100000000000000000000000000000000000000000000000000000000 PUSH1 0x0 MSTORE PUSH1 0x11 PUSH1 0x4 MSTORE PUSH1 0x24 PUSH1 0x0 REVERT JUMPDEST PUSH32 0x4E487B7100000000000000000000000000000000000000000000000000000000 PUSH1 0x0 MSTORE PUSH1 0x21 PUSH1 0x4 MSTORE PUSH1 0x24 PUSH1 0x0 REVERT JUMPDEST PUSH1 0x0 DUP1 REVERT JUMPDEST PUSH1 0x3 DUP2 LT PUSH2 0x7FA JUMPI PUSH2 0x7F9 PUSH2 0x7B5 JUMP JUMPDEST JUMPDEST POP JUMP JUMPDEST PUSH2 0x806 DUP2 PUSH2 0x713 JUMP JUMPDEST DUP2 EQ PUSH2 0x811 JUMPI PUSH1 0x0 DUP1 REVERT JUMPDEST POP JUMP INVALID LOG2 PUSH5 0x6970667358 0x22 SLT KECCAK256 SWAP8 PUSH27 0x3C04B602418DD9028903B750BA27F8D70E9FE56E7C96FFF9CDCEDD 0xE6 0xCF PUSH21 0x64736F6C6343000807003300000000000000000000 "
				},
				"gasEstimates": {
					"creation": {
						"codeDepositCost": "424400",
						"executionCost": "infinite",
						"totalCost": "infinite"
					},
					"external": {
						"": "180",
						"bids(address)": "2881",
						"endBlock()": "2430",
						"getAuctionState()": "2641",
						"highestBidder()": "2536",
						"highestBindingBid()": "2495",
						"owner()": "2511",
						"placeBid()": "infinite",
						"startBlock()": "2474"
					},
					"internal": {
						"min(uint256,uint256)": "64",
						"startAuction()": "infinite"
					}
				},
				"methodIdentifiers": {
					"bids(address)": "62ea82db",
					"endBlock()": "083c6323",
					"getAuctionState()": "08bfc300",
					"highestBidder()": "91f90157",
					"highestBindingBid()": "f5b56c56",
					"owner()": "8da5cb5b",
					"placeBid()": "ecfc7ecc",
					"startBlock()": "48cd4cb1"
				}
			},
			"storageLayout": {
				"storage": [
					{
						"astId": 3,
						"contract": "contracts/auction.sol:Auction",
						"label": "owner",
						"offset": 0,
						"slot": "0",
						"type": "t_address_payable"
					},
					{
						"astId": 10,
						"contract": "contracts/auction.sol:Auction",
						"label": "auctionStatus",
						"offset": 20,
						"slot": "0",
						"type": "t_enum(State)7"
					},
					{
						"astId": 12,
						"contract": "contracts/auction.sol:Auction",
						"label": "highestBindingBid",
						"offset": 0,
						"slot": "1",
						"type": "t_uint256"
					},
					{
						"astId": 14,
						"contract": "contracts/auction.sol:Auction",
						"label": "highestBidder",
						"offset": 0,
						"slot": "2",
						"type": "t_address_payable"
					},
					{
						"astId": 18,
						"contract": "contracts/auction.sol:Auction",
						"label": "bids",
						"offset": 0,
						"slot": "3",
						"type": "t_mapping(t_address,t_uint256)"
					},
					{
						"astId": 21,
						"contract": "contracts/auction.sol:Auction",
						"label": "bidIncrement",
						"offset": 0,
						"slot": "4",
						"type": "t_uint256"
					},
					{
						"astId": 23,
						"contract": "contracts/auction.sol:Auction",
						"label": "startBlock",
						"offset": 0,
						"slot": "5",
						"type": "t_uint256"
					},
					{
						"astId": 25,
						"contract": "contracts/auction.sol:Auction",
						"label": "endBlock",
						"offset": 0,
						"slot": "6",
						"type": "t_uint256"
					}
				],
				"types": {
					"t_address": {
						"encoding": "inplace",
						"label": "address",
						"numberOfBytes": "20"
					},
					"t_address_payable": {
						"encoding": "inplace",
						"label": "address payable",
						"numberOfBytes": "20"
					},
					"t_enum(State)7": {
						"encoding": "inplace",
						"label": "enum Auction.State",
						"numberOfBytes": "1"
					},
					"t_mapping(t_address,t_uint256)": {
						"encoding": "mapping",
						"key": "t_address",
						"label": "mapping(address => uint256)",
						"numberOfBytes": "32",
						"value": "t_uint256"
					},
					"t_uint256": {
						"encoding": "inplace",
						"label": "uint256",
						"numberOfBytes": "32"
					}
				}
			},
			"userdoc": {
				"kind": "user",
				"methods": {},
				"version": 1
			}
		}
	}
}