{
	"contracts/auction.sol": {
		"Auction": {
			"abi": [
				{
					"inputs": [],
					"stateMutability": "nonpayable",
					"type": "constructor"
				},
				{
					"stateMutability": "payable",
					"type": "fallback"
				},
				{
					"inputs": [],
					"name": "auctionIsOpen",
					"outputs": [
						{
							"internalType": "bool",
							"name": "",
							"type": "bool"
						}
					],
					"stateMutability": "view",
					"type": "function"
				},
				{
					"inputs": [
						{
							"internalType": "address",
							"name": "",
							"type": "address"
						}
					],
					"name": "bids",
					"outputs": [
						{
							"internalType": "uint256",
							"name": "",
							"type": "uint256"
						}
					],
					"stateMutability": "view",
					"type": "function"
				},
				{
					"inputs": [],
					"name": "endAuction",
					"outputs": [],
					"stateMutability": "nonpayable",
					"type": "function"
				},
				{
					"inputs": [],
					"name": "getHighestBidder",
					"outputs": [
						{
							"internalType": "address",
							"name": "",
							"type": "address"
						}
					],
					"stateMutability": "view",
					"type": "function"
				},
				{
					"inputs": [],
					"name": "owner",
					"outputs": [
						{
							"internalType": "address",
							"name": "",
							"type": "address"
						}
					],
					"stateMutability": "view",
					"type": "function"
				},
				{
					"inputs": [],
					"name": "start",
					"outputs": [],
					"stateMutability": "nonpayable",
					"type": "function"
				},
				{
					"stateMutability": "payable",
					"type": "receive"
				}
			],
			"devdoc": {
				"kind": "dev",
				"methods": {},
				"version": 1
			},
			"evm": {
				"assembly": "    /* \"contracts/auction.sol\":73:933  contract Auction{\r... */\n  mstore(0x40, 0x80)\n    /* \"contracts/auction.sol\":194:267  constructor(){\r... */\n  callvalue\n  dup1\n  iszero\n  tag_1\n  jumpi\n  0x00\n  dup1\n  revert\ntag_1:\n  pop\n    /* \"contracts/auction.sol\":226:236  msg.sender */\n  caller\n    /* \"contracts/auction.sol\":218:223  owner */\n  0x00\n  dup1\n    /* \"contracts/auction.sol\":218:236  owner = msg.sender */\n  0x0100\n  exp\n  dup2\n  sload\n  dup2\n  0xffffffffffffffffffffffffffffffffffffffff\n  mul\n  not\n  and\n  swap1\n  dup4\n  0xffffffffffffffffffffffffffffffffffffffff\n  and\n  mul\n  or\n  swap1\n  sstore\n  pop\n    /* \"contracts/auction.sol\":254:259  false */\n  0x00\n    /* \"contracts/auction.sol\":247:251  open */\n  0x02\n  0x00\n    /* \"contracts/auction.sol\":247:259  open = false */\n  0x0100\n  exp\n  dup2\n  sload\n  dup2\n  0xff\n  mul\n  not\n  and\n  swap1\n  dup4\n  iszero\n  iszero\n  mul\n  or\n  swap1\n  sstore\n  pop\n    /* \"contracts/auction.sol\":73:933  contract Auction{\r... */\n  dataSize(sub_0)\n  dup1\n  dataOffset(sub_0)\n  0x00\n  codecopy\n  0x00\n  return\nstop\n\nsub_0: assembly {\n        /* \"contracts/auction.sol\":73:933  contract Auction{\r... */\n      mstore(0x40, 0x80)\n      jumpi(tag_1, lt(calldatasize, 0x04))\n      shr(0xe0, calldataload(0x00))\n      dup1\n      0x3495a4\n      eq\n      tag_3\n      jumpi\n      dup1\n      0x2b5095b6\n      eq\n      tag_4\n      jumpi\n      dup1\n      0x62ea82db\n      eq\n      tag_5\n      jumpi\n      dup1\n      0x8da5cb5b\n      eq\n      tag_6\n      jumpi\n      dup1\n      0xbe9a6555\n      eq\n      tag_7\n      jumpi\n      dup1\n      0xfe67a54b\n      eq\n      tag_8\n      jumpi\n      jump(tag_2)\n    tag_1:\n      jumpi(tag_2, calldatasize)\n        /* \"contracts/auction.sol\":320:335  auctionIsOpen() */\n      tag_11\n        /* \"contracts/auction.sol\":320:333  auctionIsOpen */\n      tag_12\n        /* \"contracts/auction.sol\":320:335  auctionIsOpen() */\n      jump\t// in\n    tag_11:\n        /* \"contracts/auction.sol\":312:336  require(auctionIsOpen()) */\n      tag_13\n      jumpi\n      0x00\n      dup1\n      revert\n    tag_13:\n        /* \"contracts/auction.sol\":347:376  addBid(msg.sender, msg.value) */\n      tag_14\n        /* \"contracts/auction.sol\":354:364  msg.sender */\n      caller\n        /* \"contracts/auction.sol\":366:375  msg.value */\n      callvalue\n        /* \"contracts/auction.sol\":347:353  addBid */\n      tag_15\n        /* \"contracts/auction.sol\":347:376  addBid(msg.sender, msg.value) */\n      jump\t// in\n    tag_14:\n        /* \"contracts/auction.sol\":73:933  contract Auction{\r... */\n      stop\n    tag_2:\n      stop\n        /* \"contracts/auction.sol\":640:706  function getHighestBidder() public view returns(address){\r... */\n    tag_3:\n      callvalue\n      dup1\n      iszero\n      tag_18\n      jumpi\n      0x00\n      dup1\n      revert\n    tag_18:\n      pop\n      tag_19\n      tag_20\n      jump\t// in\n    tag_19:\n      mload(0x40)\n      tag_21\n      swap2\n      swap1\n      tag_22\n      jump\t// in\n    tag_21:\n      mload(0x40)\n      dup1\n      swap2\n      sub\n      swap1\n      return\n        /* \"contracts/auction.sol\":552:632  function auctionIsOpen() public view returns(bool){\r... */\n    tag_4:\n      callvalue\n      dup1\n      iszero\n      tag_23\n      jumpi\n      0x00\n      dup1\n      revert\n    tag_23:\n      pop\n      tag_24\n      tag_12\n      jump\t// in\n    tag_24:\n      mload(0x40)\n      tag_25\n      swap2\n      swap1\n      tag_26\n      jump\t// in\n    tag_25:\n      mload(0x40)\n      dup1\n      swap2\n      sub\n      swap1\n      return\n        /* \"contracts/auction.sol\":125:161  mapping(address => uint) public bids */\n    tag_5:\n      callvalue\n      dup1\n      iszero\n      tag_27\n      jumpi\n      0x00\n      dup1\n      revert\n    tag_27:\n      pop\n      tag_28\n      0x04\n      dup1\n      calldatasize\n      sub\n      dup2\n      add\n      swap1\n      tag_29\n      swap2\n      swap1\n      tag_30\n      jump\t// in\n    tag_29:\n      tag_31\n      jump\t// in\n    tag_28:\n      mload(0x40)\n      tag_32\n      swap2\n      swap1\n      tag_33\n      jump\t// in\n    tag_32:\n      mload(0x40)\n      dup1\n      swap2\n      sub\n      swap1\n      return\n        /* \"contracts/auction.sol\":98:118  address public owner */\n    tag_6:\n      callvalue\n      dup1\n      iszero\n      tag_34\n      jumpi\n      0x00\n      dup1\n      revert\n    tag_34:\n      pop\n      tag_35\n      tag_36\n      jump\t// in\n    tag_35:\n      mload(0x40)\n      tag_37\n      swap2\n      swap1\n      tag_22\n      jump\t// in\n    tag_37:\n      mload(0x40)\n      dup1\n      swap2\n      sub\n      swap1\n      return\n        /* \"contracts/auction.sol\":714:847  function start() public {\r... */\n    tag_7:\n      callvalue\n      dup1\n      iszero\n      tag_38\n      jumpi\n      0x00\n      dup1\n      revert\n    tag_38:\n      pop\n      tag_39\n      tag_40\n      jump\t// in\n    tag_39:\n      stop\n        /* \"contracts/auction.sol\":855:930  function endAuction() public{\r... */\n    tag_8:\n      callvalue\n      dup1\n      iszero\n      tag_41\n      jumpi\n      0x00\n      dup1\n      revert\n    tag_41:\n      pop\n      tag_42\n      tag_43\n      jump\t// in\n    tag_42:\n      stop\n        /* \"contracts/auction.sol\":552:632  function auctionIsOpen() public view returns(bool){\r... */\n    tag_12:\n        /* \"contracts/auction.sol\":597:601  bool */\n      0x00\n        /* \"contracts/auction.sol\":620:624  open */\n      0x02\n      0x00\n      swap1\n      sload\n      swap1\n      0x0100\n      exp\n      swap1\n      div\n      0xff\n      and\n        /* \"contracts/auction.sol\":613:624  return open */\n      swap1\n      pop\n        /* \"contracts/auction.sol\":552:632  function auctionIsOpen() public view returns(bool){\r... */\n      swap1\n      jump\t// out\n        /* \"contracts/auction.sol\":429:544  function addBid(address addr, uint bid) internal{\r... */\n    tag_15:\n      pop\n      pop\n      jump\t// out\n        /* \"contracts/auction.sol\":640:706  function getHighestBidder() public view returns(address){\r... */\n    tag_20:\n        /* \"contracts/auction.sol\":688:695  address */\n      0x00\n        /* \"contracts/auction.sol\":640:706  function getHighestBidder() public view returns(address){\r... */\n      swap1\n      jump\t// out\n        /* \"contracts/auction.sol\":125:161  mapping(address => uint) public bids */\n    tag_31:\n      mstore(0x20, 0x01)\n      dup1\n      0x00\n      mstore\n      keccak256(0x00, 0x40)\n      0x00\n      swap2\n      pop\n      swap1\n      pop\n      sload\n      dup2\n      jump\t// out\n        /* \"contracts/auction.sol\":98:118  address public owner */\n    tag_36:\n      0x00\n      dup1\n      sload\n      swap1\n      0x0100\n      exp\n      swap1\n      div\n      0xffffffffffffffffffffffffffffffffffffffff\n      and\n      dup2\n      jump\t// out\n        /* \"contracts/auction.sol\":714:847  function start() public {\r... */\n    tag_40:\n        /* \"contracts/auction.sol\":771:776  owner */\n      0x00\n      dup1\n      sload\n      swap1\n      0x0100\n      exp\n      swap1\n      div\n      0xffffffffffffffffffffffffffffffffffffffff\n      and\n        /* \"contracts/auction.sol\":757:776  msg.sender == owner */\n      0xffffffffffffffffffffffffffffffffffffffff\n      and\n        /* \"contracts/auction.sol\":757:767  msg.sender */\n      caller\n        /* \"contracts/auction.sol\":757:776  msg.sender == owner */\n      0xffffffffffffffffffffffffffffffffffffffff\n      and\n      eq\n        /* \"contracts/auction.sol\":749:777  require(msg.sender == owner) */\n      tag_48\n      jumpi\n      0x00\n      dup1\n      revert\n    tag_48:\n        /* \"contracts/auction.sol\":797:812  auctionIsOpen() */\n      tag_49\n        /* \"contracts/auction.sol\":797:810  auctionIsOpen */\n      tag_12\n        /* \"contracts/auction.sol\":797:812  auctionIsOpen() */\n      jump\t// in\n    tag_49:\n        /* \"contracts/auction.sol\":796:812  !auctionIsOpen() */\n      iszero\n        /* \"contracts/auction.sol\":788:813  require(!auctionIsOpen()) */\n      tag_50\n      jumpi\n      0x00\n      dup1\n      revert\n    tag_50:\n        /* \"contracts/auction.sol\":833:837  true */\n      0x01\n        /* \"contracts/auction.sol\":826:830  open */\n      0x02\n      0x00\n        /* \"contracts/auction.sol\":826:837  open = true */\n      0x0100\n      exp\n      dup2\n      sload\n      dup2\n      0xff\n      mul\n      not\n      and\n      swap1\n      dup4\n      iszero\n      iszero\n      mul\n      or\n      swap1\n      sstore\n      pop\n        /* \"contracts/auction.sol\":714:847  function start() public {\r... */\n      jump\t// out\n        /* \"contracts/auction.sol\":855:930  function endAuction() public{\r... */\n    tag_43:\n        /* \"contracts/auction.sol\":916:921  owner */\n      0x00\n      dup1\n      sload\n      swap1\n      0x0100\n      exp\n      swap1\n      div\n      0xffffffffffffffffffffffffffffffffffffffff\n      and\n        /* \"contracts/auction.sol\":902:921  msg.sender == owner */\n      0xffffffffffffffffffffffffffffffffffffffff\n      and\n        /* \"contracts/auction.sol\":902:912  msg.sender */\n      caller\n        /* \"contracts/auction.sol\":902:921  msg.sender == owner */\n      0xffffffffffffffffffffffffffffffffffffffff\n      and\n      eq\n        /* \"contracts/auction.sol\":894:922  require(msg.sender == owner) */\n      tag_52\n      jumpi\n      0x00\n      dup1\n      revert\n    tag_52:\n        /* \"contracts/auction.sol\":855:930  function endAuction() public{\r... */\n      jump\t// out\n        /* \"#utility.yul\":7:146   */\n    tag_54:\n        /* \"#utility.yul\":53:58   */\n      0x00\n        /* \"#utility.yul\":91:97   */\n      dup2\n        /* \"#utility.yul\":78:98   */\n      calldataload\n        /* \"#utility.yul\":69:98   */\n      swap1\n      pop\n        /* \"#utility.yul\":107:140   */\n      tag_56\n        /* \"#utility.yul\":134:139   */\n      dup2\n        /* \"#utility.yul\":107:140   */\n      tag_57\n      jump\t// in\n    tag_56:\n        /* \"#utility.yul\":7:146   */\n      swap3\n      swap2\n      pop\n      pop\n      jump\t// out\n        /* \"#utility.yul\":152:481   */\n    tag_30:\n        /* \"#utility.yul\":211:217   */\n      0x00\n        /* \"#utility.yul\":260:262   */\n      0x20\n        /* \"#utility.yul\":248:257   */\n      dup3\n        /* \"#utility.yul\":239:246   */\n      dup5\n        /* \"#utility.yul\":235:258   */\n      sub\n        /* \"#utility.yul\":231:263   */\n      slt\n        /* \"#utility.yul\":228:347   */\n      iszero\n      tag_59\n      jumpi\n        /* \"#utility.yul\":266:345   */\n      tag_60\n      tag_61\n      jump\t// in\n    tag_60:\n        /* \"#utility.yul\":228:347   */\n    tag_59:\n        /* \"#utility.yul\":386:387   */\n      0x00\n        /* \"#utility.yul\":411:464   */\n      tag_62\n        /* \"#utility.yul\":456:463   */\n      dup5\n        /* \"#utility.yul\":447:453   */\n      dup3\n        /* \"#utility.yul\":436:445   */\n      dup6\n        /* \"#utility.yul\":432:454   */\n      add\n        /* \"#utility.yul\":411:464   */\n      tag_54\n      jump\t// in\n    tag_62:\n        /* \"#utility.yul\":401:464   */\n      swap2\n      pop\n        /* \"#utility.yul\":357:474   */\n      pop\n        /* \"#utility.yul\":152:481   */\n      swap3\n      swap2\n      pop\n      pop\n      jump\t// out\n        /* \"#utility.yul\":487:605   */\n    tag_63:\n        /* \"#utility.yul\":574:598   */\n      tag_65\n        /* \"#utility.yul\":592:597   */\n      dup2\n        /* \"#utility.yul\":574:598   */\n      tag_66\n      jump\t// in\n    tag_65:\n        /* \"#utility.yul\":569:572   */\n      dup3\n        /* \"#utility.yul\":562:599   */\n      mstore\n        /* \"#utility.yul\":487:605   */\n      pop\n      pop\n      jump\t// out\n        /* \"#utility.yul\":611:720   */\n    tag_67:\n        /* \"#utility.yul\":692:713   */\n      tag_69\n        /* \"#utility.yul\":707:712   */\n      dup2\n        /* \"#utility.yul\":692:713   */\n      tag_70\n      jump\t// in\n    tag_69:\n        /* \"#utility.yul\":687:690   */\n      dup3\n        /* \"#utility.yul\":680:714   */\n      mstore\n        /* \"#utility.yul\":611:720   */\n      pop\n      pop\n      jump\t// out\n        /* \"#utility.yul\":726:844   */\n    tag_71:\n        /* \"#utility.yul\":813:837   */\n      tag_73\n        /* \"#utility.yul\":831:836   */\n      dup2\n        /* \"#utility.yul\":813:837   */\n      tag_74\n      jump\t// in\n    tag_73:\n        /* \"#utility.yul\":808:811   */\n      dup3\n        /* \"#utility.yul\":801:838   */\n      mstore\n        /* \"#utility.yul\":726:844   */\n      pop\n      pop\n      jump\t// out\n        /* \"#utility.yul\":850:1072   */\n    tag_22:\n        /* \"#utility.yul\":943:947   */\n      0x00\n        /* \"#utility.yul\":981:983   */\n      0x20\n        /* \"#utility.yul\":970:979   */\n      dup3\n        /* \"#utility.yul\":966:984   */\n      add\n        /* \"#utility.yul\":958:984   */\n      swap1\n      pop\n        /* \"#utility.yul\":994:1065   */\n      tag_76\n        /* \"#utility.yul\":1062:1063   */\n      0x00\n        /* \"#utility.yul\":1051:1060   */\n      dup4\n        /* \"#utility.yul\":1047:1064   */\n      add\n        /* \"#utility.yul\":1038:1044   */\n      dup5\n        /* \"#utility.yul\":994:1065   */\n      tag_63\n      jump\t// in\n    tag_76:\n        /* \"#utility.yul\":850:1072   */\n      swap3\n      swap2\n      pop\n      pop\n      jump\t// out\n        /* \"#utility.yul\":1078:1288   */\n    tag_26:\n        /* \"#utility.yul\":1165:1169   */\n      0x00\n        /* \"#utility.yul\":1203:1205   */\n      0x20\n        /* \"#utility.yul\":1192:1201   */\n      dup3\n        /* \"#utility.yul\":1188:1206   */\n      add\n        /* \"#utility.yul\":1180:1206   */\n      swap1\n      pop\n        /* \"#utility.yul\":1216:1281   */\n      tag_78\n        /* \"#utility.yul\":1278:1279   */\n      0x00\n        /* \"#utility.yul\":1267:1276   */\n      dup4\n        /* \"#utility.yul\":1263:1280   */\n      add\n        /* \"#utility.yul\":1254:1260   */\n      dup5\n        /* \"#utility.yul\":1216:1281   */\n      tag_67\n      jump\t// in\n    tag_78:\n        /* \"#utility.yul\":1078:1288   */\n      swap3\n      swap2\n      pop\n      pop\n      jump\t// out\n        /* \"#utility.yul\":1294:1516   */\n    tag_33:\n        /* \"#utility.yul\":1387:1391   */\n      0x00\n        /* \"#utility.yul\":1425:1427   */\n      0x20\n        /* \"#utility.yul\":1414:1423   */\n      dup3\n        /* \"#utility.yul\":1410:1428   */\n      add\n        /* \"#utility.yul\":1402:1428   */\n      swap1\n      pop\n        /* \"#utility.yul\":1438:1509   */\n      tag_80\n        /* \"#utility.yul\":1506:1507   */\n      0x00\n        /* \"#utility.yul\":1495:1504   */\n      dup4\n        /* \"#utility.yul\":1491:1508   */\n      add\n        /* \"#utility.yul\":1482:1488   */\n      dup5\n        /* \"#utility.yul\":1438:1509   */\n      tag_71\n      jump\t// in\n    tag_80:\n        /* \"#utility.yul\":1294:1516   */\n      swap3\n      swap2\n      pop\n      pop\n      jump\t// out\n        /* \"#utility.yul\":1603:1699   */\n    tag_66:\n        /* \"#utility.yul\":1640:1647   */\n      0x00\n        /* \"#utility.yul\":1669:1693   */\n      tag_84\n        /* \"#utility.yul\":1687:1692   */\n      dup3\n        /* \"#utility.yul\":1669:1693   */\n      tag_85\n      jump\t// in\n    tag_84:\n        /* \"#utility.yul\":1658:1693   */\n      swap1\n      pop\n        /* \"#utility.yul\":1603:1699   */\n      swap2\n      swap1\n      pop\n      jump\t// out\n        /* \"#utility.yul\":1705:1795   */\n    tag_70:\n        /* \"#utility.yul\":1739:1746   */\n      0x00\n        /* \"#utility.yul\":1782:1787   */\n      dup2\n        /* \"#utility.yul\":1775:1788   */\n      iszero\n        /* \"#utility.yul\":1768:1789   */\n      iszero\n        /* \"#utility.yul\":1757:1789   */\n      swap1\n      pop\n        /* \"#utility.yul\":1705:1795   */\n      swap2\n      swap1\n      pop\n      jump\t// out\n        /* \"#utility.yul\":1801:1927   */\n    tag_85:\n        /* \"#utility.yul\":1838:1845   */\n      0x00\n        /* \"#utility.yul\":1878:1920   */\n      0xffffffffffffffffffffffffffffffffffffffff\n        /* \"#utility.yul\":1871:1876   */\n      dup3\n        /* \"#utility.yul\":1867:1921   */\n      and\n        /* \"#utility.yul\":1856:1921   */\n      swap1\n      pop\n        /* \"#utility.yul\":1801:1927   */\n      swap2\n      swap1\n      pop\n      jump\t// out\n        /* \"#utility.yul\":1933:2010   */\n    tag_74:\n        /* \"#utility.yul\":1970:1977   */\n      0x00\n        /* \"#utility.yul\":1999:2004   */\n      dup2\n        /* \"#utility.yul\":1988:2004   */\n      swap1\n      pop\n        /* \"#utility.yul\":1933:2010   */\n      swap2\n      swap1\n      pop\n      jump\t// out\n        /* \"#utility.yul\":2139:2256   */\n    tag_61:\n        /* \"#utility.yul\":2248:2249   */\n      0x00\n        /* \"#utility.yul\":2245:2246   */\n      dup1\n        /* \"#utility.yul\":2238:2250   */\n      revert\n        /* \"#utility.yul\":2262:2384   */\n    tag_57:\n        /* \"#utility.yul\":2335:2359   */\n      tag_93\n        /* \"#utility.yul\":2353:2358   */\n      dup2\n        /* \"#utility.yul\":2335:2359   */\n      tag_66\n      jump\t// in\n    tag_93:\n        /* \"#utility.yul\":2328:2333   */\n      dup2\n        /* \"#utility.yul\":2325:2360   */\n      eq\n        /* \"#utility.yul\":2315:2378   */\n      tag_94\n      jumpi\n        /* \"#utility.yul\":2374:2375   */\n      0x00\n        /* \"#utility.yul\":2371:2372   */\n      dup1\n        /* \"#utility.yul\":2364:2376   */\n      revert\n        /* \"#utility.yul\":2315:2378   */\n    tag_94:\n        /* \"#utility.yul\":2262:2384   */\n      pop\n      jump\t// out\n\n    auxdata: 0xa26469706673582212205304a84346ec30bd6958601424885c9e8fea6b30e0d3f0d518df3995db2ce15464736f6c63430008070033\n}\n",
				"bytecode": {
					"linkReferences": {},
					"object": "608060405234801561001057600080fd5b50336000806101000a81548173ffffffffffffffffffffffffffffffffffffffff021916908373ffffffffffffffffffffffffffffffffffffffff1602179055506000600260006101000a81548160ff0219169083151502179055506103ff8061007b6000396000f3fe6080604052600436106100585760003560e01c80623495a41461007c5780632b5095b6146100a757806362ea82db146100d25780638da5cb5b1461010f578063be9a65551461013a578063fe67a54b146101515761007a565b3661007a57610065610168565b61006e57600080fd5b610078333461017f565b005b005b34801561008857600080fd5b50610091610183565b60405161009e9190610314565b60405180910390f35b3480156100b357600080fd5b506100bc610168565b6040516100c9919061032f565b60405180910390f35b3480156100de57600080fd5b506100f960048036038101906100f491906102ba565b610188565b604051610106919061034a565b60405180910390f35b34801561011b57600080fd5b506101246101a0565b6040516101319190610314565b60405180910390f35b34801561014657600080fd5b5061014f6101c4565b005b34801561015d57600080fd5b5061016661024b565b005b6000600260009054906101000a900460ff16905090565b5050565b600090565b60016020528060005260406000206000915090505481565b60008054906101000a900473ffffffffffffffffffffffffffffffffffffffff1681565b60008054906101000a900473ffffffffffffffffffffffffffffffffffffffff1673ffffffffffffffffffffffffffffffffffffffff163373ffffffffffffffffffffffffffffffffffffffff161461021c57600080fd5b610224610168565b1561022e57600080fd5b6001600260006101000a81548160ff021916908315150217905550565b60008054906101000a900473ffffffffffffffffffffffffffffffffffffffff1673ffffffffffffffffffffffffffffffffffffffff163373ffffffffffffffffffffffffffffffffffffffff16146102a357600080fd5b565b6000813590506102b4816103b2565b92915050565b6000602082840312156102d0576102cf6103ad565b5b60006102de848285016102a5565b91505092915050565b6102f081610365565b82525050565b6102ff81610377565b82525050565b61030e816103a3565b82525050565b600060208201905061032960008301846102e7565b92915050565b600060208201905061034460008301846102f6565b92915050565b600060208201905061035f6000830184610305565b92915050565b600061037082610383565b9050919050565b60008115159050919050565b600073ffffffffffffffffffffffffffffffffffffffff82169050919050565b6000819050919050565b600080fd5b6103bb81610365565b81146103c657600080fd5b5056fea26469706673582212205304a84346ec30bd6958601424885c9e8fea6b30e0d3f0d518df3995db2ce15464736f6c63430008070033",
					"opcodes": "PUSH1 0x80 PUSH1 0x40 MSTORE CALLVALUE DUP1 ISZERO PUSH2 0x10 JUMPI PUSH1 0x0 DUP1 REVERT JUMPDEST POP CALLER PUSH1 0x0 DUP1 PUSH2 0x100 EXP DUP2 SLOAD DUP2 PUSH20 0xFFFFFFFFFFFFFFFFFFFFFFFFFFFFFFFFFFFFFFFF MUL NOT AND SWAP1 DUP4 PUSH20 0xFFFFFFFFFFFFFFFFFFFFFFFFFFFFFFFFFFFFFFFF AND MUL OR SWAP1 SSTORE POP PUSH1 0x0 PUSH1 0x2 PUSH1 0x0 PUSH2 0x100 EXP DUP2 SLOAD DUP2 PUSH1 0xFF MUL NOT AND SWAP1 DUP4 ISZERO ISZERO MUL OR SWAP1 SSTORE POP PUSH2 0x3FF DUP1 PUSH2 0x7B PUSH1 0x0 CODECOPY PUSH1 0x0 RETURN INVALID PUSH1 0x80 PUSH1 0x40 MSTORE PUSH1 0x4 CALLDATASIZE LT PUSH2 0x58 JUMPI PUSH1 0x0 CALLDATALOAD PUSH1 0xE0 SHR DUP1 PUSH3 0x3495A4 EQ PUSH2 0x7C JUMPI DUP1 PUSH4 0x2B5095B6 EQ PUSH2 0xA7 JUMPI DUP1 PUSH4 0x62EA82DB EQ PUSH2 0xD2 JUMPI DUP1 PUSH4 0x8DA5CB5B EQ PUSH2 0x10F JUMPI DUP1 PUSH4 0xBE9A6555 EQ PUSH2 0x13A JUMPI DUP1 PUSH4 0xFE67A54B EQ PUSH2 0x151 JUMPI PUSH2 0x7A JUMP JUMPDEST CALLDATASIZE PUSH2 0x7A JUMPI PUSH2 0x65 PUSH2 0x168 JUMP JUMPDEST PUSH2 0x6E JUMPI PUSH1 0x0 DUP1 REVERT JUMPDEST PUSH2 0x78 CALLER CALLVALUE PUSH2 0x17F JUMP JUMPDEST STOP JUMPDEST STOP JUMPDEST CALLVALUE DUP1 ISZERO PUSH2 0x88 JUMPI PUSH1 0x0 DUP1 REVERT JUMPDEST POP PUSH2 0x91 PUSH2 0x183 JUMP JUMPDEST PUSH1 0x40 MLOAD PUSH2 0x9E SWAP2 SWAP1 PUSH2 0x314 JUMP JUMPDEST PUSH1 0x40 MLOAD DUP1 SWAP2 SUB SWAP1 RETURN JUMPDEST CALLVALUE DUP1 ISZERO PUSH2 0xB3 JUMPI PUSH1 0x0 DUP1 REVERT JUMPDEST POP PUSH2 0xBC PUSH2 0x168 JUMP JUMPDEST PUSH1 0x40 MLOAD PUSH2 0xC9 SWAP2 SWAP1 PUSH2 0x32F JUMP JUMPDEST PUSH1 0x40 MLOAD DUP1 SWAP2 SUB SWAP1 RETURN JUMPDEST CALLVALUE DUP1 ISZERO PUSH2 0xDE JUMPI PUSH1 0x0 DUP1 REVERT JUMPDEST POP PUSH2 0xF9 PUSH1 0x4 DUP1 CALLDATASIZE SUB DUP2 ADD SWAP1 PUSH2 0xF4 SWAP2 SWAP1 PUSH2 0x2BA JUMP JUMPDEST PUSH2 0x188 JUMP JUMPDEST PUSH1 0x40 MLOAD PUSH2 0x106 SWAP2 SWAP1 PUSH2 0x34A JUMP JUMPDEST PUSH1 0x40 MLOAD DUP1 SWAP2 SUB SWAP1 RETURN JUMPDEST CALLVALUE DUP1 ISZERO PUSH2 0x11B JUMPI PUSH1 0x0 DUP1 REVERT JUMPDEST POP PUSH2 0x124 PUSH2 0x1A0 JUMP JUMPDEST PUSH1 0x40 MLOAD PUSH2 0x131 SWAP2 SWAP1 PUSH2 0x314 JUMP JUMPDEST PUSH1 0x40 MLOAD DUP1 SWAP2 SUB SWAP1 RETURN JUMPDEST CALLVALUE DUP1 ISZERO PUSH2 0x146 JUMPI PUSH1 0x0 DUP1 REVERT JUMPDEST POP PUSH2 0x14F PUSH2 0x1C4 JUMP JUMPDEST STOP JUMPDEST CALLVALUE DUP1 ISZERO PUSH2 0x15D JUMPI PUSH1 0x0 DUP1 REVERT JUMPDEST POP PUSH2 0x166 PUSH2 0x24B JUMP JUMPDEST STOP JUMPDEST PUSH1 0x0 PUSH1 0x2 PUSH1 0x0 SWAP1 SLOAD SWAP1 PUSH2 0x100 EXP SWAP1 DIV PUSH1 0xFF AND SWAP1 POP SWAP1 JUMP JUMPDEST POP POP JUMP JUMPDEST PUSH1 0x0 SWAP1 JUMP JUMPDEST PUSH1 0x1 PUSH1 0x20 MSTORE DUP1 PUSH1 0x0 MSTORE PUSH1 0x40 PUSH1 0x0 KECCAK256 PUSH1 0x0 SWAP2 POP SWAP1 POP SLOAD DUP2 JUMP JUMPDEST PUSH1 0x0 DUP1 SLOAD SWAP1 PUSH2 0x100 EXP SWAP1 DIV PUSH20 0xFFFFFFFFFFFFFFFFFFFFFFFFFFFFFFFFFFFFFFFF AND DUP2 JUMP JUMPDEST PUSH1 0x0 DUP1 SLOAD SWAP1 PUSH2 0x100 EXP SWAP1 DIV PUSH20 0xFFFFFFFFFFFFFFFFFFFFFFFFFFFFFFFFFFFFFFFF AND PUSH20 0xFFFFFFFFFFFFFFFFFFFFFFFFFFFFFFFFFFFFFFFF AND CALLER PUSH20 0xFFFFFFFFFFFFFFFFFFFFFFFFFFFFFFFFFFFFFFFF AND EQ PUSH2 0x21C JUMPI PUSH1 0x0 DUP1 REVERT JUMPDEST PUSH2 0x224 PUSH2 0x168 JUMP JUMPDEST ISZERO PUSH2 0x22E JUMPI PUSH1 0x0 DUP1 REVERT JUMPDEST PUSH1 0x1 PUSH1 0x2 PUSH1 0x0 PUSH2 0x100 EXP DUP2 SLOAD DUP2 PUSH1 0xFF MUL NOT AND SWAP1 DUP4 ISZERO ISZERO MUL OR SWAP1 SSTORE POP JUMP JUMPDEST PUSH1 0x0 DUP1 SLOAD SWAP1 PUSH2 0x100 EXP SWAP1 DIV PUSH20 0xFFFFFFFFFFFFFFFFFFFFFFFFFFFFFFFFFFFFFFFF AND PUSH20 0xFFFFFFFFFFFFFFFFFFFFFFFFFFFFFFFFFFFFFFFF AND CALLER PUSH20 0xFFFFFFFFFFFFFFFFFFFFFFFFFFFFFFFFFFFFFFFF AND EQ PUSH2 0x2A3 JUMPI PUSH1 0x0 DUP1 REVERT JUMPDEST JUMP JUMPDEST PUSH1 0x0 DUP2 CALLDATALOAD SWAP1 POP PUSH2 0x2B4 DUP2 PUSH2 0x3B2 JUMP JUMPDEST SWAP3 SWAP2 POP POP JUMP JUMPDEST PUSH1 0x0 PUSH1 0x20 DUP3 DUP5 SUB SLT ISZERO PUSH2 0x2D0 JUMPI PUSH2 0x2CF PUSH2 0x3AD JUMP JUMPDEST JUMPDEST PUSH1 0x0 PUSH2 0x2DE DUP5 DUP3 DUP6 ADD PUSH2 0x2A5 JUMP JUMPDEST SWAP2 POP POP SWAP3 SWAP2 POP POP JUMP JUMPDEST PUSH2 0x2F0 DUP2 PUSH2 0x365 JUMP JUMPDEST DUP3 MSTORE POP POP JUMP JUMPDEST PUSH2 0x2FF DUP2 PUSH2 0x377 JUMP JUMPDEST DUP3 MSTORE POP POP JUMP JUMPDEST PUSH2 0x30E DUP2 PUSH2 0x3A3 JUMP JUMPDEST DUP3 MSTORE POP POP JUMP JUMPDEST PUSH1 0x0 PUSH1 0x20 DUP3 ADD SWAP1 POP PUSH2 0x329 PUSH1 0x0 DUP4 ADD DUP5 PUSH2 0x2E7 JUMP JUMPDEST SWAP3 SWAP2 POP POP JUMP JUMPDEST PUSH1 0x0 PUSH1 0x20 DUP3 ADD SWAP1 POP PUSH2 0x344 PUSH1 0x0 DUP4 ADD DUP5 PUSH2 0x2F6 JUMP JUMPDEST SWAP3 SWAP2 POP POP JUMP JUMPDEST PUSH1 0x0 PUSH1 0x20 DUP3 ADD SWAP1 POP PUSH2 0x35F PUSH1 0x0 DUP4 ADD DUP5 PUSH2 0x305 JUMP JUMPDEST SWAP3 SWAP2 POP POP JUMP JUMPDEST PUSH1 0x0 PUSH2 0x370 DUP3 PUSH2 0x383 JUMP JUMPDEST SWAP1 POP SWAP2 SWAP1 POP JUMP JUMPDEST PUSH1 0x0 DUP2 ISZERO ISZERO SWAP1 POP SWAP2 SWAP1 POP JUMP JUMPDEST PUSH1 0x0 PUSH20 0xFFFFFFFFFFFFFFFFFFFFFFFFFFFFFFFFFFFFFFFF DUP3 AND SWAP1 POP SWAP2 SWAP1 POP JUMP JUMPDEST PUSH1 0x0 DUP2 SWAP1 POP SWAP2 SWAP1 POP JUMP JUMPDEST PUSH1 0x0 DUP1 REVERT JUMPDEST PUSH2 0x3BB DUP2 PUSH2 0x365 JUMP JUMPDEST DUP2 EQ PUSH2 0x3C6 JUMPI PUSH1 0x0 DUP1 REVERT JUMPDEST POP JUMP INVALID LOG2 PUSH5 0x6970667358 0x22 SLT KECCAK256 MSTORE8 DIV 0xA8 NUMBER CHAINID 0xEC ADDRESS 0xBD PUSH10 0x58601424885C9E8FEA6B ADDRESS 0xE0 0xD3 CREATE 0xD5 XOR 0xDF CODECOPY SWAP6 0xDB 0x2C 0xE1 SLOAD PUSH5 0x736F6C6343 STOP ADDMOD SMOD STOP CALLER "
				},
				"gasEstimates": {
					"creation": {
						"codeDepositCost": "204600",
						"executionCost": "48778",
						"totalCost": "253378"
					},
					"external": {
						"": "195",
						"auctionIsOpen()": "2479",
						"bids(address)": "2836",
						"endAuction()": "2399",
						"getHighestBidder()": "356",
						"owner()": "2555",
						"start()": "28835"
					},
					"internal": {
						"addBid(address,uint256)": "13"
					}
				},
				"methodIdentifiers": {
					"auctionIsOpen()": "2b5095b6",
					"bids(address)": "62ea82db",
					"endAuction()": "fe67a54b",
					"getHighestBidder()": "003495a4",
					"owner()": "8da5cb5b",
					"start()": "be9a6555"
				}
			},
			"storageLayout": {
				"storage": [
					{
						"astId": 3,
						"contract": "contracts/auction.sol:Auction",
						"label": "owner",
						"offset": 0,
						"slot": "0",
						"type": "t_address"
					},
					{
						"astId": 7,
						"contract": "contracts/auction.sol:Auction",
						"label": "bids",
						"offset": 0,
						"slot": "1",
						"type": "t_mapping(t_address,t_uint256)"
					},
					{
						"astId": 9,
						"contract": "contracts/auction.sol:Auction",
						"label": "open",
						"offset": 0,
						"slot": "2",
						"type": "t_bool"
					}
				],
				"types": {
					"t_address": {
						"encoding": "inplace",
						"label": "address",
						"numberOfBytes": "20"
					},
					"t_bool": {
						"encoding": "inplace",
						"label": "bool",
						"numberOfBytes": "1"
					},
					"t_mapping(t_address,t_uint256)": {
						"encoding": "mapping",
						"key": "t_address",
						"label": "mapping(address => uint256)",
						"numberOfBytes": "32",
						"value": "t_uint256"
					},
					"t_uint256": {
						"encoding": "inplace",
						"label": "uint256",
						"numberOfBytes": "32"
					}
				}
			},
			"userdoc": {
				"kind": "user",
				"methods": {},
				"version": 1
			}
		}
	}
}