{
	"contracts/auction.sol": {
		"Auction": {
			"abi": [
				{
					"inputs": [
						{
							"internalType": "address",
							"name": "eoa",
							"type": "address"
						}
					],
					"stateMutability": "nonpayable",
					"type": "constructor"
				},
				{
					"stateMutability": "payable",
					"type": "fallback"
				},
				{
					"inputs": [
						{
							"internalType": "address",
							"name": "",
							"type": "address"
						}
					],
					"name": "bids",
					"outputs": [
						{
							"internalType": "uint256",
							"name": "",
							"type": "uint256"
						}
					],
					"stateMutability": "view",
					"type": "function"
				},
				{
					"inputs": [],
					"name": "cancelAuction",
					"outputs": [],
					"stateMutability": "nonpayable",
					"type": "function"
				},
				{
					"inputs": [],
					"name": "endBlock",
					"outputs": [
						{
							"internalType": "uint256",
							"name": "",
							"type": "uint256"
						}
					],
					"stateMutability": "view",
					"type": "function"
				},
				{
					"inputs": [],
					"name": "finalizeAuction",
					"outputs": [],
					"stateMutability": "nonpayable",
					"type": "function"
				},
				{
					"inputs": [],
					"name": "getAuctionState",
					"outputs": [
						{
							"internalType": "enum Auction.State",
							"name": "",
							"type": "uint8"
						}
					],
					"stateMutability": "view",
					"type": "function"
				},
				{
					"inputs": [],
					"name": "highestBidder",
					"outputs": [
						{
							"internalType": "address payable",
							"name": "",
							"type": "address"
						}
					],
					"stateMutability": "view",
					"type": "function"
				},
				{
					"inputs": [],
					"name": "highestBindingBid",
					"outputs": [
						{
							"internalType": "uint256",
							"name": "",
							"type": "uint256"
						}
					],
					"stateMutability": "view",
					"type": "function"
				},
				{
					"inputs": [],
					"name": "owner",
					"outputs": [
						{
							"internalType": "address payable",
							"name": "",
							"type": "address"
						}
					],
					"stateMutability": "view",
					"type": "function"
				},
				{
					"inputs": [],
					"name": "ownerFinalized",
					"outputs": [
						{
							"internalType": "bool",
							"name": "",
							"type": "bool"
						}
					],
					"stateMutability": "view",
					"type": "function"
				},
				{
					"inputs": [],
					"name": "placeBid",
					"outputs": [],
					"stateMutability": "payable",
					"type": "function"
				},
				{
					"inputs": [],
					"name": "startBlock",
					"outputs": [
						{
							"internalType": "uint256",
							"name": "",
							"type": "uint256"
						}
					],
					"stateMutability": "view",
					"type": "function"
				},
				{
					"stateMutability": "payable",
					"type": "receive"
				}
			],
			"devdoc": {
				"kind": "dev",
				"methods": {},
				"version": 1
			},
			"evm": {
				"assembly": "    /* \"contracts/auction.sol\":609:4031  contract Auction{\r... */\n  mstore(0x40, 0x80)\n    /* \"contracts/auction.sol\":927:930  100 */\n  0x64\n    /* \"contracts/auction.sol\":907:930  uint bidIncrement = 100 */\n  0x04\n  sstore\n    /* \"contracts/auction.sol\":997:1085  constructor(address eoa){\r... */\n  callvalue\n  dup1\n  iszero\n  tag_1\n  jumpi\n  0x00\n  dup1\n  revert\ntag_1:\n  pop\n  mload(0x40)\n  sub(codesize, bytecodeSize)\n  dup1\n  bytecodeSize\n  dup4\n  codecopy\n  dup2\n  dup2\n  add\n  0x40\n  mstore\n  dup2\n  add\n  swap1\n  tag_2\n  swap2\n  swap1\n  tag_3\n  jump\t// in\ntag_2:\n    /* \"contracts/auction.sol\":1048:1051  eoa */\n  dup1\n    /* \"contracts/auction.sol\":1032:1037  owner */\n  0x00\n  dup1\n    /* \"contracts/auction.sol\":1032:1052  owner = payable(eoa) */\n  0x0100\n  exp\n  dup2\n  sload\n  dup2\n  0xffffffffffffffffffffffffffffffffffffffff\n  mul\n  not\n  and\n  swap1\n  dup4\n  0xffffffffffffffffffffffffffffffffffffffff\n  and\n  mul\n  or\n  swap1\n  sstore\n  pop\n    /* \"contracts/auction.sol\":1063:1077  startAuction() */\n  tag_6\n    /* \"contracts/auction.sol\":1063:1075  startAuction */\n  shl(0x20, tag_7)\n    /* \"contracts/auction.sol\":1063:1077  startAuction() */\n  0x20\n  shr\n  jump\t// in\ntag_6:\n    /* \"contracts/auction.sol\":997:1085  constructor(address eoa){\r... */\n  pop\n    /* \"contracts/auction.sol\":609:4031  contract Auction{\r... */\n  jump(tag_8)\n    /* \"contracts/auction.sol\":2560:2823  function startAuction() private onlyOwner {\r... */\ntag_7:\n    /* \"contracts/auction.sol\":1146:1151  owner */\n  0x00\n  dup1\n  sload\n  swap1\n  0x0100\n  exp\n  swap1\n  div\n  0xffffffffffffffffffffffffffffffffffffffff\n  and\n    /* \"contracts/auction.sol\":1132:1151  msg.sender == owner */\n  0xffffffffffffffffffffffffffffffffffffffff\n  and\n    /* \"contracts/auction.sol\":1132:1142  msg.sender */\n  caller\n    /* \"contracts/auction.sol\":1132:1151  msg.sender == owner */\n  0xffffffffffffffffffffffffffffffffffffffff\n  and\n  eq\n    /* \"contracts/auction.sol\":1124:1152  require(msg.sender == owner) */\n  tag_10\n  jumpi\n  0x00\n  dup1\n  revert\ntag_10:\n    /* \"contracts/auction.sol\":2629:2642  State.RUNNING */\n  0x00\n    /* \"contracts/auction.sol\":2613:2626  auctionStatus */\n  dup1\n  0x14\n    /* \"contracts/auction.sol\":2613:2642  auctionStatus = State.RUNNING */\n  0x0100\n  exp\n  dup2\n  sload\n  dup2\n  0xff\n  mul\n  not\n  and\n  swap1\n  dup4\n  0x02\n  dup2\n  gt\n  iszero\n  tag_12\n  jumpi\n  tag_13\n  tag_14\n  jump\t// in\ntag_13:\ntag_12:\n  mul\n  or\n  swap1\n  sstore\n  pop\n    /* \"contracts/auction.sol\":2668:2680  block.number */\n  number\n    /* \"contracts/auction.sol\":2655:2665  startBlock */\n  0x05\n    /* \"contracts/auction.sol\":2655:2680  startBlock = block.number */\n  dup2\n  swap1\n  sstore\n  pop\n    /* \"contracts/auction.sol\":2788:2793  40320 */\n  0x9d80\n    /* \"contracts/auction.sol\":2775:2785  startBlock */\n  sload(0x05)\n    /* \"contracts/auction.sol\":2775:2793  startBlock + 40320 */\n  tag_15\n  swap2\n  swap1\n  tag_16\n  jump\t// in\ntag_15:\n    /* \"contracts/auction.sol\":2764:2772  endBlock */\n  0x06\n    /* \"contracts/auction.sol\":2764:2793  endBlock = startBlock + 40320 */\n  dup2\n  swap1\n  sstore\n  pop\n    /* \"contracts/auction.sol\":2560:2823  function startAuction() private onlyOwner {\r... */\n  jump\t// out\n    /* \"#utility.yul\":7:150   */\ntag_18:\n    /* \"#utility.yul\":64:69   */\n  0x00\n    /* \"#utility.yul\":95:101   */\n  dup2\n    /* \"#utility.yul\":89:102   */\n  mload\n    /* \"#utility.yul\":80:102   */\n  swap1\n  pop\n    /* \"#utility.yul\":111:144   */\n  tag_20\n    /* \"#utility.yul\":138:143   */\n  dup2\n    /* \"#utility.yul\":111:144   */\n  tag_21\n  jump\t// in\ntag_20:\n    /* \"#utility.yul\":7:150   */\n  swap3\n  swap2\n  pop\n  pop\n  jump\t// out\n    /* \"#utility.yul\":156:507   */\ntag_3:\n    /* \"#utility.yul\":226:232   */\n  0x00\n    /* \"#utility.yul\":275:277   */\n  0x20\n    /* \"#utility.yul\":263:272   */\n  dup3\n    /* \"#utility.yul\":254:261   */\n  dup5\n    /* \"#utility.yul\":250:273   */\n  sub\n    /* \"#utility.yul\":246:278   */\n  slt\n    /* \"#utility.yul\":243:362   */\n  iszero\n  tag_23\n  jumpi\n    /* \"#utility.yul\":281:360   */\n  tag_24\n  tag_25\n  jump\t// in\ntag_24:\n    /* \"#utility.yul\":243:362   */\ntag_23:\n    /* \"#utility.yul\":401:402   */\n  0x00\n    /* \"#utility.yul\":426:490   */\n  tag_26\n    /* \"#utility.yul\":482:489   */\n  dup5\n    /* \"#utility.yul\":473:479   */\n  dup3\n    /* \"#utility.yul\":462:471   */\n  dup6\n    /* \"#utility.yul\":458:480   */\n  add\n    /* \"#utility.yul\":426:490   */\n  tag_18\n  jump\t// in\ntag_26:\n    /* \"#utility.yul\":416:490   */\n  swap2\n  pop\n    /* \"#utility.yul\":372:500   */\n  pop\n    /* \"#utility.yul\":156:507   */\n  swap3\n  swap2\n  pop\n  pop\n  jump\t// out\n    /* \"#utility.yul\":594:899   */\ntag_16:\n    /* \"#utility.yul\":634:637   */\n  0x00\n    /* \"#utility.yul\":653:673   */\n  tag_30\n    /* \"#utility.yul\":671:672   */\n  dup3\n    /* \"#utility.yul\":653:673   */\n  tag_31\n  jump\t// in\ntag_30:\n    /* \"#utility.yul\":648:673   */\n  swap2\n  pop\n    /* \"#utility.yul\":687:707   */\n  tag_32\n    /* \"#utility.yul\":705:706   */\n  dup4\n    /* \"#utility.yul\":687:707   */\n  tag_31\n  jump\t// in\ntag_32:\n    /* \"#utility.yul\":682:707   */\n  swap3\n  pop\n    /* \"#utility.yul\":841:842   */\n  dup3\n    /* \"#utility.yul\":773:839   */\n  0xffffffffffffffffffffffffffffffffffffffffffffffffffffffffffffffff\n    /* \"#utility.yul\":769:843   */\n  sub\n    /* \"#utility.yul\":766:767   */\n  dup3\n    /* \"#utility.yul\":763:844   */\n  gt\n    /* \"#utility.yul\":760:867   */\n  iszero\n  tag_33\n  jumpi\n    /* \"#utility.yul\":847:865   */\n  tag_34\n  tag_35\n  jump\t// in\ntag_34:\n    /* \"#utility.yul\":760:867   */\ntag_33:\n    /* \"#utility.yul\":891:892   */\n  dup3\n    /* \"#utility.yul\":888:889   */\n  dup3\n    /* \"#utility.yul\":884:893   */\n  add\n    /* \"#utility.yul\":877:893   */\n  swap1\n  pop\n    /* \"#utility.yul\":594:899   */\n  swap3\n  swap2\n  pop\n  pop\n  jump\t// out\n    /* \"#utility.yul\":905:1001   */\ntag_36:\n    /* \"#utility.yul\":942:949   */\n  0x00\n    /* \"#utility.yul\":971:995   */\n  tag_38\n    /* \"#utility.yul\":989:994   */\n  dup3\n    /* \"#utility.yul\":971:995   */\n  tag_39\n  jump\t// in\ntag_38:\n    /* \"#utility.yul\":960:995   */\n  swap1\n  pop\n    /* \"#utility.yul\":905:1001   */\n  swap2\n  swap1\n  pop\n  jump\t// out\n    /* \"#utility.yul\":1007:1133   */\ntag_39:\n    /* \"#utility.yul\":1044:1051   */\n  0x00\n    /* \"#utility.yul\":1084:1126   */\n  0xffffffffffffffffffffffffffffffffffffffff\n    /* \"#utility.yul\":1077:1082   */\n  dup3\n    /* \"#utility.yul\":1073:1127   */\n  and\n    /* \"#utility.yul\":1062:1127   */\n  swap1\n  pop\n    /* \"#utility.yul\":1007:1133   */\n  swap2\n  swap1\n  pop\n  jump\t// out\n    /* \"#utility.yul\":1139:1216   */\ntag_31:\n    /* \"#utility.yul\":1176:1183   */\n  0x00\n    /* \"#utility.yul\":1205:1210   */\n  dup2\n    /* \"#utility.yul\":1194:1210   */\n  swap1\n  pop\n    /* \"#utility.yul\":1139:1216   */\n  swap2\n  swap1\n  pop\n  jump\t// out\n    /* \"#utility.yul\":1222:1402   */\ntag_35:\n    /* \"#utility.yul\":1270:1347   */\n  0x4e487b7100000000000000000000000000000000000000000000000000000000\n    /* \"#utility.yul\":1267:1268   */\n  0x00\n    /* \"#utility.yul\":1260:1348   */\n  mstore\n    /* \"#utility.yul\":1367:1371   */\n  0x11\n    /* \"#utility.yul\":1364:1365   */\n  0x04\n    /* \"#utility.yul\":1357:1372   */\n  mstore\n    /* \"#utility.yul\":1391:1395   */\n  0x24\n    /* \"#utility.yul\":1388:1389   */\n  0x00\n    /* \"#utility.yul\":1381:1396   */\n  revert\n    /* \"#utility.yul\":1408:1588   */\ntag_14:\n    /* \"#utility.yul\":1456:1533   */\n  0x4e487b7100000000000000000000000000000000000000000000000000000000\n    /* \"#utility.yul\":1453:1454   */\n  0x00\n    /* \"#utility.yul\":1446:1534   */\n  mstore\n    /* \"#utility.yul\":1553:1557   */\n  0x21\n    /* \"#utility.yul\":1550:1551   */\n  0x04\n    /* \"#utility.yul\":1543:1558   */\n  mstore\n    /* \"#utility.yul\":1577:1581   */\n  0x24\n    /* \"#utility.yul\":1574:1575   */\n  0x00\n    /* \"#utility.yul\":1567:1582   */\n  revert\n    /* \"#utility.yul\":1717:1834   */\ntag_25:\n    /* \"#utility.yul\":1826:1827   */\n  0x00\n    /* \"#utility.yul\":1823:1824   */\n  dup1\n    /* \"#utility.yul\":1816:1828   */\n  revert\n    /* \"#utility.yul\":1840:1962   */\ntag_21:\n    /* \"#utility.yul\":1913:1937   */\n  tag_48\n    /* \"#utility.yul\":1931:1936   */\n  dup2\n    /* \"#utility.yul\":1913:1937   */\n  tag_36\n  jump\t// in\ntag_48:\n    /* \"#utility.yul\":1906:1911   */\n  dup2\n    /* \"#utility.yul\":1903:1938   */\n  eq\n    /* \"#utility.yul\":1893:1956   */\n  tag_49\n  jumpi\n    /* \"#utility.yul\":1952:1953   */\n  0x00\n    /* \"#utility.yul\":1949:1950   */\n  dup1\n    /* \"#utility.yul\":1942:1954   */\n  revert\n    /* \"#utility.yul\":1893:1956   */\ntag_49:\n    /* \"#utility.yul\":1840:1962   */\n  pop\n  jump\t// out\n    /* \"contracts/auction.sol\":609:4031  contract Auction{\r... */\ntag_8:\n  dataSize(sub_0)\n  dup1\n  dataOffset(sub_0)\n  0x00\n  codecopy\n  0x00\n  return\nstop\n\nsub_0: assembly {\n        /* \"contracts/auction.sol\":609:4031  contract Auction{\r... */\n      mstore(0x40, 0x80)\n      jumpi(tag_1, lt(calldatasize, 0x04))\n      shr(0xe0, calldataload(0x00))\n      dup1\n      0x8da5cb5b\n      gt\n      tag_14\n      jumpi\n      dup1\n      0x8da5cb5b\n      eq\n      tag_8\n      jumpi\n      dup1\n      0x8fa8b790\n      eq\n      tag_9\n      jumpi\n      dup1\n      0x91f90157\n      eq\n      tag_10\n      jumpi\n      dup1\n      0xecfc7ecc\n      eq\n      tag_11\n      jumpi\n      dup1\n      0xf5b56c56\n      eq\n      tag_12\n      jumpi\n      dup1\n      0xf77282ab\n      eq\n      tag_13\n      jumpi\n      jump(tag_2)\n    tag_14:\n      dup1\n      0x083c6323\n      eq\n      tag_3\n      jumpi\n      dup1\n      0x08bfc300\n      eq\n      tag_4\n      jumpi\n      dup1\n      0x48cd4cb1\n      eq\n      tag_5\n      jumpi\n      dup1\n      0x62ea82db\n      eq\n      tag_6\n      jumpi\n      dup1\n      0x8b7b097f\n      eq\n      tag_7\n      jumpi\n      jump(tag_2)\n    tag_1:\n      jumpi(tag_2, calldatasize)\n        /* \"contracts/auction.sol\":1230:1235  owner */\n      0x00\n      dup1\n      sload\n      swap1\n      0x0100\n      exp\n      swap1\n      div\n      0xffffffffffffffffffffffffffffffffffffffff\n      and\n        /* \"contracts/auction.sol\":1216:1235  msg.sender != owner */\n      0xffffffffffffffffffffffffffffffffffffffff\n      and\n        /* \"contracts/auction.sol\":1216:1226  msg.sender */\n      caller\n        /* \"contracts/auction.sol\":1216:1235  msg.sender != owner */\n      0xffffffffffffffffffffffffffffffffffffffff\n      and\n      eq\n      iszero\n        /* \"contracts/auction.sol\":1208:1236  require(msg.sender != owner) */\n      tag_17\n      jumpi\n      0x00\n      dup1\n      revert\n    tag_17:\n        /* \"contracts/auction.sol\":1318:1328  startBlock */\n      sload(0x05)\n        /* \"contracts/auction.sol\":1302:1314  block.number */\n      number\n        /* \"contracts/auction.sol\":1302:1328  block.number >= startBlock */\n      lt\n      iszero\n        /* \"contracts/auction.sol\":1294:1329  require(block.number >= startBlock) */\n      tag_19\n      jumpi\n      0x00\n      dup1\n      revert\n    tag_19:\n        /* \"contracts/auction.sol\":1410:1418  endBlock */\n      sload(0x06)\n        /* \"contracts/auction.sol\":1394:1406  block.number */\n      number\n        /* \"contracts/auction.sol\":1394:1418  block.number <= endBlock */\n      gt\n      iszero\n        /* \"contracts/auction.sol\":1386:1419  require(block.number <= endBlock) */\n      tag_21\n      jumpi\n      0x00\n      dup1\n      revert\n    tag_21:\n        /* \"contracts/auction.sol\":609:4031  contract Auction{\r... */\n      stop\n    tag_2:\n        /* \"contracts/auction.sol\":1600:1608  revert() */\n      0x00\n      dup1\n      revert\n        /* \"contracts/auction.sol\":968:988  uint public endBlock */\n    tag_3:\n      callvalue\n      dup1\n      iszero\n      tag_25\n      jumpi\n      0x00\n      dup1\n      revert\n    tag_25:\n      pop\n      tag_26\n      tag_27\n      jump\t// in\n    tag_26:\n      mload(0x40)\n      tag_28\n      swap2\n      swap1\n      tag_29\n      jump\t// in\n    tag_28:\n      mload(0x40)\n      dup1\n      swap2\n      sub\n      swap1\n      return\n        /* \"contracts/auction.sol\":2458:2550  function getAuctionState() public view returns(State){\r... */\n    tag_4:\n      callvalue\n      dup1\n      iszero\n      tag_30\n      jumpi\n      0x00\n      dup1\n      revert\n    tag_30:\n      pop\n      tag_31\n      tag_32\n      jump\t// in\n    tag_31:\n      mload(0x40)\n      tag_33\n      swap2\n      swap1\n      tag_34\n      jump\t// in\n    tag_33:\n      mload(0x40)\n      dup1\n      swap2\n      sub\n      swap1\n      return\n        /* \"contracts/auction.sol\":939:961  uint public startBlock */\n    tag_5:\n      callvalue\n      dup1\n      iszero\n      tag_35\n      jumpi\n      0x00\n      dup1\n      revert\n    tag_35:\n      pop\n      tag_36\n      tag_37\n      jump\t// in\n    tag_36:\n      mload(0x40)\n      tag_38\n      swap2\n      swap1\n      tag_29\n      jump\t// in\n    tag_38:\n      mload(0x40)\n      dup1\n      swap2\n      sub\n      swap1\n      return\n        /* \"contracts/auction.sol\":862:898  mapping(address => uint) public bids */\n    tag_6:\n      callvalue\n      dup1\n      iszero\n      tag_39\n      jumpi\n      0x00\n      dup1\n      revert\n    tag_39:\n      pop\n      tag_40\n      0x04\n      dup1\n      calldatasize\n      sub\n      dup2\n      add\n      swap1\n      tag_41\n      swap2\n      swap1\n      tag_42\n      jump\t// in\n    tag_41:\n      tag_43\n      jump\t// in\n    tag_40:\n      mload(0x40)\n      tag_44\n      swap2\n      swap1\n      tag_29\n      jump\t// in\n    tag_44:\n      mload(0x40)\n      dup1\n      swap2\n      sub\n      swap1\n      return\n        /* \"contracts/auction.sol\":746:772  bool public ownerFinalized */\n    tag_7:\n      callvalue\n      dup1\n      iszero\n      tag_45\n      jumpi\n      0x00\n      dup1\n      revert\n    tag_45:\n      pop\n      tag_46\n      tag_47\n      jump\t// in\n    tag_46:\n      mload(0x40)\n      tag_48\n      swap2\n      swap1\n      tag_49\n      jump\t// in\n    tag_48:\n      mload(0x40)\n      dup1\n      swap2\n      sub\n      swap1\n      return\n        /* \"contracts/auction.sol\":634:662  address payable public owner */\n    tag_8:\n      callvalue\n      dup1\n      iszero\n      tag_50\n      jumpi\n      0x00\n      dup1\n      revert\n    tag_50:\n      pop\n      tag_51\n      tag_52\n      jump\t// in\n    tag_51:\n      mload(0x40)\n      tag_53\n      swap2\n      swap1\n      tag_54\n      jump\t// in\n    tag_53:\n      mload(0x40)\n      dup1\n      swap2\n      sub\n      swap1\n      return\n        /* \"contracts/auction.sol\":3937:4028  function cancelAuction() public onlyOwner {\r... */\n    tag_9:\n      callvalue\n      dup1\n      iszero\n      tag_55\n      jumpi\n      0x00\n      dup1\n      revert\n    tag_55:\n      pop\n      tag_56\n      tag_57\n      jump\t// in\n    tag_56:\n      stop\n        /* \"contracts/auction.sol\":817:853  address payable public highestBidder */\n    tag_10:\n      callvalue\n      dup1\n      iszero\n      tag_58\n      jumpi\n      0x00\n      dup1\n      revert\n    tag_58:\n      pop\n      tag_59\n      tag_60\n      jump\t// in\n    tag_59:\n      mload(0x40)\n      tag_61\n      swap2\n      swap1\n      tag_54\n      jump\t// in\n    tag_61:\n      mload(0x40)\n      dup1\n      swap2\n      sub\n      swap1\n      return\n        /* \"contracts/auction.sol\":1624:2253  function placeBid() public payable notOwner afterStart beforeEnd{\r... */\n    tag_11:\n      tag_62\n      tag_63\n      jump\t// in\n    tag_62:\n      stop\n        /* \"contracts/auction.sol\":781:810  uint public highestBindingBid */\n    tag_12:\n      callvalue\n      dup1\n      iszero\n      tag_64\n      jumpi\n      0x00\n      dup1\n      revert\n    tag_64:\n      pop\n      tag_65\n      tag_66\n      jump\t// in\n    tag_65:\n      mload(0x40)\n      tag_67\n      swap2\n      swap1\n      tag_29\n      jump\t// in\n    tag_67:\n      mload(0x40)\n      dup1\n      swap2\n      sub\n      swap1\n      return\n        /* \"contracts/auction.sol\":2831:3929  function finalizeAuction() public afterStart {        \r... */\n    tag_13:\n      callvalue\n      dup1\n      iszero\n      tag_68\n      jumpi\n      0x00\n      dup1\n      revert\n    tag_68:\n      pop\n      tag_69\n      tag_70\n      jump\t// in\n    tag_69:\n      stop\n        /* \"contracts/auction.sol\":968:988  uint public endBlock */\n    tag_27:\n      sload(0x06)\n      dup2\n      jump\t// out\n        /* \"contracts/auction.sol\":2458:2550  function getAuctionState() public view returns(State){\r... */\n    tag_32:\n        /* \"contracts/auction.sol\":2505:2510  State */\n      0x00\n        /* \"contracts/auction.sol\":2529:2542  auctionStatus */\n      dup1\n      0x14\n      swap1\n      sload\n      swap1\n      0x0100\n      exp\n      swap1\n      div\n      0xff\n      and\n        /* \"contracts/auction.sol\":2522:2542  return auctionStatus */\n      swap1\n      pop\n        /* \"contracts/auction.sol\":2458:2550  function getAuctionState() public view returns(State){\r... */\n      swap1\n      jump\t// out\n        /* \"contracts/auction.sol\":939:961  uint public startBlock */\n    tag_37:\n      sload(0x05)\n      dup2\n      jump\t// out\n        /* \"contracts/auction.sol\":862:898  mapping(address => uint) public bids */\n    tag_43:\n      mstore(0x20, 0x03)\n      dup1\n      0x00\n      mstore\n      keccak256(0x00, 0x40)\n      0x00\n      swap2\n      pop\n      swap1\n      pop\n      sload\n      dup2\n      jump\t// out\n        /* \"contracts/auction.sol\":746:772  bool public ownerFinalized */\n    tag_47:\n      0x00\n      0x15\n      swap1\n      sload\n      swap1\n      0x0100\n      exp\n      swap1\n      div\n      0xff\n      and\n      dup2\n      jump\t// out\n        /* \"contracts/auction.sol\":634:662  address payable public owner */\n    tag_52:\n      0x00\n      dup1\n      sload\n      swap1\n      0x0100\n      exp\n      swap1\n      div\n      0xffffffffffffffffffffffffffffffffffffffff\n      and\n      dup2\n      jump\t// out\n        /* \"contracts/auction.sol\":3937:4028  function cancelAuction() public onlyOwner {\r... */\n    tag_57:\n        /* \"contracts/auction.sol\":1146:1151  owner */\n      0x00\n      dup1\n      sload\n      swap1\n      0x0100\n      exp\n      swap1\n      div\n      0xffffffffffffffffffffffffffffffffffffffff\n      and\n        /* \"contracts/auction.sol\":1132:1151  msg.sender == owner */\n      0xffffffffffffffffffffffffffffffffffffffff\n      and\n        /* \"contracts/auction.sol\":1132:1142  msg.sender */\n      caller\n        /* \"contracts/auction.sol\":1132:1151  msg.sender == owner */\n      0xffffffffffffffffffffffffffffffffffffffff\n      and\n      eq\n        /* \"contracts/auction.sol\":1124:1152  require(msg.sender == owner) */\n      tag_73\n      jumpi\n      0x00\n      dup1\n      revert\n    tag_73:\n        /* \"contracts/auction.sol\":4006:4020  State.CANCELED */\n      0x02\n        /* \"contracts/auction.sol\":3990:4003  auctionStatus */\n      0x00\n      0x14\n        /* \"contracts/auction.sol\":3990:4020  auctionStatus = State.CANCELED */\n      0x0100\n      exp\n      dup2\n      sload\n      dup2\n      0xff\n      mul\n      not\n      and\n      swap1\n      dup4\n      0x02\n      dup2\n      gt\n      iszero\n      tag_75\n      jumpi\n      tag_76\n      tag_77\n      jump\t// in\n    tag_76:\n    tag_75:\n      mul\n      or\n      swap1\n      sstore\n      pop\n        /* \"contracts/auction.sol\":3937:4028  function cancelAuction() public onlyOwner {\r... */\n      jump\t// out\n        /* \"contracts/auction.sol\":817:853  address payable public highestBidder */\n    tag_60:\n      0x02\n      0x00\n      swap1\n      sload\n      swap1\n      0x0100\n      exp\n      swap1\n      div\n      0xffffffffffffffffffffffffffffffffffffffff\n      and\n      dup2\n      jump\t// out\n        /* \"contracts/auction.sol\":1624:2253  function placeBid() public payable notOwner afterStart beforeEnd{\r... */\n    tag_63:\n        /* \"contracts/auction.sol\":1230:1235  owner */\n      0x00\n      dup1\n      sload\n      swap1\n      0x0100\n      exp\n      swap1\n      div\n      0xffffffffffffffffffffffffffffffffffffffff\n      and\n        /* \"contracts/auction.sol\":1216:1235  msg.sender != owner */\n      0xffffffffffffffffffffffffffffffffffffffff\n      and\n        /* \"contracts/auction.sol\":1216:1226  msg.sender */\n      caller\n        /* \"contracts/auction.sol\":1216:1235  msg.sender != owner */\n      0xffffffffffffffffffffffffffffffffffffffff\n      and\n      eq\n      iszero\n        /* \"contracts/auction.sol\":1208:1236  require(msg.sender != owner) */\n      tag_79\n      jumpi\n      0x00\n      dup1\n      revert\n    tag_79:\n        /* \"contracts/auction.sol\":1318:1328  startBlock */\n      sload(0x05)\n        /* \"contracts/auction.sol\":1302:1314  block.number */\n      number\n        /* \"contracts/auction.sol\":1302:1328  block.number >= startBlock */\n      lt\n      iszero\n        /* \"contracts/auction.sol\":1294:1329  require(block.number >= startBlock) */\n      tag_81\n      jumpi\n      0x00\n      dup1\n      revert\n    tag_81:\n        /* \"contracts/auction.sol\":1410:1418  endBlock */\n      sload(0x06)\n        /* \"contracts/auction.sol\":1394:1406  block.number */\n      number\n        /* \"contracts/auction.sol\":1394:1418  block.number <= endBlock */\n      gt\n      iszero\n        /* \"contracts/auction.sol\":1386:1419  require(block.number <= endBlock) */\n      tag_83\n      jumpi\n      0x00\n      dup1\n      revert\n    tag_83:\n        /* \"contracts/auction.sol\":1728:1741  State.RUNNING */\n      0x00\n        /* \"contracts/auction.sol\":1707:1741  getAuctionState() == State.RUNNING */\n      0x02\n      dup2\n      gt\n      iszero\n      tag_85\n      jumpi\n      tag_86\n      tag_77\n      jump\t// in\n    tag_86:\n    tag_85:\n        /* \"contracts/auction.sol\":1707:1724  getAuctionState() */\n      tag_87\n        /* \"contracts/auction.sol\":1707:1722  getAuctionState */\n      tag_32\n        /* \"contracts/auction.sol\":1707:1724  getAuctionState() */\n      jump\t// in\n    tag_87:\n        /* \"contracts/auction.sol\":1707:1741  getAuctionState() == State.RUNNING */\n      0x02\n      dup2\n      gt\n      iszero\n      tag_88\n      jumpi\n      tag_89\n      tag_77\n      jump\t// in\n    tag_89:\n    tag_88:\n      eq\n        /* \"contracts/auction.sol\":1699:1742  require(getAuctionState() == State.RUNNING) */\n      tag_90\n      jumpi\n      0x00\n      dup1\n      revert\n    tag_90:\n        /* \"contracts/auction.sol\":1774:1786  bidIncrement */\n      sload(0x04)\n        /* \"contracts/auction.sol\":1761:1770  msg.value */\n      callvalue\n        /* \"contracts/auction.sol\":1761:1786  msg.value >= bidIncrement */\n      lt\n      iszero\n        /* \"contracts/auction.sol\":1753:1787  require(msg.value >= bidIncrement) */\n      tag_91\n      jumpi\n      0x00\n      dup1\n      revert\n    tag_91:\n        /* \"contracts/auction.sol\":1800:1815  uint currentBid */\n      0x00\n        /* \"contracts/auction.sol\":1837:1846  msg.value */\n      callvalue\n        /* \"contracts/auction.sol\":1818:1822  bids */\n      0x03\n        /* \"contracts/auction.sol\":1818:1834  bids[msg.sender] */\n      0x00\n        /* \"contracts/auction.sol\":1823:1833  msg.sender */\n      caller\n        /* \"contracts/auction.sol\":1818:1834  bids[msg.sender] */\n      0xffffffffffffffffffffffffffffffffffffffff\n      and\n      0xffffffffffffffffffffffffffffffffffffffff\n      and\n      dup2\n      mstore\n      0x20\n      add\n      swap1\n      dup2\n      mstore\n      0x20\n      add\n      0x00\n      keccak256\n      sload\n        /* \"contracts/auction.sol\":1818:1846  bids[msg.sender] + msg.value */\n      tag_92\n      swap2\n      swap1\n      tag_93\n      jump\t// in\n    tag_92:\n        /* \"contracts/auction.sol\":1800:1846  uint currentBid = bids[msg.sender] + msg.value */\n      swap1\n      pop\n        /* \"contracts/auction.sol\":1878:1895  highestBindingBid */\n      sload(0x01)\n        /* \"contracts/auction.sol\":1865:1875  currentBid */\n      dup2\n        /* \"contracts/auction.sol\":1865:1895  currentBid > highestBindingBid */\n      gt\n        /* \"contracts/auction.sol\":1857:1896  require(currentBid > highestBindingBid) */\n      tag_94\n      jumpi\n      0x00\n      dup1\n      revert\n    tag_94:\n        /* \"contracts/auction.sol\":1926:1936  currentBid */\n      dup1\n        /* \"contracts/auction.sol\":1907:1911  bids */\n      0x03\n        /* \"contracts/auction.sol\":1907:1923  bids[msg.sender] */\n      0x00\n        /* \"contracts/auction.sol\":1912:1922  msg.sender */\n      caller\n        /* \"contracts/auction.sol\":1907:1923  bids[msg.sender] */\n      0xffffffffffffffffffffffffffffffffffffffff\n      and\n      0xffffffffffffffffffffffffffffffffffffffff\n      and\n      dup2\n      mstore\n      0x20\n      add\n      swap1\n      dup2\n      mstore\n      0x20\n      add\n      0x00\n      keccak256\n        /* \"contracts/auction.sol\":1907:1936  bids[msg.sender] = currentBid */\n      dup2\n      swap1\n      sstore\n      pop\n        /* \"contracts/auction.sol\":1966:1970  bids */\n      0x03\n        /* \"contracts/auction.sol\":1966:1985  bids[highestBidder] */\n      0x00\n        /* \"contracts/auction.sol\":1971:1984  highestBidder */\n      0x02\n      0x00\n      swap1\n      sload\n      swap1\n      0x0100\n      exp\n      swap1\n      div\n      0xffffffffffffffffffffffffffffffffffffffff\n      and\n        /* \"contracts/auction.sol\":1966:1985  bids[highestBidder] */\n      0xffffffffffffffffffffffffffffffffffffffff\n      and\n      0xffffffffffffffffffffffffffffffffffffffff\n      and\n      dup2\n      mstore\n      0x20\n      add\n      swap1\n      dup2\n      mstore\n      0x20\n      add\n      0x00\n      keccak256\n      sload\n        /* \"contracts/auction.sol\":1952:1962  currentBid */\n      dup2\n        /* \"contracts/auction.sol\":1952:1985  currentBid <= bids[highestBidder] */\n      gt\n        /* \"contracts/auction.sol\":1949:2246  if(currentBid <= bids[highestBidder]){\r... */\n      tag_95\n      jumpi\n        /* \"contracts/auction.sol\":2021:2072  min(currentBid + bidIncrement, bids[highestBidder]) */\n      tag_96\n        /* \"contracts/auction.sol\":2038:2050  bidIncrement */\n      sload(0x04)\n        /* \"contracts/auction.sol\":2025:2035  currentBid */\n      dup3\n        /* \"contracts/auction.sol\":2025:2050  currentBid + bidIncrement */\n      tag_97\n      swap2\n      swap1\n      tag_93\n      jump\t// in\n    tag_97:\n        /* \"contracts/auction.sol\":2052:2056  bids */\n      0x03\n        /* \"contracts/auction.sol\":2052:2071  bids[highestBidder] */\n      0x00\n        /* \"contracts/auction.sol\":2057:2070  highestBidder */\n      0x02\n      0x00\n      swap1\n      sload\n      swap1\n      0x0100\n      exp\n      swap1\n      div\n      0xffffffffffffffffffffffffffffffffffffffff\n      and\n        /* \"contracts/auction.sol\":2052:2071  bids[highestBidder] */\n      0xffffffffffffffffffffffffffffffffffffffff\n      and\n      0xffffffffffffffffffffffffffffffffffffffff\n      and\n      dup2\n      mstore\n      0x20\n      add\n      swap1\n      dup2\n      mstore\n      0x20\n      add\n      0x00\n      keccak256\n      sload\n        /* \"contracts/auction.sol\":2021:2024  min */\n      tag_98\n        /* \"contracts/auction.sol\":2021:2072  min(currentBid + bidIncrement, bids[highestBidder]) */\n      jump\t// in\n    tag_96:\n        /* \"contracts/auction.sol\":2001:2018  highestBindingBid */\n      0x01\n        /* \"contracts/auction.sol\":2001:2072  highestBindingBid = min(currentBid + bidIncrement, bids[highestBidder]) */\n      dup2\n      swap1\n      sstore\n      pop\n        /* \"contracts/auction.sol\":1949:2246  if(currentBid <= bids[highestBidder]){\r... */\n      jump(tag_99)\n    tag_95:\n        /* \"contracts/auction.sol\":2133:2184  min(currentBid, bids[highestBidder] + bidIncrement) */\n      tag_100\n        /* \"contracts/auction.sol\":2137:2147  currentBid */\n      dup2\n        /* \"contracts/auction.sol\":2171:2183  bidIncrement */\n      sload(0x04)\n        /* \"contracts/auction.sol\":2149:2153  bids */\n      0x03\n        /* \"contracts/auction.sol\":2149:2168  bids[highestBidder] */\n      0x00\n        /* \"contracts/auction.sol\":2154:2167  highestBidder */\n      0x02\n      0x00\n      swap1\n      sload\n      swap1\n      0x0100\n      exp\n      swap1\n      div\n      0xffffffffffffffffffffffffffffffffffffffff\n      and\n        /* \"contracts/auction.sol\":2149:2168  bids[highestBidder] */\n      0xffffffffffffffffffffffffffffffffffffffff\n      and\n      0xffffffffffffffffffffffffffffffffffffffff\n      and\n      dup2\n      mstore\n      0x20\n      add\n      swap1\n      dup2\n      mstore\n      0x20\n      add\n      0x00\n      keccak256\n      sload\n        /* \"contracts/auction.sol\":2149:2183  bids[highestBidder] + bidIncrement */\n      tag_101\n      swap2\n      swap1\n      tag_93\n      jump\t// in\n    tag_101:\n        /* \"contracts/auction.sol\":2133:2136  min */\n      tag_98\n        /* \"contracts/auction.sol\":2133:2184  min(currentBid, bids[highestBidder] + bidIncrement) */\n      jump\t// in\n    tag_100:\n        /* \"contracts/auction.sol\":2113:2130  highestBindingBid */\n      0x01\n        /* \"contracts/auction.sol\":2113:2184  highestBindingBid = min(currentBid, bids[highestBidder] + bidIncrement) */\n      dup2\n      swap1\n      sstore\n      pop\n        /* \"contracts/auction.sol\":2223:2233  msg.sender */\n      caller\n        /* \"contracts/auction.sol\":2199:2212  highestBidder */\n      0x02\n      0x00\n        /* \"contracts/auction.sol\":2199:2234  highestBidder = payable(msg.sender) */\n      0x0100\n      exp\n      dup2\n      sload\n      dup2\n      0xffffffffffffffffffffffffffffffffffffffff\n      mul\n      not\n      and\n      swap1\n      dup4\n      0xffffffffffffffffffffffffffffffffffffffff\n      and\n      mul\n      or\n      swap1\n      sstore\n      pop\n        /* \"contracts/auction.sol\":1949:2246  if(currentBid <= bids[highestBidder]){\r... */\n    tag_99:\n        /* \"contracts/auction.sol\":1688:2253  {\r... */\n      pop\n        /* \"contracts/auction.sol\":1624:2253  function placeBid() public payable notOwner afterStart beforeEnd{\r... */\n      jump\t// out\n        /* \"contracts/auction.sol\":781:810  uint public highestBindingBid */\n    tag_66:\n      sload(0x01)\n      dup2\n      jump\t// out\n        /* \"contracts/auction.sol\":2831:3929  function finalizeAuction() public afterStart {        \r... */\n    tag_70:\n        /* \"contracts/auction.sol\":1318:1328  startBlock */\n      sload(0x05)\n        /* \"contracts/auction.sol\":1302:1314  block.number */\n      number\n        /* \"contracts/auction.sol\":1302:1328  block.number >= startBlock */\n      lt\n      iszero\n        /* \"contracts/auction.sol\":1294:1329  require(block.number >= startBlock) */\n      tag_103\n      jumpi\n      0x00\n      dup1\n      revert\n    tag_103:\n        /* \"contracts/auction.sol\":2920:2934  State.CANCELED */\n      0x02\n        /* \"contracts/auction.sol\":2903:2934  auctionStatus == State.CANCELED */\n      dup1\n      dup2\n      gt\n      iszero\n      tag_105\n      jumpi\n      tag_106\n      tag_77\n      jump\t// in\n    tag_106:\n    tag_105:\n        /* \"contracts/auction.sol\":2903:2916  auctionStatus */\n      0x00\n      0x14\n      swap1\n      sload\n      swap1\n      0x0100\n      exp\n      swap1\n      div\n      0xff\n      and\n        /* \"contracts/auction.sol\":2903:2934  auctionStatus == State.CANCELED */\n      0x02\n      dup2\n      gt\n      iszero\n      tag_107\n      jumpi\n      tag_108\n      tag_77\n      jump\t// in\n    tag_108:\n    tag_107:\n      eq\n        /* \"contracts/auction.sol\":2903:2961  auctionStatus == State.CANCELED || block.number > endBlock */\n      dup1\n      tag_109\n      jumpi\n      pop\n        /* \"contracts/auction.sol\":2953:2961  endBlock */\n      sload(0x06)\n        /* \"contracts/auction.sol\":2938:2950  block.number */\n      number\n        /* \"contracts/auction.sol\":2938:2961  block.number > endBlock */\n      gt\n        /* \"contracts/auction.sol\":2903:2961  auctionStatus == State.CANCELED || block.number > endBlock */\n    tag_109:\n        /* \"contracts/auction.sol\":2895:2962  require(auctionStatus == State.CANCELED || block.number > endBlock) */\n      tag_110\n      jumpi\n      0x00\n      dup1\n      revert\n    tag_110:\n        /* \"contracts/auction.sol\":2995:3000  owner */\n      0x00\n      dup1\n      sload\n      swap1\n      0x0100\n      exp\n      swap1\n      div\n      0xffffffffffffffffffffffffffffffffffffffff\n      and\n        /* \"contracts/auction.sol\":2981:3000  msg.sender == owner */\n      0xffffffffffffffffffffffffffffffffffffffff\n      and\n        /* \"contracts/auction.sol\":2981:2991  msg.sender */\n      caller\n        /* \"contracts/auction.sol\":2981:3000  msg.sender == owner */\n      0xffffffffffffffffffffffffffffffffffffffff\n      and\n      eq\n        /* \"contracts/auction.sol\":2981:3024  msg.sender == owner || bids[msg.sender] > 0 */\n      dup1\n      tag_111\n      jumpi\n      pop\n        /* \"contracts/auction.sol\":3023:3024  0 */\n      0x00\n        /* \"contracts/auction.sol\":3004:3008  bids */\n      0x03\n        /* \"contracts/auction.sol\":3004:3020  bids[msg.sender] */\n      0x00\n        /* \"contracts/auction.sol\":3009:3019  msg.sender */\n      caller\n        /* \"contracts/auction.sol\":3004:3020  bids[msg.sender] */\n      0xffffffffffffffffffffffffffffffffffffffff\n      and\n      0xffffffffffffffffffffffffffffffffffffffff\n      and\n      dup2\n      mstore\n      0x20\n      add\n      swap1\n      dup2\n      mstore\n      0x20\n      add\n      0x00\n      keccak256\n      sload\n        /* \"contracts/auction.sol\":3004:3024  bids[msg.sender] > 0 */\n      gt\n        /* \"contracts/auction.sol\":2981:3024  msg.sender == owner || bids[msg.sender] > 0 */\n    tag_111:\n        /* \"contracts/auction.sol\":2973:3025  require(msg.sender == owner || bids[msg.sender] > 0) */\n      tag_112\n      jumpi\n      0x00\n      dup1\n      revert\n    tag_112:\n        /* \"contracts/auction.sol\":3062:3073  State.ENDED */\n      0x01\n        /* \"contracts/auction.sol\":3046:3059  auctionStatus */\n      0x00\n      0x14\n        /* \"contracts/auction.sol\":3046:3073  auctionStatus = State.ENDED */\n      0x0100\n      exp\n      dup2\n      sload\n      dup2\n      0xff\n      mul\n      not\n      and\n      swap1\n      dup4\n      0x02\n      dup2\n      gt\n      iszero\n      tag_113\n      jumpi\n      tag_114\n      tag_77\n      jump\t// in\n    tag_114:\n    tag_113:\n      mul\n      or\n      swap1\n      sstore\n      pop\n        /* \"contracts/auction.sol\":3084:3109  address payable recipient */\n      0x00\n        /* \"contracts/auction.sol\":3120:3130  uint value */\n      dup1\n        /* \"contracts/auction.sol\":3163:3177  State.CANCELED */\n      0x02\n        /* \"contracts/auction.sol\":3146:3177  auctionStatus == State.CANCELED */\n      dup1\n      dup2\n      gt\n      iszero\n      tag_115\n      jumpi\n      tag_116\n      tag_77\n      jump\t// in\n    tag_116:\n    tag_115:\n        /* \"contracts/auction.sol\":3146:3159  auctionStatus */\n      0x00\n      0x14\n      swap1\n      sload\n      swap1\n      0x0100\n      exp\n      swap1\n      div\n      0xff\n      and\n        /* \"contracts/auction.sol\":3146:3177  auctionStatus == State.CANCELED */\n      0x02\n      dup2\n      gt\n      iszero\n      tag_117\n      jumpi\n      tag_118\n      tag_77\n      jump\t// in\n    tag_118:\n    tag_117:\n      eq\n        /* \"contracts/auction.sol\":3143:3770  if(auctionStatus == State.CANCELED){\r... */\n      iszero\n      tag_119\n      jumpi\n        /* \"contracts/auction.sol\":3213:3223  msg.sender */\n      caller\n        /* \"contracts/auction.sol\":3193:3224  recipient = payable(msg.sender) */\n      swap2\n      pop\n        /* \"contracts/auction.sol\":3247:3251  bids */\n      0x03\n        /* \"contracts/auction.sol\":3247:3263  bids[msg.sender] */\n      0x00\n        /* \"contracts/auction.sol\":3252:3262  msg.sender */\n      caller\n        /* \"contracts/auction.sol\":3247:3263  bids[msg.sender] */\n      0xffffffffffffffffffffffffffffffffffffffff\n      and\n      0xffffffffffffffffffffffffffffffffffffffff\n      and\n      dup2\n      mstore\n      0x20\n      add\n      swap1\n      dup2\n      mstore\n      0x20\n      add\n      0x00\n      keccak256\n      sload\n        /* \"contracts/auction.sol\":3239:3263  value = bids[msg.sender] */\n      swap1\n      pop\n        /* \"contracts/auction.sol\":3143:3770  if(auctionStatus == State.CANCELED){\r... */\n      jump(tag_120)\n    tag_119:\n        /* \"contracts/auction.sol\":3312:3317  owner */\n      0x00\n      dup1\n      sload\n      swap1\n      0x0100\n      exp\n      swap1\n      div\n      0xffffffffffffffffffffffffffffffffffffffff\n      and\n        /* \"contracts/auction.sol\":3298:3317  msg.sender == owner */\n      0xffffffffffffffffffffffffffffffffffffffff\n      and\n        /* \"contracts/auction.sol\":3298:3308  msg.sender */\n      caller\n        /* \"contracts/auction.sol\":3298:3317  msg.sender == owner */\n      0xffffffffffffffffffffffffffffffffffffffff\n      and\n      eq\n        /* \"contracts/auction.sol\":3298:3344  msg.sender == owner && ownerFinalized == false */\n      dup1\n      iszero\n      tag_121\n      jumpi\n      pop\n        /* \"contracts/auction.sol\":3339:3344  false */\n      0x00\n        /* \"contracts/auction.sol\":3321:3344  ownerFinalized == false */\n      iszero\n      iszero\n        /* \"contracts/auction.sol\":3321:3335  ownerFinalized */\n      0x00\n      0x15\n      swap1\n      sload\n      swap1\n      0x0100\n      exp\n      swap1\n      div\n      0xff\n      and\n        /* \"contracts/auction.sol\":3321:3344  ownerFinalized == false */\n      iszero\n      iszero\n      eq\n        /* \"contracts/auction.sol\":3298:3344  msg.sender == owner && ownerFinalized == false */\n    tag_121:\n        /* \"contracts/auction.sol\":3295:3759  if(msg.sender == owner && ownerFinalized == false){\r... */\n      iszero\n      tag_122\n      jumpi\n        /* \"contracts/auction.sol\":3376:3381  owner */\n      0x00\n      dup1\n      sload\n      swap1\n      0x0100\n      exp\n      swap1\n      div\n      0xffffffffffffffffffffffffffffffffffffffff\n      and\n        /* \"contracts/auction.sol\":3364:3381  recipient = owner */\n      swap2\n      pop\n        /* \"contracts/auction.sol\":3408:3425  highestBindingBid */\n      sload(0x01)\n        /* \"contracts/auction.sol\":3400:3425  value = highestBindingBid */\n      swap1\n      pop\n        /* \"contracts/auction.sol\":3461:3465  true */\n      0x01\n        /* \"contracts/auction.sol\":3444:3458  ownerFinalized */\n      0x00\n      0x15\n        /* \"contracts/auction.sol\":3444:3465  ownerFinalized = true */\n      0x0100\n      exp\n      dup2\n      sload\n      dup2\n      0xff\n      mul\n      not\n      and\n      swap1\n      dup4\n      iszero\n      iszero\n      mul\n      or\n      swap1\n      sstore\n      pop\n        /* \"contracts/auction.sol\":3295:3759  if(msg.sender == owner && ownerFinalized == false){\r... */\n      jump(tag_123)\n    tag_122:\n        /* \"contracts/auction.sol\":3504:3517  highestBidder */\n      0x02\n      0x00\n      swap1\n      sload\n      swap1\n      0x0100\n      exp\n      swap1\n      div\n      0xffffffffffffffffffffffffffffffffffffffff\n      and\n        /* \"contracts/auction.sol\":3490:3517  msg.sender == highestBidder */\n      0xffffffffffffffffffffffffffffffffffffffff\n      and\n        /* \"contracts/auction.sol\":3490:3500  msg.sender */\n      caller\n        /* \"contracts/auction.sol\":3490:3517  msg.sender == highestBidder */\n      0xffffffffffffffffffffffffffffffffffffffff\n      and\n      eq\n        /* \"contracts/auction.sol\":3487:3759  if(msg.sender == highestBidder){\r... */\n      iszero\n      tag_124\n      jumpi\n        /* \"contracts/auction.sol\":3549:3562  highestBidder */\n      0x02\n      0x00\n      swap1\n      sload\n      swap1\n      0x0100\n      exp\n      swap1\n      div\n      0xffffffffffffffffffffffffffffffffffffffff\n      and\n        /* \"contracts/auction.sol\":3537:3562  recipient = highestBidder */\n      swap2\n      pop\n        /* \"contracts/auction.sol\":3611:3628  highestBindingBid */\n      sload(0x01)\n        /* \"contracts/auction.sol\":3589:3593  bids */\n      0x03\n        /* \"contracts/auction.sol\":3589:3608  bids[highestBidder] */\n      0x00\n        /* \"contracts/auction.sol\":3594:3607  highestBidder */\n      0x02\n      0x00\n      swap1\n      sload\n      swap1\n      0x0100\n      exp\n      swap1\n      div\n      0xffffffffffffffffffffffffffffffffffffffff\n      and\n        /* \"contracts/auction.sol\":3589:3608  bids[highestBidder] */\n      0xffffffffffffffffffffffffffffffffffffffff\n      and\n      0xffffffffffffffffffffffffffffffffffffffff\n      and\n      dup2\n      mstore\n      0x20\n      add\n      swap1\n      dup2\n      mstore\n      0x20\n      add\n      0x00\n      keccak256\n      sload\n        /* \"contracts/auction.sol\":3589:3628  bids[highestBidder] - highestBindingBid */\n      tag_125\n      swap2\n      swap1\n      tag_126\n      jump\t// in\n    tag_125:\n        /* \"contracts/auction.sol\":3581:3628  value = bids[highestBidder] - highestBindingBid */\n      swap1\n      pop\n        /* \"contracts/auction.sol\":3487:3759  if(msg.sender == highestBidder){\r... */\n      jump(tag_127)\n    tag_124:\n        /* \"contracts/auction.sol\":3689:3699  msg.sender */\n      caller\n        /* \"contracts/auction.sol\":3669:3700  recipient = payable(msg.sender) */\n      swap2\n      pop\n        /* \"contracts/auction.sol\":3727:3731  bids */\n      0x03\n        /* \"contracts/auction.sol\":3727:3743  bids[msg.sender] */\n      0x00\n        /* \"contracts/auction.sol\":3732:3742  msg.sender */\n      caller\n        /* \"contracts/auction.sol\":3727:3743  bids[msg.sender] */\n      0xffffffffffffffffffffffffffffffffffffffff\n      and\n      0xffffffffffffffffffffffffffffffffffffffff\n      and\n      dup2\n      mstore\n      0x20\n      add\n      swap1\n      dup2\n      mstore\n      0x20\n      add\n      0x00\n      keccak256\n      sload\n        /* \"contracts/auction.sol\":3719:3743  value = bids[msg.sender] */\n      swap1\n      pop\n        /* \"contracts/auction.sol\":3487:3759  if(msg.sender == highestBidder){\r... */\n    tag_127:\n        /* \"contracts/auction.sol\":3295:3759  if(msg.sender == owner && ownerFinalized == false){\r... */\n    tag_123:\n        /* \"contracts/auction.sol\":3143:3770  if(auctionStatus == State.CANCELED){\r... */\n    tag_120:\n        /* \"contracts/auction.sol\":3843:3844  0 */\n      0x00\n        /* \"contracts/auction.sol\":3825:3829  bids */\n      0x03\n        /* \"contracts/auction.sol\":3825:3840  bids[recipient] */\n      0x00\n        /* \"contracts/auction.sol\":3830:3839  recipient */\n      dup5\n        /* \"contracts/auction.sol\":3825:3840  bids[recipient] */\n      0xffffffffffffffffffffffffffffffffffffffff\n      and\n      0xffffffffffffffffffffffffffffffffffffffff\n      and\n      dup2\n      mstore\n      0x20\n      add\n      swap1\n      dup2\n      mstore\n      0x20\n      add\n      0x00\n      keccak256\n        /* \"contracts/auction.sol\":3825:3844  bids[recipient] = 0 */\n      dup2\n      swap1\n      sstore\n      pop\n        /* \"contracts/auction.sol\":3896:3905  recipient */\n      dup2\n        /* \"contracts/auction.sol\":3896:3914  recipient.transfer */\n      0xffffffffffffffffffffffffffffffffffffffff\n      and\n        /* \"contracts/auction.sol\":3896:3921  recipient.transfer(value) */\n      0x08fc\n        /* \"contracts/auction.sol\":3915:3920  value */\n      dup3\n        /* \"contracts/auction.sol\":3896:3921  recipient.transfer(value) */\n      swap1\n      dup2\n      iszero\n      mul\n      swap1\n      mload(0x40)\n      0x00\n      mload(0x40)\n      dup1\n      dup4\n      sub\n      dup2\n      dup6\n      dup9\n      dup9\n      call\n      swap4\n      pop\n      pop\n      pop\n      pop\n      iszero\n      dup1\n      iszero\n      tag_129\n      jumpi\n      returndatasize\n      0x00\n      dup1\n      returndatacopy\n      revert(0x00, returndatasize)\n    tag_129:\n      pop\n        /* \"contracts/auction.sol\":2876:3929  {        \r... */\n      pop\n      pop\n        /* \"contracts/auction.sol\":2831:3929  function finalizeAuction() public afterStart {        \r... */\n      jump\t// out\n        /* \"contracts/auction.sol\":2261:2399  function min(uint a, uint b) pure internal returns(uint){\r... */\n    tag_98:\n        /* \"contracts/auction.sol\":2312:2316  uint */\n      0x00\n        /* \"contracts/auction.sol\":2336:2337  b */\n      dup2\n        /* \"contracts/auction.sol\":2331:2332  a */\n      dup4\n        /* \"contracts/auction.sol\":2331:2337  a <= b */\n      gt\n        /* \"contracts/auction.sol\":2328:2373  if(a <= b){\r... */\n      tag_131\n      jumpi\n        /* \"contracts/auction.sol\":2360:2361  a */\n      dup3\n        /* \"contracts/auction.sol\":2353:2361  return a */\n      swap1\n      pop\n      jump(tag_130)\n        /* \"contracts/auction.sol\":2328:2373  if(a <= b){\r... */\n    tag_131:\n        /* \"contracts/auction.sol\":2390:2391  b */\n      dup2\n        /* \"contracts/auction.sol\":2383:2391  return b */\n      swap1\n      pop\n        /* \"contracts/auction.sol\":2261:2399  function min(uint a, uint b) pure internal returns(uint){\r... */\n    tag_130:\n      swap3\n      swap2\n      pop\n      pop\n      jump\t// out\n        /* \"#utility.yul\":7:146   */\n    tag_133:\n        /* \"#utility.yul\":53:58   */\n      0x00\n        /* \"#utility.yul\":91:97   */\n      dup2\n        /* \"#utility.yul\":78:98   */\n      calldataload\n        /* \"#utility.yul\":69:98   */\n      swap1\n      pop\n        /* \"#utility.yul\":107:140   */\n      tag_135\n        /* \"#utility.yul\":134:139   */\n      dup2\n        /* \"#utility.yul\":107:140   */\n      tag_136\n      jump\t// in\n    tag_135:\n        /* \"#utility.yul\":7:146   */\n      swap3\n      swap2\n      pop\n      pop\n      jump\t// out\n        /* \"#utility.yul\":152:481   */\n    tag_42:\n        /* \"#utility.yul\":211:217   */\n      0x00\n        /* \"#utility.yul\":260:262   */\n      0x20\n        /* \"#utility.yul\":248:257   */\n      dup3\n        /* \"#utility.yul\":239:246   */\n      dup5\n        /* \"#utility.yul\":235:258   */\n      sub\n        /* \"#utility.yul\":231:263   */\n      slt\n        /* \"#utility.yul\":228:347   */\n      iszero\n      tag_138\n      jumpi\n        /* \"#utility.yul\":266:345   */\n      tag_139\n      tag_140\n      jump\t// in\n    tag_139:\n        /* \"#utility.yul\":228:347   */\n    tag_138:\n        /* \"#utility.yul\":386:387   */\n      0x00\n        /* \"#utility.yul\":411:464   */\n      tag_141\n        /* \"#utility.yul\":456:463   */\n      dup5\n        /* \"#utility.yul\":447:453   */\n      dup3\n        /* \"#utility.yul\":436:445   */\n      dup6\n        /* \"#utility.yul\":432:454   */\n      add\n        /* \"#utility.yul\":411:464   */\n      tag_133\n      jump\t// in\n    tag_141:\n        /* \"#utility.yul\":401:464   */\n      swap2\n      pop\n        /* \"#utility.yul\":357:474   */\n      pop\n        /* \"#utility.yul\":152:481   */\n      swap3\n      swap2\n      pop\n      pop\n      jump\t// out\n        /* \"#utility.yul\":487:629   */\n    tag_142:\n        /* \"#utility.yul\":590:622   */\n      tag_144\n        /* \"#utility.yul\":616:621   */\n      dup2\n        /* \"#utility.yul\":590:622   */\n      tag_145\n      jump\t// in\n    tag_144:\n        /* \"#utility.yul\":585:588   */\n      dup3\n        /* \"#utility.yul\":578:623   */\n      mstore\n        /* \"#utility.yul\":487:629   */\n      pop\n      pop\n      jump\t// out\n        /* \"#utility.yul\":635:744   */\n    tag_146:\n        /* \"#utility.yul\":716:737   */\n      tag_148\n        /* \"#utility.yul\":731:736   */\n      dup2\n        /* \"#utility.yul\":716:737   */\n      tag_149\n      jump\t// in\n    tag_148:\n        /* \"#utility.yul\":711:714   */\n      dup3\n        /* \"#utility.yul\":704:738   */\n      mstore\n        /* \"#utility.yul\":635:744   */\n      pop\n      pop\n      jump\t// out\n        /* \"#utility.yul\":750:893   */\n    tag_150:\n        /* \"#utility.yul\":843:886   */\n      tag_152\n        /* \"#utility.yul\":880:885   */\n      dup2\n        /* \"#utility.yul\":843:886   */\n      tag_153\n      jump\t// in\n    tag_152:\n        /* \"#utility.yul\":838:841   */\n      dup3\n        /* \"#utility.yul\":831:887   */\n      mstore\n        /* \"#utility.yul\":750:893   */\n      pop\n      pop\n      jump\t// out\n        /* \"#utility.yul\":899:1017   */\n    tag_154:\n        /* \"#utility.yul\":986:1010   */\n      tag_156\n        /* \"#utility.yul\":1004:1009   */\n      dup2\n        /* \"#utility.yul\":986:1010   */\n      tag_157\n      jump\t// in\n    tag_156:\n        /* \"#utility.yul\":981:984   */\n      dup3\n        /* \"#utility.yul\":974:1011   */\n      mstore\n        /* \"#utility.yul\":899:1017   */\n      pop\n      pop\n      jump\t// out\n        /* \"#utility.yul\":1023:1277   */\n    tag_54:\n        /* \"#utility.yul\":1132:1136   */\n      0x00\n        /* \"#utility.yul\":1170:1172   */\n      0x20\n        /* \"#utility.yul\":1159:1168   */\n      dup3\n        /* \"#utility.yul\":1155:1173   */\n      add\n        /* \"#utility.yul\":1147:1173   */\n      swap1\n      pop\n        /* \"#utility.yul\":1183:1270   */\n      tag_159\n        /* \"#utility.yul\":1267:1268   */\n      0x00\n        /* \"#utility.yul\":1256:1265   */\n      dup4\n        /* \"#utility.yul\":1252:1269   */\n      add\n        /* \"#utility.yul\":1243:1249   */\n      dup5\n        /* \"#utility.yul\":1183:1270   */\n      tag_142\n      jump\t// in\n    tag_159:\n        /* \"#utility.yul\":1023:1277   */\n      swap3\n      swap2\n      pop\n      pop\n      jump\t// out\n        /* \"#utility.yul\":1283:1493   */\n    tag_49:\n        /* \"#utility.yul\":1370:1374   */\n      0x00\n        /* \"#utility.yul\":1408:1410   */\n      0x20\n        /* \"#utility.yul\":1397:1406   */\n      dup3\n        /* \"#utility.yul\":1393:1411   */\n      add\n        /* \"#utility.yul\":1385:1411   */\n      swap1\n      pop\n        /* \"#utility.yul\":1421:1486   */\n      tag_161\n        /* \"#utility.yul\":1483:1484   */\n      0x00\n        /* \"#utility.yul\":1472:1481   */\n      dup4\n        /* \"#utility.yul\":1468:1485   */\n      add\n        /* \"#utility.yul\":1459:1465   */\n      dup5\n        /* \"#utility.yul\":1421:1486   */\n      tag_146\n      jump\t// in\n    tag_161:\n        /* \"#utility.yul\":1283:1493   */\n      swap3\n      swap2\n      pop\n      pop\n      jump\t// out\n        /* \"#utility.yul\":1499:1733   */\n    tag_34:\n        /* \"#utility.yul\":1598:1602   */\n      0x00\n        /* \"#utility.yul\":1636:1638   */\n      0x20\n        /* \"#utility.yul\":1625:1634   */\n      dup3\n        /* \"#utility.yul\":1621:1639   */\n      add\n        /* \"#utility.yul\":1613:1639   */\n      swap1\n      pop\n        /* \"#utility.yul\":1649:1726   */\n      tag_163\n        /* \"#utility.yul\":1723:1724   */\n      0x00\n        /* \"#utility.yul\":1712:1721   */\n      dup4\n        /* \"#utility.yul\":1708:1725   */\n      add\n        /* \"#utility.yul\":1699:1705   */\n      dup5\n        /* \"#utility.yul\":1649:1726   */\n      tag_150\n      jump\t// in\n    tag_163:\n        /* \"#utility.yul\":1499:1733   */\n      swap3\n      swap2\n      pop\n      pop\n      jump\t// out\n        /* \"#utility.yul\":1739:1961   */\n    tag_29:\n        /* \"#utility.yul\":1832:1836   */\n      0x00\n        /* \"#utility.yul\":1870:1872   */\n      0x20\n        /* \"#utility.yul\":1859:1868   */\n      dup3\n        /* \"#utility.yul\":1855:1873   */\n      add\n        /* \"#utility.yul\":1847:1873   */\n      swap1\n      pop\n        /* \"#utility.yul\":1883:1954   */\n      tag_165\n        /* \"#utility.yul\":1951:1952   */\n      0x00\n        /* \"#utility.yul\":1940:1949   */\n      dup4\n        /* \"#utility.yul\":1936:1953   */\n      add\n        /* \"#utility.yul\":1927:1933   */\n      dup5\n        /* \"#utility.yul\":1883:1954   */\n      tag_154\n      jump\t// in\n    tag_165:\n        /* \"#utility.yul\":1739:1961   */\n      swap3\n      swap2\n      pop\n      pop\n      jump\t// out\n        /* \"#utility.yul\":2048:2353   */\n    tag_93:\n        /* \"#utility.yul\":2088:2091   */\n      0x00\n        /* \"#utility.yul\":2107:2127   */\n      tag_169\n        /* \"#utility.yul\":2125:2126   */\n      dup3\n        /* \"#utility.yul\":2107:2127   */\n      tag_157\n      jump\t// in\n    tag_169:\n        /* \"#utility.yul\":2102:2127   */\n      swap2\n      pop\n        /* \"#utility.yul\":2141:2161   */\n      tag_170\n        /* \"#utility.yul\":2159:2160   */\n      dup4\n        /* \"#utility.yul\":2141:2161   */\n      tag_157\n      jump\t// in\n    tag_170:\n        /* \"#utility.yul\":2136:2161   */\n      swap3\n      pop\n        /* \"#utility.yul\":2295:2296   */\n      dup3\n        /* \"#utility.yul\":2227:2293   */\n      0xffffffffffffffffffffffffffffffffffffffffffffffffffffffffffffffff\n        /* \"#utility.yul\":2223:2297   */\n      sub\n        /* \"#utility.yul\":2220:2221   */\n      dup3\n        /* \"#utility.yul\":2217:2298   */\n      gt\n        /* \"#utility.yul\":2214:2321   */\n      iszero\n      tag_171\n      jumpi\n        /* \"#utility.yul\":2301:2319   */\n      tag_172\n      tag_173\n      jump\t// in\n    tag_172:\n        /* \"#utility.yul\":2214:2321   */\n    tag_171:\n        /* \"#utility.yul\":2345:2346   */\n      dup3\n        /* \"#utility.yul\":2342:2343   */\n      dup3\n        /* \"#utility.yul\":2338:2347   */\n      add\n        /* \"#utility.yul\":2331:2347   */\n      swap1\n      pop\n        /* \"#utility.yul\":2048:2353   */\n      swap3\n      swap2\n      pop\n      pop\n      jump\t// out\n        /* \"#utility.yul\":2359:2550   */\n    tag_126:\n        /* \"#utility.yul\":2399:2403   */\n      0x00\n        /* \"#utility.yul\":2419:2439   */\n      tag_175\n        /* \"#utility.yul\":2437:2438   */\n      dup3\n        /* \"#utility.yul\":2419:2439   */\n      tag_157\n      jump\t// in\n    tag_175:\n        /* \"#utility.yul\":2414:2439   */\n      swap2\n      pop\n        /* \"#utility.yul\":2453:2473   */\n      tag_176\n        /* \"#utility.yul\":2471:2472   */\n      dup4\n        /* \"#utility.yul\":2453:2473   */\n      tag_157\n      jump\t// in\n    tag_176:\n        /* \"#utility.yul\":2448:2473   */\n      swap3\n      pop\n        /* \"#utility.yul\":2492:2493   */\n      dup3\n        /* \"#utility.yul\":2489:2490   */\n      dup3\n        /* \"#utility.yul\":2486:2494   */\n      lt\n        /* \"#utility.yul\":2483:2517   */\n      iszero\n      tag_177\n      jumpi\n        /* \"#utility.yul\":2497:2515   */\n      tag_178\n      tag_173\n      jump\t// in\n    tag_178:\n        /* \"#utility.yul\":2483:2517   */\n    tag_177:\n        /* \"#utility.yul\":2542:2543   */\n      dup3\n        /* \"#utility.yul\":2539:2540   */\n      dup3\n        /* \"#utility.yul\":2535:2544   */\n      sub\n        /* \"#utility.yul\":2527:2544   */\n      swap1\n      pop\n        /* \"#utility.yul\":2359:2550   */\n      swap3\n      swap2\n      pop\n      pop\n      jump\t// out\n        /* \"#utility.yul\":2556:2652   */\n    tag_179:\n        /* \"#utility.yul\":2593:2600   */\n      0x00\n        /* \"#utility.yul\":2622:2646   */\n      tag_181\n        /* \"#utility.yul\":2640:2645   */\n      dup3\n        /* \"#utility.yul\":2622:2646   */\n      tag_182\n      jump\t// in\n    tag_181:\n        /* \"#utility.yul\":2611:2646   */\n      swap1\n      pop\n        /* \"#utility.yul\":2556:2652   */\n      swap2\n      swap1\n      pop\n      jump\t// out\n        /* \"#utility.yul\":2658:2762   */\n    tag_145:\n        /* \"#utility.yul\":2703:2710   */\n      0x00\n        /* \"#utility.yul\":2732:2756   */\n      tag_184\n        /* \"#utility.yul\":2750:2755   */\n      dup3\n        /* \"#utility.yul\":2732:2756   */\n      tag_182\n      jump\t// in\n    tag_184:\n        /* \"#utility.yul\":2721:2756   */\n      swap1\n      pop\n        /* \"#utility.yul\":2658:2762   */\n      swap2\n      swap1\n      pop\n      jump\t// out\n        /* \"#utility.yul\":2768:2858   */\n    tag_149:\n        /* \"#utility.yul\":2802:2809   */\n      0x00\n        /* \"#utility.yul\":2845:2850   */\n      dup2\n        /* \"#utility.yul\":2838:2851   */\n      iszero\n        /* \"#utility.yul\":2831:2852   */\n      iszero\n        /* \"#utility.yul\":2820:2852   */\n      swap1\n      pop\n        /* \"#utility.yul\":2768:2858   */\n      swap2\n      swap1\n      pop\n      jump\t// out\n        /* \"#utility.yul\":2864:2991   */\n    tag_186:\n        /* \"#utility.yul\":2909:2916   */\n      0x00\n        /* \"#utility.yul\":2938:2943   */\n      dup2\n        /* \"#utility.yul\":2927:2943   */\n      swap1\n      pop\n        /* \"#utility.yul\":2944:2985   */\n      tag_188\n        /* \"#utility.yul\":2979:2984   */\n      dup3\n        /* \"#utility.yul\":2944:2985   */\n      tag_189\n      jump\t// in\n    tag_188:\n        /* \"#utility.yul\":2864:2991   */\n      swap2\n      swap1\n      pop\n      jump\t// out\n        /* \"#utility.yul\":2997:3123   */\n    tag_182:\n        /* \"#utility.yul\":3034:3041   */\n      0x00\n        /* \"#utility.yul\":3074:3116   */\n      0xffffffffffffffffffffffffffffffffffffffff\n        /* \"#utility.yul\":3067:3072   */\n      dup3\n        /* \"#utility.yul\":3063:3117   */\n      and\n        /* \"#utility.yul\":3052:3117   */\n      swap1\n      pop\n        /* \"#utility.yul\":2997:3123   */\n      swap2\n      swap1\n      pop\n      jump\t// out\n        /* \"#utility.yul\":3129:3206   */\n    tag_157:\n        /* \"#utility.yul\":3166:3173   */\n      0x00\n        /* \"#utility.yul\":3195:3200   */\n      dup2\n        /* \"#utility.yul\":3184:3200   */\n      swap1\n      pop\n        /* \"#utility.yul\":3129:3206   */\n      swap2\n      swap1\n      pop\n      jump\t// out\n        /* \"#utility.yul\":3212:3339   */\n    tag_153:\n        /* \"#utility.yul\":3268:3277   */\n      0x00\n        /* \"#utility.yul\":3301:3333   */\n      tag_193\n        /* \"#utility.yul\":3327:3332   */\n      dup3\n        /* \"#utility.yul\":3301:3333   */\n      tag_186\n      jump\t// in\n    tag_193:\n        /* \"#utility.yul\":3288:3333   */\n      swap1\n      pop\n        /* \"#utility.yul\":3212:3339   */\n      swap2\n      swap1\n      pop\n      jump\t// out\n        /* \"#utility.yul\":3345:3525   */\n    tag_173:\n        /* \"#utility.yul\":3393:3470   */\n      0x4e487b7100000000000000000000000000000000000000000000000000000000\n        /* \"#utility.yul\":3390:3391   */\n      0x00\n        /* \"#utility.yul\":3383:3471   */\n      mstore\n        /* \"#utility.yul\":3490:3494   */\n      0x11\n        /* \"#utility.yul\":3487:3488   */\n      0x04\n        /* \"#utility.yul\":3480:3495   */\n      mstore\n        /* \"#utility.yul\":3514:3518   */\n      0x24\n        /* \"#utility.yul\":3511:3512   */\n      0x00\n        /* \"#utility.yul\":3504:3519   */\n      revert\n        /* \"#utility.yul\":3531:3711   */\n    tag_77:\n        /* \"#utility.yul\":3579:3656   */\n      0x4e487b7100000000000000000000000000000000000000000000000000000000\n        /* \"#utility.yul\":3576:3577   */\n      0x00\n        /* \"#utility.yul\":3569:3657   */\n      mstore\n        /* \"#utility.yul\":3676:3680   */\n      0x21\n        /* \"#utility.yul\":3673:3674   */\n      0x04\n        /* \"#utility.yul\":3666:3681   */\n      mstore\n        /* \"#utility.yul\":3700:3704   */\n      0x24\n        /* \"#utility.yul\":3697:3698   */\n      0x00\n        /* \"#utility.yul\":3690:3705   */\n      revert\n        /* \"#utility.yul\":3840:3957   */\n    tag_140:\n        /* \"#utility.yul\":3949:3950   */\n      0x00\n        /* \"#utility.yul\":3946:3947   */\n      dup1\n        /* \"#utility.yul\":3939:3951   */\n      revert\n        /* \"#utility.yul\":3963:4076   */\n    tag_189:\n        /* \"#utility.yul\":4044:4045   */\n      0x03\n        /* \"#utility.yul\":4037:4042   */\n      dup2\n        /* \"#utility.yul\":4034:4046   */\n      lt\n        /* \"#utility.yul\":4024:4070   */\n      tag_200\n      jumpi\n        /* \"#utility.yul\":4050:4068   */\n      tag_201\n      tag_77\n      jump\t// in\n    tag_201:\n        /* \"#utility.yul\":4024:4070   */\n    tag_200:\n        /* \"#utility.yul\":3963:4076   */\n      pop\n      jump\t// out\n        /* \"#utility.yul\":4082:4204   */\n    tag_136:\n        /* \"#utility.yul\":4155:4179   */\n      tag_203\n        /* \"#utility.yul\":4173:4178   */\n      dup2\n        /* \"#utility.yul\":4155:4179   */\n      tag_179\n      jump\t// in\n    tag_203:\n        /* \"#utility.yul\":4148:4153   */\n      dup2\n        /* \"#utility.yul\":4145:4180   */\n      eq\n        /* \"#utility.yul\":4135:4198   */\n      tag_204\n      jumpi\n        /* \"#utility.yul\":4194:4195   */\n      0x00\n        /* \"#utility.yul\":4191:4192   */\n      dup1\n        /* \"#utility.yul\":4184:4196   */\n      revert\n        /* \"#utility.yul\":4135:4198   */\n    tag_204:\n        /* \"#utility.yul\":4082:4204   */\n      pop\n      jump\t// out\n\n    auxdata: 0xa264697066735822122085cb74820387f1031346fd08be218b1400d9f3da2f415a302e2c21bac7e7cb4f64736f6c63430008070033\n}\n",
				"bytecode": {
					"linkReferences": {},
					"object": "608060405260646004553480156200001657600080fd5b50604051620010a4380380620010a483398181016040528101906200003c919062000151565b806000806101000a81548173ffffffffffffffffffffffffffffffffffffffff021916908373ffffffffffffffffffffffffffffffffffffffff1602179055506200008c6200009360201b60201c565b506200029b565b60008054906101000a900473ffffffffffffffffffffffffffffffffffffffff1673ffffffffffffffffffffffffffffffffffffffff163373ffffffffffffffffffffffffffffffffffffffff1614620000ec57600080fd5b60008060146101000a81548160ff021916908360028111156200011457620001136200024d565b5b021790555043600581905550619d8060055462000132919062000183565b600681905550565b6000815190506200014b8162000281565b92915050565b6000602082840312156200016a57620001696200027c565b5b60006200017a848285016200013a565b91505092915050565b6000620001908262000214565b91506200019d8362000214565b9250827fffffffffffffffffffffffffffffffffffffffffffffffffffffffffffffffff03821115620001d557620001d46200021e565b5b828201905092915050565b6000620001ed82620001f4565b9050919050565b600073ffffffffffffffffffffffffffffffffffffffff82169050919050565b6000819050919050565b7f4e487b7100000000000000000000000000000000000000000000000000000000600052601160045260246000fd5b7f4e487b7100000000000000000000000000000000000000000000000000000000600052602160045260246000fd5b600080fd5b6200028c81620001e0565b81146200029857600080fd5b50565b610df980620002ab6000396000f3fe6080604052600436106100a05760003560e01c80638da5cb5b116100645780638da5cb5b1461020c5780638fa8b7901461023757806391f901571461024e578063ecfc7ecc14610279578063f5b56c5614610283578063f77282ab146102ae5761011e565b8063083c63231461012357806308bfc3001461014e57806348cd4cb11461017957806362ea82db146101a45780638b7b097f146101e15761011e565b3661011e5760008054906101000a900473ffffffffffffffffffffffffffffffffffffffff1673ffffffffffffffffffffffffffffffffffffffff163373ffffffffffffffffffffffffffffffffffffffff1614156100fe57600080fd5b60055443101561010d57600080fd5b60065443111561011c57600080fd5b005b600080fd5b34801561012f57600080fd5b506101386102c5565b6040516101459190610c11565b60405180910390f35b34801561015a57600080fd5b506101636102cb565b6040516101709190610bf6565b60405180910390f35b34801561018557600080fd5b5061018e6102e1565b60405161019b9190610c11565b60405180910390f35b3480156101b057600080fd5b506101cb60048036038101906101c69190610b57565b6102e7565b6040516101d89190610c11565b60405180910390f35b3480156101ed57600080fd5b506101f66102ff565b6040516102039190610bdb565b60405180910390f35b34801561021857600080fd5b50610221610312565b60405161022e9190610bc0565b60405180910390f35b34801561024357600080fd5b5061024c610336565b005b34801561025a57600080fd5b506102636103bb565b6040516102709190610bc0565b60405180910390f35b6102816103e1565b005b34801561028f57600080fd5b506102986106ee565b6040516102a59190610c11565b60405180910390f35b3480156102ba57600080fd5b506102c36106f4565b005b60065481565b60008060149054906101000a900460ff16905090565b60055481565b60036020528060005260406000206000915090505481565b600060159054906101000a900460ff1681565b60008054906101000a900473ffffffffffffffffffffffffffffffffffffffff1681565b60008054906101000a900473ffffffffffffffffffffffffffffffffffffffff1673ffffffffffffffffffffffffffffffffffffffff163373ffffffffffffffffffffffffffffffffffffffff161461038e57600080fd5b6002600060146101000a81548160ff021916908360028111156103b4576103b3610d64565b5b0217905550565b600260009054906101000a900473ffffffffffffffffffffffffffffffffffffffff1681565b60008054906101000a900473ffffffffffffffffffffffffffffffffffffffff1673ffffffffffffffffffffffffffffffffffffffff163373ffffffffffffffffffffffffffffffffffffffff16141561043a57600080fd5b60055443101561044957600080fd5b60065443111561045857600080fd5b6000600281111561046c5761046b610d64565b5b6104746102cb565b600281111561048657610485610d64565b5b1461049057600080fd5b60045434101561049f57600080fd5b600034600360003373ffffffffffffffffffffffffffffffffffffffff1673ffffffffffffffffffffffffffffffffffffffff168152602001908152602001600020546104ec9190610c2c565b905060015481116104fc57600080fd5b80600360003373ffffffffffffffffffffffffffffffffffffffff1673ffffffffffffffffffffffffffffffffffffffff1681526020019081526020016000208190555060036000600260009054906101000a900473ffffffffffffffffffffffffffffffffffffffff1673ffffffffffffffffffffffffffffffffffffffff1673ffffffffffffffffffffffffffffffffffffffff16815260200190815260200160002054811161062b57610620600454826105b99190610c2c565b60036000600260009054906101000a900473ffffffffffffffffffffffffffffffffffffffff1673ffffffffffffffffffffffffffffffffffffffff1673ffffffffffffffffffffffffffffffffffffffff16815260200190815260200160002054610b27565b6001819055506106eb565b6106a38160045460036000600260009054906101000a900473ffffffffffffffffffffffffffffffffffffffff1673ffffffffffffffffffffffffffffffffffffffff1673ffffffffffffffffffffffffffffffffffffffff1681526020019081526020016000205461069e9190610c2c565b610b27565b60018190555033600260006101000a81548173ffffffffffffffffffffffffffffffffffffffff021916908373ffffffffffffffffffffffffffffffffffffffff1602179055505b50565b60015481565b60055443101561070357600080fd5b60028081111561071657610715610d64565b5b600060149054906101000a900460ff16600281111561073857610737610d64565b5b1480610745575060065443115b61074e57600080fd5b60008054906101000a900473ffffffffffffffffffffffffffffffffffffffff1673ffffffffffffffffffffffffffffffffffffffff163373ffffffffffffffffffffffffffffffffffffffff1614806107e757506000600360003373ffffffffffffffffffffffffffffffffffffffff1673ffffffffffffffffffffffffffffffffffffffff16815260200190815260200160002054115b6107f057600080fd5b6001600060146101000a81548160ff0219169083600281111561081657610815610d64565b5b021790555060008060028081111561083157610830610d64565b5b600060149054906101000a900460ff16600281111561085357610852610d64565b5b14156108a357339150600360003373ffffffffffffffffffffffffffffffffffffffff1673ffffffffffffffffffffffffffffffffffffffff168152602001908152602001600020549050610a97565b60008054906101000a900473ffffffffffffffffffffffffffffffffffffffff1673ffffffffffffffffffffffffffffffffffffffff163373ffffffffffffffffffffffffffffffffffffffff16148015610911575060001515600060159054906101000a900460ff161515145b1561095e5760008054906101000a900473ffffffffffffffffffffffffffffffffffffffff16915060015490506001600060156101000a81548160ff021916908315150217905550610a96565b600260009054906101000a900473ffffffffffffffffffffffffffffffffffffffff1673ffffffffffffffffffffffffffffffffffffffff163373ffffffffffffffffffffffffffffffffffffffff161415610a4f57600260009054906101000a900473ffffffffffffffffffffffffffffffffffffffff16915060015460036000600260009054906101000a900473ffffffffffffffffffffffffffffffffffffffff1673ffffffffffffffffffffffffffffffffffffffff1673ffffffffffffffffffffffffffffffffffffffff16815260200190815260200160002054610a489190610c82565b9050610a95565b339150600360003373ffffffffffffffffffffffffffffffffffffffff1673ffffffffffffffffffffffffffffffffffffffff1681526020019081526020016000205490505b5b5b6000600360008473ffffffffffffffffffffffffffffffffffffffff1673ffffffffffffffffffffffffffffffffffffffff168152602001908152602001600020819055508173ffffffffffffffffffffffffffffffffffffffff166108fc829081150290604051600060405180830381858888f19350505050158015610b22573d6000803e3d6000fd5b505050565b6000818311610b3857829050610b3c565b8190505b92915050565b600081359050610b5181610dac565b92915050565b600060208284031215610b6d57610b6c610d93565b5b6000610b7b84828501610b42565b91505092915050565b610b8d81610cc8565b82525050565b610b9c81610cda565b82525050565b610bab81610d23565b82525050565b610bba81610d19565b82525050565b6000602082019050610bd56000830184610b84565b92915050565b6000602082019050610bf06000830184610b93565b92915050565b6000602082019050610c0b6000830184610ba2565b92915050565b6000602082019050610c266000830184610bb1565b92915050565b6000610c3782610d19565b9150610c4283610d19565b9250827fffffffffffffffffffffffffffffffffffffffffffffffffffffffffffffffff03821115610c7757610c76610d35565b5b828201905092915050565b6000610c8d82610d19565b9150610c9883610d19565b925082821015610cab57610caa610d35565b5b828203905092915050565b6000610cc182610cf9565b9050919050565b6000610cd382610cf9565b9050919050565b60008115159050919050565b6000819050610cf482610d98565b919050565b600073ffffffffffffffffffffffffffffffffffffffff82169050919050565b6000819050919050565b6000610d2e82610ce6565b9050919050565b7f4e487b7100000000000000000000000000000000000000000000000000000000600052601160045260246000fd5b7f4e487b7100000000000000000000000000000000000000000000000000000000600052602160045260246000fd5b600080fd5b60038110610da957610da8610d64565b5b50565b610db581610cb6565b8114610dc057600080fd5b5056fea264697066735822122085cb74820387f1031346fd08be218b1400d9f3da2f415a302e2c21bac7e7cb4f64736f6c63430008070033",
					"opcodes": "PUSH1 0x80 PUSH1 0x40 MSTORE PUSH1 0x64 PUSH1 0x4 SSTORE CALLVALUE DUP1 ISZERO PUSH3 0x16 JUMPI PUSH1 0x0 DUP1 REVERT JUMPDEST POP PUSH1 0x40 MLOAD PUSH3 0x10A4 CODESIZE SUB DUP1 PUSH3 0x10A4 DUP4 CODECOPY DUP2 DUP2 ADD PUSH1 0x40 MSTORE DUP2 ADD SWAP1 PUSH3 0x3C SWAP2 SWAP1 PUSH3 0x151 JUMP JUMPDEST DUP1 PUSH1 0x0 DUP1 PUSH2 0x100 EXP DUP2 SLOAD DUP2 PUSH20 0xFFFFFFFFFFFFFFFFFFFFFFFFFFFFFFFFFFFFFFFF MUL NOT AND SWAP1 DUP4 PUSH20 0xFFFFFFFFFFFFFFFFFFFFFFFFFFFFFFFFFFFFFFFF AND MUL OR SWAP1 SSTORE POP PUSH3 0x8C PUSH3 0x93 PUSH1 0x20 SHL PUSH1 0x20 SHR JUMP JUMPDEST POP PUSH3 0x29B JUMP JUMPDEST PUSH1 0x0 DUP1 SLOAD SWAP1 PUSH2 0x100 EXP SWAP1 DIV PUSH20 0xFFFFFFFFFFFFFFFFFFFFFFFFFFFFFFFFFFFFFFFF AND PUSH20 0xFFFFFFFFFFFFFFFFFFFFFFFFFFFFFFFFFFFFFFFF AND CALLER PUSH20 0xFFFFFFFFFFFFFFFFFFFFFFFFFFFFFFFFFFFFFFFF AND EQ PUSH3 0xEC JUMPI PUSH1 0x0 DUP1 REVERT JUMPDEST PUSH1 0x0 DUP1 PUSH1 0x14 PUSH2 0x100 EXP DUP2 SLOAD DUP2 PUSH1 0xFF MUL NOT AND SWAP1 DUP4 PUSH1 0x2 DUP2 GT ISZERO PUSH3 0x114 JUMPI PUSH3 0x113 PUSH3 0x24D JUMP JUMPDEST JUMPDEST MUL OR SWAP1 SSTORE POP NUMBER PUSH1 0x5 DUP2 SWAP1 SSTORE POP PUSH2 0x9D80 PUSH1 0x5 SLOAD PUSH3 0x132 SWAP2 SWAP1 PUSH3 0x183 JUMP JUMPDEST PUSH1 0x6 DUP2 SWAP1 SSTORE POP JUMP JUMPDEST PUSH1 0x0 DUP2 MLOAD SWAP1 POP PUSH3 0x14B DUP2 PUSH3 0x281 JUMP JUMPDEST SWAP3 SWAP2 POP POP JUMP JUMPDEST PUSH1 0x0 PUSH1 0x20 DUP3 DUP5 SUB SLT ISZERO PUSH3 0x16A JUMPI PUSH3 0x169 PUSH3 0x27C JUMP JUMPDEST JUMPDEST PUSH1 0x0 PUSH3 0x17A DUP5 DUP3 DUP6 ADD PUSH3 0x13A JUMP JUMPDEST SWAP2 POP POP SWAP3 SWAP2 POP POP JUMP JUMPDEST PUSH1 0x0 PUSH3 0x190 DUP3 PUSH3 0x214 JUMP JUMPDEST SWAP2 POP PUSH3 0x19D DUP4 PUSH3 0x214 JUMP JUMPDEST SWAP3 POP DUP3 PUSH32 0xFFFFFFFFFFFFFFFFFFFFFFFFFFFFFFFFFFFFFFFFFFFFFFFFFFFFFFFFFFFFFFFF SUB DUP3 GT ISZERO PUSH3 0x1D5 JUMPI PUSH3 0x1D4 PUSH3 0x21E JUMP JUMPDEST JUMPDEST DUP3 DUP3 ADD SWAP1 POP SWAP3 SWAP2 POP POP JUMP JUMPDEST PUSH1 0x0 PUSH3 0x1ED DUP3 PUSH3 0x1F4 JUMP JUMPDEST SWAP1 POP SWAP2 SWAP1 POP JUMP JUMPDEST PUSH1 0x0 PUSH20 0xFFFFFFFFFFFFFFFFFFFFFFFFFFFFFFFFFFFFFFFF DUP3 AND SWAP1 POP SWAP2 SWAP1 POP JUMP JUMPDEST PUSH1 0x0 DUP2 SWAP1 POP SWAP2 SWAP1 POP JUMP JUMPDEST PUSH32 0x4E487B7100000000000000000000000000000000000000000000000000000000 PUSH1 0x0 MSTORE PUSH1 0x11 PUSH1 0x4 MSTORE PUSH1 0x24 PUSH1 0x0 REVERT JUMPDEST PUSH32 0x4E487B7100000000000000000000000000000000000000000000000000000000 PUSH1 0x0 MSTORE PUSH1 0x21 PUSH1 0x4 MSTORE PUSH1 0x24 PUSH1 0x0 REVERT JUMPDEST PUSH1 0x0 DUP1 REVERT JUMPDEST PUSH3 0x28C DUP2 PUSH3 0x1E0 JUMP JUMPDEST DUP2 EQ PUSH3 0x298 JUMPI PUSH1 0x0 DUP1 REVERT JUMPDEST POP JUMP JUMPDEST PUSH2 0xDF9 DUP1 PUSH3 0x2AB PUSH1 0x0 CODECOPY PUSH1 0x0 RETURN INVALID PUSH1 0x80 PUSH1 0x40 MSTORE PUSH1 0x4 CALLDATASIZE LT PUSH2 0xA0 JUMPI PUSH1 0x0 CALLDATALOAD PUSH1 0xE0 SHR DUP1 PUSH4 0x8DA5CB5B GT PUSH2 0x64 JUMPI DUP1 PUSH4 0x8DA5CB5B EQ PUSH2 0x20C JUMPI DUP1 PUSH4 0x8FA8B790 EQ PUSH2 0x237 JUMPI DUP1 PUSH4 0x91F90157 EQ PUSH2 0x24E JUMPI DUP1 PUSH4 0xECFC7ECC EQ PUSH2 0x279 JUMPI DUP1 PUSH4 0xF5B56C56 EQ PUSH2 0x283 JUMPI DUP1 PUSH4 0xF77282AB EQ PUSH2 0x2AE JUMPI PUSH2 0x11E JUMP JUMPDEST DUP1 PUSH4 0x83C6323 EQ PUSH2 0x123 JUMPI DUP1 PUSH4 0x8BFC300 EQ PUSH2 0x14E JUMPI DUP1 PUSH4 0x48CD4CB1 EQ PUSH2 0x179 JUMPI DUP1 PUSH4 0x62EA82DB EQ PUSH2 0x1A4 JUMPI DUP1 PUSH4 0x8B7B097F EQ PUSH2 0x1E1 JUMPI PUSH2 0x11E JUMP JUMPDEST CALLDATASIZE PUSH2 0x11E JUMPI PUSH1 0x0 DUP1 SLOAD SWAP1 PUSH2 0x100 EXP SWAP1 DIV PUSH20 0xFFFFFFFFFFFFFFFFFFFFFFFFFFFFFFFFFFFFFFFF AND PUSH20 0xFFFFFFFFFFFFFFFFFFFFFFFFFFFFFFFFFFFFFFFF AND CALLER PUSH20 0xFFFFFFFFFFFFFFFFFFFFFFFFFFFFFFFFFFFFFFFF AND EQ ISZERO PUSH2 0xFE JUMPI PUSH1 0x0 DUP1 REVERT JUMPDEST PUSH1 0x5 SLOAD NUMBER LT ISZERO PUSH2 0x10D JUMPI PUSH1 0x0 DUP1 REVERT JUMPDEST PUSH1 0x6 SLOAD NUMBER GT ISZERO PUSH2 0x11C JUMPI PUSH1 0x0 DUP1 REVERT JUMPDEST STOP JUMPDEST PUSH1 0x0 DUP1 REVERT JUMPDEST CALLVALUE DUP1 ISZERO PUSH2 0x12F JUMPI PUSH1 0x0 DUP1 REVERT JUMPDEST POP PUSH2 0x138 PUSH2 0x2C5 JUMP JUMPDEST PUSH1 0x40 MLOAD PUSH2 0x145 SWAP2 SWAP1 PUSH2 0xC11 JUMP JUMPDEST PUSH1 0x40 MLOAD DUP1 SWAP2 SUB SWAP1 RETURN JUMPDEST CALLVALUE DUP1 ISZERO PUSH2 0x15A JUMPI PUSH1 0x0 DUP1 REVERT JUMPDEST POP PUSH2 0x163 PUSH2 0x2CB JUMP JUMPDEST PUSH1 0x40 MLOAD PUSH2 0x170 SWAP2 SWAP1 PUSH2 0xBF6 JUMP JUMPDEST PUSH1 0x40 MLOAD DUP1 SWAP2 SUB SWAP1 RETURN JUMPDEST CALLVALUE DUP1 ISZERO PUSH2 0x185 JUMPI PUSH1 0x0 DUP1 REVERT JUMPDEST POP PUSH2 0x18E PUSH2 0x2E1 JUMP JUMPDEST PUSH1 0x40 MLOAD PUSH2 0x19B SWAP2 SWAP1 PUSH2 0xC11 JUMP JUMPDEST PUSH1 0x40 MLOAD DUP1 SWAP2 SUB SWAP1 RETURN JUMPDEST CALLVALUE DUP1 ISZERO PUSH2 0x1B0 JUMPI PUSH1 0x0 DUP1 REVERT JUMPDEST POP PUSH2 0x1CB PUSH1 0x4 DUP1 CALLDATASIZE SUB DUP2 ADD SWAP1 PUSH2 0x1C6 SWAP2 SWAP1 PUSH2 0xB57 JUMP JUMPDEST PUSH2 0x2E7 JUMP JUMPDEST PUSH1 0x40 MLOAD PUSH2 0x1D8 SWAP2 SWAP1 PUSH2 0xC11 JUMP JUMPDEST PUSH1 0x40 MLOAD DUP1 SWAP2 SUB SWAP1 RETURN JUMPDEST CALLVALUE DUP1 ISZERO PUSH2 0x1ED JUMPI PUSH1 0x0 DUP1 REVERT JUMPDEST POP PUSH2 0x1F6 PUSH2 0x2FF JUMP JUMPDEST PUSH1 0x40 MLOAD PUSH2 0x203 SWAP2 SWAP1 PUSH2 0xBDB JUMP JUMPDEST PUSH1 0x40 MLOAD DUP1 SWAP2 SUB SWAP1 RETURN JUMPDEST CALLVALUE DUP1 ISZERO PUSH2 0x218 JUMPI PUSH1 0x0 DUP1 REVERT JUMPDEST POP PUSH2 0x221 PUSH2 0x312 JUMP JUMPDEST PUSH1 0x40 MLOAD PUSH2 0x22E SWAP2 SWAP1 PUSH2 0xBC0 JUMP JUMPDEST PUSH1 0x40 MLOAD DUP1 SWAP2 SUB SWAP1 RETURN JUMPDEST CALLVALUE DUP1 ISZERO PUSH2 0x243 JUMPI PUSH1 0x0 DUP1 REVERT JUMPDEST POP PUSH2 0x24C PUSH2 0x336 JUMP JUMPDEST STOP JUMPDEST CALLVALUE DUP1 ISZERO PUSH2 0x25A JUMPI PUSH1 0x0 DUP1 REVERT JUMPDEST POP PUSH2 0x263 PUSH2 0x3BB JUMP JUMPDEST PUSH1 0x40 MLOAD PUSH2 0x270 SWAP2 SWAP1 PUSH2 0xBC0 JUMP JUMPDEST PUSH1 0x40 MLOAD DUP1 SWAP2 SUB SWAP1 RETURN JUMPDEST PUSH2 0x281 PUSH2 0x3E1 JUMP JUMPDEST STOP JUMPDEST CALLVALUE DUP1 ISZERO PUSH2 0x28F JUMPI PUSH1 0x0 DUP1 REVERT JUMPDEST POP PUSH2 0x298 PUSH2 0x6EE JUMP JUMPDEST PUSH1 0x40 MLOAD PUSH2 0x2A5 SWAP2 SWAP1 PUSH2 0xC11 JUMP JUMPDEST PUSH1 0x40 MLOAD DUP1 SWAP2 SUB SWAP1 RETURN JUMPDEST CALLVALUE DUP1 ISZERO PUSH2 0x2BA JUMPI PUSH1 0x0 DUP1 REVERT JUMPDEST POP PUSH2 0x2C3 PUSH2 0x6F4 JUMP JUMPDEST STOP JUMPDEST PUSH1 0x6 SLOAD DUP2 JUMP JUMPDEST PUSH1 0x0 DUP1 PUSH1 0x14 SWAP1 SLOAD SWAP1 PUSH2 0x100 EXP SWAP1 DIV PUSH1 0xFF AND SWAP1 POP SWAP1 JUMP JUMPDEST PUSH1 0x5 SLOAD DUP2 JUMP JUMPDEST PUSH1 0x3 PUSH1 0x20 MSTORE DUP1 PUSH1 0x0 MSTORE PUSH1 0x40 PUSH1 0x0 KECCAK256 PUSH1 0x0 SWAP2 POP SWAP1 POP SLOAD DUP2 JUMP JUMPDEST PUSH1 0x0 PUSH1 0x15 SWAP1 SLOAD SWAP1 PUSH2 0x100 EXP SWAP1 DIV PUSH1 0xFF AND DUP2 JUMP JUMPDEST PUSH1 0x0 DUP1 SLOAD SWAP1 PUSH2 0x100 EXP SWAP1 DIV PUSH20 0xFFFFFFFFFFFFFFFFFFFFFFFFFFFFFFFFFFFFFFFF AND DUP2 JUMP JUMPDEST PUSH1 0x0 DUP1 SLOAD SWAP1 PUSH2 0x100 EXP SWAP1 DIV PUSH20 0xFFFFFFFFFFFFFFFFFFFFFFFFFFFFFFFFFFFFFFFF AND PUSH20 0xFFFFFFFFFFFFFFFFFFFFFFFFFFFFFFFFFFFFFFFF AND CALLER PUSH20 0xFFFFFFFFFFFFFFFFFFFFFFFFFFFFFFFFFFFFFFFF AND EQ PUSH2 0x38E JUMPI PUSH1 0x0 DUP1 REVERT JUMPDEST PUSH1 0x2 PUSH1 0x0 PUSH1 0x14 PUSH2 0x100 EXP DUP2 SLOAD DUP2 PUSH1 0xFF MUL NOT AND SWAP1 DUP4 PUSH1 0x2 DUP2 GT ISZERO PUSH2 0x3B4 JUMPI PUSH2 0x3B3 PUSH2 0xD64 JUMP JUMPDEST JUMPDEST MUL OR SWAP1 SSTORE POP JUMP JUMPDEST PUSH1 0x2 PUSH1 0x0 SWAP1 SLOAD SWAP1 PUSH2 0x100 EXP SWAP1 DIV PUSH20 0xFFFFFFFFFFFFFFFFFFFFFFFFFFFFFFFFFFFFFFFF AND DUP2 JUMP JUMPDEST PUSH1 0x0 DUP1 SLOAD SWAP1 PUSH2 0x100 EXP SWAP1 DIV PUSH20 0xFFFFFFFFFFFFFFFFFFFFFFFFFFFFFFFFFFFFFFFF AND PUSH20 0xFFFFFFFFFFFFFFFFFFFFFFFFFFFFFFFFFFFFFFFF AND CALLER PUSH20 0xFFFFFFFFFFFFFFFFFFFFFFFFFFFFFFFFFFFFFFFF AND EQ ISZERO PUSH2 0x43A JUMPI PUSH1 0x0 DUP1 REVERT JUMPDEST PUSH1 0x5 SLOAD NUMBER LT ISZERO PUSH2 0x449 JUMPI PUSH1 0x0 DUP1 REVERT JUMPDEST PUSH1 0x6 SLOAD NUMBER GT ISZERO PUSH2 0x458 JUMPI PUSH1 0x0 DUP1 REVERT JUMPDEST PUSH1 0x0 PUSH1 0x2 DUP2 GT ISZERO PUSH2 0x46C JUMPI PUSH2 0x46B PUSH2 0xD64 JUMP JUMPDEST JUMPDEST PUSH2 0x474 PUSH2 0x2CB JUMP JUMPDEST PUSH1 0x2 DUP2 GT ISZERO PUSH2 0x486 JUMPI PUSH2 0x485 PUSH2 0xD64 JUMP JUMPDEST JUMPDEST EQ PUSH2 0x490 JUMPI PUSH1 0x0 DUP1 REVERT JUMPDEST PUSH1 0x4 SLOAD CALLVALUE LT ISZERO PUSH2 0x49F JUMPI PUSH1 0x0 DUP1 REVERT JUMPDEST PUSH1 0x0 CALLVALUE PUSH1 0x3 PUSH1 0x0 CALLER PUSH20 0xFFFFFFFFFFFFFFFFFFFFFFFFFFFFFFFFFFFFFFFF AND PUSH20 0xFFFFFFFFFFFFFFFFFFFFFFFFFFFFFFFFFFFFFFFF AND DUP2 MSTORE PUSH1 0x20 ADD SWAP1 DUP2 MSTORE PUSH1 0x20 ADD PUSH1 0x0 KECCAK256 SLOAD PUSH2 0x4EC SWAP2 SWAP1 PUSH2 0xC2C JUMP JUMPDEST SWAP1 POP PUSH1 0x1 SLOAD DUP2 GT PUSH2 0x4FC JUMPI PUSH1 0x0 DUP1 REVERT JUMPDEST DUP1 PUSH1 0x3 PUSH1 0x0 CALLER PUSH20 0xFFFFFFFFFFFFFFFFFFFFFFFFFFFFFFFFFFFFFFFF AND PUSH20 0xFFFFFFFFFFFFFFFFFFFFFFFFFFFFFFFFFFFFFFFF AND DUP2 MSTORE PUSH1 0x20 ADD SWAP1 DUP2 MSTORE PUSH1 0x20 ADD PUSH1 0x0 KECCAK256 DUP2 SWAP1 SSTORE POP PUSH1 0x3 PUSH1 0x0 PUSH1 0x2 PUSH1 0x0 SWAP1 SLOAD SWAP1 PUSH2 0x100 EXP SWAP1 DIV PUSH20 0xFFFFFFFFFFFFFFFFFFFFFFFFFFFFFFFFFFFFFFFF AND PUSH20 0xFFFFFFFFFFFFFFFFFFFFFFFFFFFFFFFFFFFFFFFF AND PUSH20 0xFFFFFFFFFFFFFFFFFFFFFFFFFFFFFFFFFFFFFFFF AND DUP2 MSTORE PUSH1 0x20 ADD SWAP1 DUP2 MSTORE PUSH1 0x20 ADD PUSH1 0x0 KECCAK256 SLOAD DUP2 GT PUSH2 0x62B JUMPI PUSH2 0x620 PUSH1 0x4 SLOAD DUP3 PUSH2 0x5B9 SWAP2 SWAP1 PUSH2 0xC2C JUMP JUMPDEST PUSH1 0x3 PUSH1 0x0 PUSH1 0x2 PUSH1 0x0 SWAP1 SLOAD SWAP1 PUSH2 0x100 EXP SWAP1 DIV PUSH20 0xFFFFFFFFFFFFFFFFFFFFFFFFFFFFFFFFFFFFFFFF AND PUSH20 0xFFFFFFFFFFFFFFFFFFFFFFFFFFFFFFFFFFFFFFFF AND PUSH20 0xFFFFFFFFFFFFFFFFFFFFFFFFFFFFFFFFFFFFFFFF AND DUP2 MSTORE PUSH1 0x20 ADD SWAP1 DUP2 MSTORE PUSH1 0x20 ADD PUSH1 0x0 KECCAK256 SLOAD PUSH2 0xB27 JUMP JUMPDEST PUSH1 0x1 DUP2 SWAP1 SSTORE POP PUSH2 0x6EB JUMP JUMPDEST PUSH2 0x6A3 DUP2 PUSH1 0x4 SLOAD PUSH1 0x3 PUSH1 0x0 PUSH1 0x2 PUSH1 0x0 SWAP1 SLOAD SWAP1 PUSH2 0x100 EXP SWAP1 DIV PUSH20 0xFFFFFFFFFFFFFFFFFFFFFFFFFFFFFFFFFFFFFFFF AND PUSH20 0xFFFFFFFFFFFFFFFFFFFFFFFFFFFFFFFFFFFFFFFF AND PUSH20 0xFFFFFFFFFFFFFFFFFFFFFFFFFFFFFFFFFFFFFFFF AND DUP2 MSTORE PUSH1 0x20 ADD SWAP1 DUP2 MSTORE PUSH1 0x20 ADD PUSH1 0x0 KECCAK256 SLOAD PUSH2 0x69E SWAP2 SWAP1 PUSH2 0xC2C JUMP JUMPDEST PUSH2 0xB27 JUMP JUMPDEST PUSH1 0x1 DUP2 SWAP1 SSTORE POP CALLER PUSH1 0x2 PUSH1 0x0 PUSH2 0x100 EXP DUP2 SLOAD DUP2 PUSH20 0xFFFFFFFFFFFFFFFFFFFFFFFFFFFFFFFFFFFFFFFF MUL NOT AND SWAP1 DUP4 PUSH20 0xFFFFFFFFFFFFFFFFFFFFFFFFFFFFFFFFFFFFFFFF AND MUL OR SWAP1 SSTORE POP JUMPDEST POP JUMP JUMPDEST PUSH1 0x1 SLOAD DUP2 JUMP JUMPDEST PUSH1 0x5 SLOAD NUMBER LT ISZERO PUSH2 0x703 JUMPI PUSH1 0x0 DUP1 REVERT JUMPDEST PUSH1 0x2 DUP1 DUP2 GT ISZERO PUSH2 0x716 JUMPI PUSH2 0x715 PUSH2 0xD64 JUMP JUMPDEST JUMPDEST PUSH1 0x0 PUSH1 0x14 SWAP1 SLOAD SWAP1 PUSH2 0x100 EXP SWAP1 DIV PUSH1 0xFF AND PUSH1 0x2 DUP2 GT ISZERO PUSH2 0x738 JUMPI PUSH2 0x737 PUSH2 0xD64 JUMP JUMPDEST JUMPDEST EQ DUP1 PUSH2 0x745 JUMPI POP PUSH1 0x6 SLOAD NUMBER GT JUMPDEST PUSH2 0x74E JUMPI PUSH1 0x0 DUP1 REVERT JUMPDEST PUSH1 0x0 DUP1 SLOAD SWAP1 PUSH2 0x100 EXP SWAP1 DIV PUSH20 0xFFFFFFFFFFFFFFFFFFFFFFFFFFFFFFFFFFFFFFFF AND PUSH20 0xFFFFFFFFFFFFFFFFFFFFFFFFFFFFFFFFFFFFFFFF AND CALLER PUSH20 0xFFFFFFFFFFFFFFFFFFFFFFFFFFFFFFFFFFFFFFFF AND EQ DUP1 PUSH2 0x7E7 JUMPI POP PUSH1 0x0 PUSH1 0x3 PUSH1 0x0 CALLER PUSH20 0xFFFFFFFFFFFFFFFFFFFFFFFFFFFFFFFFFFFFFFFF AND PUSH20 0xFFFFFFFFFFFFFFFFFFFFFFFFFFFFFFFFFFFFFFFF AND DUP2 MSTORE PUSH1 0x20 ADD SWAP1 DUP2 MSTORE PUSH1 0x20 ADD PUSH1 0x0 KECCAK256 SLOAD GT JUMPDEST PUSH2 0x7F0 JUMPI PUSH1 0x0 DUP1 REVERT JUMPDEST PUSH1 0x1 PUSH1 0x0 PUSH1 0x14 PUSH2 0x100 EXP DUP2 SLOAD DUP2 PUSH1 0xFF MUL NOT AND SWAP1 DUP4 PUSH1 0x2 DUP2 GT ISZERO PUSH2 0x816 JUMPI PUSH2 0x815 PUSH2 0xD64 JUMP JUMPDEST JUMPDEST MUL OR SWAP1 SSTORE POP PUSH1 0x0 DUP1 PUSH1 0x2 DUP1 DUP2 GT ISZERO PUSH2 0x831 JUMPI PUSH2 0x830 PUSH2 0xD64 JUMP JUMPDEST JUMPDEST PUSH1 0x0 PUSH1 0x14 SWAP1 SLOAD SWAP1 PUSH2 0x100 EXP SWAP1 DIV PUSH1 0xFF AND PUSH1 0x2 DUP2 GT ISZERO PUSH2 0x853 JUMPI PUSH2 0x852 PUSH2 0xD64 JUMP JUMPDEST JUMPDEST EQ ISZERO PUSH2 0x8A3 JUMPI CALLER SWAP2 POP PUSH1 0x3 PUSH1 0x0 CALLER PUSH20 0xFFFFFFFFFFFFFFFFFFFFFFFFFFFFFFFFFFFFFFFF AND PUSH20 0xFFFFFFFFFFFFFFFFFFFFFFFFFFFFFFFFFFFFFFFF AND DUP2 MSTORE PUSH1 0x20 ADD SWAP1 DUP2 MSTORE PUSH1 0x20 ADD PUSH1 0x0 KECCAK256 SLOAD SWAP1 POP PUSH2 0xA97 JUMP JUMPDEST PUSH1 0x0 DUP1 SLOAD SWAP1 PUSH2 0x100 EXP SWAP1 DIV PUSH20 0xFFFFFFFFFFFFFFFFFFFFFFFFFFFFFFFFFFFFFFFF AND PUSH20 0xFFFFFFFFFFFFFFFFFFFFFFFFFFFFFFFFFFFFFFFF AND CALLER PUSH20 0xFFFFFFFFFFFFFFFFFFFFFFFFFFFFFFFFFFFFFFFF AND EQ DUP1 ISZERO PUSH2 0x911 JUMPI POP PUSH1 0x0 ISZERO ISZERO PUSH1 0x0 PUSH1 0x15 SWAP1 SLOAD SWAP1 PUSH2 0x100 EXP SWAP1 DIV PUSH1 0xFF AND ISZERO ISZERO EQ JUMPDEST ISZERO PUSH2 0x95E JUMPI PUSH1 0x0 DUP1 SLOAD SWAP1 PUSH2 0x100 EXP SWAP1 DIV PUSH20 0xFFFFFFFFFFFFFFFFFFFFFFFFFFFFFFFFFFFFFFFF AND SWAP2 POP PUSH1 0x1 SLOAD SWAP1 POP PUSH1 0x1 PUSH1 0x0 PUSH1 0x15 PUSH2 0x100 EXP DUP2 SLOAD DUP2 PUSH1 0xFF MUL NOT AND SWAP1 DUP4 ISZERO ISZERO MUL OR SWAP1 SSTORE POP PUSH2 0xA96 JUMP JUMPDEST PUSH1 0x2 PUSH1 0x0 SWAP1 SLOAD SWAP1 PUSH2 0x100 EXP SWAP1 DIV PUSH20 0xFFFFFFFFFFFFFFFFFFFFFFFFFFFFFFFFFFFFFFFF AND PUSH20 0xFFFFFFFFFFFFFFFFFFFFFFFFFFFFFFFFFFFFFFFF AND CALLER PUSH20 0xFFFFFFFFFFFFFFFFFFFFFFFFFFFFFFFFFFFFFFFF AND EQ ISZERO PUSH2 0xA4F JUMPI PUSH1 0x2 PUSH1 0x0 SWAP1 SLOAD SWAP1 PUSH2 0x100 EXP SWAP1 DIV PUSH20 0xFFFFFFFFFFFFFFFFFFFFFFFFFFFFFFFFFFFFFFFF AND SWAP2 POP PUSH1 0x1 SLOAD PUSH1 0x3 PUSH1 0x0 PUSH1 0x2 PUSH1 0x0 SWAP1 SLOAD SWAP1 PUSH2 0x100 EXP SWAP1 DIV PUSH20 0xFFFFFFFFFFFFFFFFFFFFFFFFFFFFFFFFFFFFFFFF AND PUSH20 0xFFFFFFFFFFFFFFFFFFFFFFFFFFFFFFFFFFFFFFFF AND PUSH20 0xFFFFFFFFFFFFFFFFFFFFFFFFFFFFFFFFFFFFFFFF AND DUP2 MSTORE PUSH1 0x20 ADD SWAP1 DUP2 MSTORE PUSH1 0x20 ADD PUSH1 0x0 KECCAK256 SLOAD PUSH2 0xA48 SWAP2 SWAP1 PUSH2 0xC82 JUMP JUMPDEST SWAP1 POP PUSH2 0xA95 JUMP JUMPDEST CALLER SWAP2 POP PUSH1 0x3 PUSH1 0x0 CALLER PUSH20 0xFFFFFFFFFFFFFFFFFFFFFFFFFFFFFFFFFFFFFFFF AND PUSH20 0xFFFFFFFFFFFFFFFFFFFFFFFFFFFFFFFFFFFFFFFF AND DUP2 MSTORE PUSH1 0x20 ADD SWAP1 DUP2 MSTORE PUSH1 0x20 ADD PUSH1 0x0 KECCAK256 SLOAD SWAP1 POP JUMPDEST JUMPDEST JUMPDEST PUSH1 0x0 PUSH1 0x3 PUSH1 0x0 DUP5 PUSH20 0xFFFFFFFFFFFFFFFFFFFFFFFFFFFFFFFFFFFFFFFF AND PUSH20 0xFFFFFFFFFFFFFFFFFFFFFFFFFFFFFFFFFFFFFFFF AND DUP2 MSTORE PUSH1 0x20 ADD SWAP1 DUP2 MSTORE PUSH1 0x20 ADD PUSH1 0x0 KECCAK256 DUP2 SWAP1 SSTORE POP DUP2 PUSH20 0xFFFFFFFFFFFFFFFFFFFFFFFFFFFFFFFFFFFFFFFF AND PUSH2 0x8FC DUP3 SWAP1 DUP2 ISZERO MUL SWAP1 PUSH1 0x40 MLOAD PUSH1 0x0 PUSH1 0x40 MLOAD DUP1 DUP4 SUB DUP2 DUP6 DUP9 DUP9 CALL SWAP4 POP POP POP POP ISZERO DUP1 ISZERO PUSH2 0xB22 JUMPI RETURNDATASIZE PUSH1 0x0 DUP1 RETURNDATACOPY RETURNDATASIZE PUSH1 0x0 REVERT JUMPDEST POP POP POP JUMP JUMPDEST PUSH1 0x0 DUP2 DUP4 GT PUSH2 0xB38 JUMPI DUP3 SWAP1 POP PUSH2 0xB3C JUMP JUMPDEST DUP2 SWAP1 POP JUMPDEST SWAP3 SWAP2 POP POP JUMP JUMPDEST PUSH1 0x0 DUP2 CALLDATALOAD SWAP1 POP PUSH2 0xB51 DUP2 PUSH2 0xDAC JUMP JUMPDEST SWAP3 SWAP2 POP POP JUMP JUMPDEST PUSH1 0x0 PUSH1 0x20 DUP3 DUP5 SUB SLT ISZERO PUSH2 0xB6D JUMPI PUSH2 0xB6C PUSH2 0xD93 JUMP JUMPDEST JUMPDEST PUSH1 0x0 PUSH2 0xB7B DUP5 DUP3 DUP6 ADD PUSH2 0xB42 JUMP JUMPDEST SWAP2 POP POP SWAP3 SWAP2 POP POP JUMP JUMPDEST PUSH2 0xB8D DUP2 PUSH2 0xCC8 JUMP JUMPDEST DUP3 MSTORE POP POP JUMP JUMPDEST PUSH2 0xB9C DUP2 PUSH2 0xCDA JUMP JUMPDEST DUP3 MSTORE POP POP JUMP JUMPDEST PUSH2 0xBAB DUP2 PUSH2 0xD23 JUMP JUMPDEST DUP3 MSTORE POP POP JUMP JUMPDEST PUSH2 0xBBA DUP2 PUSH2 0xD19 JUMP JUMPDEST DUP3 MSTORE POP POP JUMP JUMPDEST PUSH1 0x0 PUSH1 0x20 DUP3 ADD SWAP1 POP PUSH2 0xBD5 PUSH1 0x0 DUP4 ADD DUP5 PUSH2 0xB84 JUMP JUMPDEST SWAP3 SWAP2 POP POP JUMP JUMPDEST PUSH1 0x0 PUSH1 0x20 DUP3 ADD SWAP1 POP PUSH2 0xBF0 PUSH1 0x0 DUP4 ADD DUP5 PUSH2 0xB93 JUMP JUMPDEST SWAP3 SWAP2 POP POP JUMP JUMPDEST PUSH1 0x0 PUSH1 0x20 DUP3 ADD SWAP1 POP PUSH2 0xC0B PUSH1 0x0 DUP4 ADD DUP5 PUSH2 0xBA2 JUMP JUMPDEST SWAP3 SWAP2 POP POP JUMP JUMPDEST PUSH1 0x0 PUSH1 0x20 DUP3 ADD SWAP1 POP PUSH2 0xC26 PUSH1 0x0 DUP4 ADD DUP5 PUSH2 0xBB1 JUMP JUMPDEST SWAP3 SWAP2 POP POP JUMP JUMPDEST PUSH1 0x0 PUSH2 0xC37 DUP3 PUSH2 0xD19 JUMP JUMPDEST SWAP2 POP PUSH2 0xC42 DUP4 PUSH2 0xD19 JUMP JUMPDEST SWAP3 POP DUP3 PUSH32 0xFFFFFFFFFFFFFFFFFFFFFFFFFFFFFFFFFFFFFFFFFFFFFFFFFFFFFFFFFFFFFFFF SUB DUP3 GT ISZERO PUSH2 0xC77 JUMPI PUSH2 0xC76 PUSH2 0xD35 JUMP JUMPDEST JUMPDEST DUP3 DUP3 ADD SWAP1 POP SWAP3 SWAP2 POP POP JUMP JUMPDEST PUSH1 0x0 PUSH2 0xC8D DUP3 PUSH2 0xD19 JUMP JUMPDEST SWAP2 POP PUSH2 0xC98 DUP4 PUSH2 0xD19 JUMP JUMPDEST SWAP3 POP DUP3 DUP3 LT ISZERO PUSH2 0xCAB JUMPI PUSH2 0xCAA PUSH2 0xD35 JUMP JUMPDEST JUMPDEST DUP3 DUP3 SUB SWAP1 POP SWAP3 SWAP2 POP POP JUMP JUMPDEST PUSH1 0x0 PUSH2 0xCC1 DUP3 PUSH2 0xCF9 JUMP JUMPDEST SWAP1 POP SWAP2 SWAP1 POP JUMP JUMPDEST PUSH1 0x0 PUSH2 0xCD3 DUP3 PUSH2 0xCF9 JUMP JUMPDEST SWAP1 POP SWAP2 SWAP1 POP JUMP JUMPDEST PUSH1 0x0 DUP2 ISZERO ISZERO SWAP1 POP SWAP2 SWAP1 POP JUMP JUMPDEST PUSH1 0x0 DUP2 SWAP1 POP PUSH2 0xCF4 DUP3 PUSH2 0xD98 JUMP JUMPDEST SWAP2 SWAP1 POP JUMP JUMPDEST PUSH1 0x0 PUSH20 0xFFFFFFFFFFFFFFFFFFFFFFFFFFFFFFFFFFFFFFFF DUP3 AND SWAP1 POP SWAP2 SWAP1 POP JUMP JUMPDEST PUSH1 0x0 DUP2 SWAP1 POP SWAP2 SWAP1 POP JUMP JUMPDEST PUSH1 0x0 PUSH2 0xD2E DUP3 PUSH2 0xCE6 JUMP JUMPDEST SWAP1 POP SWAP2 SWAP1 POP JUMP JUMPDEST PUSH32 0x4E487B7100000000000000000000000000000000000000000000000000000000 PUSH1 0x0 MSTORE PUSH1 0x11 PUSH1 0x4 MSTORE PUSH1 0x24 PUSH1 0x0 REVERT JUMPDEST PUSH32 0x4E487B7100000000000000000000000000000000000000000000000000000000 PUSH1 0x0 MSTORE PUSH1 0x21 PUSH1 0x4 MSTORE PUSH1 0x24 PUSH1 0x0 REVERT JUMPDEST PUSH1 0x0 DUP1 REVERT JUMPDEST PUSH1 0x3 DUP2 LT PUSH2 0xDA9 JUMPI PUSH2 0xDA8 PUSH2 0xD64 JUMP JUMPDEST JUMPDEST POP JUMP JUMPDEST PUSH2 0xDB5 DUP2 PUSH2 0xCB6 JUMP JUMPDEST DUP2 EQ PUSH2 0xDC0 JUMPI PUSH1 0x0 DUP1 REVERT JUMPDEST POP JUMP INVALID LOG2 PUSH5 0x6970667358 0x22 SLT KECCAK256 DUP6 0xCB PUSH21 0x820387F1031346FD08BE218B1400D9F3DA2F415A30 0x2E 0x2C 0x21 0xBA 0xC7 0xE7 0xCB 0x4F PUSH5 0x736F6C6343 STOP ADDMOD SMOD STOP CALLER "
				},
				"gasEstimates": {
					"creation": {
						"codeDepositCost": "715400",
						"executionCost": "infinite",
						"totalCost": "infinite"
					},
					"external": {
						"": "202",
						"bids(address)": "2881",
						"cancelAuction()": "26670",
						"endBlock()": "2430",
						"finalizeAuction()": "infinite",
						"getAuctionState()": "2641",
						"highestBidder()": "2558",
						"highestBindingBid()": "2517",
						"owner()": "2511",
						"ownerFinalized()": "2610",
						"placeBid()": "infinite",
						"startBlock()": "2474"
					},
					"internal": {
						"min(uint256,uint256)": "64",
						"startAuction()": "infinite"
					}
				},
				"methodIdentifiers": {
					"bids(address)": "62ea82db",
					"cancelAuction()": "8fa8b790",
					"endBlock()": "083c6323",
					"finalizeAuction()": "f77282ab",
					"getAuctionState()": "08bfc300",
					"highestBidder()": "91f90157",
					"highestBindingBid()": "f5b56c56",
					"owner()": "8da5cb5b",
					"ownerFinalized()": "8b7b097f",
					"placeBid()": "ecfc7ecc",
					"startBlock()": "48cd4cb1"
				}
			},
			"storageLayout": {
				"storage": [
					{
						"astId": 64,
						"contract": "contracts/auction.sol:Auction",
						"label": "owner",
						"offset": 0,
						"slot": "0",
						"type": "t_address_payable"
					},
					{
						"astId": 71,
						"contract": "contracts/auction.sol:Auction",
						"label": "auctionStatus",
						"offset": 20,
						"slot": "0",
						"type": "t_enum(State)68"
					},
					{
						"astId": 73,
						"contract": "contracts/auction.sol:Auction",
						"label": "ownerFinalized",
						"offset": 21,
						"slot": "0",
						"type": "t_bool"
					},
					{
						"astId": 75,
						"contract": "contracts/auction.sol:Auction",
						"label": "highestBindingBid",
						"offset": 0,
						"slot": "1",
						"type": "t_uint256"
					},
					{
						"astId": 77,
						"contract": "contracts/auction.sol:Auction",
						"label": "highestBidder",
						"offset": 0,
						"slot": "2",
						"type": "t_address_payable"
					},
					{
						"astId": 81,
						"contract": "contracts/auction.sol:Auction",
						"label": "bids",
						"offset": 0,
						"slot": "3",
						"type": "t_mapping(t_address,t_uint256)"
					},
					{
						"astId": 84,
						"contract": "contracts/auction.sol:Auction",
						"label": "bidIncrement",
						"offset": 0,
						"slot": "4",
						"type": "t_uint256"
					},
					{
						"astId": 86,
						"contract": "contracts/auction.sol:Auction",
						"label": "startBlock",
						"offset": 0,
						"slot": "5",
						"type": "t_uint256"
					},
					{
						"astId": 88,
						"contract": "contracts/auction.sol:Auction",
						"label": "endBlock",
						"offset": 0,
						"slot": "6",
						"type": "t_uint256"
					}
				],
				"types": {
					"t_address": {
						"encoding": "inplace",
						"label": "address",
						"numberOfBytes": "20"
					},
					"t_address_payable": {
						"encoding": "inplace",
						"label": "address payable",
						"numberOfBytes": "20"
					},
					"t_bool": {
						"encoding": "inplace",
						"label": "bool",
						"numberOfBytes": "1"
					},
					"t_enum(State)68": {
						"encoding": "inplace",
						"label": "enum Auction.State",
						"numberOfBytes": "1"
					},
					"t_mapping(t_address,t_uint256)": {
						"encoding": "mapping",
						"key": "t_address",
						"label": "mapping(address => uint256)",
						"numberOfBytes": "32",
						"value": "t_uint256"
					},
					"t_uint256": {
						"encoding": "inplace",
						"label": "uint256",
						"numberOfBytes": "32"
					}
				}
			},
			"userdoc": {
				"kind": "user",
				"methods": {},
				"version": 1
			}
		}
	}
}