{
	"contracts/auction.sol": {
		"Auction": {
			"abi": [
				{
					"inputs": [],
					"stateMutability": "nonpayable",
					"type": "constructor"
				},
				{
					"stateMutability": "payable",
					"type": "fallback"
				},
				{
					"inputs": [],
					"name": "auctionIsOpen",
					"outputs": [
						{
							"internalType": "enum Auction.State",
							"name": "",
							"type": "uint8"
						}
					],
					"stateMutability": "view",
					"type": "function"
				},
				{
					"inputs": [],
					"name": "auctionStatus",
					"outputs": [
						{
							"internalType": "enum Auction.State",
							"name": "",
							"type": "uint8"
						}
					],
					"stateMutability": "view",
					"type": "function"
				},
				{
					"inputs": [
						{
							"internalType": "address",
							"name": "",
							"type": "address"
						}
					],
					"name": "bids",
					"outputs": [
						{
							"internalType": "uint256",
							"name": "",
							"type": "uint256"
						}
					],
					"stateMutability": "view",
					"type": "function"
				},
				{
					"inputs": [],
					"name": "endAuction",
					"outputs": [],
					"stateMutability": "nonpayable",
					"type": "function"
				},
				{
					"inputs": [],
					"name": "endBlock",
					"outputs": [
						{
							"internalType": "uint256",
							"name": "",
							"type": "uint256"
						}
					],
					"stateMutability": "view",
					"type": "function"
				},
				{
					"inputs": [],
					"name": "getHighestBidder",
					"outputs": [
						{
							"internalType": "address",
							"name": "",
							"type": "address"
						}
					],
					"stateMutability": "view",
					"type": "function"
				},
				{
					"inputs": [],
					"name": "getHighestBindingBid",
					"outputs": [
						{
							"internalType": "uint256",
							"name": "",
							"type": "uint256"
						}
					],
					"stateMutability": "view",
					"type": "function"
				},
				{
					"inputs": [],
					"name": "owner",
					"outputs": [
						{
							"internalType": "address payable",
							"name": "",
							"type": "address"
						}
					],
					"stateMutability": "view",
					"type": "function"
				},
				{
					"inputs": [],
					"name": "start",
					"outputs": [],
					"stateMutability": "nonpayable",
					"type": "function"
				},
				{
					"inputs": [],
					"name": "startBlock",
					"outputs": [
						{
							"internalType": "uint256",
							"name": "",
							"type": "uint256"
						}
					],
					"stateMutability": "view",
					"type": "function"
				},
				{
					"stateMutability": "payable",
					"type": "receive"
				}
			],
			"devdoc": {
				"kind": "dev",
				"methods": {},
				"version": 1
			},
			"evm": {
				"assembly": "    /* \"contracts/auction.sol\":73:1591  contract Auction{\r... */\n  mstore(0x40, 0x80)\n    /* \"contracts/auction.sol\":319:416  constructor(){\r... */\n  callvalue\n  dup1\n  iszero\n  tag_1\n  jumpi\n  0x00\n  dup1\n  revert\ntag_1:\n  pop\n    /* \"contracts/auction.sol\":359:369  msg.sender */\n  caller\n    /* \"contracts/auction.sol\":343:348  owner */\n  0x00\n  dup1\n    /* \"contracts/auction.sol\":343:370  owner = payable(msg.sender) */\n  0x0100\n  exp\n  dup2\n  sload\n  dup2\n  0xffffffffffffffffffffffffffffffffffffffff\n  mul\n  not\n  and\n  swap1\n  dup4\n  0xffffffffffffffffffffffffffffffffffffffff\n  and\n  mul\n  or\n  swap1\n  sstore\n  pop\n    /* \"contracts/auction.sol\":397:408  State.ENDED */\n  0x01\n    /* \"contracts/auction.sol\":381:394  auctionStatus */\n  0x02\n  0x00\n    /* \"contracts/auction.sol\":381:408  auctionStatus = State.ENDED */\n  0x0100\n  exp\n  dup2\n  sload\n  dup2\n  0xff\n  mul\n  not\n  and\n  swap1\n  dup4\n  0x02\n  dup2\n  gt\n  iszero\n  tag_4\n  jumpi\n  tag_5\n  tag_6\n  jump\t// in\ntag_5:\ntag_4:\n  mul\n  or\n  swap1\n  sstore\n  pop\n    /* \"contracts/auction.sol\":73:1591  contract Auction{\r... */\n  jump(tag_7)\n    /* \"#utility.yul\":7:187   */\ntag_6:\n    /* \"#utility.yul\":55:132   */\n  0x4e487b7100000000000000000000000000000000000000000000000000000000\n    /* \"#utility.yul\":52:53   */\n  0x00\n    /* \"#utility.yul\":45:133   */\n  mstore\n    /* \"#utility.yul\":152:156   */\n  0x21\n    /* \"#utility.yul\":149:150   */\n  0x04\n    /* \"#utility.yul\":142:157   */\n  mstore\n    /* \"#utility.yul\":176:180   */\n  0x24\n    /* \"#utility.yul\":173:174   */\n  0x00\n    /* \"#utility.yul\":166:181   */\n  revert\n    /* \"contracts/auction.sol\":73:1591  contract Auction{\r... */\ntag_7:\n  dataSize(sub_0)\n  dup1\n  dataOffset(sub_0)\n  0x00\n  codecopy\n  0x00\n  return\nstop\n\nsub_0: assembly {\n        /* \"contracts/auction.sol\":73:1591  contract Auction{\r... */\n      mstore(0x40, 0x80)\n      jumpi(tag_1, lt(calldatasize, 0x04))\n      shr(0xe0, calldataload(0x00))\n      dup1\n      0x62ea82db\n      gt\n      tag_13\n      jumpi\n      dup1\n      0x62ea82db\n      eq\n      tag_8\n      jumpi\n      dup1\n      0x8da5cb5b\n      eq\n      tag_9\n      jumpi\n      dup1\n      0x9d6a0f28\n      eq\n      tag_10\n      jumpi\n      dup1\n      0xbe9a6555\n      eq\n      tag_11\n      jumpi\n      dup1\n      0xfe67a54b\n      eq\n      tag_12\n      jumpi\n      jump(tag_2)\n    tag_13:\n      dup1\n      0x3495a4\n      eq\n      tag_3\n      jumpi\n      dup1\n      0x083c6323\n      eq\n      tag_4\n      jumpi\n      dup1\n      0x2b5095b6\n      eq\n      tag_5\n      jumpi\n      dup1\n      0x3046309f\n      eq\n      tag_6\n      jumpi\n      dup1\n      0x48cd4cb1\n      eq\n      tag_7\n      jumpi\n      jump(tag_2)\n    tag_1:\n      jumpi(tag_2, calldatasize)\n        /* \"contracts/auction.sol\":488:501  State.RUNNING */\n      0x00\n        /* \"contracts/auction.sol\":469:501  auctionIsOpen() == State.RUNNING */\n      0x02\n      dup2\n      gt\n      iszero\n      tag_16\n      jumpi\n      tag_17\n      tag_18\n      jump\t// in\n    tag_17:\n    tag_16:\n        /* \"contracts/auction.sol\":469:484  auctionIsOpen() */\n      tag_19\n        /* \"contracts/auction.sol\":469:482  auctionIsOpen */\n      tag_20\n        /* \"contracts/auction.sol\":469:484  auctionIsOpen() */\n      jump\t// in\n    tag_19:\n        /* \"contracts/auction.sol\":469:501  auctionIsOpen() == State.RUNNING */\n      0x02\n      dup2\n      gt\n      iszero\n      tag_21\n      jumpi\n      tag_22\n      tag_18\n      jump\t// in\n    tag_22:\n    tag_21:\n      eq\n        /* \"contracts/auction.sol\":461:502  require(auctionIsOpen() == State.RUNNING) */\n      tag_23\n      jumpi\n      0x00\n      dup1\n      revert\n    tag_23:\n        /* \"contracts/auction.sol\":535:540  owner */\n      0x00\n      dup1\n      sload\n      swap1\n      0x0100\n      exp\n      swap1\n      div\n      0xffffffffffffffffffffffffffffffffffffffff\n      and\n        /* \"contracts/auction.sol\":521:540  msg.sender != owner */\n      0xffffffffffffffffffffffffffffffffffffffff\n      and\n        /* \"contracts/auction.sol\":521:531  msg.sender */\n      caller\n        /* \"contracts/auction.sol\":521:540  msg.sender != owner */\n      0xffffffffffffffffffffffffffffffffffffffff\n      and\n      eq\n      iszero\n        /* \"contracts/auction.sol\":513:541  require(msg.sender != owner) */\n      tag_24\n      jumpi\n      0x00\n      dup1\n      revert\n    tag_24:\n        /* \"contracts/auction.sol\":552:581  addBid(msg.sender, msg.value) */\n      tag_25\n        /* \"contracts/auction.sol\":559:569  msg.sender */\n      caller\n        /* \"contracts/auction.sol\":571:580  msg.value */\n      callvalue\n        /* \"contracts/auction.sol\":552:558  addBid */\n      tag_26\n        /* \"contracts/auction.sol\":552:581  addBid(msg.sender, msg.value) */\n      jump\t// in\n    tag_25:\n        /* \"contracts/auction.sol\":73:1591  contract Auction{\r... */\n      stop\n    tag_2:\n        /* \"contracts/auction.sol\":635:643  revert() */\n      0x00\n      dup1\n      revert\n        /* \"contracts/auction.sol\":930:996  function getHighestBidder() public view returns(address){\r... */\n    tag_3:\n      callvalue\n      dup1\n      iszero\n      tag_29\n      jumpi\n      0x00\n      dup1\n      revert\n    tag_29:\n      pop\n      tag_30\n      tag_31\n      jump\t// in\n    tag_30:\n      mload(0x40)\n      tag_32\n      swap2\n      swap1\n      tag_33\n      jump\t// in\n    tag_32:\n      mload(0x40)\n      dup1\n      swap2\n      sub\n      swap1\n      return\n        /* \"contracts/auction.sol\":282:302  uint public endBlock */\n    tag_4:\n      callvalue\n      dup1\n      iszero\n      tag_34\n      jumpi\n      0x00\n      dup1\n      revert\n    tag_34:\n      pop\n      tag_35\n      tag_36\n      jump\t// in\n    tag_35:\n      mload(0x40)\n      tag_37\n      swap2\n      swap1\n      tag_38\n      jump\t// in\n    tag_37:\n      mload(0x40)\n      dup1\n      swap2\n      sub\n      swap1\n      return\n        /* \"contracts/auction.sol\":830:920  function auctionIsOpen() public view returns(State){\r... */\n    tag_5:\n      callvalue\n      dup1\n      iszero\n      tag_39\n      jumpi\n      0x00\n      dup1\n      revert\n    tag_39:\n      pop\n      tag_40\n      tag_20\n      jump\t// in\n    tag_40:\n      mload(0x40)\n      tag_41\n      swap2\n      swap1\n      tag_42\n      jump\t// in\n    tag_41:\n      mload(0x40)\n      dup1\n      swap2\n      sub\n      swap1\n      return\n        /* \"contracts/auction.sol\":1004:1071  function getHighestBindingBid() public view returns(uint){\r... */\n    tag_6:\n      callvalue\n      dup1\n      iszero\n      tag_43\n      jumpi\n      0x00\n      dup1\n      revert\n    tag_43:\n      pop\n      tag_44\n      tag_45\n      jump\t// in\n    tag_44:\n      mload(0x40)\n      tag_46\n      swap2\n      swap1\n      tag_38\n      jump\t// in\n    tag_46:\n      mload(0x40)\n      dup1\n      swap2\n      sub\n      swap1\n      return\n        /* \"contracts/auction.sol\":253:275  uint public startBlock */\n    tag_7:\n      callvalue\n      dup1\n      iszero\n      tag_47\n      jumpi\n      0x00\n      dup1\n      revert\n    tag_47:\n      pop\n      tag_48\n      tag_49\n      jump\t// in\n    tag_48:\n      mload(0x40)\n      tag_50\n      swap2\n      swap1\n      tag_38\n      jump\t// in\n    tag_50:\n      mload(0x40)\n      dup1\n      swap2\n      sub\n      swap1\n      return\n        /* \"contracts/auction.sol\":133:169  mapping(address => uint) public bids */\n    tag_8:\n      callvalue\n      dup1\n      iszero\n      tag_51\n      jumpi\n      0x00\n      dup1\n      revert\n    tag_51:\n      pop\n      tag_52\n      0x04\n      dup1\n      calldatasize\n      sub\n      dup2\n      add\n      swap1\n      tag_53\n      swap2\n      swap1\n      tag_54\n      jump\t// in\n    tag_53:\n      tag_55\n      jump\t// in\n    tag_52:\n      mload(0x40)\n      tag_56\n      swap2\n      swap1\n      tag_38\n      jump\t// in\n    tag_56:\n      mload(0x40)\n      dup1\n      swap2\n      sub\n      swap1\n      return\n        /* \"contracts/auction.sol\":98:126  address payable public owner */\n    tag_9:\n      callvalue\n      dup1\n      iszero\n      tag_57\n      jumpi\n      0x00\n      dup1\n      revert\n    tag_57:\n      pop\n      tag_58\n      tag_59\n      jump\t// in\n    tag_58:\n      mload(0x40)\n      tag_60\n      swap2\n      swap1\n      tag_61\n      jump\t// in\n    tag_60:\n      mload(0x40)\n      dup1\n      swap2\n      sub\n      swap1\n      return\n        /* \"contracts/auction.sol\":218:244  State public auctionStatus */\n    tag_10:\n      callvalue\n      dup1\n      iszero\n      tag_62\n      jumpi\n      0x00\n      dup1\n      revert\n    tag_62:\n      pop\n      tag_63\n      tag_64\n      jump\t// in\n    tag_63:\n      mload(0x40)\n      tag_65\n      swap2\n      swap1\n      tag_42\n      jump\t// in\n    tag_65:\n      mload(0x40)\n      dup1\n      swap2\n      sub\n      swap1\n      return\n        /* \"contracts/auction.sol\":1079:1268  function start() public {\r... */\n    tag_11:\n      callvalue\n      dup1\n      iszero\n      tag_66\n      jumpi\n      0x00\n      dup1\n      revert\n    tag_66:\n      pop\n      tag_67\n      tag_68\n      jump\t// in\n    tag_67:\n      stop\n        /* \"contracts/auction.sol\":1276:1588  function endAuction() public{\r... */\n    tag_12:\n      callvalue\n      dup1\n      iszero\n      tag_69\n      jumpi\n      0x00\n      dup1\n      revert\n    tag_69:\n      pop\n      tag_70\n      tag_71\n      jump\t// in\n    tag_70:\n      stop\n        /* \"contracts/auction.sol\":830:920  function auctionIsOpen() public view returns(State){\r... */\n    tag_20:\n        /* \"contracts/auction.sol\":875:880  State */\n      0x00\n        /* \"contracts/auction.sol\":899:912  auctionStatus */\n      0x02\n      0x00\n      swap1\n      sload\n      swap1\n      0x0100\n      exp\n      swap1\n      div\n      0xff\n      and\n        /* \"contracts/auction.sol\":892:912  return auctionStatus */\n      swap1\n      pop\n        /* \"contracts/auction.sol\":830:920  function auctionIsOpen() public view returns(State){\r... */\n      swap1\n      jump\t// out\n        /* \"contracts/auction.sol\":659:774  function addBid(address addr, uint bid) internal{\r... */\n    tag_26:\n      pop\n      pop\n      jump\t// out\n        /* \"contracts/auction.sol\":930:996  function getHighestBidder() public view returns(address){\r... */\n    tag_31:\n        /* \"contracts/auction.sol\":978:985  address */\n      0x00\n        /* \"contracts/auction.sol\":930:996  function getHighestBidder() public view returns(address){\r... */\n      swap1\n      jump\t// out\n        /* \"contracts/auction.sol\":282:302  uint public endBlock */\n    tag_36:\n      sload(0x04)\n      dup2\n      jump\t// out\n        /* \"contracts/auction.sol\":1004:1071  function getHighestBindingBid() public view returns(uint){\r... */\n    tag_45:\n        /* \"contracts/auction.sol\":1056:1060  uint */\n      0x00\n        /* \"contracts/auction.sol\":1004:1071  function getHighestBindingBid() public view returns(uint){\r... */\n      swap1\n      jump\t// out\n        /* \"contracts/auction.sol\":253:275  uint public startBlock */\n    tag_49:\n      sload(0x03)\n      dup2\n      jump\t// out\n        /* \"contracts/auction.sol\":133:169  mapping(address => uint) public bids */\n    tag_55:\n      mstore(0x20, 0x01)\n      dup1\n      0x00\n      mstore\n      keccak256(0x00, 0x40)\n      0x00\n      swap2\n      pop\n      swap1\n      pop\n      sload\n      dup2\n      jump\t// out\n        /* \"contracts/auction.sol\":98:126  address payable public owner */\n    tag_59:\n      0x00\n      dup1\n      sload\n      swap1\n      0x0100\n      exp\n      swap1\n      div\n      0xffffffffffffffffffffffffffffffffffffffff\n      and\n      dup2\n      jump\t// out\n        /* \"contracts/auction.sol\":218:244  State public auctionStatus */\n    tag_64:\n      0x02\n      0x00\n      swap1\n      sload\n      swap1\n      0x0100\n      exp\n      swap1\n      div\n      0xff\n      and\n      dup2\n      jump\t// out\n        /* \"contracts/auction.sol\":1079:1268  function start() public {\r... */\n    tag_68:\n        /* \"contracts/auction.sol\":1136:1141  owner */\n      0x00\n      dup1\n      sload\n      swap1\n      0x0100\n      exp\n      swap1\n      div\n      0xffffffffffffffffffffffffffffffffffffffff\n      and\n        /* \"contracts/auction.sol\":1122:1141  msg.sender == owner */\n      0xffffffffffffffffffffffffffffffffffffffff\n      and\n        /* \"contracts/auction.sol\":1122:1132  msg.sender */\n      caller\n        /* \"contracts/auction.sol\":1122:1141  msg.sender == owner */\n      0xffffffffffffffffffffffffffffffffffffffff\n      and\n      eq\n        /* \"contracts/auction.sol\":1114:1142  require(msg.sender == owner) */\n      tag_77\n      jumpi\n      0x00\n      dup1\n      revert\n    tag_77:\n        /* \"contracts/auction.sol\":1180:1193  State.RUNNING */\n      0x00\n        /* \"contracts/auction.sol\":1161:1193  auctionIsOpen() != State.RUNNING */\n      0x02\n      dup2\n      gt\n      iszero\n      tag_78\n      jumpi\n      tag_79\n      tag_18\n      jump\t// in\n    tag_79:\n    tag_78:\n        /* \"contracts/auction.sol\":1161:1176  auctionIsOpen() */\n      tag_80\n        /* \"contracts/auction.sol\":1161:1174  auctionIsOpen */\n      tag_20\n        /* \"contracts/auction.sol\":1161:1176  auctionIsOpen() */\n      jump\t// in\n    tag_80:\n        /* \"contracts/auction.sol\":1161:1193  auctionIsOpen() != State.RUNNING */\n      0x02\n      dup2\n      gt\n      iszero\n      tag_81\n      jumpi\n      tag_82\n      tag_18\n      jump\t// in\n    tag_82:\n    tag_81:\n      eq\n      iszero\n        /* \"contracts/auction.sol\":1153:1194  require(auctionIsOpen() != State.RUNNING) */\n      tag_83\n      jumpi\n      0x00\n      dup1\n      revert\n    tag_83:\n        /* \"contracts/auction.sol\":1223:1236  State.RUNNING */\n      0x00\n        /* \"contracts/auction.sol\":1207:1220  auctionStatus */\n      0x02\n      0x00\n        /* \"contracts/auction.sol\":1207:1236  auctionStatus = State.RUNNING */\n      0x0100\n      exp\n      dup2\n      sload\n      dup2\n      0xff\n      mul\n      not\n      and\n      swap1\n      dup4\n      0x02\n      dup2\n      gt\n      iszero\n      tag_84\n      jumpi\n      tag_85\n      tag_18\n      jump\t// in\n    tag_85:\n    tag_84:\n      mul\n      or\n      swap1\n      sstore\n      pop\n        /* \"contracts/auction.sol\":1079:1268  function start() public {\r... */\n      jump\t// out\n        /* \"contracts/auction.sol\":1276:1588  function endAuction() public{\r... */\n    tag_71:\n        /* \"contracts/auction.sol\":1337:1342  owner */\n      0x00\n      dup1\n      sload\n      swap1\n      0x0100\n      exp\n      swap1\n      div\n      0xffffffffffffffffffffffffffffffffffffffff\n      and\n        /* \"contracts/auction.sol\":1323:1342  msg.sender == owner */\n      0xffffffffffffffffffffffffffffffffffffffff\n      and\n        /* \"contracts/auction.sol\":1323:1333  msg.sender */\n      caller\n        /* \"contracts/auction.sol\":1323:1342  msg.sender == owner */\n      0xffffffffffffffffffffffffffffffffffffffff\n      and\n      eq\n        /* \"contracts/auction.sol\":1315:1343  require(msg.sender == owner) */\n      tag_87\n      jumpi\n      0x00\n      dup1\n      revert\n    tag_87:\n        /* \"contracts/auction.sol\":1381:1394  State.RUNNING */\n      0x00\n        /* \"contracts/auction.sol\":1362:1394  auctionIsOpen() == State.RUNNING */\n      0x02\n      dup2\n      gt\n      iszero\n      tag_88\n      jumpi\n      tag_89\n      tag_18\n      jump\t// in\n    tag_89:\n    tag_88:\n        /* \"contracts/auction.sol\":1362:1377  auctionIsOpen() */\n      tag_90\n        /* \"contracts/auction.sol\":1362:1375  auctionIsOpen */\n      tag_20\n        /* \"contracts/auction.sol\":1362:1377  auctionIsOpen() */\n      jump\t// in\n    tag_90:\n        /* \"contracts/auction.sol\":1362:1394  auctionIsOpen() == State.RUNNING */\n      0x02\n      dup2\n      gt\n      iszero\n      tag_91\n      jumpi\n      tag_92\n      tag_18\n      jump\t// in\n    tag_92:\n    tag_91:\n      eq\n        /* \"contracts/auction.sol\":1354:1395  require(auctionIsOpen() == State.RUNNING) */\n      tag_93\n      jumpi\n      0x00\n      dup1\n      revert\n    tag_93:\n        /* \"contracts/auction.sol\":1432:1443  State.ENDED */\n      0x01\n        /* \"contracts/auction.sol\":1416:1429  auctionStatus */\n      0x02\n      0x00\n        /* \"contracts/auction.sol\":1416:1443  auctionStatus = State.ENDED */\n      0x0100\n      exp\n      dup2\n      sload\n      dup2\n      0xff\n      mul\n      not\n      and\n      swap1\n      dup4\n      0x02\n      dup2\n      gt\n      iszero\n      tag_94\n      jumpi\n      tag_95\n      tag_18\n      jump\t// in\n    tag_95:\n    tag_94:\n      mul\n      or\n      swap1\n      sstore\n      pop\n        /* \"contracts/auction.sol\":1276:1588  function endAuction() public{\r... */\n      jump\t// out\n        /* \"#utility.yul\":7:146   */\n    tag_97:\n        /* \"#utility.yul\":53:58   */\n      0x00\n        /* \"#utility.yul\":91:97   */\n      dup2\n        /* \"#utility.yul\":78:98   */\n      calldataload\n        /* \"#utility.yul\":69:98   */\n      swap1\n      pop\n        /* \"#utility.yul\":107:140   */\n      tag_99\n        /* \"#utility.yul\":134:139   */\n      dup2\n        /* \"#utility.yul\":107:140   */\n      tag_100\n      jump\t// in\n    tag_99:\n        /* \"#utility.yul\":7:146   */\n      swap3\n      swap2\n      pop\n      pop\n      jump\t// out\n        /* \"#utility.yul\":152:481   */\n    tag_54:\n        /* \"#utility.yul\":211:217   */\n      0x00\n        /* \"#utility.yul\":260:262   */\n      0x20\n        /* \"#utility.yul\":248:257   */\n      dup3\n        /* \"#utility.yul\":239:246   */\n      dup5\n        /* \"#utility.yul\":235:258   */\n      sub\n        /* \"#utility.yul\":231:263   */\n      slt\n        /* \"#utility.yul\":228:347   */\n      iszero\n      tag_102\n      jumpi\n        /* \"#utility.yul\":266:345   */\n      tag_103\n      tag_104\n      jump\t// in\n    tag_103:\n        /* \"#utility.yul\":228:347   */\n    tag_102:\n        /* \"#utility.yul\":386:387   */\n      0x00\n        /* \"#utility.yul\":411:464   */\n      tag_105\n        /* \"#utility.yul\":456:463   */\n      dup5\n        /* \"#utility.yul\":447:453   */\n      dup3\n        /* \"#utility.yul\":436:445   */\n      dup6\n        /* \"#utility.yul\":432:454   */\n      add\n        /* \"#utility.yul\":411:464   */\n      tag_97\n      jump\t// in\n    tag_105:\n        /* \"#utility.yul\":401:464   */\n      swap2\n      pop\n        /* \"#utility.yul\":357:474   */\n      pop\n        /* \"#utility.yul\":152:481   */\n      swap3\n      swap2\n      pop\n      pop\n      jump\t// out\n        /* \"#utility.yul\":487:629   */\n    tag_106:\n        /* \"#utility.yul\":590:622   */\n      tag_108\n        /* \"#utility.yul\":616:621   */\n      dup2\n        /* \"#utility.yul\":590:622   */\n      tag_109\n      jump\t// in\n    tag_108:\n        /* \"#utility.yul\":585:588   */\n      dup3\n        /* \"#utility.yul\":578:623   */\n      mstore\n        /* \"#utility.yul\":487:629   */\n      pop\n      pop\n      jump\t// out\n        /* \"#utility.yul\":635:753   */\n    tag_110:\n        /* \"#utility.yul\":722:746   */\n      tag_112\n        /* \"#utility.yul\":740:745   */\n      dup2\n        /* \"#utility.yul\":722:746   */\n      tag_113\n      jump\t// in\n    tag_112:\n        /* \"#utility.yul\":717:720   */\n      dup3\n        /* \"#utility.yul\":710:747   */\n      mstore\n        /* \"#utility.yul\":635:753   */\n      pop\n      pop\n      jump\t// out\n        /* \"#utility.yul\":759:902   */\n    tag_114:\n        /* \"#utility.yul\":852:895   */\n      tag_116\n        /* \"#utility.yul\":889:894   */\n      dup2\n        /* \"#utility.yul\":852:895   */\n      tag_117\n      jump\t// in\n    tag_116:\n        /* \"#utility.yul\":847:850   */\n      dup3\n        /* \"#utility.yul\":840:896   */\n      mstore\n        /* \"#utility.yul\":759:902   */\n      pop\n      pop\n      jump\t// out\n        /* \"#utility.yul\":908:1026   */\n    tag_118:\n        /* \"#utility.yul\":995:1019   */\n      tag_120\n        /* \"#utility.yul\":1013:1018   */\n      dup2\n        /* \"#utility.yul\":995:1019   */\n      tag_121\n      jump\t// in\n    tag_120:\n        /* \"#utility.yul\":990:993   */\n      dup3\n        /* \"#utility.yul\":983:1020   */\n      mstore\n        /* \"#utility.yul\":908:1026   */\n      pop\n      pop\n      jump\t// out\n        /* \"#utility.yul\":1032:1254   */\n    tag_33:\n        /* \"#utility.yul\":1125:1129   */\n      0x00\n        /* \"#utility.yul\":1163:1165   */\n      0x20\n        /* \"#utility.yul\":1152:1161   */\n      dup3\n        /* \"#utility.yul\":1148:1166   */\n      add\n        /* \"#utility.yul\":1140:1166   */\n      swap1\n      pop\n        /* \"#utility.yul\":1176:1247   */\n      tag_123\n        /* \"#utility.yul\":1244:1245   */\n      0x00\n        /* \"#utility.yul\":1233:1242   */\n      dup4\n        /* \"#utility.yul\":1229:1246   */\n      add\n        /* \"#utility.yul\":1220:1226   */\n      dup5\n        /* \"#utility.yul\":1176:1247   */\n      tag_110\n      jump\t// in\n    tag_123:\n        /* \"#utility.yul\":1032:1254   */\n      swap3\n      swap2\n      pop\n      pop\n      jump\t// out\n        /* \"#utility.yul\":1260:1514   */\n    tag_61:\n        /* \"#utility.yul\":1369:1373   */\n      0x00\n        /* \"#utility.yul\":1407:1409   */\n      0x20\n        /* \"#utility.yul\":1396:1405   */\n      dup3\n        /* \"#utility.yul\":1392:1410   */\n      add\n        /* \"#utility.yul\":1384:1410   */\n      swap1\n      pop\n        /* \"#utility.yul\":1420:1507   */\n      tag_125\n        /* \"#utility.yul\":1504:1505   */\n      0x00\n        /* \"#utility.yul\":1493:1502   */\n      dup4\n        /* \"#utility.yul\":1489:1506   */\n      add\n        /* \"#utility.yul\":1480:1486   */\n      dup5\n        /* \"#utility.yul\":1420:1507   */\n      tag_106\n      jump\t// in\n    tag_125:\n        /* \"#utility.yul\":1260:1514   */\n      swap3\n      swap2\n      pop\n      pop\n      jump\t// out\n        /* \"#utility.yul\":1520:1754   */\n    tag_42:\n        /* \"#utility.yul\":1619:1623   */\n      0x00\n        /* \"#utility.yul\":1657:1659   */\n      0x20\n        /* \"#utility.yul\":1646:1655   */\n      dup3\n        /* \"#utility.yul\":1642:1660   */\n      add\n        /* \"#utility.yul\":1634:1660   */\n      swap1\n      pop\n        /* \"#utility.yul\":1670:1747   */\n      tag_127\n        /* \"#utility.yul\":1744:1745   */\n      0x00\n        /* \"#utility.yul\":1733:1742   */\n      dup4\n        /* \"#utility.yul\":1729:1746   */\n      add\n        /* \"#utility.yul\":1720:1726   */\n      dup5\n        /* \"#utility.yul\":1670:1747   */\n      tag_114\n      jump\t// in\n    tag_127:\n        /* \"#utility.yul\":1520:1754   */\n      swap3\n      swap2\n      pop\n      pop\n      jump\t// out\n        /* \"#utility.yul\":1760:1982   */\n    tag_38:\n        /* \"#utility.yul\":1853:1857   */\n      0x00\n        /* \"#utility.yul\":1891:1893   */\n      0x20\n        /* \"#utility.yul\":1880:1889   */\n      dup3\n        /* \"#utility.yul\":1876:1894   */\n      add\n        /* \"#utility.yul\":1868:1894   */\n      swap1\n      pop\n        /* \"#utility.yul\":1904:1975   */\n      tag_129\n        /* \"#utility.yul\":1972:1973   */\n      0x00\n        /* \"#utility.yul\":1961:1970   */\n      dup4\n        /* \"#utility.yul\":1957:1974   */\n      add\n        /* \"#utility.yul\":1948:1954   */\n      dup5\n        /* \"#utility.yul\":1904:1975   */\n      tag_118\n      jump\t// in\n    tag_129:\n        /* \"#utility.yul\":1760:1982   */\n      swap3\n      swap2\n      pop\n      pop\n      jump\t// out\n        /* \"#utility.yul\":2069:2165   */\n    tag_113:\n        /* \"#utility.yul\":2106:2113   */\n      0x00\n        /* \"#utility.yul\":2135:2159   */\n      tag_133\n        /* \"#utility.yul\":2153:2158   */\n      dup3\n        /* \"#utility.yul\":2135:2159   */\n      tag_134\n      jump\t// in\n    tag_133:\n        /* \"#utility.yul\":2124:2159   */\n      swap1\n      pop\n        /* \"#utility.yul\":2069:2165   */\n      swap2\n      swap1\n      pop\n      jump\t// out\n        /* \"#utility.yul\":2171:2275   */\n    tag_109:\n        /* \"#utility.yul\":2216:2223   */\n      0x00\n        /* \"#utility.yul\":2245:2269   */\n      tag_136\n        /* \"#utility.yul\":2263:2268   */\n      dup3\n        /* \"#utility.yul\":2245:2269   */\n      tag_134\n      jump\t// in\n    tag_136:\n        /* \"#utility.yul\":2234:2269   */\n      swap1\n      pop\n        /* \"#utility.yul\":2171:2275   */\n      swap2\n      swap1\n      pop\n      jump\t// out\n        /* \"#utility.yul\":2281:2408   */\n    tag_137:\n        /* \"#utility.yul\":2326:2333   */\n      0x00\n        /* \"#utility.yul\":2355:2360   */\n      dup2\n        /* \"#utility.yul\":2344:2360   */\n      swap1\n      pop\n        /* \"#utility.yul\":2361:2402   */\n      tag_139\n        /* \"#utility.yul\":2396:2401   */\n      dup3\n        /* \"#utility.yul\":2361:2402   */\n      tag_140\n      jump\t// in\n    tag_139:\n        /* \"#utility.yul\":2281:2408   */\n      swap2\n      swap1\n      pop\n      jump\t// out\n        /* \"#utility.yul\":2414:2540   */\n    tag_134:\n        /* \"#utility.yul\":2451:2458   */\n      0x00\n        /* \"#utility.yul\":2491:2533   */\n      0xffffffffffffffffffffffffffffffffffffffff\n        /* \"#utility.yul\":2484:2489   */\n      dup3\n        /* \"#utility.yul\":2480:2534   */\n      and\n        /* \"#utility.yul\":2469:2534   */\n      swap1\n      pop\n        /* \"#utility.yul\":2414:2540   */\n      swap2\n      swap1\n      pop\n      jump\t// out\n        /* \"#utility.yul\":2546:2623   */\n    tag_121:\n        /* \"#utility.yul\":2583:2590   */\n      0x00\n        /* \"#utility.yul\":2612:2617   */\n      dup2\n        /* \"#utility.yul\":2601:2617   */\n      swap1\n      pop\n        /* \"#utility.yul\":2546:2623   */\n      swap2\n      swap1\n      pop\n      jump\t// out\n        /* \"#utility.yul\":2629:2756   */\n    tag_117:\n        /* \"#utility.yul\":2685:2694   */\n      0x00\n        /* \"#utility.yul\":2718:2750   */\n      tag_144\n        /* \"#utility.yul\":2744:2749   */\n      dup3\n        /* \"#utility.yul\":2718:2750   */\n      tag_137\n      jump\t// in\n    tag_144:\n        /* \"#utility.yul\":2705:2750   */\n      swap1\n      pop\n        /* \"#utility.yul\":2629:2756   */\n      swap2\n      swap1\n      pop\n      jump\t// out\n        /* \"#utility.yul\":2762:2942   */\n    tag_18:\n        /* \"#utility.yul\":2810:2887   */\n      0x4e487b7100000000000000000000000000000000000000000000000000000000\n        /* \"#utility.yul\":2807:2808   */\n      0x00\n        /* \"#utility.yul\":2800:2888   */\n      mstore\n        /* \"#utility.yul\":2907:2911   */\n      0x21\n        /* \"#utility.yul\":2904:2905   */\n      0x04\n        /* \"#utility.yul\":2897:2912   */\n      mstore\n        /* \"#utility.yul\":2931:2935   */\n      0x24\n        /* \"#utility.yul\":2928:2929   */\n      0x00\n        /* \"#utility.yul\":2921:2936   */\n      revert\n        /* \"#utility.yul\":3071:3188   */\n    tag_104:\n        /* \"#utility.yul\":3180:3181   */\n      0x00\n        /* \"#utility.yul\":3177:3178   */\n      dup1\n        /* \"#utility.yul\":3170:3182   */\n      revert\n        /* \"#utility.yul\":3194:3307   */\n    tag_140:\n        /* \"#utility.yul\":3275:3276   */\n      0x03\n        /* \"#utility.yul\":3268:3273   */\n      dup2\n        /* \"#utility.yul\":3265:3277   */\n      lt\n        /* \"#utility.yul\":3255:3301   */\n      tag_150\n      jumpi\n        /* \"#utility.yul\":3281:3299   */\n      tag_151\n      tag_18\n      jump\t// in\n    tag_151:\n        /* \"#utility.yul\":3255:3301   */\n    tag_150:\n        /* \"#utility.yul\":3194:3307   */\n      pop\n      jump\t// out\n        /* \"#utility.yul\":3313:3435   */\n    tag_100:\n        /* \"#utility.yul\":3386:3410   */\n      tag_153\n        /* \"#utility.yul\":3404:3409   */\n      dup2\n        /* \"#utility.yul\":3386:3410   */\n      tag_113\n      jump\t// in\n    tag_153:\n        /* \"#utility.yul\":3379:3384   */\n      dup2\n        /* \"#utility.yul\":3376:3411   */\n      eq\n        /* \"#utility.yul\":3366:3429   */\n      tag_154\n      jumpi\n        /* \"#utility.yul\":3425:3426   */\n      0x00\n        /* \"#utility.yul\":3422:3423   */\n      dup1\n        /* \"#utility.yul\":3415:3427   */\n      revert\n        /* \"#utility.yul\":3366:3429   */\n    tag_154:\n        /* \"#utility.yul\":3313:3435   */\n      pop\n      jump\t// out\n\n    auxdata: 0xa2646970667358221220b6e5ca62b0a3d61c2f8fda3aeb12bb2ed2302c6f5bc3a83edc3687fe1d3aa8b264736f6c63430008070033\n}\n",
				"bytecode": {
					"linkReferences": {},
					"object": "608060405234801561001057600080fd5b50336000806101000a81548173ffffffffffffffffffffffffffffffffffffffff021916908373ffffffffffffffffffffffffffffffffffffffff1602179055506001600260006101000a81548160ff0219169083600281111561007757610076610081565b5b02179055506100b0565b7f4e487b7100000000000000000000000000000000000000000000000000000000600052602160045260246000fd5b6106c0806100bf6000396000f3fe6080604052600436106100945760003560e01c806362ea82db1161005957806362ea82db146102125780638da5cb5b1461024f5780639d6a0f281461027a578063be9a6555146102a5578063fe67a54b146102bc57610136565b80623495a41461013b578063083c6323146101665780632b5095b6146101915780633046309f146101bc57806348cd4cb1146101e757610136565b3661013657600060028111156100ad576100ac61062b565b5b6100b56102d3565b60028111156100c7576100c661062b565b5b146100d157600080fd5b60008054906101000a900473ffffffffffffffffffffffffffffffffffffffff1673ffffffffffffffffffffffffffffffffffffffff163373ffffffffffffffffffffffffffffffffffffffff16141561012a57600080fd5b61013433346102ea565b005b600080fd5b34801561014757600080fd5b506101506102ee565b60405161015d919061054c565b60405180910390f35b34801561017257600080fd5b5061017b6102f3565b604051610188919061059d565b60405180910390f35b34801561019d57600080fd5b506101a66102d3565b6040516101b39190610582565b60405180910390f35b3480156101c857600080fd5b506101d16102f9565b6040516101de919061059d565b60405180910390f35b3480156101f357600080fd5b506101fc6102fe565b604051610209919061059d565b60405180910390f35b34801561021e57600080fd5b50610239600480360381019061023491906104e3565b610304565b604051610246919061059d565b60405180910390f35b34801561025b57600080fd5b5061026461031c565b6040516102719190610567565b60405180910390f35b34801561028657600080fd5b5061028f610340565b60405161029c9190610582565b60405180910390f35b3480156102b157600080fd5b506102ba610353565b005b3480156102c857600080fd5b506102d1610411565b005b6000600260009054906101000a900460ff16905090565b5050565b600090565b60045481565b600090565b60035481565b60016020528060005260406000206000915090505481565b60008054906101000a900473ffffffffffffffffffffffffffffffffffffffff1681565b600260009054906101000a900460ff1681565b60008054906101000a900473ffffffffffffffffffffffffffffffffffffffff1673ffffffffffffffffffffffffffffffffffffffff163373ffffffffffffffffffffffffffffffffffffffff16146103ab57600080fd5b600060028111156103bf576103be61062b565b5b6103c76102d3565b60028111156103d9576103d861062b565b5b14156103e457600080fd5b6000600260006101000a81548160ff0219169083600281111561040a5761040961062b565b5b0217905550565b60008054906101000a900473ffffffffffffffffffffffffffffffffffffffff1673ffffffffffffffffffffffffffffffffffffffff163373ffffffffffffffffffffffffffffffffffffffff161461046957600080fd5b6000600281111561047d5761047c61062b565b5b6104856102d3565b60028111156104975761049661062b565b5b146104a157600080fd5b6001600260006101000a81548160ff021916908360028111156104c7576104c661062b565b5b0217905550565b6000813590506104dd81610673565b92915050565b6000602082840312156104f9576104f861065a565b5b6000610507848285016104ce565b91505092915050565b610519816105ca565b82525050565b610528816105b8565b82525050565b61053781610619565b82525050565b6105468161060f565b82525050565b6000602082019050610561600083018461051f565b92915050565b600060208201905061057c6000830184610510565b92915050565b6000602082019050610597600083018461052e565b92915050565b60006020820190506105b2600083018461053d565b92915050565b60006105c3826105ef565b9050919050565b60006105d5826105ef565b9050919050565b60008190506105ea8261065f565b919050565b600073ffffffffffffffffffffffffffffffffffffffff82169050919050565b6000819050919050565b6000610624826105dc565b9050919050565b7f4e487b7100000000000000000000000000000000000000000000000000000000600052602160045260246000fd5b600080fd5b600381106106705761066f61062b565b5b50565b61067c816105b8565b811461068757600080fd5b5056fea2646970667358221220b6e5ca62b0a3d61c2f8fda3aeb12bb2ed2302c6f5bc3a83edc3687fe1d3aa8b264736f6c63430008070033",
					"opcodes": "PUSH1 0x80 PUSH1 0x40 MSTORE CALLVALUE DUP1 ISZERO PUSH2 0x10 JUMPI PUSH1 0x0 DUP1 REVERT JUMPDEST POP CALLER PUSH1 0x0 DUP1 PUSH2 0x100 EXP DUP2 SLOAD DUP2 PUSH20 0xFFFFFFFFFFFFFFFFFFFFFFFFFFFFFFFFFFFFFFFF MUL NOT AND SWAP1 DUP4 PUSH20 0xFFFFFFFFFFFFFFFFFFFFFFFFFFFFFFFFFFFFFFFF AND MUL OR SWAP1 SSTORE POP PUSH1 0x1 PUSH1 0x2 PUSH1 0x0 PUSH2 0x100 EXP DUP2 SLOAD DUP2 PUSH1 0xFF MUL NOT AND SWAP1 DUP4 PUSH1 0x2 DUP2 GT ISZERO PUSH2 0x77 JUMPI PUSH2 0x76 PUSH2 0x81 JUMP JUMPDEST JUMPDEST MUL OR SWAP1 SSTORE POP PUSH2 0xB0 JUMP JUMPDEST PUSH32 0x4E487B7100000000000000000000000000000000000000000000000000000000 PUSH1 0x0 MSTORE PUSH1 0x21 PUSH1 0x4 MSTORE PUSH1 0x24 PUSH1 0x0 REVERT JUMPDEST PUSH2 0x6C0 DUP1 PUSH2 0xBF PUSH1 0x0 CODECOPY PUSH1 0x0 RETURN INVALID PUSH1 0x80 PUSH1 0x40 MSTORE PUSH1 0x4 CALLDATASIZE LT PUSH2 0x94 JUMPI PUSH1 0x0 CALLDATALOAD PUSH1 0xE0 SHR DUP1 PUSH4 0x62EA82DB GT PUSH2 0x59 JUMPI DUP1 PUSH4 0x62EA82DB EQ PUSH2 0x212 JUMPI DUP1 PUSH4 0x8DA5CB5B EQ PUSH2 0x24F JUMPI DUP1 PUSH4 0x9D6A0F28 EQ PUSH2 0x27A JUMPI DUP1 PUSH4 0xBE9A6555 EQ PUSH2 0x2A5 JUMPI DUP1 PUSH4 0xFE67A54B EQ PUSH2 0x2BC JUMPI PUSH2 0x136 JUMP JUMPDEST DUP1 PUSH3 0x3495A4 EQ PUSH2 0x13B JUMPI DUP1 PUSH4 0x83C6323 EQ PUSH2 0x166 JUMPI DUP1 PUSH4 0x2B5095B6 EQ PUSH2 0x191 JUMPI DUP1 PUSH4 0x3046309F EQ PUSH2 0x1BC JUMPI DUP1 PUSH4 0x48CD4CB1 EQ PUSH2 0x1E7 JUMPI PUSH2 0x136 JUMP JUMPDEST CALLDATASIZE PUSH2 0x136 JUMPI PUSH1 0x0 PUSH1 0x2 DUP2 GT ISZERO PUSH2 0xAD JUMPI PUSH2 0xAC PUSH2 0x62B JUMP JUMPDEST JUMPDEST PUSH2 0xB5 PUSH2 0x2D3 JUMP JUMPDEST PUSH1 0x2 DUP2 GT ISZERO PUSH2 0xC7 JUMPI PUSH2 0xC6 PUSH2 0x62B JUMP JUMPDEST JUMPDEST EQ PUSH2 0xD1 JUMPI PUSH1 0x0 DUP1 REVERT JUMPDEST PUSH1 0x0 DUP1 SLOAD SWAP1 PUSH2 0x100 EXP SWAP1 DIV PUSH20 0xFFFFFFFFFFFFFFFFFFFFFFFFFFFFFFFFFFFFFFFF AND PUSH20 0xFFFFFFFFFFFFFFFFFFFFFFFFFFFFFFFFFFFFFFFF AND CALLER PUSH20 0xFFFFFFFFFFFFFFFFFFFFFFFFFFFFFFFFFFFFFFFF AND EQ ISZERO PUSH2 0x12A JUMPI PUSH1 0x0 DUP1 REVERT JUMPDEST PUSH2 0x134 CALLER CALLVALUE PUSH2 0x2EA JUMP JUMPDEST STOP JUMPDEST PUSH1 0x0 DUP1 REVERT JUMPDEST CALLVALUE DUP1 ISZERO PUSH2 0x147 JUMPI PUSH1 0x0 DUP1 REVERT JUMPDEST POP PUSH2 0x150 PUSH2 0x2EE JUMP JUMPDEST PUSH1 0x40 MLOAD PUSH2 0x15D SWAP2 SWAP1 PUSH2 0x54C JUMP JUMPDEST PUSH1 0x40 MLOAD DUP1 SWAP2 SUB SWAP1 RETURN JUMPDEST CALLVALUE DUP1 ISZERO PUSH2 0x172 JUMPI PUSH1 0x0 DUP1 REVERT JUMPDEST POP PUSH2 0x17B PUSH2 0x2F3 JUMP JUMPDEST PUSH1 0x40 MLOAD PUSH2 0x188 SWAP2 SWAP1 PUSH2 0x59D JUMP JUMPDEST PUSH1 0x40 MLOAD DUP1 SWAP2 SUB SWAP1 RETURN JUMPDEST CALLVALUE DUP1 ISZERO PUSH2 0x19D JUMPI PUSH1 0x0 DUP1 REVERT JUMPDEST POP PUSH2 0x1A6 PUSH2 0x2D3 JUMP JUMPDEST PUSH1 0x40 MLOAD PUSH2 0x1B3 SWAP2 SWAP1 PUSH2 0x582 JUMP JUMPDEST PUSH1 0x40 MLOAD DUP1 SWAP2 SUB SWAP1 RETURN JUMPDEST CALLVALUE DUP1 ISZERO PUSH2 0x1C8 JUMPI PUSH1 0x0 DUP1 REVERT JUMPDEST POP PUSH2 0x1D1 PUSH2 0x2F9 JUMP JUMPDEST PUSH1 0x40 MLOAD PUSH2 0x1DE SWAP2 SWAP1 PUSH2 0x59D JUMP JUMPDEST PUSH1 0x40 MLOAD DUP1 SWAP2 SUB SWAP1 RETURN JUMPDEST CALLVALUE DUP1 ISZERO PUSH2 0x1F3 JUMPI PUSH1 0x0 DUP1 REVERT JUMPDEST POP PUSH2 0x1FC PUSH2 0x2FE JUMP JUMPDEST PUSH1 0x40 MLOAD PUSH2 0x209 SWAP2 SWAP1 PUSH2 0x59D JUMP JUMPDEST PUSH1 0x40 MLOAD DUP1 SWAP2 SUB SWAP1 RETURN JUMPDEST CALLVALUE DUP1 ISZERO PUSH2 0x21E JUMPI PUSH1 0x0 DUP1 REVERT JUMPDEST POP PUSH2 0x239 PUSH1 0x4 DUP1 CALLDATASIZE SUB DUP2 ADD SWAP1 PUSH2 0x234 SWAP2 SWAP1 PUSH2 0x4E3 JUMP JUMPDEST PUSH2 0x304 JUMP JUMPDEST PUSH1 0x40 MLOAD PUSH2 0x246 SWAP2 SWAP1 PUSH2 0x59D JUMP JUMPDEST PUSH1 0x40 MLOAD DUP1 SWAP2 SUB SWAP1 RETURN JUMPDEST CALLVALUE DUP1 ISZERO PUSH2 0x25B JUMPI PUSH1 0x0 DUP1 REVERT JUMPDEST POP PUSH2 0x264 PUSH2 0x31C JUMP JUMPDEST PUSH1 0x40 MLOAD PUSH2 0x271 SWAP2 SWAP1 PUSH2 0x567 JUMP JUMPDEST PUSH1 0x40 MLOAD DUP1 SWAP2 SUB SWAP1 RETURN JUMPDEST CALLVALUE DUP1 ISZERO PUSH2 0x286 JUMPI PUSH1 0x0 DUP1 REVERT JUMPDEST POP PUSH2 0x28F PUSH2 0x340 JUMP JUMPDEST PUSH1 0x40 MLOAD PUSH2 0x29C SWAP2 SWAP1 PUSH2 0x582 JUMP JUMPDEST PUSH1 0x40 MLOAD DUP1 SWAP2 SUB SWAP1 RETURN JUMPDEST CALLVALUE DUP1 ISZERO PUSH2 0x2B1 JUMPI PUSH1 0x0 DUP1 REVERT JUMPDEST POP PUSH2 0x2BA PUSH2 0x353 JUMP JUMPDEST STOP JUMPDEST CALLVALUE DUP1 ISZERO PUSH2 0x2C8 JUMPI PUSH1 0x0 DUP1 REVERT JUMPDEST POP PUSH2 0x2D1 PUSH2 0x411 JUMP JUMPDEST STOP JUMPDEST PUSH1 0x0 PUSH1 0x2 PUSH1 0x0 SWAP1 SLOAD SWAP1 PUSH2 0x100 EXP SWAP1 DIV PUSH1 0xFF AND SWAP1 POP SWAP1 JUMP JUMPDEST POP POP JUMP JUMPDEST PUSH1 0x0 SWAP1 JUMP JUMPDEST PUSH1 0x4 SLOAD DUP2 JUMP JUMPDEST PUSH1 0x0 SWAP1 JUMP JUMPDEST PUSH1 0x3 SLOAD DUP2 JUMP JUMPDEST PUSH1 0x1 PUSH1 0x20 MSTORE DUP1 PUSH1 0x0 MSTORE PUSH1 0x40 PUSH1 0x0 KECCAK256 PUSH1 0x0 SWAP2 POP SWAP1 POP SLOAD DUP2 JUMP JUMPDEST PUSH1 0x0 DUP1 SLOAD SWAP1 PUSH2 0x100 EXP SWAP1 DIV PUSH20 0xFFFFFFFFFFFFFFFFFFFFFFFFFFFFFFFFFFFFFFFF AND DUP2 JUMP JUMPDEST PUSH1 0x2 PUSH1 0x0 SWAP1 SLOAD SWAP1 PUSH2 0x100 EXP SWAP1 DIV PUSH1 0xFF AND DUP2 JUMP JUMPDEST PUSH1 0x0 DUP1 SLOAD SWAP1 PUSH2 0x100 EXP SWAP1 DIV PUSH20 0xFFFFFFFFFFFFFFFFFFFFFFFFFFFFFFFFFFFFFFFF AND PUSH20 0xFFFFFFFFFFFFFFFFFFFFFFFFFFFFFFFFFFFFFFFF AND CALLER PUSH20 0xFFFFFFFFFFFFFFFFFFFFFFFFFFFFFFFFFFFFFFFF AND EQ PUSH2 0x3AB JUMPI PUSH1 0x0 DUP1 REVERT JUMPDEST PUSH1 0x0 PUSH1 0x2 DUP2 GT ISZERO PUSH2 0x3BF JUMPI PUSH2 0x3BE PUSH2 0x62B JUMP JUMPDEST JUMPDEST PUSH2 0x3C7 PUSH2 0x2D3 JUMP JUMPDEST PUSH1 0x2 DUP2 GT ISZERO PUSH2 0x3D9 JUMPI PUSH2 0x3D8 PUSH2 0x62B JUMP JUMPDEST JUMPDEST EQ ISZERO PUSH2 0x3E4 JUMPI PUSH1 0x0 DUP1 REVERT JUMPDEST PUSH1 0x0 PUSH1 0x2 PUSH1 0x0 PUSH2 0x100 EXP DUP2 SLOAD DUP2 PUSH1 0xFF MUL NOT AND SWAP1 DUP4 PUSH1 0x2 DUP2 GT ISZERO PUSH2 0x40A JUMPI PUSH2 0x409 PUSH2 0x62B JUMP JUMPDEST JUMPDEST MUL OR SWAP1 SSTORE POP JUMP JUMPDEST PUSH1 0x0 DUP1 SLOAD SWAP1 PUSH2 0x100 EXP SWAP1 DIV PUSH20 0xFFFFFFFFFFFFFFFFFFFFFFFFFFFFFFFFFFFFFFFF AND PUSH20 0xFFFFFFFFFFFFFFFFFFFFFFFFFFFFFFFFFFFFFFFF AND CALLER PUSH20 0xFFFFFFFFFFFFFFFFFFFFFFFFFFFFFFFFFFFFFFFF AND EQ PUSH2 0x469 JUMPI PUSH1 0x0 DUP1 REVERT JUMPDEST PUSH1 0x0 PUSH1 0x2 DUP2 GT ISZERO PUSH2 0x47D JUMPI PUSH2 0x47C PUSH2 0x62B JUMP JUMPDEST JUMPDEST PUSH2 0x485 PUSH2 0x2D3 JUMP JUMPDEST PUSH1 0x2 DUP2 GT ISZERO PUSH2 0x497 JUMPI PUSH2 0x496 PUSH2 0x62B JUMP JUMPDEST JUMPDEST EQ PUSH2 0x4A1 JUMPI PUSH1 0x0 DUP1 REVERT JUMPDEST PUSH1 0x1 PUSH1 0x2 PUSH1 0x0 PUSH2 0x100 EXP DUP2 SLOAD DUP2 PUSH1 0xFF MUL NOT AND SWAP1 DUP4 PUSH1 0x2 DUP2 GT ISZERO PUSH2 0x4C7 JUMPI PUSH2 0x4C6 PUSH2 0x62B JUMP JUMPDEST JUMPDEST MUL OR SWAP1 SSTORE POP JUMP JUMPDEST PUSH1 0x0 DUP2 CALLDATALOAD SWAP1 POP PUSH2 0x4DD DUP2 PUSH2 0x673 JUMP JUMPDEST SWAP3 SWAP2 POP POP JUMP JUMPDEST PUSH1 0x0 PUSH1 0x20 DUP3 DUP5 SUB SLT ISZERO PUSH2 0x4F9 JUMPI PUSH2 0x4F8 PUSH2 0x65A JUMP JUMPDEST JUMPDEST PUSH1 0x0 PUSH2 0x507 DUP5 DUP3 DUP6 ADD PUSH2 0x4CE JUMP JUMPDEST SWAP2 POP POP SWAP3 SWAP2 POP POP JUMP JUMPDEST PUSH2 0x519 DUP2 PUSH2 0x5CA JUMP JUMPDEST DUP3 MSTORE POP POP JUMP JUMPDEST PUSH2 0x528 DUP2 PUSH2 0x5B8 JUMP JUMPDEST DUP3 MSTORE POP POP JUMP JUMPDEST PUSH2 0x537 DUP2 PUSH2 0x619 JUMP JUMPDEST DUP3 MSTORE POP POP JUMP JUMPDEST PUSH2 0x546 DUP2 PUSH2 0x60F JUMP JUMPDEST DUP3 MSTORE POP POP JUMP JUMPDEST PUSH1 0x0 PUSH1 0x20 DUP3 ADD SWAP1 POP PUSH2 0x561 PUSH1 0x0 DUP4 ADD DUP5 PUSH2 0x51F JUMP JUMPDEST SWAP3 SWAP2 POP POP JUMP JUMPDEST PUSH1 0x0 PUSH1 0x20 DUP3 ADD SWAP1 POP PUSH2 0x57C PUSH1 0x0 DUP4 ADD DUP5 PUSH2 0x510 JUMP JUMPDEST SWAP3 SWAP2 POP POP JUMP JUMPDEST PUSH1 0x0 PUSH1 0x20 DUP3 ADD SWAP1 POP PUSH2 0x597 PUSH1 0x0 DUP4 ADD DUP5 PUSH2 0x52E JUMP JUMPDEST SWAP3 SWAP2 POP POP JUMP JUMPDEST PUSH1 0x0 PUSH1 0x20 DUP3 ADD SWAP1 POP PUSH2 0x5B2 PUSH1 0x0 DUP4 ADD DUP5 PUSH2 0x53D JUMP JUMPDEST SWAP3 SWAP2 POP POP JUMP JUMPDEST PUSH1 0x0 PUSH2 0x5C3 DUP3 PUSH2 0x5EF JUMP JUMPDEST SWAP1 POP SWAP2 SWAP1 POP JUMP JUMPDEST PUSH1 0x0 PUSH2 0x5D5 DUP3 PUSH2 0x5EF JUMP JUMPDEST SWAP1 POP SWAP2 SWAP1 POP JUMP JUMPDEST PUSH1 0x0 DUP2 SWAP1 POP PUSH2 0x5EA DUP3 PUSH2 0x65F JUMP JUMPDEST SWAP2 SWAP1 POP JUMP JUMPDEST PUSH1 0x0 PUSH20 0xFFFFFFFFFFFFFFFFFFFFFFFFFFFFFFFFFFFFFFFF DUP3 AND SWAP1 POP SWAP2 SWAP1 POP JUMP JUMPDEST PUSH1 0x0 DUP2 SWAP1 POP SWAP2 SWAP1 POP JUMP JUMPDEST PUSH1 0x0 PUSH2 0x624 DUP3 PUSH2 0x5DC JUMP JUMPDEST SWAP1 POP SWAP2 SWAP1 POP JUMP JUMPDEST PUSH32 0x4E487B7100000000000000000000000000000000000000000000000000000000 PUSH1 0x0 MSTORE PUSH1 0x21 PUSH1 0x4 MSTORE PUSH1 0x24 PUSH1 0x0 REVERT JUMPDEST PUSH1 0x0 DUP1 REVERT JUMPDEST PUSH1 0x3 DUP2 LT PUSH2 0x670 JUMPI PUSH2 0x66F PUSH2 0x62B JUMP JUMPDEST JUMPDEST POP JUMP JUMPDEST PUSH2 0x67C DUP2 PUSH2 0x5B8 JUMP JUMPDEST DUP2 EQ PUSH2 0x687 JUMPI PUSH1 0x0 DUP1 REVERT JUMPDEST POP JUMP INVALID LOG2 PUSH5 0x6970667358 0x22 SLT KECCAK256 0xB6 0xE5 0xCA PUSH3 0xB0A3D6 SHR 0x2F DUP16 0xDA GASPRICE 0xEB SLT 0xBB 0x2E 0xD2 ADDRESS 0x2C PUSH16 0x5BC3A83EDC3687FE1D3AA8B264736F6C PUSH4 0x43000807 STOP CALLER "
				},
				"gasEstimates": {
					"creation": {
						"codeDepositCost": "345600",
						"executionCost": "48945",
						"totalCost": "394545"
					},
					"external": {
						"": "202",
						"auctionIsOpen()": "2613",
						"auctionStatus()": "2604",
						"bids(address)": "2814",
						"endAuction()": "28932",
						"endBlock()": "2452",
						"getHighestBidder()": "379",
						"getHighestBindingBid()": "396",
						"owner()": "2533",
						"start()": "28913",
						"startBlock()": "2518"
					},
					"internal": {
						"addBid(address,uint256)": "13"
					}
				},
				"methodIdentifiers": {
					"auctionIsOpen()": "2b5095b6",
					"auctionStatus()": "9d6a0f28",
					"bids(address)": "62ea82db",
					"endAuction()": "fe67a54b",
					"endBlock()": "083c6323",
					"getHighestBidder()": "003495a4",
					"getHighestBindingBid()": "3046309f",
					"owner()": "8da5cb5b",
					"start()": "be9a6555",
					"startBlock()": "48cd4cb1"
				}
			},
			"storageLayout": {
				"storage": [
					{
						"astId": 3,
						"contract": "contracts/auction.sol:Auction",
						"label": "owner",
						"offset": 0,
						"slot": "0",
						"type": "t_address_payable"
					},
					{
						"astId": 7,
						"contract": "contracts/auction.sol:Auction",
						"label": "bids",
						"offset": 0,
						"slot": "1",
						"type": "t_mapping(t_address,t_uint256)"
					},
					{
						"astId": 14,
						"contract": "contracts/auction.sol:Auction",
						"label": "auctionStatus",
						"offset": 0,
						"slot": "2",
						"type": "t_enum(State)11"
					},
					{
						"astId": 16,
						"contract": "contracts/auction.sol:Auction",
						"label": "startBlock",
						"offset": 0,
						"slot": "3",
						"type": "t_uint256"
					},
					{
						"astId": 18,
						"contract": "contracts/auction.sol:Auction",
						"label": "endBlock",
						"offset": 0,
						"slot": "4",
						"type": "t_uint256"
					}
				],
				"types": {
					"t_address": {
						"encoding": "inplace",
						"label": "address",
						"numberOfBytes": "20"
					},
					"t_address_payable": {
						"encoding": "inplace",
						"label": "address payable",
						"numberOfBytes": "20"
					},
					"t_enum(State)11": {
						"encoding": "inplace",
						"label": "enum Auction.State",
						"numberOfBytes": "1"
					},
					"t_mapping(t_address,t_uint256)": {
						"encoding": "mapping",
						"key": "t_address",
						"label": "mapping(address => uint256)",
						"numberOfBytes": "32",
						"value": "t_uint256"
					},
					"t_uint256": {
						"encoding": "inplace",
						"label": "uint256",
						"numberOfBytes": "32"
					}
				}
			},
			"userdoc": {
				"kind": "user",
				"methods": {},
				"version": 1
			}
		}
	}
}