{
	"contracts/auction.sol": {
		"Auction": {
			"abi": [
				{
					"inputs": [],
					"stateMutability": "nonpayable",
					"type": "constructor"
				},
				{
					"stateMutability": "payable",
					"type": "fallback"
				},
				{
					"inputs": [],
					"name": "auctionIsOpen",
					"outputs": [
						{
							"internalType": "bool",
							"name": "",
							"type": "bool"
						}
					],
					"stateMutability": "view",
					"type": "function"
				},
				{
					"inputs": [
						{
							"internalType": "address",
							"name": "",
							"type": "address"
						}
					],
					"name": "bids",
					"outputs": [
						{
							"internalType": "uint256",
							"name": "",
							"type": "uint256"
						}
					],
					"stateMutability": "view",
					"type": "function"
				},
				{
					"inputs": [],
					"name": "endAuction",
					"outputs": [],
					"stateMutability": "nonpayable",
					"type": "function"
				},
				{
					"inputs": [],
					"name": "endBlock",
					"outputs": [
						{
							"internalType": "uint256",
							"name": "",
							"type": "uint256"
						}
					],
					"stateMutability": "view",
					"type": "function"
				},
				{
					"inputs": [],
					"name": "getHighestBidder",
					"outputs": [
						{
							"internalType": "address",
							"name": "",
							"type": "address"
						}
					],
					"stateMutability": "view",
					"type": "function"
				},
				{
					"inputs": [],
					"name": "getHighestBindingBid",
					"outputs": [
						{
							"internalType": "uint256",
							"name": "",
							"type": "uint256"
						}
					],
					"stateMutability": "view",
					"type": "function"
				},
				{
					"inputs": [],
					"name": "owner",
					"outputs": [
						{
							"internalType": "address payable",
							"name": "",
							"type": "address"
						}
					],
					"stateMutability": "view",
					"type": "function"
				},
				{
					"inputs": [],
					"name": "start",
					"outputs": [],
					"stateMutability": "nonpayable",
					"type": "function"
				},
				{
					"inputs": [],
					"name": "startBlock",
					"outputs": [
						{
							"internalType": "uint256",
							"name": "",
							"type": "uint256"
						}
					],
					"stateMutability": "view",
					"type": "function"
				},
				{
					"stateMutability": "payable",
					"type": "receive"
				}
			],
			"devdoc": {
				"kind": "dev",
				"methods": {},
				"version": 1
			},
			"evm": {
				"assembly": "    /* \"contracts/auction.sol\":73:1432  contract Auction{\r... */\n  mstore(0x40, 0x80)\n    /* \"contracts/auction.sol\":268:350  constructor(){\r... */\n  callvalue\n  dup1\n  iszero\n  tag_1\n  jumpi\n  0x00\n  dup1\n  revert\ntag_1:\n  pop\n    /* \"contracts/auction.sol\":308:318  msg.sender */\n  caller\n    /* \"contracts/auction.sol\":292:297  owner */\n  0x00\n  dup1\n    /* \"contracts/auction.sol\":292:319  owner = payable(msg.sender) */\n  0x0100\n  exp\n  dup2\n  sload\n  dup2\n  0xffffffffffffffffffffffffffffffffffffffff\n  mul\n  not\n  and\n  swap1\n  dup4\n  0xffffffffffffffffffffffffffffffffffffffff\n  and\n  mul\n  or\n  swap1\n  sstore\n  pop\n    /* \"contracts/auction.sol\":337:342  false */\n  0x00\n    /* \"contracts/auction.sol\":330:334  open */\n  0x02\n  0x00\n    /* \"contracts/auction.sol\":330:342  open = false */\n  0x0100\n  exp\n  dup2\n  sload\n  dup2\n  0xff\n  mul\n  not\n  and\n  swap1\n  dup4\n  iszero\n  iszero\n  mul\n  or\n  swap1\n  sstore\n  pop\n    /* \"contracts/auction.sol\":73:1432  contract Auction{\r... */\n  dataSize(sub_0)\n  dup1\n  dataOffset(sub_0)\n  0x00\n  codecopy\n  0x00\n  return\nstop\n\nsub_0: assembly {\n        /* \"contracts/auction.sol\":73:1432  contract Auction{\r... */\n      mstore(0x40, 0x80)\n      jumpi(tag_1, lt(calldatasize, 0x04))\n      shr(0xe0, calldataload(0x00))\n      dup1\n      0x48cd4cb1\n      gt\n      tag_12\n      jumpi\n      dup1\n      0x48cd4cb1\n      eq\n      tag_7\n      jumpi\n      dup1\n      0x62ea82db\n      eq\n      tag_8\n      jumpi\n      dup1\n      0x8da5cb5b\n      eq\n      tag_9\n      jumpi\n      dup1\n      0xbe9a6555\n      eq\n      tag_10\n      jumpi\n      dup1\n      0xfe67a54b\n      eq\n      tag_11\n      jumpi\n      jump(tag_2)\n    tag_12:\n      dup1\n      0x3495a4\n      eq\n      tag_3\n      jumpi\n      dup1\n      0x083c6323\n      eq\n      tag_4\n      jumpi\n      dup1\n      0x2b5095b6\n      eq\n      tag_5\n      jumpi\n      dup1\n      0x3046309f\n      eq\n      tag_6\n      jumpi\n      jump(tag_2)\n    tag_1:\n      jumpi(tag_2, calldatasize)\n        /* \"contracts/auction.sol\":403:418  auctionIsOpen() */\n      tag_15\n        /* \"contracts/auction.sol\":403:416  auctionIsOpen */\n      tag_16\n        /* \"contracts/auction.sol\":403:418  auctionIsOpen() */\n      jump\t// in\n    tag_15:\n        /* \"contracts/auction.sol\":395:419  require(auctionIsOpen()) */\n      tag_17\n      jumpi\n      0x00\n      dup1\n      revert\n    tag_17:\n        /* \"contracts/auction.sol\":452:457  owner */\n      0x00\n      dup1\n      sload\n      swap1\n      0x0100\n      exp\n      swap1\n      div\n      0xffffffffffffffffffffffffffffffffffffffff\n      and\n        /* \"contracts/auction.sol\":438:457  msg.sender != owner */\n      0xffffffffffffffffffffffffffffffffffffffff\n      and\n        /* \"contracts/auction.sol\":438:448  msg.sender */\n      caller\n        /* \"contracts/auction.sol\":438:457  msg.sender != owner */\n      0xffffffffffffffffffffffffffffffffffffffff\n      and\n      eq\n      iszero\n        /* \"contracts/auction.sol\":430:458  require(msg.sender != owner) */\n      tag_18\n      jumpi\n      0x00\n      dup1\n      revert\n    tag_18:\n        /* \"contracts/auction.sol\":469:498  addBid(msg.sender, msg.value) */\n      tag_19\n        /* \"contracts/auction.sol\":476:486  msg.sender */\n      caller\n        /* \"contracts/auction.sol\":488:497  msg.value */\n      callvalue\n        /* \"contracts/auction.sol\":469:475  addBid */\n      tag_20\n        /* \"contracts/auction.sol\":469:498  addBid(msg.sender, msg.value) */\n      jump\t// in\n    tag_19:\n        /* \"contracts/auction.sol\":73:1432  contract Auction{\r... */\n      stop\n    tag_2:\n        /* \"contracts/auction.sol\":552:560  revert() */\n      0x00\n      dup1\n      revert\n        /* \"contracts/auction.sol\":837:903  function getHighestBidder() public view returns(address){\r... */\n    tag_3:\n      callvalue\n      dup1\n      iszero\n      tag_23\n      jumpi\n      0x00\n      dup1\n      revert\n    tag_23:\n      pop\n      tag_24\n      tag_25\n      jump\t// in\n    tag_24:\n      mload(0x40)\n      tag_26\n      swap2\n      swap1\n      tag_27\n      jump\t// in\n    tag_26:\n      mload(0x40)\n      dup1\n      swap2\n      sub\n      swap1\n      return\n        /* \"contracts/auction.sol\":231:251  uint public endBlock */\n    tag_4:\n      callvalue\n      dup1\n      iszero\n      tag_28\n      jumpi\n      0x00\n      dup1\n      revert\n    tag_28:\n      pop\n      tag_29\n      tag_30\n      jump\t// in\n    tag_29:\n      mload(0x40)\n      tag_31\n      swap2\n      swap1\n      tag_32\n      jump\t// in\n    tag_31:\n      mload(0x40)\n      dup1\n      swap2\n      sub\n      swap1\n      return\n        /* \"contracts/auction.sol\":747:827  function auctionIsOpen() public view returns(bool){\r... */\n    tag_5:\n      callvalue\n      dup1\n      iszero\n      tag_33\n      jumpi\n      0x00\n      dup1\n      revert\n    tag_33:\n      pop\n      tag_34\n      tag_16\n      jump\t// in\n    tag_34:\n      mload(0x40)\n      tag_35\n      swap2\n      swap1\n      tag_36\n      jump\t// in\n    tag_35:\n      mload(0x40)\n      dup1\n      swap2\n      sub\n      swap1\n      return\n        /* \"contracts/auction.sol\":911:978  function getHighestBindingBid() public view returns(uint){\r... */\n    tag_6:\n      callvalue\n      dup1\n      iszero\n      tag_37\n      jumpi\n      0x00\n      dup1\n      revert\n    tag_37:\n      pop\n      tag_38\n      tag_39\n      jump\t// in\n    tag_38:\n      mload(0x40)\n      tag_40\n      swap2\n      swap1\n      tag_32\n      jump\t// in\n    tag_40:\n      mload(0x40)\n      dup1\n      swap2\n      sub\n      swap1\n      return\n        /* \"contracts/auction.sol\":202:224  uint public startBlock */\n    tag_7:\n      callvalue\n      dup1\n      iszero\n      tag_41\n      jumpi\n      0x00\n      dup1\n      revert\n    tag_41:\n      pop\n      tag_42\n      tag_43\n      jump\t// in\n    tag_42:\n      mload(0x40)\n      tag_44\n      swap2\n      swap1\n      tag_32\n      jump\t// in\n    tag_44:\n      mload(0x40)\n      dup1\n      swap2\n      sub\n      swap1\n      return\n        /* \"contracts/auction.sol\":133:169  mapping(address => uint) public bids */\n    tag_8:\n      callvalue\n      dup1\n      iszero\n      tag_45\n      jumpi\n      0x00\n      dup1\n      revert\n    tag_45:\n      pop\n      tag_46\n      0x04\n      dup1\n      calldatasize\n      sub\n      dup2\n      add\n      swap1\n      tag_47\n      swap2\n      swap1\n      tag_48\n      jump\t// in\n    tag_47:\n      tag_49\n      jump\t// in\n    tag_46:\n      mload(0x40)\n      tag_50\n      swap2\n      swap1\n      tag_32\n      jump\t// in\n    tag_50:\n      mload(0x40)\n      dup1\n      swap2\n      sub\n      swap1\n      return\n        /* \"contracts/auction.sol\":98:126  address payable public owner */\n    tag_9:\n      callvalue\n      dup1\n      iszero\n      tag_51\n      jumpi\n      0x00\n      dup1\n      revert\n    tag_51:\n      pop\n      tag_52\n      tag_53\n      jump\t// in\n    tag_52:\n      mload(0x40)\n      tag_54\n      swap2\n      swap1\n      tag_55\n      jump\t// in\n    tag_54:\n      mload(0x40)\n      dup1\n      swap2\n      sub\n      swap1\n      return\n        /* \"contracts/auction.sol\":986:1141  function start() public {\r... */\n    tag_10:\n      callvalue\n      dup1\n      iszero\n      tag_56\n      jumpi\n      0x00\n      dup1\n      revert\n    tag_56:\n      pop\n      tag_57\n      tag_58\n      jump\t// in\n    tag_57:\n      stop\n        /* \"contracts/auction.sol\":1149:1429  function endAuction() public{\r... */\n    tag_11:\n      callvalue\n      dup1\n      iszero\n      tag_59\n      jumpi\n      0x00\n      dup1\n      revert\n    tag_59:\n      pop\n      tag_60\n      tag_61\n      jump\t// in\n    tag_60:\n      stop\n        /* \"contracts/auction.sol\":747:827  function auctionIsOpen() public view returns(bool){\r... */\n    tag_16:\n        /* \"contracts/auction.sol\":792:796  bool */\n      0x00\n        /* \"contracts/auction.sol\":815:819  open */\n      0x02\n      0x00\n      swap1\n      sload\n      swap1\n      0x0100\n      exp\n      swap1\n      div\n      0xff\n      and\n        /* \"contracts/auction.sol\":808:819  return open */\n      swap1\n      pop\n        /* \"contracts/auction.sol\":747:827  function auctionIsOpen() public view returns(bool){\r... */\n      swap1\n      jump\t// out\n        /* \"contracts/auction.sol\":576:691  function addBid(address addr, uint bid) internal{\r... */\n    tag_20:\n      pop\n      pop\n      jump\t// out\n        /* \"contracts/auction.sol\":837:903  function getHighestBidder() public view returns(address){\r... */\n    tag_25:\n        /* \"contracts/auction.sol\":885:892  address */\n      0x00\n        /* \"contracts/auction.sol\":837:903  function getHighestBidder() public view returns(address){\r... */\n      swap1\n      jump\t// out\n        /* \"contracts/auction.sol\":231:251  uint public endBlock */\n    tag_30:\n      sload(0x04)\n      dup2\n      jump\t// out\n        /* \"contracts/auction.sol\":911:978  function getHighestBindingBid() public view returns(uint){\r... */\n    tag_39:\n        /* \"contracts/auction.sol\":963:967  uint */\n      0x00\n        /* \"contracts/auction.sol\":911:978  function getHighestBindingBid() public view returns(uint){\r... */\n      swap1\n      jump\t// out\n        /* \"contracts/auction.sol\":202:224  uint public startBlock */\n    tag_43:\n      sload(0x03)\n      dup2\n      jump\t// out\n        /* \"contracts/auction.sol\":133:169  mapping(address => uint) public bids */\n    tag_49:\n      mstore(0x20, 0x01)\n      dup1\n      0x00\n      mstore\n      keccak256(0x00, 0x40)\n      0x00\n      swap2\n      pop\n      swap1\n      pop\n      sload\n      dup2\n      jump\t// out\n        /* \"contracts/auction.sol\":98:126  address payable public owner */\n    tag_53:\n      0x00\n      dup1\n      sload\n      swap1\n      0x0100\n      exp\n      swap1\n      div\n      0xffffffffffffffffffffffffffffffffffffffff\n      and\n      dup2\n      jump\t// out\n        /* \"contracts/auction.sol\":986:1141  function start() public {\r... */\n    tag_58:\n        /* \"contracts/auction.sol\":1043:1048  owner */\n      0x00\n      dup1\n      sload\n      swap1\n      0x0100\n      exp\n      swap1\n      div\n      0xffffffffffffffffffffffffffffffffffffffff\n      and\n        /* \"contracts/auction.sol\":1029:1048  msg.sender == owner */\n      0xffffffffffffffffffffffffffffffffffffffff\n      and\n        /* \"contracts/auction.sol\":1029:1039  msg.sender */\n      caller\n        /* \"contracts/auction.sol\":1029:1048  msg.sender == owner */\n      0xffffffffffffffffffffffffffffffffffffffff\n      and\n      eq\n        /* \"contracts/auction.sol\":1021:1049  require(msg.sender == owner) */\n      tag_67\n      jumpi\n      0x00\n      dup1\n      revert\n    tag_67:\n        /* \"contracts/auction.sol\":1069:1084  auctionIsOpen() */\n      tag_68\n        /* \"contracts/auction.sol\":1069:1082  auctionIsOpen */\n      tag_16\n        /* \"contracts/auction.sol\":1069:1084  auctionIsOpen() */\n      jump\t// in\n    tag_68:\n        /* \"contracts/auction.sol\":1068:1084  !auctionIsOpen() */\n      iszero\n        /* \"contracts/auction.sol\":1060:1085  require(!auctionIsOpen()) */\n      tag_69\n      jumpi\n      0x00\n      dup1\n      revert\n    tag_69:\n        /* \"contracts/auction.sol\":1105:1109  true */\n      0x01\n        /* \"contracts/auction.sol\":1098:1102  open */\n      0x02\n      0x00\n        /* \"contracts/auction.sol\":1098:1109  open = true */\n      0x0100\n      exp\n      dup2\n      sload\n      dup2\n      0xff\n      mul\n      not\n      and\n      swap1\n      dup4\n      iszero\n      iszero\n      mul\n      or\n      swap1\n      sstore\n      pop\n        /* \"contracts/auction.sol\":986:1141  function start() public {\r... */\n      jump\t// out\n        /* \"contracts/auction.sol\":1149:1429  function endAuction() public{\r... */\n    tag_61:\n        /* \"contracts/auction.sol\":1210:1215  owner */\n      0x00\n      dup1\n      sload\n      swap1\n      0x0100\n      exp\n      swap1\n      div\n      0xffffffffffffffffffffffffffffffffffffffff\n      and\n        /* \"contracts/auction.sol\":1196:1215  msg.sender == owner */\n      0xffffffffffffffffffffffffffffffffffffffff\n      and\n        /* \"contracts/auction.sol\":1196:1206  msg.sender */\n      caller\n        /* \"contracts/auction.sol\":1196:1215  msg.sender == owner */\n      0xffffffffffffffffffffffffffffffffffffffff\n      and\n      eq\n        /* \"contracts/auction.sol\":1188:1216  require(msg.sender == owner) */\n      tag_71\n      jumpi\n      0x00\n      dup1\n      revert\n    tag_71:\n        /* \"contracts/auction.sol\":1235:1250  auctionIsOpen() */\n      tag_72\n        /* \"contracts/auction.sol\":1235:1248  auctionIsOpen */\n      tag_16\n        /* \"contracts/auction.sol\":1235:1250  auctionIsOpen() */\n      jump\t// in\n    tag_72:\n        /* \"contracts/auction.sol\":1227:1251  require(auctionIsOpen()) */\n      tag_73\n      jumpi\n      0x00\n      dup1\n      revert\n    tag_73:\n        /* \"contracts/auction.sol\":1279:1284  false */\n      0x00\n        /* \"contracts/auction.sol\":1272:1276  open */\n      0x02\n      0x00\n        /* \"contracts/auction.sol\":1272:1284  open = false */\n      0x0100\n      exp\n      dup2\n      sload\n      dup2\n      0xff\n      mul\n      not\n      and\n      swap1\n      dup4\n      iszero\n      iszero\n      mul\n      or\n      swap1\n      sstore\n      pop\n        /* \"contracts/auction.sol\":1149:1429  function endAuction() public{\r... */\n      jump\t// out\n        /* \"#utility.yul\":7:146   */\n    tag_75:\n        /* \"#utility.yul\":53:58   */\n      0x00\n        /* \"#utility.yul\":91:97   */\n      dup2\n        /* \"#utility.yul\":78:98   */\n      calldataload\n        /* \"#utility.yul\":69:98   */\n      swap1\n      pop\n        /* \"#utility.yul\":107:140   */\n      tag_77\n        /* \"#utility.yul\":134:139   */\n      dup2\n        /* \"#utility.yul\":107:140   */\n      tag_78\n      jump\t// in\n    tag_77:\n        /* \"#utility.yul\":7:146   */\n      swap3\n      swap2\n      pop\n      pop\n      jump\t// out\n        /* \"#utility.yul\":152:481   */\n    tag_48:\n        /* \"#utility.yul\":211:217   */\n      0x00\n        /* \"#utility.yul\":260:262   */\n      0x20\n        /* \"#utility.yul\":248:257   */\n      dup3\n        /* \"#utility.yul\":239:246   */\n      dup5\n        /* \"#utility.yul\":235:258   */\n      sub\n        /* \"#utility.yul\":231:263   */\n      slt\n        /* \"#utility.yul\":228:347   */\n      iszero\n      tag_80\n      jumpi\n        /* \"#utility.yul\":266:345   */\n      tag_81\n      tag_82\n      jump\t// in\n    tag_81:\n        /* \"#utility.yul\":228:347   */\n    tag_80:\n        /* \"#utility.yul\":386:387   */\n      0x00\n        /* \"#utility.yul\":411:464   */\n      tag_83\n        /* \"#utility.yul\":456:463   */\n      dup5\n        /* \"#utility.yul\":447:453   */\n      dup3\n        /* \"#utility.yul\":436:445   */\n      dup6\n        /* \"#utility.yul\":432:454   */\n      add\n        /* \"#utility.yul\":411:464   */\n      tag_75\n      jump\t// in\n    tag_83:\n        /* \"#utility.yul\":401:464   */\n      swap2\n      pop\n        /* \"#utility.yul\":357:474   */\n      pop\n        /* \"#utility.yul\":152:481   */\n      swap3\n      swap2\n      pop\n      pop\n      jump\t// out\n        /* \"#utility.yul\":487:629   */\n    tag_84:\n        /* \"#utility.yul\":590:622   */\n      tag_86\n        /* \"#utility.yul\":616:621   */\n      dup2\n        /* \"#utility.yul\":590:622   */\n      tag_87\n      jump\t// in\n    tag_86:\n        /* \"#utility.yul\":585:588   */\n      dup3\n        /* \"#utility.yul\":578:623   */\n      mstore\n        /* \"#utility.yul\":487:629   */\n      pop\n      pop\n      jump\t// out\n        /* \"#utility.yul\":635:753   */\n    tag_88:\n        /* \"#utility.yul\":722:746   */\n      tag_90\n        /* \"#utility.yul\":740:745   */\n      dup2\n        /* \"#utility.yul\":722:746   */\n      tag_91\n      jump\t// in\n    tag_90:\n        /* \"#utility.yul\":717:720   */\n      dup3\n        /* \"#utility.yul\":710:747   */\n      mstore\n        /* \"#utility.yul\":635:753   */\n      pop\n      pop\n      jump\t// out\n        /* \"#utility.yul\":759:868   */\n    tag_92:\n        /* \"#utility.yul\":840:861   */\n      tag_94\n        /* \"#utility.yul\":855:860   */\n      dup2\n        /* \"#utility.yul\":840:861   */\n      tag_95\n      jump\t// in\n    tag_94:\n        /* \"#utility.yul\":835:838   */\n      dup3\n        /* \"#utility.yul\":828:862   */\n      mstore\n        /* \"#utility.yul\":759:868   */\n      pop\n      pop\n      jump\t// out\n        /* \"#utility.yul\":874:992   */\n    tag_96:\n        /* \"#utility.yul\":961:985   */\n      tag_98\n        /* \"#utility.yul\":979:984   */\n      dup2\n        /* \"#utility.yul\":961:985   */\n      tag_99\n      jump\t// in\n    tag_98:\n        /* \"#utility.yul\":956:959   */\n      dup3\n        /* \"#utility.yul\":949:986   */\n      mstore\n        /* \"#utility.yul\":874:992   */\n      pop\n      pop\n      jump\t// out\n        /* \"#utility.yul\":998:1220   */\n    tag_27:\n        /* \"#utility.yul\":1091:1095   */\n      0x00\n        /* \"#utility.yul\":1129:1131   */\n      0x20\n        /* \"#utility.yul\":1118:1127   */\n      dup3\n        /* \"#utility.yul\":1114:1132   */\n      add\n        /* \"#utility.yul\":1106:1132   */\n      swap1\n      pop\n        /* \"#utility.yul\":1142:1213   */\n      tag_101\n        /* \"#utility.yul\":1210:1211   */\n      0x00\n        /* \"#utility.yul\":1199:1208   */\n      dup4\n        /* \"#utility.yul\":1195:1212   */\n      add\n        /* \"#utility.yul\":1186:1192   */\n      dup5\n        /* \"#utility.yul\":1142:1213   */\n      tag_88\n      jump\t// in\n    tag_101:\n        /* \"#utility.yul\":998:1220   */\n      swap3\n      swap2\n      pop\n      pop\n      jump\t// out\n        /* \"#utility.yul\":1226:1480   */\n    tag_55:\n        /* \"#utility.yul\":1335:1339   */\n      0x00\n        /* \"#utility.yul\":1373:1375   */\n      0x20\n        /* \"#utility.yul\":1362:1371   */\n      dup3\n        /* \"#utility.yul\":1358:1376   */\n      add\n        /* \"#utility.yul\":1350:1376   */\n      swap1\n      pop\n        /* \"#utility.yul\":1386:1473   */\n      tag_103\n        /* \"#utility.yul\":1470:1471   */\n      0x00\n        /* \"#utility.yul\":1459:1468   */\n      dup4\n        /* \"#utility.yul\":1455:1472   */\n      add\n        /* \"#utility.yul\":1446:1452   */\n      dup5\n        /* \"#utility.yul\":1386:1473   */\n      tag_84\n      jump\t// in\n    tag_103:\n        /* \"#utility.yul\":1226:1480   */\n      swap3\n      swap2\n      pop\n      pop\n      jump\t// out\n        /* \"#utility.yul\":1486:1696   */\n    tag_36:\n        /* \"#utility.yul\":1573:1577   */\n      0x00\n        /* \"#utility.yul\":1611:1613   */\n      0x20\n        /* \"#utility.yul\":1600:1609   */\n      dup3\n        /* \"#utility.yul\":1596:1614   */\n      add\n        /* \"#utility.yul\":1588:1614   */\n      swap1\n      pop\n        /* \"#utility.yul\":1624:1689   */\n      tag_105\n        /* \"#utility.yul\":1686:1687   */\n      0x00\n        /* \"#utility.yul\":1675:1684   */\n      dup4\n        /* \"#utility.yul\":1671:1688   */\n      add\n        /* \"#utility.yul\":1662:1668   */\n      dup5\n        /* \"#utility.yul\":1624:1689   */\n      tag_92\n      jump\t// in\n    tag_105:\n        /* \"#utility.yul\":1486:1696   */\n      swap3\n      swap2\n      pop\n      pop\n      jump\t// out\n        /* \"#utility.yul\":1702:1924   */\n    tag_32:\n        /* \"#utility.yul\":1795:1799   */\n      0x00\n        /* \"#utility.yul\":1833:1835   */\n      0x20\n        /* \"#utility.yul\":1822:1831   */\n      dup3\n        /* \"#utility.yul\":1818:1836   */\n      add\n        /* \"#utility.yul\":1810:1836   */\n      swap1\n      pop\n        /* \"#utility.yul\":1846:1917   */\n      tag_107\n        /* \"#utility.yul\":1914:1915   */\n      0x00\n        /* \"#utility.yul\":1903:1912   */\n      dup4\n        /* \"#utility.yul\":1899:1916   */\n      add\n        /* \"#utility.yul\":1890:1896   */\n      dup5\n        /* \"#utility.yul\":1846:1917   */\n      tag_96\n      jump\t// in\n    tag_107:\n        /* \"#utility.yul\":1702:1924   */\n      swap3\n      swap2\n      pop\n      pop\n      jump\t// out\n        /* \"#utility.yul\":2011:2107   */\n    tag_91:\n        /* \"#utility.yul\":2048:2055   */\n      0x00\n        /* \"#utility.yul\":2077:2101   */\n      tag_111\n        /* \"#utility.yul\":2095:2100   */\n      dup3\n        /* \"#utility.yul\":2077:2101   */\n      tag_112\n      jump\t// in\n    tag_111:\n        /* \"#utility.yul\":2066:2101   */\n      swap1\n      pop\n        /* \"#utility.yul\":2011:2107   */\n      swap2\n      swap1\n      pop\n      jump\t// out\n        /* \"#utility.yul\":2113:2217   */\n    tag_87:\n        /* \"#utility.yul\":2158:2165   */\n      0x00\n        /* \"#utility.yul\":2187:2211   */\n      tag_114\n        /* \"#utility.yul\":2205:2210   */\n      dup3\n        /* \"#utility.yul\":2187:2211   */\n      tag_112\n      jump\t// in\n    tag_114:\n        /* \"#utility.yul\":2176:2211   */\n      swap1\n      pop\n        /* \"#utility.yul\":2113:2217   */\n      swap2\n      swap1\n      pop\n      jump\t// out\n        /* \"#utility.yul\":2223:2313   */\n    tag_95:\n        /* \"#utility.yul\":2257:2264   */\n      0x00\n        /* \"#utility.yul\":2300:2305   */\n      dup2\n        /* \"#utility.yul\":2293:2306   */\n      iszero\n        /* \"#utility.yul\":2286:2307   */\n      iszero\n        /* \"#utility.yul\":2275:2307   */\n      swap1\n      pop\n        /* \"#utility.yul\":2223:2313   */\n      swap2\n      swap1\n      pop\n      jump\t// out\n        /* \"#utility.yul\":2319:2445   */\n    tag_112:\n        /* \"#utility.yul\":2356:2363   */\n      0x00\n        /* \"#utility.yul\":2396:2438   */\n      0xffffffffffffffffffffffffffffffffffffffff\n        /* \"#utility.yul\":2389:2394   */\n      dup3\n        /* \"#utility.yul\":2385:2439   */\n      and\n        /* \"#utility.yul\":2374:2439   */\n      swap1\n      pop\n        /* \"#utility.yul\":2319:2445   */\n      swap2\n      swap1\n      pop\n      jump\t// out\n        /* \"#utility.yul\":2451:2528   */\n    tag_99:\n        /* \"#utility.yul\":2488:2495   */\n      0x00\n        /* \"#utility.yul\":2517:2522   */\n      dup2\n        /* \"#utility.yul\":2506:2522   */\n      swap1\n      pop\n        /* \"#utility.yul\":2451:2528   */\n      swap2\n      swap1\n      pop\n      jump\t// out\n        /* \"#utility.yul\":2657:2774   */\n    tag_82:\n        /* \"#utility.yul\":2766:2767   */\n      0x00\n        /* \"#utility.yul\":2763:2764   */\n      dup1\n        /* \"#utility.yul\":2756:2768   */\n      revert\n        /* \"#utility.yul\":2780:2902   */\n    tag_78:\n        /* \"#utility.yul\":2853:2877   */\n      tag_122\n        /* \"#utility.yul\":2871:2876   */\n      dup2\n        /* \"#utility.yul\":2853:2877   */\n      tag_91\n      jump\t// in\n    tag_122:\n        /* \"#utility.yul\":2846:2851   */\n      dup2\n        /* \"#utility.yul\":2843:2878   */\n      eq\n        /* \"#utility.yul\":2833:2896   */\n      tag_123\n      jumpi\n        /* \"#utility.yul\":2892:2893   */\n      0x00\n        /* \"#utility.yul\":2889:2890   */\n      dup1\n        /* \"#utility.yul\":2882:2894   */\n      revert\n        /* \"#utility.yul\":2833:2896   */\n    tag_123:\n        /* \"#utility.yul\":2780:2902   */\n      pop\n      jump\t// out\n\n    auxdata: 0xa264697066735822122007ae27227c685b2927481cb586a90f0e9d5653dec2d257d9669d9cc04095094c64736f6c63430008070033\n}\n",
				"bytecode": {
					"linkReferences": {},
					"object": "608060405234801561001057600080fd5b50336000806101000a81548173ffffffffffffffffffffffffffffffffffffffff021916908373ffffffffffffffffffffffffffffffffffffffff1602179055506000600260006101000a81548160ff0219169083151502179055506105868061007b6000396000f3fe6080604052600436106100895760003560e01c806348cd4cb11161005957806348cd4cb1146101b557806362ea82db146101e05780638da5cb5b1461021d578063be9a655514610248578063fe67a54b1461025f57610104565b80623495a414610109578063083c6323146101345780632b5095b61461015f5780633046309f1461018a57610104565b3661010457610096610276565b61009f57600080fd5b60008054906101000a900473ffffffffffffffffffffffffffffffffffffffff1673ffffffffffffffffffffffffffffffffffffffff163373ffffffffffffffffffffffffffffffffffffffff1614156100f857600080fd5b610102333461028d565b005b600080fd5b34801561011557600080fd5b5061011e610291565b60405161012b919061046e565b60405180910390f35b34801561014057600080fd5b50610149610296565b60405161015691906104bf565b60405180910390f35b34801561016b57600080fd5b50610174610276565b60405161018191906104a4565b60405180910390f35b34801561019657600080fd5b5061019f61029c565b6040516101ac91906104bf565b60405180910390f35b3480156101c157600080fd5b506101ca6102a1565b6040516101d791906104bf565b60405180910390f35b3480156101ec57600080fd5b5061020760048036038101906102029190610405565b6102a7565b60405161021491906104bf565b60405180910390f35b34801561022957600080fd5b506102326102bf565b60405161023f9190610489565b60405180910390f35b34801561025457600080fd5b5061025d6102e3565b005b34801561026b57600080fd5b5061027461036a565b005b6000600260009054906101000a900460ff16905090565b5050565b600090565b60045481565b600090565b60035481565b60016020528060005260406000206000915090505481565b60008054906101000a900473ffffffffffffffffffffffffffffffffffffffff1681565b60008054906101000a900473ffffffffffffffffffffffffffffffffffffffff1673ffffffffffffffffffffffffffffffffffffffff163373ffffffffffffffffffffffffffffffffffffffff161461033b57600080fd5b610343610276565b1561034d57600080fd5b6001600260006101000a81548160ff021916908315150217905550565b60008054906101000a900473ffffffffffffffffffffffffffffffffffffffff1673ffffffffffffffffffffffffffffffffffffffff163373ffffffffffffffffffffffffffffffffffffffff16146103c257600080fd5b6103ca610276565b6103d357600080fd5b6000600260006101000a81548160ff021916908315150217905550565b6000813590506103ff81610539565b92915050565b60006020828403121561041b5761041a610534565b5b6000610429848285016103f0565b91505092915050565b61043b816104ec565b82525050565b61044a816104da565b82525050565b610459816104fe565b82525050565b6104688161052a565b82525050565b60006020820190506104836000830184610441565b92915050565b600060208201905061049e6000830184610432565b92915050565b60006020820190506104b96000830184610450565b92915050565b60006020820190506104d4600083018461045f565b92915050565b60006104e58261050a565b9050919050565b60006104f78261050a565b9050919050565b60008115159050919050565b600073ffffffffffffffffffffffffffffffffffffffff82169050919050565b6000819050919050565b600080fd5b610542816104da565b811461054d57600080fd5b5056fea264697066735822122007ae27227c685b2927481cb586a90f0e9d5653dec2d257d9669d9cc04095094c64736f6c63430008070033",
					"opcodes": "PUSH1 0x80 PUSH1 0x40 MSTORE CALLVALUE DUP1 ISZERO PUSH2 0x10 JUMPI PUSH1 0x0 DUP1 REVERT JUMPDEST POP CALLER PUSH1 0x0 DUP1 PUSH2 0x100 EXP DUP2 SLOAD DUP2 PUSH20 0xFFFFFFFFFFFFFFFFFFFFFFFFFFFFFFFFFFFFFFFF MUL NOT AND SWAP1 DUP4 PUSH20 0xFFFFFFFFFFFFFFFFFFFFFFFFFFFFFFFFFFFFFFFF AND MUL OR SWAP1 SSTORE POP PUSH1 0x0 PUSH1 0x2 PUSH1 0x0 PUSH2 0x100 EXP DUP2 SLOAD DUP2 PUSH1 0xFF MUL NOT AND SWAP1 DUP4 ISZERO ISZERO MUL OR SWAP1 SSTORE POP PUSH2 0x586 DUP1 PUSH2 0x7B PUSH1 0x0 CODECOPY PUSH1 0x0 RETURN INVALID PUSH1 0x80 PUSH1 0x40 MSTORE PUSH1 0x4 CALLDATASIZE LT PUSH2 0x89 JUMPI PUSH1 0x0 CALLDATALOAD PUSH1 0xE0 SHR DUP1 PUSH4 0x48CD4CB1 GT PUSH2 0x59 JUMPI DUP1 PUSH4 0x48CD4CB1 EQ PUSH2 0x1B5 JUMPI DUP1 PUSH4 0x62EA82DB EQ PUSH2 0x1E0 JUMPI DUP1 PUSH4 0x8DA5CB5B EQ PUSH2 0x21D JUMPI DUP1 PUSH4 0xBE9A6555 EQ PUSH2 0x248 JUMPI DUP1 PUSH4 0xFE67A54B EQ PUSH2 0x25F JUMPI PUSH2 0x104 JUMP JUMPDEST DUP1 PUSH3 0x3495A4 EQ PUSH2 0x109 JUMPI DUP1 PUSH4 0x83C6323 EQ PUSH2 0x134 JUMPI DUP1 PUSH4 0x2B5095B6 EQ PUSH2 0x15F JUMPI DUP1 PUSH4 0x3046309F EQ PUSH2 0x18A JUMPI PUSH2 0x104 JUMP JUMPDEST CALLDATASIZE PUSH2 0x104 JUMPI PUSH2 0x96 PUSH2 0x276 JUMP JUMPDEST PUSH2 0x9F JUMPI PUSH1 0x0 DUP1 REVERT JUMPDEST PUSH1 0x0 DUP1 SLOAD SWAP1 PUSH2 0x100 EXP SWAP1 DIV PUSH20 0xFFFFFFFFFFFFFFFFFFFFFFFFFFFFFFFFFFFFFFFF AND PUSH20 0xFFFFFFFFFFFFFFFFFFFFFFFFFFFFFFFFFFFFFFFF AND CALLER PUSH20 0xFFFFFFFFFFFFFFFFFFFFFFFFFFFFFFFFFFFFFFFF AND EQ ISZERO PUSH2 0xF8 JUMPI PUSH1 0x0 DUP1 REVERT JUMPDEST PUSH2 0x102 CALLER CALLVALUE PUSH2 0x28D JUMP JUMPDEST STOP JUMPDEST PUSH1 0x0 DUP1 REVERT JUMPDEST CALLVALUE DUP1 ISZERO PUSH2 0x115 JUMPI PUSH1 0x0 DUP1 REVERT JUMPDEST POP PUSH2 0x11E PUSH2 0x291 JUMP JUMPDEST PUSH1 0x40 MLOAD PUSH2 0x12B SWAP2 SWAP1 PUSH2 0x46E JUMP JUMPDEST PUSH1 0x40 MLOAD DUP1 SWAP2 SUB SWAP1 RETURN JUMPDEST CALLVALUE DUP1 ISZERO PUSH2 0x140 JUMPI PUSH1 0x0 DUP1 REVERT JUMPDEST POP PUSH2 0x149 PUSH2 0x296 JUMP JUMPDEST PUSH1 0x40 MLOAD PUSH2 0x156 SWAP2 SWAP1 PUSH2 0x4BF JUMP JUMPDEST PUSH1 0x40 MLOAD DUP1 SWAP2 SUB SWAP1 RETURN JUMPDEST CALLVALUE DUP1 ISZERO PUSH2 0x16B JUMPI PUSH1 0x0 DUP1 REVERT JUMPDEST POP PUSH2 0x174 PUSH2 0x276 JUMP JUMPDEST PUSH1 0x40 MLOAD PUSH2 0x181 SWAP2 SWAP1 PUSH2 0x4A4 JUMP JUMPDEST PUSH1 0x40 MLOAD DUP1 SWAP2 SUB SWAP1 RETURN JUMPDEST CALLVALUE DUP1 ISZERO PUSH2 0x196 JUMPI PUSH1 0x0 DUP1 REVERT JUMPDEST POP PUSH2 0x19F PUSH2 0x29C JUMP JUMPDEST PUSH1 0x40 MLOAD PUSH2 0x1AC SWAP2 SWAP1 PUSH2 0x4BF JUMP JUMPDEST PUSH1 0x40 MLOAD DUP1 SWAP2 SUB SWAP1 RETURN JUMPDEST CALLVALUE DUP1 ISZERO PUSH2 0x1C1 JUMPI PUSH1 0x0 DUP1 REVERT JUMPDEST POP PUSH2 0x1CA PUSH2 0x2A1 JUMP JUMPDEST PUSH1 0x40 MLOAD PUSH2 0x1D7 SWAP2 SWAP1 PUSH2 0x4BF JUMP JUMPDEST PUSH1 0x40 MLOAD DUP1 SWAP2 SUB SWAP1 RETURN JUMPDEST CALLVALUE DUP1 ISZERO PUSH2 0x1EC JUMPI PUSH1 0x0 DUP1 REVERT JUMPDEST POP PUSH2 0x207 PUSH1 0x4 DUP1 CALLDATASIZE SUB DUP2 ADD SWAP1 PUSH2 0x202 SWAP2 SWAP1 PUSH2 0x405 JUMP JUMPDEST PUSH2 0x2A7 JUMP JUMPDEST PUSH1 0x40 MLOAD PUSH2 0x214 SWAP2 SWAP1 PUSH2 0x4BF JUMP JUMPDEST PUSH1 0x40 MLOAD DUP1 SWAP2 SUB SWAP1 RETURN JUMPDEST CALLVALUE DUP1 ISZERO PUSH2 0x229 JUMPI PUSH1 0x0 DUP1 REVERT JUMPDEST POP PUSH2 0x232 PUSH2 0x2BF JUMP JUMPDEST PUSH1 0x40 MLOAD PUSH2 0x23F SWAP2 SWAP1 PUSH2 0x489 JUMP JUMPDEST PUSH1 0x40 MLOAD DUP1 SWAP2 SUB SWAP1 RETURN JUMPDEST CALLVALUE DUP1 ISZERO PUSH2 0x254 JUMPI PUSH1 0x0 DUP1 REVERT JUMPDEST POP PUSH2 0x25D PUSH2 0x2E3 JUMP JUMPDEST STOP JUMPDEST CALLVALUE DUP1 ISZERO PUSH2 0x26B JUMPI PUSH1 0x0 DUP1 REVERT JUMPDEST POP PUSH2 0x274 PUSH2 0x36A JUMP JUMPDEST STOP JUMPDEST PUSH1 0x0 PUSH1 0x2 PUSH1 0x0 SWAP1 SLOAD SWAP1 PUSH2 0x100 EXP SWAP1 DIV PUSH1 0xFF AND SWAP1 POP SWAP1 JUMP JUMPDEST POP POP JUMP JUMPDEST PUSH1 0x0 SWAP1 JUMP JUMPDEST PUSH1 0x4 SLOAD DUP2 JUMP JUMPDEST PUSH1 0x0 SWAP1 JUMP JUMPDEST PUSH1 0x3 SLOAD DUP2 JUMP JUMPDEST PUSH1 0x1 PUSH1 0x20 MSTORE DUP1 PUSH1 0x0 MSTORE PUSH1 0x40 PUSH1 0x0 KECCAK256 PUSH1 0x0 SWAP2 POP SWAP1 POP SLOAD DUP2 JUMP JUMPDEST PUSH1 0x0 DUP1 SLOAD SWAP1 PUSH2 0x100 EXP SWAP1 DIV PUSH20 0xFFFFFFFFFFFFFFFFFFFFFFFFFFFFFFFFFFFFFFFF AND DUP2 JUMP JUMPDEST PUSH1 0x0 DUP1 SLOAD SWAP1 PUSH2 0x100 EXP SWAP1 DIV PUSH20 0xFFFFFFFFFFFFFFFFFFFFFFFFFFFFFFFFFFFFFFFF AND PUSH20 0xFFFFFFFFFFFFFFFFFFFFFFFFFFFFFFFFFFFFFFFF AND CALLER PUSH20 0xFFFFFFFFFFFFFFFFFFFFFFFFFFFFFFFFFFFFFFFF AND EQ PUSH2 0x33B JUMPI PUSH1 0x0 DUP1 REVERT JUMPDEST PUSH2 0x343 PUSH2 0x276 JUMP JUMPDEST ISZERO PUSH2 0x34D JUMPI PUSH1 0x0 DUP1 REVERT JUMPDEST PUSH1 0x1 PUSH1 0x2 PUSH1 0x0 PUSH2 0x100 EXP DUP2 SLOAD DUP2 PUSH1 0xFF MUL NOT AND SWAP1 DUP4 ISZERO ISZERO MUL OR SWAP1 SSTORE POP JUMP JUMPDEST PUSH1 0x0 DUP1 SLOAD SWAP1 PUSH2 0x100 EXP SWAP1 DIV PUSH20 0xFFFFFFFFFFFFFFFFFFFFFFFFFFFFFFFFFFFFFFFF AND PUSH20 0xFFFFFFFFFFFFFFFFFFFFFFFFFFFFFFFFFFFFFFFF AND CALLER PUSH20 0xFFFFFFFFFFFFFFFFFFFFFFFFFFFFFFFFFFFFFFFF AND EQ PUSH2 0x3C2 JUMPI PUSH1 0x0 DUP1 REVERT JUMPDEST PUSH2 0x3CA PUSH2 0x276 JUMP JUMPDEST PUSH2 0x3D3 JUMPI PUSH1 0x0 DUP1 REVERT JUMPDEST PUSH1 0x0 PUSH1 0x2 PUSH1 0x0 PUSH2 0x100 EXP DUP2 SLOAD DUP2 PUSH1 0xFF MUL NOT AND SWAP1 DUP4 ISZERO ISZERO MUL OR SWAP1 SSTORE POP JUMP JUMPDEST PUSH1 0x0 DUP2 CALLDATALOAD SWAP1 POP PUSH2 0x3FF DUP2 PUSH2 0x539 JUMP JUMPDEST SWAP3 SWAP2 POP POP JUMP JUMPDEST PUSH1 0x0 PUSH1 0x20 DUP3 DUP5 SUB SLT ISZERO PUSH2 0x41B JUMPI PUSH2 0x41A PUSH2 0x534 JUMP JUMPDEST JUMPDEST PUSH1 0x0 PUSH2 0x429 DUP5 DUP3 DUP6 ADD PUSH2 0x3F0 JUMP JUMPDEST SWAP2 POP POP SWAP3 SWAP2 POP POP JUMP JUMPDEST PUSH2 0x43B DUP2 PUSH2 0x4EC JUMP JUMPDEST DUP3 MSTORE POP POP JUMP JUMPDEST PUSH2 0x44A DUP2 PUSH2 0x4DA JUMP JUMPDEST DUP3 MSTORE POP POP JUMP JUMPDEST PUSH2 0x459 DUP2 PUSH2 0x4FE JUMP JUMPDEST DUP3 MSTORE POP POP JUMP JUMPDEST PUSH2 0x468 DUP2 PUSH2 0x52A JUMP JUMPDEST DUP3 MSTORE POP POP JUMP JUMPDEST PUSH1 0x0 PUSH1 0x20 DUP3 ADD SWAP1 POP PUSH2 0x483 PUSH1 0x0 DUP4 ADD DUP5 PUSH2 0x441 JUMP JUMPDEST SWAP3 SWAP2 POP POP JUMP JUMPDEST PUSH1 0x0 PUSH1 0x20 DUP3 ADD SWAP1 POP PUSH2 0x49E PUSH1 0x0 DUP4 ADD DUP5 PUSH2 0x432 JUMP JUMPDEST SWAP3 SWAP2 POP POP JUMP JUMPDEST PUSH1 0x0 PUSH1 0x20 DUP3 ADD SWAP1 POP PUSH2 0x4B9 PUSH1 0x0 DUP4 ADD DUP5 PUSH2 0x450 JUMP JUMPDEST SWAP3 SWAP2 POP POP JUMP JUMPDEST PUSH1 0x0 PUSH1 0x20 DUP3 ADD SWAP1 POP PUSH2 0x4D4 PUSH1 0x0 DUP4 ADD DUP5 PUSH2 0x45F JUMP JUMPDEST SWAP3 SWAP2 POP POP JUMP JUMPDEST PUSH1 0x0 PUSH2 0x4E5 DUP3 PUSH2 0x50A JUMP JUMPDEST SWAP1 POP SWAP2 SWAP1 POP JUMP JUMPDEST PUSH1 0x0 PUSH2 0x4F7 DUP3 PUSH2 0x50A JUMP JUMPDEST SWAP1 POP SWAP2 SWAP1 POP JUMP JUMPDEST PUSH1 0x0 DUP2 ISZERO ISZERO SWAP1 POP SWAP2 SWAP1 POP JUMP JUMPDEST PUSH1 0x0 PUSH20 0xFFFFFFFFFFFFFFFFFFFFFFFFFFFFFFFFFFFFFFFF DUP3 AND SWAP1 POP SWAP2 SWAP1 POP JUMP JUMPDEST PUSH1 0x0 DUP2 SWAP1 POP SWAP2 SWAP1 POP JUMP JUMPDEST PUSH1 0x0 DUP1 REVERT JUMPDEST PUSH2 0x542 DUP2 PUSH2 0x4DA JUMP JUMPDEST DUP2 EQ PUSH2 0x54D JUMPI PUSH1 0x0 DUP1 REVERT JUMPDEST POP JUMP INVALID LOG2 PUSH5 0x6970667358 0x22 SLT KECCAK256 SMOD 0xAE 0x27 0x22 PUSH29 0x685B2927481CB586A90F0E9D5653DEC2D257D9669D9CC04095094C6473 PUSH16 0x6C634300080700330000000000000000 "
				},
				"gasEstimates": {
					"creation": {
						"codeDepositCost": "282800",
						"executionCost": "48857",
						"totalCost": "331657"
					},
					"external": {
						"": "180",
						"auctionIsOpen()": "2524",
						"bids(address)": "2836",
						"endAuction()": "28854",
						"endBlock()": "2452",
						"getHighestBidder()": "379",
						"getHighestBindingBid()": "396",
						"owner()": "2555",
						"start()": "28835",
						"startBlock()": "2429"
					},
					"internal": {
						"addBid(address,uint256)": "13"
					}
				},
				"methodIdentifiers": {
					"auctionIsOpen()": "2b5095b6",
					"bids(address)": "62ea82db",
					"endAuction()": "fe67a54b",
					"endBlock()": "083c6323",
					"getHighestBidder()": "003495a4",
					"getHighestBindingBid()": "3046309f",
					"owner()": "8da5cb5b",
					"start()": "be9a6555",
					"startBlock()": "48cd4cb1"
				}
			},
			"storageLayout": {
				"storage": [
					{
						"astId": 3,
						"contract": "contracts/auction.sol:Auction",
						"label": "owner",
						"offset": 0,
						"slot": "0",
						"type": "t_address_payable"
					},
					{
						"astId": 7,
						"contract": "contracts/auction.sol:Auction",
						"label": "bids",
						"offset": 0,
						"slot": "1",
						"type": "t_mapping(t_address,t_uint256)"
					},
					{
						"astId": 9,
						"contract": "contracts/auction.sol:Auction",
						"label": "open",
						"offset": 0,
						"slot": "2",
						"type": "t_bool"
					},
					{
						"astId": 11,
						"contract": "contracts/auction.sol:Auction",
						"label": "startBlock",
						"offset": 0,
						"slot": "3",
						"type": "t_uint256"
					},
					{
						"astId": 13,
						"contract": "contracts/auction.sol:Auction",
						"label": "endBlock",
						"offset": 0,
						"slot": "4",
						"type": "t_uint256"
					}
				],
				"types": {
					"t_address": {
						"encoding": "inplace",
						"label": "address",
						"numberOfBytes": "20"
					},
					"t_address_payable": {
						"encoding": "inplace",
						"label": "address payable",
						"numberOfBytes": "20"
					},
					"t_bool": {
						"encoding": "inplace",
						"label": "bool",
						"numberOfBytes": "1"
					},
					"t_mapping(t_address,t_uint256)": {
						"encoding": "mapping",
						"key": "t_address",
						"label": "mapping(address => uint256)",
						"numberOfBytes": "32",
						"value": "t_uint256"
					},
					"t_uint256": {
						"encoding": "inplace",
						"label": "uint256",
						"numberOfBytes": "32"
					}
				}
			},
			"userdoc": {
				"kind": "user",
				"methods": {},
				"version": 1
			}
		}
	}
}